:1000000020EF0EF068961200046ED8CF05F0E0CF16
:1000100006F00001E9CF0CF0EACF07F0E1CF08F0DD
:10002000E2CF09F0D9CF0AF0DACF0BF0F3CF12F01C
:10003000F4CF13F0FACF14F0F5CF15F0F6CF16F099
:10004000F7CF17F000C00EF001C00FF002C010F0A3
:1000500003C011F0F2AA30EF00F0F2B4F0EF07F0B5
:10006000F2A636EF00F0F2B0A0EF08F0A0AA3CEF45
:1000700000F0A1BADCEF06F00EC000F00FC001F0F6
:1000800010C002F011C003F00CC0E9FF07C0EAFF86
:10009000078E08C0E1FF09C0E2FF0AC0D9FF0BC00C
:1000A000DAFF12C0F3FF13C0F4FF14C0FAFF15C04B
:1000B000F5FF16C0F6FF17C0F7FF045006C0E0FFBB
:1000C00005C0D8FF1000F76AD60FF66E000EF722B3
:1000D0000900F5501200280C0106F76AEA0FF66EC7
:1000E000000EF7220900F55012000003FFFFFFFF8A
:1000F000FFFFFFFFFFFFFFFFFFFFF76A0A0FF66E2C
:10010000010EF7220900F55012004000080000001F
:1001100000000000000000000000000000000000DF
:1001200000000000000000000000F76A3A0FF66EC1
:10013000010EF7220900F55012000600FF0901A187
:1001400001190129081580257F750895028102197A
:10015000012908750895029102C0F76A6A0FF66EC8
:10016000010EF7220900F55012000000F76A7C0F1B
:10017000F66E010EF7220900F55012002000F76A12
:100180008E0FF66E010EF7220900F55012000902DB
:100190002900010100803209040000020300000070
:1001A0000921000100012220000705810308000A3F
:1001B0000705010308000A00F76AC80FF66E010E72
:1001C000F7220900F55012000100F76ADA0FF66E07
:1001D000010EF7220900F55012001200F76AEC0F29
:1001E000F66E010EF7220900F550120012011001FF
:1001F00000000040610420000001010200016D9236
:10020000699468A402D06894FCD76898E8EF06F077
:10021000400E0401016F040E01012C6F100E2CC161
:1002200003F4E8CF02F4880E0401006F046B040E9F
:10023000076F500E066F0001120070A002D0E8DFB9
:100240007090689AEFEF06F06A6A6892F4EF06F031
:100250000101389137BF3881379F3751100803E2C9
:10026000000E016E1AD038A10DD0036A375100017B
:1002700034DFFF0802E1000E01D0010E016E010122
:100280000CD00BD0036A3751000127DFFF0802E1D1
:10029000000E01D0010E016E010100011200036A7F
:1002A00001013651700FE96E0F0E0320EA6EEF6AFE
:1002B00036C137F10001CCDF01521AE0010136519D
:1002C000080DF350386BE96E040E3825EA6EEF6ABC
:1002D0003651080DF350386B376F040E3727000E78
:1002E000382337C1E9FF040E3825EA6EEF6A0001B2
:1002F0001200010E0101356F35510F0807E335C1BA
:1003000036F10001CCDF0101352BF6D700011200D8
:100310002B6A2A6A01012B6B2B530AE1036A2B51CA
:100320002C0FE96E000E0320EA6EEF6A2B2BF4D738
:10033000216A010E226E206A0001A7EF01F06B6AAC
:10034000696A6A6A686A6E6A706AD3DFE1D7160EF4
:10035000706E68A602D056DEFCD79F0E6B6E3D0E07
:10036000696E6D9855DF030E256EF9EF06F069840E
:1003700069986D82FEEF06F0689C03EF07F031C1CB
:1003800026F012002668120034C101F033C100F0DB
:100390000066012A0900F5CFEEFF002EFBD7012EE3
:1003A000F9D7F86A120001012F6B2A502B104BE08D
:1003B0002F513F0848E32350FC0F33E2040F0001A4
:1003C0002FEF02F029C003F02850D9DEE8CF30F13A
:1003D000010127D029C003F02850A7DEE8CF30F173
:1003E00001011FD0C80E28240101316F7F0E292082
:1003F000326FF86AF76E31C1F6FF010EEA6E300E09
:10040000E96E346B010E336F0001BEDF010109D0CC
:1004100029C003F02850E2DEE8CF30F1010101D01D
:100420000101282AD8B4292A2A50D8B42B062A0632
:100430002F512F2B036A500FE96E040E0320EA6E32
:1004400030C1EFFFB2D72A502B1004E12F514008E2
:1004500001E0206A2FC131F1000191DF1200E82490
:10046000F76AF736790FF66E040EF7220A00F55098
:10047000FA6E0800F550F96EC403D403E4031004C7
:1004800001012E6B296A286A236A04011351010AAB
:10049000000109E0030A0DE0010A0FE0220A44E02E
:1004A000030A5BE076D02B6A120E2A6E030E236ECF
:1004B00072D02B6A290E2A6E6ED0020E236E0101B5
:1004C0002E6B0401125101012E5D1BE2C80E28247F
:1004D0002F6F7F0E2920306FF86A30C1F7FF2FC1D0
:1004E000F6FF010EEA6E310EE96E346B010E336FCA
:1004F00000014ADF010131512826000E29222E2B4E
:10050000E0D7C80E28242F6F7F0E2920306FF86A9D
:10051000F76E2FC1F6FFEA6A2A0EE96E346B010E00
:10052000336F000131DF37D0036A0401125100013B
:100530004CDE036A286E03C029F0283C02D0295201
:100540000AE029C003F028501ADE036A2A6E03C0AD
:100550002BF021D002D016DF2DD0036A04011451F4
:100560000001FBDD036A286E03C029F0283C02D09D
:1005700029520DE0010E236E036A0401145100019B
:10058000F5DD036A2A6E03C02BF005D002D0FADE37
:1005900011D0F8DE0FD00401175308E12B5203E10C
:1005A0002A50165D03E22B6A16C42AF0010E206E53
:1005B0000001F9DE120001012D5306E1040E256E43
:1005C000000197DEC8D00101050E256E040E306FC4
:1005D000900E2F6F010E2E6F2E510F08D8A0BBD09A
:1005E0002EC136F100015BDE0101316B036A2E5131
:1005F000000173DDFF0855E0040E0101316FD89052
:100600002E35036A000179DD0900F5CF03F0010101
:10061000326F03C033F12E51080DF350366B356F36
:10062000010E3525016E000E3621036E01C0E9FF73
:10063000040E0324EA6E32C1EFFF2E51080DF35071
:10064000366B356F020E3525016E000E3621036EB6
:1006500001C0E9FF040E0324EA6E30C1ECFFED5245
:100660002FC1EFFFD8902E35036A000146DD090047
:10067000F5CF03F001012F2703503023880E346F8C
:1006800033A101D0348133A301D034832E51080D1E
:10069000F350366BE96E040E3625EA6E34C1EFFF77
:1006A0000001036A01012E51000117DDFF0838E047
:1006B000010131832E51080DF350366B356F040E56
:1006C0003527000E3623020E3525016E000E362129
:1006D000036E01C0E9FF040E0324EA6E30C1ECFF93
:1006E000ED522FC1EFFFD8902E35036A000105DDD2
:1006F0000900F5CF03F001012F27035030232E51BD
:10070000080DF350366B356F040E3527000E362377
:1007100035C1E9FF040E3625EA6E400EEF6E00018A
:1007200001013151060802E10E0E316F036A2E51AC
:100730000001D3DC010803E0010131890001036AF3
:1007400001012E51700FE96E0F0E0320EA6E31C1C8
:10075000EFFF2E2B41D7000102EF04F004011151ED
:10076000000A00010DE0010A15E0020A21E0060A74
:100770002CE0030A33E00E0A33E0010A39E049D0E5
:1007800022C050F40401516B020E0101316F0001CF
:10079000F6DD40D00401122D08D0010E2216010111
:1007A000316B0001ECDD03D004010001EBDD32D040
:1007B0000401122D07D022820101316B0001DFDD1F
:1007C00003D004010001DEDD25D0020E206E12C42C
:1007D00027F00101316B0001D2DD1CD051DE1AD0AF
:1007E00021C050F4010E0101316F0001C8DD12D0AB
:1007F0000401125101080BE312C421F012C42DF1BF
:100800000001D9D60101316B0001B9DD04010001FD
:1008100001D0B8DD33EF05F021C02DF104011151F5
:10082000000A000107E00A0A0EE0010A2EE00D0AA4
:1008300042E043D00401506B516B020E0101316F55
:1008400000019DDD3BD001012D531CE0010E2D5D0B
:10085000036A0001B1DC016E0401145DD8A002D06E
:10086000010110D0036A14512C0FE96E000E032011
:10087000EA6EEFCF50F4010E0101316F00017FDD10
:1008800003D0010100017EDD19D001012D5310E0DC
:10089000036A040114512C0FE96E000E0320EA6E66
:1008A00012C4EFFF0101316B000169DD03D00101CA
:1008B000000168DD03D0E4DD01D064DD33EF05F035
:1008C00001012E912DBF2E812D9F2EA111D02D51D2
:1008D000080DF350306B2F6F040E2F27000E3023BE
:1008E0002FC1E9FF040E3025EA6E880EEF6E09D0A5
:1008F0002D51080DF350306BE96E040E3025EA6E71
:10090000EF6A036A2D51700F016E0F0E032201C0B2
:10091000E9FF03C0EAFFEF900001F3EF04F00101EB
:100920002E912DBF2E812D9F2EA111D02D51080D5E
:10093000F350306B2F6F040E2F27000E30232FC182
:10094000E9FF040E3025EA6E840EEF6E0AD02D51B9
:10095000080DF350306BE96E040E3025EA6E840EFC
:10096000EF6E0001FBEF04F001012E912DBF2E81EF
:100970002D9F2EA111D02D51080DF350316B306FEA
:10098000040E3027000E312330C1E9FF040E31255B
:10099000EA6EEFCF2FF10AD02D51080DF350316BD5
:1009A000E96E040E3125EA6EEFCF2FF12FAF02D0A2
:1009B0002FB502D0000E01D0010E016E000107EF2D
:1009C00005F014C437F144DC01522EE0040111514A
:1009D000010A000105E0020A0BE0030A11E023D03E
:1009E00014C42DF16DD70101316B0001C8DC1CD09E
:1009F00014C42DF194D70101316B0001C0DC14D077
:100A00000401506B516B14C42DF10001ADD701529C
:100A100004E0010E0401506F0001020E0101316F6C
:100A20000001ADDC01D0AEDC33EF05F00401115163
:100A30000001A8DC33EF05F0206A040110517F0BA0
:100A4000000A000107E0010A07E0030A07E0230AA1
:100A500007E008D083D607D0DFD605D0B2D703D0C1
:100A6000E5D701D08FDC7CEF06F001012D51080D98
:100A7000F350336BE96E040E3325EA6EEFCF2FF19E
:100A80002E51020806E12FAD02D02E6B02D0010ECE
:100A90002E6F2E51030813E1840E2F6F2D51080D78
:100AA000F350336B326F040E3227000E332332C102
:100AB000E9FF040E3325EA6E840EEF6E07D02E2D6B
:100AC00003D0C80E2F6F02D0880E2F6FD8902D350F
:100AD000036A00017DEC00F00900F5CF03F001018D
:100AE000306F03C031F12D51080DF350336B326F6D
:100AF000010E3225016E000E3321036E01C0E9FFA5
:100B0000040E0324EA6E30C1EFFF31A101D02F8122
:100B100031A301D02F832D51080DF350336BE96EB3
:100B2000040E3325EA6E2FC1EFFF00011200036AA5
:100B300001013251700FE96E0F0E0320EA6EEF5281
:100B400012E03251080DF350346B336F040E33272B
:100B5000000E342333C1E9FF040E3425EA6EEFCFD3
:100B600035F135AF02D0000E01D0010E016E00014B
:100B7000BDEF05F02DC132F1DAD70152D8B470D0F3
:100B800001012D51080DF350336B326F040E3227E3
:100B9000000E3323010E3225016E000E3321036E49
:100BA00001C0E9FF040E0324EA6E2EC1EFFF3051AD
:100BB000020817E12D51080DF350336B326F040E0C
:100BC0003227000E332332C1E9FF040E3325EA6ECB
:100BD000EFCF31F131AD02D0306B02D0010E306F6A
:100BE00013D03051040810E12D51080DF350336B30
:100BF000E96E040E3325EA6EEFCF31F131AD03D04B
:100C0000010E306F01D0306B302D03D0480E316FA4
:100C100002D0080E316F2D51080DF350336B326F37
:100C2000040E3227000E332332C1E9FF040E3325B0
:100C3000EA6E31C1EFFF2D51080DF350336B326F67
:100C4000040E3227000E332332C1E9FF040E332590
:100C5000EA6EEF508009EF6E010E016E04D00001C4
:100C6000000E016E01010001120001012D5300E18F
:100C7000000112002EC16EFF01012E5303E0040E8D
:100C8000256E02D0020E256E00014CEF06F0216A9F
:100C9000206A27C02EF1EED75DEF06F001012D533B
:100CA0000DE1202C05D00001D3EC01F006D00101AC
:100CB0002050020803E10001EAD7010100011200FF
:100CC000243001012B6F2B332B331F0E2B17245293
:100CD0004EE1040100513C0B01012C6F430E040155
:100CE000001701012C51340825E104010451800B47
:100CF00001E0046B0001A0D66D98263C07D00101ED
:100D00002D6B030E2E6F0001B0DE12D001012D6B92
:100D1000020E2E6F0001A9DE2650FE0809E0010137
:100D20002D6B2F6B26C02EF1040E306F000122DFD9
:100D30001CD001012C51040819E12D6B000195DF35
:100D400001012D6B020E2E6F00018FDE2650FE0872
:100D50000CE0263C01D009D001012D6B2F6B26C081
:100D60002EF1010E306F000105DF010122D0245069
:100D7000040812E126682D6B000190DF263C01D0AB
:100D800009D001012D6B2F6B26C02EF1020E306FA2
:100D90000001F0DE0DD0010124B406D02BC12DF1ED
:100DA000000163DF05D001012BC12DF1000176DFC9
:100DB000010100010FEF07F0A19A2552D8B439D0F4
:100DC0006852D8B436D068A403D069B4FFEF00F0FD
:100DD0006DB22FD068AA03D069BA1DEF01F068A2E6
:100DE00003D069B224EF01F068A003D069B09FEF8F
:100DF00001F068A803D069B8B7EF01F068AC03D080
:100E000069BCBCEF01F001012A6B68A60AD069A693
:100E100008D06CCF24F0000102EC00F051D703D0D1
:100E2000010106D0000101012A512A2B0308EDE23D
:100E300000013CEF00F06D656E75206163746976AA
:100E4000617465640A000C000C004D454E5520503D
:100E500052494E434950414C0000312D4C415641BE
:100E60005200322D434542415200332D41474954EF
:100E7000415200000C004D454E55204C4156415208
:100E80000000312D53656C656320506172616D65A2
:100E900074726F730000322D4C61766172000C0029
:100EA0004D454E552043454241520000312D4D2FB6
:100EB00063656261646F3A00322D542F636562612D
:100EC000646F3A00332D43656261723A00000C0092
:100ED0004D454E552041474954415200312D496EF0
:100EE00074656E73696461643A00322D542F6167D2
:100EF00069746163696F6E3A0000332D41676974EC
:100F0000617200000C004D454E552050524F475223
:100F1000414D41520000312D437265617200322D06
:100F20004564697461720000332D426F72726172A0
:100F300000000C00462F6C617661646F3A00542FFC
:100F4000656E6A75616775653A0043616E742F63FB
:100F500069636C6F733A00004C6176616E646F2E4A
:100F60002E2E0000542F4C617661646F3A000C0005
:100F7000312D4E6F6D6272652F50726F6772616DA9
:100F80006100322D466F726D61746F2F4C61766116
:100F9000646F0000332D566F6C756D656E2F44695C
:100FA0007370656E73617200342D5469656D702FB6
:100FB000456E6A75616775650000352D43616E7415
:100FC0002F4369636C6F7300362D5469706F2F4126
:100FD00073706972616369F36E3A0000736567004C
:100FE000362A3650EF0802E1342A366A34503C087B
:100FF00002E1352A346AFE0ED76E0C0ED66EF294DC
:101000003CEF00F0010EEA6E2A0EE96EEF500EE0A2
:10101000010E016E006A002EFED7012EFBD74A0E8C
:10102000006E002EFED700D0EF2EF2D71200819076
:101030008182818481868150EE0804E1310E0101B4
:101040002A6F00018150DE0804E1340E01012A6F8D
:1010500000018150BE0804E1370E01012A6F000132
:1010600081507E0804E12A0E01012A6F000181806F
:101070008192818481868150ED0804E1320E010164
:101080002A6F00018150DD0804E1350E01012A6F4D
:1010900000018150BD0804E1380E01012A6F0001F2
:1010A00081507D0804E1300E01012A6F000181802A
:1010B0008182819481868150EB0804E1330E010125
:1010C0002A6F00018150DB0804E1360E01012A6F0E
:1010D00000018150BB0804E1390E01012A6F0001B3
:1010E00081507B0804E1230E01012A6F00018180F9
:1010F0008182818481968150E70804E1410E0101DB
:101100002A6F00018150D70804E1420E01012A6FC5
:1011100000018150B70804E1430E01012A6F00016C
:101120008150770804E1440E01012A6F0001819685
:1011300081948192819001012AC101F00001120085
:101140000F0E01012A6F00015DDF81A806D081AA80
:1011500004D081AC02D081BE07D069DF01C033F07A
:101160008196819481928190F2903CEF00F03C5501
:101170004D454C4953413E003C4D6963454C4953F4
:10118000413E00003C554D454C4953413E003C4DCD
:101190006963454C4953413E00003C554D454C491F
:1011A00053413E003C4D6963454C4953413E00006C
:1011B000256453656720000043415247414E444F28
:1011C0002053495354454D4100002E000C00424924
:1011D000454E56454E49444F2E2E2E004D572D322A
:1011E0003030310056657273696F6E2042657461EC
:1011F00000000C00080E016E00008B9C949C000007
:10120000010129378B9ED8B0948ED8A0949E948CDF
:1012100082ACFED7012E01D002D00001EDD7000034
:101220008B9C949C0000948E00000000948C82ACF7
:10123000FED7016A000082BE01808B9C949C8B9E2D
:10124000949E0001120001012751000A000103E0F1
:10125000010A27E04DD001012639006EF00E00167C
:1012600000501E10286F296F0001C4DF000001012B
:101270002639006EF00E0016005004091E10286F6B
:10128000296F0001B7DF00D001012639006EF00E92
:1012900000160050FB0B1E10286F296F0001AADFFB
:1012A00027D001012639006EF00E0016005001090A
:1012B0001E10286F296F00019DDF000001012639F3
:1012C000006EF00E00160050010904091E10286F70
:1012D000296F00018FDF00D001012639006EF00E6A
:1012E0000016005001091E10286F296F000182DFCF
:1012F0001200948E0000948C00008B9E949E00003F
:101300008B9C949C1AC029F175DF01012339256F4C
:101310000F0E251725C126F124C127F1000193DF07
:10132000010123510F0B256F266F24C127F1000106
:101330008ADF949E0000948C82ACFED7000000D01F
:101340000000948E00001200010E0101236F246B37
:101350000001CFDF196AF2BE198EF29E020E010162
:101360002A6F00014FDE19BEF28E010E1D6E1200B3
:101370000BC11AF00DC11BF00CC11CF0F29CF29EC7
:10138000F2BEFDD7196AF2BE198EF29E320E01012D
:101390002A6F000137DE19BEF28E948E0000948C05
:1013A00000008B9E949E00008B9C949C1AC029F197
:1013B00021DF0101266B276B000145DF196AF2BEB0
:1013C000198EF29E0F0E01012A6F00011BDE19BE5D
:1013D000F28E010E01010E6F0E51030813E3030E8E
:1013E000266F276B00012FDF196AF2BE198EF29E5D
:1013F000050E01012A6F000105DE19BEF28E010102
:101400000E2BEAD7020E266F276B00011CDF196A2C
:10141000F2BE198EF29E050E01012A6F0001F2DD67
:1014200019BEF28E949E0000948C82ACFED7000010
:1014300000D00000948E000001010E6B0E510308D5
:1014400019E3036A0E51000163EC00F001010F6F14
:10145000236F246B00014DDF196AF2BE198EF29ED4
:10146000050E01012A6F0001CDDD19BEF28E0101CA
:101470000E2BE4D7000168DFC00EF21288EF0EF0E9
:1014800001010B5303E0080E1E6E01D01E6A00011D
:101490008EEF0EF001011D511B5C03E21BC01EF11B
:1014A00002D01DC11EF11E51010A000107E0030A0E
:1014B00008E0010A0AE0070A0CE00FD00101206BE6
:1014C0000ED0400E0101206F0AD0140E0101206FD2
:1014D00006D0540E0101206F02D00101206B1C5177
:1014E0001C5C03E21CC01FF102D01CC11FF1010EE5
:1014F0001F5D2025216F21518009226F236F246BEE
:101500000001F7DE120001011B510C0A000105E089
:10151000060A05E0020A11E017D016DF1CD01D2ACA
:101520001D501B5C02E2010E1D6E010E01011C6FBD
:101530001DC01DF10001AEDF0ED0100E0101236FA2
:10154000246B0001D6DE07D01BC123F1010E01017F
:10155000246F0001CEDE12000900F5520CE0F6CF38
:1015600014F1F7CF15F1F5CF1BF1CDDF14C1F6FF64
:1015700015C1F7FFF1D712000E0E01010B25E96E20
:10158000000E0C21EA6EEF6A0C0E0B25E96E000EC0
:101590000C21EA6EEC6AED52EF6A110E0B25E96E32
:1015A000000E0C21EA6EEF6A0F0E0B25E96E000E9D
:1015B0000C21EA6EEC6AED52EF6A0BC1E9FF0CC137
:1015C000EAFF0EC1ECFFED520DC1EFFF000112006A
:1015D0000E0E01010B25E96E000E0C21EA6EEF5094
:1015E0006308D8A02ED00E0E0B25E96E000E0C213C
:1015F000EA6E036AEFCF02F0D8900236033602504B
:10160000020F016E000E032201500B25E96E0C51F2
:101610000320EA6E0EC1ECFFED520DC1EFFF0E0E7E
:101620000B25E96E000E0C21EA6EEF2A0C0E0D253B
:10163000E96E000E0E21EA6E0CC1ECFFED520BC1FB
:10164000EFFF00011200EF520FE0EACF17F1E9CFF0
:1016500016F1EFCF1BF157DF17C1EAFF16C1E9FF03
:10166000E92AD8B4EA2AEFD7120001011C51016A15
:101670001B5D03E21BC100F00CD0006A080E1D6F59
:101680001B3700361C51005CD8B0006E01361D2F90
:10169000F7D700011200200E010116A9300E176FB6
:1016A00015C100F000AE08D0001E002A00C015F1E0
:1016B0002D0E176F168F1681015015C11BF1640E88
:1016C0001C6F0001D2DF00C015F1300E01240101B2
:1016D000186F15C11BF10A0E1C6F0001C6DF300E1A
:1016E000002401011A6F300E0124196F17C100F098
:1016F000300E185D04E0168316BF168512D017C190
:1017000018F1200E176F300E195D04E0168116BF18
:10171000168307D0D8A4168104E118C119F1200E50
:10172000186F16B505D016B307D016B109D00CD076
:1017300017C11BF10001E7DE18C11BF10001E3DE58
:1017400019C11BF10001DFDE1AC11BF10001DBDE54
:10175000F9EF0BF0460EF66E0E0EF76EFDDE030E81
:1017600001011C6F010E1D6F000194DE01010FC10C
:10177000E9FF10C1EAFFECCF15F1ED52EFCF14F104
:1017800015C1EAFF14C1E9FF00015DDF0101116B22
:101790000E0E0F25E96E000E1021EA6EEF50115D5E
:1017A00054E2036A11C102F0D890023603360250A7
:1017B000020F016E000E032201500F25E96E105139
:1017C0000320EA6EECCF13F1ED52EFCF12F1020ECF
:1017D0001125146F020E1C6F14C11DF100015ADE99
:1017E000010E01011125146F156F180E166F0001FF
:1017F00052D7020E01011125146F030E1C6F14C184
:101800001DF1000147DE2D0E01011B6F00017BDE83
:10181000020E01011125146F040E1C6F14C11DF17D
:10182000000138DE010112C1E9FF13C1EAFFECCF6C
:1018300015F1ED52EFCF14F115C1EAFF14C1E9FF24
:10184000000101DF0101112BA3D7110E0F25E96E55
:10185000000E1021EA6EEF5215E0110E0F25E96E11
:10186000000E1021EA6E010EEF24146F010E1C6FA2
:1018700014C11DF100010EDE2A0E01011B6F0001D3
:1018800042DE0101000108EF0EF0196AF2BE198E66
:10189000F29E17EC08F019BEF28E01C014F101019E
:1018A0001453D8A402D00001F0D714C101F00001F4
:1018B0004DEF0DF0006A016A01011B51D8901CB177
:1018C0000026003201321CB30026003201321CB562
:1018D0000026003201321CB70026003201321CB94A
:1018E0000026003201321CBB0026003201321CBD32
:1018F0000026003201321CBF0026003201320001F6
:10190000EAEF0CF00101196B176B0A0E186F166BDA
:101910001451151103E1000E016EBBD01951192BA2
:101920001425E96E000E1521EA6EEFCF1AF11A5157
:101930002D080CE1010E176F1951192B1425E96EB2
:10194000000E1521EA6EEFCF1AF10CD01A512B08B8
:1019500009E11951192B1425E96E000E1521EA6EC3
:10196000EFCF1AF11A512F08D8B08BD01A5139087D
:10197000D8A087D01A5130081EE119511425E96EFC
:10198000000E1521EA6EEF50780809E01951142570
:10199000E96E000E1521EA6EEF5058080CE1100EAA
:1019A000186F192B1951192B1425E96E000E1521EA
:1019B000EA6EEFCF1AF118510A081CE11A512F08EC
:1019C00018E21A51390815E30A0E1B6F16C11CF1F3
:1019D000000170D7300E01011A5D0124166F1951F4
:1019E000192B1425E96E000E1521EA6EEFCF1AF1BE
:1019F000E5D747D01851100844E11A51600806E2B3
:101A00001A517A0803E31A51DF0B01D01A511A6FE9
:101A10001A512F0803E21A51390806E21A514008F8
:101A200030E21A5146082DE31A512F080CE21A51E0
:101A3000390809E316391B6FF00E1B17300E1A5DBB
:101A40001B25166F09D016391B6FF00E1B17410EA0
:101A50001A5D0A0F1B25166F1951192B1425E96EF3
:101A6000000E1521EA6EEFCF1AF11A51600806E256
:101A70001A517A0803E31A51DF0B01D01A511A6F79
:101A8000C7D7172D04D018510A0801E1166D16C1E9
:101A900001F0000159EF0DF0F8D601C033F033C06A
:101AA00011F10101126B010E156F110E146F00017F
:101AB00029D701C013F10101135322E00E0E0F25A7
:101AC000E96E000E1021EA6E1351EF5C19E3010E6E
:101AD000135D036A026ED890023603360250020F7D
:101AE000016E000E032201500F25E96E10510320F4
:101AF000EA6EEFCF01F0EE52EDCF02F07DD078D05C
:101B000033502A081CE10C0E0F25E96E000E10213F
:101B1000EA6EECCF15F1ED52EFCF14F1145302E160
:101B200015530DE00C0E0F25E96E000E1021EA6E24
:101B3000EFCF01F0EE52EDCF02F05ED059D033502E
:101B4000410811E1110E0F25E96E000E1021EA6E19
:101B5000EF50010808E2110E0F25E96E000E10216A
:101B6000EA6EEF0645D03350420819E1110E0F25F9
:101B7000E96E000E1021EA6EEFCF14F10E0E0F2564
:101B8000E96E000E1021EA6EEF50145D08E2110EAE
:101B90000F25E96E000E1021EA6EEF2A29D033508E
:101BA000230826E1110E0F25E96E000E1021EA6EC2
:101BB000EF521EE0110E0F25E96E000E1021EA6EA5
:101BC000010EEF5C036A026ED890023603360250B3
:101BD000020F016E000E032201500F25E96E105115
:101BE0000320EA6EEFCF01F0EE52EDCF02F004D009
:101BF0000FC101F010C102F0000119EF0EF00CC18D
:101C00000EF10BC10DF10EC110F10DC10FF1A2D5F6
:101C1000196AF2BE198EF29E0A0E01012A6F0001A6
:101C200002EC08F019BEF28E0EC110F10DC10FF1D9
:101C300033D702C00EF101C00DF1E5D784EF0FF0EC
:101C4000F86AD09E078E010E1D6E080E1E6E346A55
:101C5000356A010E366E376E386E396A3A6A3B6AFB
:101C60003C6A3D6A796B786BC150C00B0F09C16E3D
:101C7000070EB46E24D001001F0002002D00003AB0
:101C8000003E4D61696E204D656E75005761736849
:101C9000005368616B65005072696D6500496E6E36
:101CA000657220576173680053656C6563742050DA
:101CB0006172616D73005731005732000000000EF1
:101CC000F86E1C0EF76E760EF66E0900F550006E7B
:101CD000000A13E00900F550016EE8BE05D03F0B85
:101CE000EA6E0900F5CFE9FF01BC090001AC09006B
:101CF000F5CFEEFF004EE9D7F9D7F86A4E0E010195
:101D00000B6F140E0C6F040E0D6F0001B8EF09F08D
:101D1000010E01010B6F000140EF0AF0F00E936E0F
:101D20008196819481928190F19EF286C00EF2128A
:101D3000030E01011C6F020E1D6F00014AEC0AF038
:101D4000B80EF66E110EF76E07DC030E7A6F7A513D
:101D5000120810E37AC01CF1030E01011D6F00018F
:101D60004AEC0AF0CA0EF66E110EF76EACEC0AF0F1
:101D70007A2BEDD7CC0EF66E110EF76EACEC0AF0A6
:101D8000CE0EF66E110EF76EACEC0AF0010E0101EC
:101D90001C6F020E1D6F00014AEC0AF0DC0EF66E9D
:101DA000110EF76EACEC0AF0010E01011C6F030E70
:101DB0001D6F00014AEC0AF0E40EF66E110EF76E8C
:101DC000ACEC0AF0F20EF66E110EF76EACEC0AF007
:101DD00001010C6B7B0E0B6F0E6B3E0E0D6F000145
:101DE000BCEC0AF001010C6B8D0E0B6F0E6B480EF4
:101DF0000D6F0001BCEC0AF001010C6B9F0E0B6F24
:101E00000E6B530E0D6F0001BCEC0AF001010C6B60
:101E1000B10E0B6F0E6B4D0E0D6F0001BCEC0AF096
:101E200001010C6BC30E0B6F0E6B590E0D6F000191
:101E3000BCEC0AF001010C6BD50E0B6F0E6B640E3F
:101E40000D6F0001BCEC0AF001010C6BE70E0B6F8B
:101E50000E6B720E0D6F0001BCEC0AF001010C6BF1
:101E6000F90E0B6F0E6B750E0D6F0001BCEC0AF0D6
:101E700001010C6B7B0E0B6F0E6B8D0E0D6F000155
:101E8000E8EC0AF001010C6B7B0E0B6F0E6B9F0EE2
:101E90000D6F0001E8EC0AF001010C6B7B0E0B6F7B
:101EA0000E6BB10E0D6F0001E8EC0AF001010C6B36
:101EB0008D0E0B6F0E6BC30E0D6F0001E8EC0AF078
:101EC00001010C6B8D0E0B6F0E6BD50E0D6F0001AB
:101ED000E8EC0AF001010C6BC30E0B6F0E6BE70E02
:101EE0000D6F0001E8EC0AF001010C6BC30E0B6FE3
:101EF0000E6BF90E0D6F0001E8EC0AF001010C6B9E
:0A1F00007B0E0B6F00017BD603007F
:087FC80004030904080343004F
:107FD000430053001A0343004300530020004800AD
:107FE000490044002000440065006D006F0012034A
:107FF00031003200330034003500360037003800DD
:020000040030CA
:0E0000003FCC271E0087A1000FC00FE00F406D
:00000001FF
;PIC18F4550
;CRC=3D72  CREATED="26-Oct-22 13:44"
