:10000000EDEF19F068961200046ED8CF05F0E0CF3E
:1000100006F00001E9CF0CF0EACF07F0E1CF08F0DD
:10002000E2CF09F0D9CF0AF0DACF0BF0F3CF12F01C
:10003000F4CF13F0FACF14F0F5CF15F0F6CF16F099
:10004000F7CF17F000C00EF001C00FF002C010F0A3
:1000500003C011F0F2AA30EF00F0F2B433EF07F072
:10006000F2A636EF00F0F2B0E3EF07F0A0AA3CEF03
:1000700000F0A1BAE3EF06F00EC000F00FC001F0EF
:1000800010C002F011C003F00CC0E9FF07C0EAFF86
:10009000078E08C0E1FF09C0E2FF0AC0D9FF0BC00C
:1000A000DAFF12C0F3FF13C0F4FF14C0FAFF15C04B
:1000B000F5FF16C0F6FF17C0F7FF045006C0E0FFBB
:1000C00005C0D8FF1000F76AD60FF66E000EF722B3
:1000D0000900F5501200280C0106F76AEA0FF66EC7
:1000E000000EF7220900F55012000003FFFFFFFF8A
:1000F000FFFFFFFFFFFFFFFFFFFFF76A0A0FF66E2C
:10010000010EF7220900F55012004000080000001F
:1001100000000000000000000000000000000000DF
:1001200000000000000000000000F76A3A0FF66EC1
:10013000010EF7220900F55012000600FF0901A187
:1001400001190129081580257F750895028102197A
:10015000012908750895029102C0F76A6A0FF66EC8
:10016000010EF7220900F55012000000F76A7C0F1B
:10017000F66E010EF7220900F55012002000F76A12
:100180008E0FF66E010EF7220900F55012000902DB
:100190002900010100803209040000020300000070
:1001A0000921000100012220000705810308000A3F
:1001B0000705010308000A00F76AC80FF66E010E72
:1001C000F7220900F55012000100F76ADA0FF66E07
:1001D000010EF7220900F55012001200F76AEC0F29
:1001E000F66E010EF7220900F550120012011001FF
:1001F00000000040610420000001010200016D9236
:10020000699468A402D06894FCD76898EFEF06F070
:10021000400E0401016F040E0301F46F100EF4C3CD
:1002200003F4E8CF02F4880E0401006F046B040E9F
:10023000076F500E066F0001120070A002D0E8DFB9
:100240007090689AF6EF06F06A6A6892FBEF06F023
:100250000401A391A2BFA381A29FA251100803E2AF
:10026000000E016E1AD0A3A10DD0036AA2510001A5
:1002700034DFFF0802E1000E01D0010E016E04011F
:100280000CD00BD0036AA251000127DFFF0802E166
:10029000000E01D0010E016E040100011200036A7C
:1002A0000401A151700FE96E0F0E0320EA6EEF6A90
:1002B000A1C4A2F40001CCDF01521AE00401A15153
:1002C000080DF350A36BE96E040EA325EA6EEF6AE6
:1002D000A151080DF350A36BA26F040EA227000ECC
:1002E000A323A2C4E9FF040EA325EA6EEF6A00016E
:1002F0001200010E0401A06FA0510F0807E3A0C473
:10030000A1F40001CCDF0401A02BF6D700011200FC
:100310004B6A4A6A0301F36BF3530AE1036AF35130
:100320004C0FE96E000E0320EA6EEF6AF32BF4D750
:10033000416A010E426E406A000112006B6A696AEE
:100340006A6A686A6E6A706AD4DFE2DF160E706EDF
:1003500068A602D057DEFCD79F0E6B6E3D0E696E0D
:100360006D9856DF030E456E00EF07F069846998BB
:100370006D8205EF07F0689C0AEF07F0F9C346F0BD
:10038000120046681200FCC301F0FBC300F00066D7
:10039000012A0900F5CFEEFF002EFBD7012EF9D779
:1003A000F86A12000301F76B4A504B104BE0F7510B
:1003B0003F0848E34350FC0F33E2040F00012EEFE7
:1003C00002F049C003F04850DADEE8CFF8F3030149
:1003D00027D049C003F04850A8DEE8CFF8F3030166
:1003E0001FD0C80E48240301F96F7F0E4920FA6F11
:1003F000F86AF76EF9C3F6FF030EEA6EF80EE96EBF
:10040000FC6B010EFB6F0001BEDF030109D049C088
:1004100003F04850E3DEE8CFF8F3030101D0030115
:10042000482AD8B4492A4A50D8B44B064A06F7514C
:10043000F72B036A500FE96E040E0320EA6EF8C32F
:10044000EFFFB2D74A504B1004E1F751400801E0EA
:10045000406AF7C3F9F3000191DF1200E824F76A5C
:10046000F736770FF66E040EF7220A00F550FA6E93
:100470000800F550F96EC203D203E2030E04030133
:10048000F66B496A486A436A04011351010A000184
:1004900009E0030A0DE0010A0FE0220A44E0030A22
:1004A0005BE076D04B6A120E4A6E030E436E72D03A
:1004B0004B6A290E4A6E6ED0020E436E0301F66B34
:1004C000040112510301F65D1BE2C80E4824F76FC8
:1004D0007F0E4920F86FF86AF8C3F7FFF7C3F6FFFD
:1004E000030EEA6EF90EE96EFC6B010EFB6F000164
:1004F0004ADF0301F9514826000E4922F62BE0D7C6
:10050000C80E4824F76F7F0E4920F86FF86AF76E1F
:10051000F7C3F6FFEA6A4A0EE96EFC6B010EFB6F49
:10052000000131DF37D0036A0401125100014DDEB2
:10053000036A486E03C049F0483C02D049520AE0C1
:1005400049C003F048501BDE036A4A6E03C04BF0FB
:1005500021D002D016DF2DD0036A0401145100010E
:10056000FCDD036A486E03C049F0483C02D04952A2
:100570000DE0010E436E036A040114510001F6DD23
:10058000036A4A6E03C04BF005D002D0FADE11D0E8
:10059000F8DE0FD00401175308E14B5203E14A5033
:1005A000165D03E24B6A16C44AF0010E406E00016C
:1005B000F9DE12000301F55306E1040E456E000159
:1005C00098DED0D00301050E456E040EF86F900E34
:1005D000F76F010EF66FF6510F08D8A0C3D0F6C31F
:1005E000A1F400015CDE0301F96B036AF65100011E
:1005F00074DDFF085AE0040E0301F96FD890F63558
:10060000036A00017ADD0900F5CF03F00301FA6FF8
:1006100003C0FBF3F651080DF3500401A16BA06F6A
:10062000010EA025016E000EA121036E01C0E9FF9D
:10063000040E0324EA6EFAC3EFFF0301F651080D1E
:10064000F3500401A16BA06F020EA025016E000EF5
:10065000A121036E01C0E9FF040E0324EA6EF8C372
:10066000ECFFED52F7C3EFFFD8900301F635036AB4
:10067000000143DD0900F5CF03F00301F727035024
:10068000F823880EFC6FFBA101D0FC81FBA301D0F5
:10069000FC83F651080DF3500401A16BE96E040EC2
:1006A000A125EA6EFCC3EFFF0001036A0301F651C6
:1006B000000113DDFF083BE00301F983F651080D4B
:1006C000F3500401A16BA06F040EA027000EA1231C
:1006D000020EA025016E000EA121036E01C0E9FFEC
:1006E000040E0324EA6EF8C3ECFFED52F7C3EFFFEC
:1006F000D8900301F635036A0001FFDC0900F5CF4D
:1007000003F00301F7270350F823F651080DF350C7
:100710000401A16BA06F040EA027000EA123A0C4AA
:10072000E9FF040EA125EA6E400EEF6E0001030101
:10073000F951060802E10E0EF96F036AF651000145
:10074000CCDC010803E00301F9890001036A03011D
:10075000F651700FE96E0F0E0320EA6EF9C3EFFF3A
:10076000F62B39D7000109EF04F004011151000AFA
:1007700000010DE0010A15E0020A21E0060A2CE062
:10078000030A33E00E0A33E0010A39E049D042C0DF
:1007900050F40401516B020E0301F96F0001EEDD0C
:1007A00040D00401122D08D0010E42160301F96B4E
:1007B0000001E4DD03D004010001E3DD32D00401D7
:1007C000122D07D042820301F96B0001D7DD03D05F
:1007D00004010001D6DD25D0020E406E12C447F0A0
:1007E0000301F96B0001CADD1CD049DE1AD041C0FB
:1007F00050F4010E0301F96F0001C0DD12D00401B5
:10080000125101080BE312C441F012C4F5F30001C8
:10081000D1D60301F96B0001B1DD0401000101D063
:10082000B0DD3AEF05F041C0F5F304011151000AC3
:10083000000107E00A0A0EE0010A2EE00D0A42E07C
:1008400043D00401506B516B020E0301F96F00019C
:1008500095DD3BD00301F5531CE0010EF55D036A05
:100860000001AADC016E0401145DD8A002D00301CE
:1008700010D0036A14514C0FE96E000E0320EA6E8B
:10088000EFCF50F4010E0301F96F000177DD03D0C3
:100890000301000176DD19D00301F55310E0036A6E
:1008A000040114514C0FE96E000E0320EA6E12C4CD
:1008B000EFFF0301F96B000161DD03D003010001CB
:1008C00060DD03D0DCDD01D05CDD3AEF05F0030133
:1008D000F691F5BFF681F59FF6A111D0F551080DFF
:1008E000F350F86BF76F040EF727000EF823F7C3E9
:1008F000E9FF040EF825EA6E880EEF6E09D0F55177
:10090000080DF350F86BE96E040EF825EA6EEF6AF5
:10091000036AF551700F016E0F0E032201C0E9FF4B
:1009200003C0EAFFEF900001FAEF04F00301F69133
:10093000F5BFF681F59FF6A111D0F551080DF350E2
:10094000F86BF76F040EF727000EF823F7C3E9FFE3
:10095000040EF825EA6E840EEF6E0AD0F551080DEC
:10096000F350F86BE96E040EF825EA6E840EEF6E14
:10097000000102EF05F00301F691F5BFF681F59F46
:10098000F6A111D0F551080DF350F96BF86F040E74
:10099000F827000EF923F8C3E9FF040EF925EA6EE3
:1009A000EFCFF7F30AD0F551080DF350F96BE96E6C
:1009B000040EF925EA6EEFCFF7F3F7AF02D0F7B5E3
:1009C00002D0000E01D0010E016E00010EEF05F005
:1009D00014C4A2F43DDC01522EE004011151010ABD
:1009E000000105E0020A0BE0030A11E023D014C461
:1009F000F5F36DD70301F96B0001C0DC1CD014C402
:100A0000F5F394D70301F96B0001B8DC14D00401AD
:100A1000506B516B14C4F5F30001ADD7015204E0E3
:100A2000010E0401506F0001020E0301F96F000175
:100A3000A5DC01D0A6DC3AEF05F00401115100015C
:100A4000A0DC3AEF05F0406A040110517F0B000A68
:100A5000000107E0010A07E0030A07E0230A07E0B4
:100A600008D083D607D0DFD605D0B2D703D0E5D7DC
:100A700001D087DC83EF06F00301F551080DF35038
:100A8000FB6BE96E040EFB25EA6EEFCFF7F3F65130
:100A9000020806E1F7AD02D0F66B02D0010EF66F48
:100AA000F651030813E1840EF76FF551080DF3506A
:100AB000FB6BFA6F040EFA27000EFB23FAC3E9FF63
:100AC000040EFB25EA6E840EEF6E07D0F62D03D0E0
:100AD000C80EF76F02D0880EF76FD890F535036A0D
:100AE00000017DEC00F00900F5CF03F00301F86F81
:100AF00003C0F9F3F551080DF350FB6BFA6F010ECB
:100B0000FA25016E000EFB21036E01C0E9FF040E01
:100B10000324EA6EF8C3EFFFF9A101D0F781F9A32E
:100B200001D0F783F551080DF350FB6BE96E040E0D
:100B3000FB25EA6EF7C3EFFF00011200036A030111
:100B4000FA51700FE96E0F0E0320EA6EEF5212E0B9
:100B5000FA51080DF350FC6BFB6F040EFB27000EDF
:100B6000FC23FBC3E9FF040EFC25EA6EEFCFFDF387
:100B7000FDAF02D0000E01D0010E016E0001C4EFE6
:100B800005F0F5C3FAF3DAD70152D8B470D00301F7
:100B9000F551080DF350FB6BFA6F040EFA27000EA7
:100BA000FB23010EFA25016E000EFB21036E01C02E
:100BB000E9FF040E0324EA6EF6C3EFFFF8510208C2
:100BC00017E1F551080DF350FB6BFA6F040EFA278D
:100BD000000EFB23FAC3E9FF040EFB25EA6EEFCFFC
:100BE000F9F3F9AD02D0F86B02D0010EF86F13D013
:100BF000F851040810E1F551080DF350FB6BE96E54
:100C0000040EFB25EA6EEFCFF9F3F9AD03D0010E28
:100C1000F86F01D0F86BF82D03D0480EF96F02D0B1
:100C2000080EF96FF551080DF350FB6BFA6F040EC7
:100C3000FA27000EFB23FAC3E9FF040EFB25EA6E38
:100C4000F9C3EFFFF551080DF350FB6BFA6F040E7B
:100C5000FA27000EFB23FAC3E9FF040EFB25EA6E18
:100C6000EF508009EF6E010E016E04D00001000EFE
:100C7000016E0301000112000301F55300E10001C0
:100C80001200F6C36EFF0301F65303E0040E456E37
:100C900002D0020E456E000153EF06F0416A406A31
:100CA00047C0F6F3EED764EF06F00301F5530DE10C
:100CB000402C05D00001D2EC01F006D003014050D9
:100CC000020803E10001EAD70301000112004430E9
:100CD0000301F36FF333F3331F0EF31744524EE166
:100CE000040100513C0B0301F46F430E0401001793
:100CF0000301F451340825E104010451800B01E0A3
:100D0000046B0001A0D66D98463C07D00301F56B3B
:100D1000030EF66F0001B0DE12D00301F56B020E78
:100D2000F66F0001A9DE4650FE0809E00301F56BED
:100D3000F76B46C0F6F3040EF86F000122DF1CD0FB
:100D40000301F451040819E1F56B000195DF03017B
:100D5000F56B020EF66F00018FDE4650FE080CE0C8
:100D6000463C01D009D00301F56BF76B46C0F6F3A2
:100D7000010EF86F000105DF030122D04450040882
:100D800012E14668F56B000190DF463C01D009D0C6
:100D90000301F56BF76B46C0F6F3020EF86F000126
:100DA000F0DE0DD0030144B406D0F3C3F5F3000127
:100DB00063DF05D00301F3C3F5F3000176DF030120
:100DC000000116EF07F0A19A4552D8B439D0685205
:100DD000D8B436D068A403D069B4FFEF00F06DB288
:100DE0002FD068AA03D069BA1DEF01F068A203D022
:100DF00069B224EF01F068A003D069B09EEF01F062
:100E000068A803D069B8B6EF01F068AC03D069BC3C
:100E1000BBEF01F00301F26B68A60AD069A608D007
:100E20006CCF44F0000102EC00F051D703D0030175
:100E300006D000010301F251F22B0308EDE200019C
:100E40003CEF00F0ECCFFAFFED52EFCFE8FFF96E88
:100E500012006D656E7520616374697661746564F6
:100E60000A0073656700562A5650EF0802E1542ABB
:100E7000566A54503C0802E1552A546AFE0ED76E59
:100E80000C0ED66EF2943CEF00F0030EEA6EF20EFA
:100E9000E96EEF500EE0010E016E006A002EFED7E3
:100EA000012EFBD74A0E006E002EFED700D0EF2E8B
:100EB000F2D7120081908182818481868150EE0870
:100EC00004E1310E0301F26F00018150DE0804E1FC
:100ED000340E0301F26F00018150BE0804E1370EA9
:100EE0000301F26F000181507E0804E12A0E030124
:100EF000F26F000181808192818481868150ED08AA
:100F000004E1320E0301F26F00018150DD0804E1BB
:100F1000350E0301F26F00018150BD0804E1380E67
:100F20000301F26F000181507D0804E1300E0301DE
:100F3000F26F000181808182819481868150EB086B
:100F400004E1330E0301F26F00018150DB0804E17C
:100F5000360E0301F26F00018150BB0804E1390E27
:100F60000301F26F000181507B0804E1230E0301AD
:100F7000F26F000181808182818481968150E7082F
:100F800004E1410E0301F26F00018150D70804E132
:100F9000420E0301F26F00018150B70804E1430ED5
:100FA0000301F26F00018150770804E1440E030150
:100FB000F26F000181968194819281900301F2C3C6
:100FC00001F0000112000F0E0301F26F00015DDF5E
:100FD00081A806D081AA04D081AC02D081BE07D0FE
:100FE00069DF01C053F08196819481928190F290E3
:100FF0003CEF00F0256453656720000043415247F1
:10100000414E444F2053495354454D4100002E005A
:101010000C004249454E56454E49444F2E2E2E0057
:101020004D572D323030310056657273696F6E2026
:101030004265746100000C000C000C003C20554D12
:10104000454C495341203E003C204D6963726F4539
:101050004C495341203E00000C003C20506C616321
:1010600061203E003C2054697261203E00000C006B
:10107000256C64207365672000000C003C204E6FD7
:10108000726D616C203E00003C204372757A616491
:1010900061203E000C00256C64206D6C00000C008B
:1010A0000C003C20436F6E74696E756F203E00002B
:1010B0003C20496E7465726D6974656E7465203E7E
:1010C00000000C002564206D696E00000C003C20BF
:1010D00042616A61203E00003C204D6564696120E8
:1010E0003E003C20416C7461203E00000C000C006E
:1010F0006D926D6A696A080E6F6E94503009030133
:10110000946E456A196AF2BE198EF29E000188EC4F
:1011100001F019BEF28E8EEF08F0EAD7B9EF08F0B1
:10112000196AF2BE198EF29E88EC01F019BEF28E99
:101130006D926D6A6D8C00D000D000006D9C140E15
:101140006F6E696A6D86010E456EAAEF08F06DB686
:1011500001D0E6D7452C0BD06DBA09D0686A696A10
:10116000A08AC00EF212110E696E020E456E1200B8
:10117000D4D7EDDF45500208FCE1E0EF1AF0080E8D
:10118000016E00008B9C949C00000301E5378B9E50
:10119000D8B0948ED8A0949E948C82ACFED7012EA9
:1011A00001D002D00001EDD700008B9C949C000080
:1011B000948E00000000948C82ACFED7016A00007F
:1011C00082BE01808B9C949C8B9E949E0001120099
:1011D0000301E351000A000103E0010A27E04DD0BA
:1011E0000301E239006EF00E001600501E10E46F8D
:1011F000E56F0001C4DF00000301E239006EF00E6C
:101200000016005004091E10E46FE56F0001B7DFFF
:1012100000D00301E239006EF00E00160050FB0B07
:101220001E10E46FE56F0001AADF27D00301E23949
:10123000006EF00E0016005001091E10E46FE56FFD
:1012400000019DDF00000301E239006EF00E001680
:101250000050010904091E10E46FE56F00018FDFE3
:1012600000D00301E239006EF00E001600500109B3
:101270001E10E46FE56F000182DF1200948E000003
:10128000948C00008B9E949E00008B9C949C1AC0B2
:10129000E5F375DF0301DF39E16F0F0EE117E1C3FD
:1012A000E2F3E0C3E3F3000193DF0301DF510F0B2F
:1012B000E16FE26FE0C3E3F300018ADF949E000078
:1012C000948C82ACFED7000000D00000948E000009
:1012D0001200010E0301DF6FE06B0001CFDF196A1E
:1012E000F2BE198EF29E020E0301F26F0001CDDDF7
:1012F00019BEF28E010E1D6E1200BCC31AF0BEC3E1
:101300001BF0BDC31CF0F29CF29EF2BEFDD7196A21
:10131000F2BE198EF29E320E0301F26F0001B5DDAE
:1013200019BEF28E948E0000948C00008B9E949EC9
:1013300000008B9C949C1AC0E5F321DF0301E26B53
:10134000E36B000145DF196AF2BE198EF29E0F0EA3
:101350000301F26F000199DD19BEF28E010E030147
:10136000BF6FBF51030813E3030EE26FE36B00018D
:101370002FDF196AF2BE198EF29E050E0301F26F7D
:10138000000183DD19BEF28E0301BF2BEAD7020EE6
:10139000E26FE36B00011CDF196AF2BE198EF29E48
:1013A000050E0301F26F000170DD19BEF28E949EEE
:1013B0000000948C82ACFED7000000D00000948E18
:1013C00000000301BF6BBF51030819E3036ABF515B
:1013D000000163EC00F00301C06FDF6FE06B000100
:1013E0004DDF196AF2BE198EF29E050E0301F26FEF
:1013F00000014BDD19BEF28E0301BF2BE4D70001C3
:1014000068DFC00EF21202EF1BF00301BC5303E0D1
:10141000080E1E6E01D01E6A000108EF1BF041503D
:10142000016E14EF1BF0D8B204D0030EEA6EED0E7D
:10143000E96E006A016A026A036A0301ED6BEE6BF2
:10144000EF6BF06BEC51EB11EA11E9112CE0200E7F
:10145000F16FD890E537E637E737E837ED37EE3705
:10146000EF37F037EC51F05D08E1EB51EF5D05E14E
:10147000EA51EE5D02E1E951ED5D0FE3E951ED5F07
:10148000EA51D8A0EA3DEE5FEB51D8A0EB3DEF5F0B
:10149000EC51D8A0EC3DF05FD88000360136023622
:1014A0000336F12FD6D7EDC3EFFFEEC3ECFFEFC34A
:1014B000ECFFF0C3ECFF00011200016A026A006A4F
:1014C000036A0301E05102E1DF5118E0100EE16F01
:1014D000D890DD37DE3700360336E051035C02E199
:1014E000DF51005C07E3DF51005ED8A00306E05146
:1014F000035ED88001360236E12FEAD700011200E0
:101500000301E96BEA6B010EEB6FDA6AD96A030E2D
:10151000EE6FE10EED6F030EEA6EE50EE96EEEC3BF
:10152000E2FFEDC3E1FFEBC3ECF3D890E550EE0230
:10153000F350E923F450EA23EC2FF7D7E9C3DEFF99
:10154000EAC3E9F3EA6BD8B0EA2BED2BD8B4EE2B63
:10155000EB2BEB510508DFE10001B3EF0BF0150EAB
:101560000301E25F0FE3030EEA6EE20EE96EFC0E8A
:10157000EF16D890EF32EF32EF5004E001D00000C8
:10158000EF2EFDD70001F0EF0AF00301E16BDE5111
:10159000E15D0DE2196AF2BE198EF29EFA0EF26F4B
:1015A000000173DC19BEF28E0301E12BF0D7196A3A
:1015B000F2BE198EF29EDDC3F2F3000166DC19BEA5
:1015C000F28E0301E16BE051E15D06E2530E006E25
:1015D000002EFED7E12BF7D7DFC3E2F30001BFD720
:1015E00012000301DD51070B006EDD31016E013287
:1015F00001321F0E01160150DF25E96E000EE021B9
:10160000EA6E016A012A002A01D00136002EFDD7B8
:10161000DE5303E00150EF1203D0011E0150EF161C
:1016200000011200D8920301E86B0F0EE76F420E23
:10163000E66F400EE56FEC6BEB6BCCC3EAF3CBC30C
:10164000E9F30001F0DE03C0E0F302C0DFF301C004
:10165000DEF300C0DDF3D8900301E033DF33DE3387
:10166000DD330A0EDD5DCF6F000EDE59D06F000E48
:10167000DF59D16F000EE059D26FD892D2C3E8F390
:10168000D1C3E7F3D0C3E6F3CFC3E5F3EC6BEB6B69
:10169000030EEA6FE80EE96F0001C5DE01C0D4F366
:1016A00000C0D3F3D4C3DEF3D3C3DDF30301E06B97
:1016B000FA0EDF6F000101DF01C0D8F3D4C3DEF3FF
:1016C000D3C3DDF30301E06BFA0EDF6F0001F5DE3B
:1016D00000C0D9F30301D882030EEA6EDD0EE96E75
:1016E000D2C3E8F3D1C3E7F3D0C3E6F3CFC3E5F346
:1016F000EC6BEB6B030EEA6FE80EE96F000193DE13
:10170000DEC3D6F3DDC3D5F3D6C3DEF3D5C3DDF335
:101710000301E06BFA0EDF6F0001CFDE01C0D7F3EB
:10172000D6C3DEF3D5C3DDF30301E06BFA0EDF6F42
:101730000001C3DE00C0DAF30301E06BDF6BCEC350
:10174000DEF3CDC3DDF3E0C3E4F3DFC3E3F3CEC3E5
:10175000E2F3CDC3E1F3E86BE76B030EE66FE80E4F
:10176000E56F0001CDD603C0E0F302C0DFF301C096
:10177000DEF300C0DDF3D8920301E86B0F0EE76FD4
:10178000420EE66F400EE56FEC6BEB6BCCC3EAF3F9
:10179000CBC3E9F3000147DE03C0E4F302C0E3F387
:1017A00001C0E2F300C0E1F3D892E0C3E8F3DFC385
:1017B000E7F3DEC3E6F3DDC3E5F303C0ECF302C0F9
:1017C000EBF301C0EAF300C0E9F32DDE01C0DCF366
:1017D00000C0DBF30301DCC3DEF3DB51D8B4DC076C
:1017E000DB07DD6FDD5302E1DE533EE0D9C3DDF3FD
:1017F000D8C3DEF3DAC3DFF3D7C3E0F30001C5DEFD
:10180000CAC3DDF3010E0301DE6F0F0EE06F890E18
:10181000DF6F0001E6DECAC3DDF30301DE6B0F0EEE
:10182000E06F920EDF6F0001DCDED9C3DDF3D8C3B9
:10183000DEF3DAC3DFF3D7C3E0F3A7DECAC3DDF319
:101840000301DE6B0F0EE06F890EDF6F0001C9DE52
:10185000CAC3DDF30301DE6B0F0EE06F920EDF6F84
:101860000001BFDEB7D7030100011200036A0301C4
:10187000BC51700FE96E0F0E0320EA6EEF520DE0BF
:10188000BC51080DF350BE6BBD6FE96E040EBE2552
:10189000EA6EEFCFBFF3BFAF02D0000E01D0010E52
:1018A000016E000139EF1BF00301C151080DF35027
:1018B000CC6BCB6F020ECB25016E000ECC21036EDC
:1018C00001C0E9FF040E0324EA6EECCFC7F3ED522A
:1018D000EFCFC6F3C151080DF350CC6BCB6F010EA7
:1018E000CB25016E000ECC21036E01C0E9FF040E72
:1018F0000324EA6ECA6BEFCFC9F3C151080DF35050
:10190000CC6BE96E040ECC25EA6EEFCFC8F3C8A10C
:1019100001D0CA81C8A301D0CA83CA51C55D08E3FA
:1019200003E1C451C95D04E2CAC3C5F3C9C3C4F32A
:10193000C3C3EAFFC2C3E9FFC7C3E2FFC6C3E1FFF7
:10194000C5C302F0C4C301F0015202E0022A02D072
:10195000025206E0E6CFEEFF012EFCD7022EFAD7A8
:10196000C4C301F0C5C302F00001C2EF0CF0BCC358
:10197000C1F3BEC3C3F3BDC3C2F3C0C3C5F3BFC38A
:10198000C4F392D702C0C0F301C0BFF3196AF2BE1C
:10199000198EF29EBCC3F5F3020E0301F66F00012F
:1019A0003CEC05F019BEF28E0301BFC301F0C0C3C9
:1019B00002F0000147EF1BF00301D9511B5C03E269
:1019C0001BC0DAF302D0D9C3DAF3DA51010A0001FD
:1019D00007E0030A08E0010A0AE0070A0CE00FD05A
:1019E0000301DC6B0ED0400E0301DC6F0AD0140E35
:1019F0000301DC6F06D0540E0301DC6F02D003013B
:101A0000DC6BD8511C5C03E21CC0DBF302D0D8C3F2
:101A1000DBF3010EDB5DDC25DD6FDD518009DE6F60
:101A2000DF6FE06B00012ADC12000301D7510C0AC2
:101A3000000105E0060A05E0020A11E017D049DCC2
:101A40001CD01D2A1D501B5C02E2010E1D6E010EF2
:101A50000301D86F1DC0D9F30001AEDF0ED0100E08
:101A60000301DF6FE06B000109DC07D0D7C3DFF3B0
:101A7000010E0301E06F000101DC12000900F552C4
:101A80000CE0F6CFCEF3F7CFCFF3F5CFD7F3CDDF22
:101A9000CEC3F6FFCFC3F7FFF1D712000301BE514B
:101AA000030801E202D0BEC360F0000139EF0EF07E
:101AB000036A6051850FE96E010E0320EA6EEFCFD5
:101AC000CFF3F250006EF29ECFC3A9FFCEC3A8FFA2
:101AD000A69CA69EA6840F01550EA76EAA0EA76E01
:101AE000A682A6B2FED7A6940050F2120001120000
:101AF000036A6051890FE96E010E0320EA6EEFCF91
:101B0000CEF3F250006EF29ECEC3A9FFCDC3A8FF64
:101B1000A69CA69EA6840F01550EA76EAA0EA76EC0
:101B2000A682A6B2FED7A6940050F21200011200BF
:101B30000301D36BD251036A016E0001B7EF0DF0C0
:101B40000301D1C300F0036A00C001F00001DDEF22
:101B50000DF0036A6051790FE96E010E0320EA6E01
:101B6000EFCFD0F3CFC3D2F3CEC3D1F3E1D701C0CF
:101B7000D1F3F250006EF29ED0C3A9FFD1C3A8FFEB
:101B8000A69CA69EA6840F01550EA76EAA0EA76E50
:101B9000A682A6B2FED7A6940050F212036A0001F4
:101BA00060517D0FE96E010E0320EA6EEFCFD0F396
:101BB000CFC3D2F3CEC3D1F3C3D701C0D1F3F25018
:101BC000006EF29ED0C3A9FFD1C3A8FFA69CA69E1B
:101BD000A6840F01550EA76EAA0EA76EA682A6B206
:101BE000FED7A6940050F21200011200036A605161
:101BF000910FE96E010E0320EA6EEFCFCEF3F250A3
:101C0000006EF29ECEC3A9FFCDC3A8FFA69CA69EE0
:101C1000A6840F01550EA76EAA0EA76EA682A6B2C5
:101C2000FED7A6940050F21200011200036A605120
:101C3000990FE96E010E0320EA6EEFCFCEF3F2505A
:101C4000006EF29ECEC3A9FFCDC3A8FFA69CA69EA0
:101C5000A6840F01550EA76EAA0EA76EA682A6B285
:101C6000FED7A6940050F21200011200BDC3BEF3CD
:101C700015D71E0E0301CE6F00011ADF040E0301FB
:101C8000CD6F000135DF0301CF6B1E0ECE6F00015B
:101C900060DF020E0301CD6F0001A8DF1E0E0301FD
:101CA000CD6F0001C3DF5EEF0EF00301BC6BBC51D2
:101CB000030807E3BCC3BDF30001D8D70301BC2B65
:101CC000F6D70001BBEF1BF0100E0301BC25E96E37
:101CD000000EBD21EA6EEF6A0E0EBC25E96E000E05
:101CE000BD21EA6EEC6AED52EF6A130EBC25E96E77
:101CF000000EBD21EA6EEF6A110EBC25E96E000EE2
:101D0000BD21EA6EEC6AED52EF6ABCC3E9FFBDC3C8
:101D1000EAFFBFC3ECFFED52BEC3EFFF00011200AC
:101D2000100E0301BC25E96E000EBD21EA6EEF50D6
:101D30006308D8A02ED0100EBC25E96E000EBD2180
:101D4000EA6E036AEFCF02F0D890023603360250F3
:101D5000020F016E000E03220150BC25E96EBD5139
:101D60000320EA6EBFC3ECFFED52BEC3EFFF100EBF
:101D7000BC25E96E000EBD21EA6EEF2A0E0EBE25CF
:101D8000E96E000EBF21EA6EBDC3ECFFED52BCC38D
:101D9000EFFF00011200D5EF1EF0EF520FE0EACF87
:101DA000CFF3E9CFCEF3EFCFD7F33FDECFC3EAFFD8
:101DB000CEC3E9FFE92AD8B4EA2AEFD7120003011B
:101DC000D451016AD35D03E2D3C300F00CD0006AA2
:101DD000080ED56FD3370036D451005CD8B0006EF2
:101DE0000136D52FF7D7000112000301CE51CD5D8A
:101DF00002E2CD5101D0CE51016E0001AEEF0FF0E5
:101E0000200E0301CEA9300ECF6FCDC300F000AE7F
:101E100008D0001E002A00C0CDF32D0ECF6FCE8F4C
:101E2000CE810150CDC3D3F3640ED46F0001C7DF60
:101E300000C0CDF3300E01240301D06FCDC3D3F326
:101E40000A0ED46F0001BBDF300E00240301D26FF5
:101E5000300E0124D16FCFC300F0300ED05D04E00E
:101E6000CE83CEBFCE8512D0CFC3D0F3200ECF6F9E
:101E7000300ED15D04E0CE81CEBFCE8307D0D8A492
:101E8000CE8104E1D0C3D1F3200ED06FCEB505D002
:101E9000CEB307D0CEB109D00CD0CFC3D7F3000159
:101EA000C4DDD0C3D7F30001C0DDD1C3D7F3000137
:101EB000BCDDD2C3D7F30001B8DD1200EE0EF66E22
:101EC000100EF76EDBDD030E0301D86F010ED96F24
:101ED000000172DD0301C0C3E9FFC1C3EAFFECCF1B
:101EE000CDF3ED52EFCFCCF3CDC3EAFFCCC3E9FF86
:101EF000000153DF0301C26B130EC025E96E000E13
:101F0000C121EA6EEFCFC3F3020EC46FC56B010EA1
:101F1000C66FC3C3D3F3030ED46F000150DF036A4F
:101F20000050C40FE96E030E0320EA6EEFCFC7F333
:101F30000301C351030804E2C751C35DFF0FC26F21
:101F4000100EC025E96E000EC121EA6EC251EF5C91
:101F5000CC6FCD6F030ECE6F000147D701C0C8F321
:101F60000301C96BC851C95D56E2C251C925036A54
:101F7000026ED890023603360250020F016E000E38
:101F800003220150C025E96EC1510320EA6EECCF57
:101F9000CBF3ED52EFCFCAF3020EC925CC6F020E80
:101FA000D86FCCC3D9F3000107DD0301C951C225A5
:101FB000010FCC6FCD6F180ECE6F000121DF020E26
:101FC0000301C925CC6F030ED86FCCC3D9F3000130
:101FD000F3DC2D0E0301D76F000127DD020E030194
:101FE000C925CC6F040ED86FCCC3D9F30001E4DC53
:101FF0000301CAC3E9FFCBC3EAFFECCFCDF3ED5237
:10200000EFCFCCF3CDC3EAFFCCC3E9FF0001C5DEBF
:102010000301C92BA7D7130EC025E96E000EC121FD
:10202000EA6EEF520FE0020EC725CC6F010ED86F9B
:10203000CCC3D9F30001C0DC2A0E0301D76F000125
:10204000F4DC03010001D5EF19F0196AF2BE198E14
:10205000F29E5AEC07F019BEF28E01C0CEF30301D6
:10206000CE53D8A402D00001F0D7CEC301F00001B6
:102070001200006A016A0301D551D890D6B100263A
:1020800000320132D6B3002600320132D6B5002626
:1020900000320132D6B7002600320132D6B900260E
:1020A00000320132D6BB002600320132D6BD0026F6
:1020B00000320132D6BF0026003201320001C9EFE2
:1020C00010F00301D36BD16B0A0ED26FD06BCE51DF
:1020D000CF1103E1000E016EBBD0D351D32BCE251F
:1020E000E96E000ECF21EA6EEFCFD4F3D4512D0864
:1020F0000CE1010ED16FD351D32BCE25E96E000E2A
:10210000CF21EA6EEFCFD4F30CD0D4512B0809E1E4
:10211000D351D32BCE25E96E000ECF21EA6EEFCF3F
:10212000D4F3D4512F08D8B08BD0D4513908D8A0CB
:1021300087D0D45130081EE1D351CE25E96E000E70
:10214000CF21EA6EEF50780809E0D351CE25E96E31
:10215000000ECF21EA6EEF5058080CE1100ED26F3E
:10216000D32BD351D32BCE25E96E000ECF21EA6EAF
:10217000EFCFD4F3D2510A081CE1D4512F0818E252
:10218000D451390815E30A0ED56FD0C3D6F3000138
:1021900070D7300E0301D45D0124D06FD351D32BFF
:1021A000CE25E96E000ECF21EA6EEFCFD4F3E5D74E
:1021B00047D0D251100844E1D451600806E2D4510E
:1021C0007A0803E3D451DF0B01D0D451D46FD4513A
:1021D0002F0803E2D451390806E2D451400830E216
:1021E000D45146082DE3D4512F080CE2D4513908BC
:1021F00009E3D039D56FF00ED517300ED45DD52553
:10220000D06F09D0D039D56FF00ED517410ED45DFF
:102210000A0FD525D06FD351D32BCE25E96E000EF2
:10222000CF21EA6EEFCFD4F3D451600806E2D45147
:102230007A0803E3D451DF0B01D0D451D46FC7D750
:10224000D12D04D0D2510A0801E1D06DD0C301F0E4
:1022500000011200380EF66E100EF76E0FDC020E43
:102260000301D86F030ED96F0001DCEC0CF0EA6AB1
:10227000A30EE96E92DD020E0301CA6F196AF2BE67
:10228000198EF29EFA0EF26F000145EC07F019BEAE
:10229000F28E0301CA2FF2D7C96BC95104081BE3A0
:1022A000220ECA6F010ECC6FF40ECB6FCE6B190EDF
:1022B000CD6F000112EC0BF0196AF2BE198EF29E7E
:1022C000640E0301F26F000145EC07F019BEF28EB7
:1022D0000301C92BE2D700011200036A6051710F9C
:1022E000E96E010E0320EA6EEFCFCBF3F2CFCCF311
:1022F000F29ECBC3A9FFA69CA69EA680A850030170
:10230000CCBFF28E016E0001CEEF11F0196AF2BE61
:10231000198EF29E5AEC07F019BEF28E01C0CBF373
:102320000301CB51430A000107E0070A09E06E0AE6
:102330000BE0090A0DE00FD0030E016E0DD00BD09B
:10234000020E016E09D007D0010E016E05D003D038
:10235000000E016E01D0DAD71200036A6051710FCE
:10236000E96E010E0320EA6EEFCFCDF3F250006E5E
:10237000F29ECDC3A9FFCCC3A8FFA69CA69EA684AF
:102380000F01550EA76EAA0EA76EA682A6B2FED7A3
:10239000A6940050F212000112009FD70301C991C8
:1023A00001B0C9813A0EF66E100EF76E00013EECD8
:1023B0000DF0010E0301D86FD96F0001DCEC0CF0B9
:1023C000EA6AAE0EE96EE9DC0301C9B10FD0010E75
:1023D000D86F020ED96F0001DCEC0CF03C0EF66EEB
:1023E000100EF76E3EEC0DF00ED00301010ED86F0B
:1023F000020ED96F0001DCEC0CF0480EF66E100EE8
:10240000F76E3EEC0DF082DF01C0CAF30301CA5142
:10241000FC0F11E2040F00011EEF12F00301C9715D
:102420000AD0000E0301C9B1010ECB6FCC6F0001C1
:1024300094DF03D00301B6D700011200E824F76A45
:10244000F736570FF66E240EF7220A00F550FA6E93
:102450000800F550F96E222432241C241C24036A3F
:102460006051750FE96E010E0320EA6EEFCFCBF3DA
:10247000F2CFCCF3F29ECBC3A9FFA69CA69EA6806A
:10248000A8500301CCBFF28E016E000169EF12F07B
:10249000036A6051750FE96E010E0320EA6EEFCFFB
:1024A000CDF3F250006EF29ECDC3A9FFCCC3A8FFBE
:1024B000A69CA69EA6840F01550EA76EAA0EA76E17
:1024C000A682A6B2FED7A6940050F2120001120016
:1024D000C6D70301C99101B0C981580EF66E100E1E
:1024E000F76E00013EEC0DF0010E0301D86FD96FBD
:1024F0000001DCEC0CF0EA6ABD0EE96E4EDC030173
:10250000C9B10FD0010ED86F020ED96F0001DCECFB
:102510000CF05A0EF66E100EF76E3EEC0DF00ED06B
:102520000301010ED86F020ED96F0001DCEC0CF034
:10253000640EF66E100EF76E3EEC0DF0E7DE01C095
:10254000CAF30301CA51FC0F11E2040F0001B9EFF5
:1025500012F00301C9710AD0000E0301C9B1010EC6
:10256000CB6FCC6F000194DF03D00301B6D700011D
:102570001200E824F76AF7368D0FF66E250EF72263
:102580000A00F550FA6E0800F550F96E58256825D6
:1025900052255225000E0301D311036A016E03C0B8
:1025A00002F0000109EF13F0036A6051790FE96E40
:1025B000010E0320EA6EEFCFD2F3F2CFD3F3F29EF7
:1025C000D2C3A9FFA69CA69EA680A8500301D3BF94
:1025D000F28ECF6BCE6F036A000160517D0FE96E02
:1025E000010E0320EA6EEFCFD2F3F2CFD4F3F29EC6
:1025F000D2C3A9FFA69CA69EA680A8500301D4BF63
:10260000F28ED16BD06FCEC3D2F3D0C3D3F300011F
:10261000C1D70250B3EF13F0EACFD6F3E9CFD5F329
:102620000301CFAF08D0D58FD5A9D52BCE1FCF1F93
:10263000CE2BD8B4CF2BCF39F009D16FD127E20FF1
:10264000D26F320FD46FCF510F0BD227D227D4279E
:10265000E90FD36FD327D327CE390F0BD327D42736
:10266000D337D437D41FD437CE510F0BD427D1371B
:10267000070ED06F0A0ED307D427FDE3D207D32766
:10268000FDE3D107D227FDE3D007D127FDE3030EF9
:10269000EA6ED00EE96E070ED515D59DED52D51513
:1026A00007E1D5B9EE52D5B903D0200E006E21D086
:1026B000E926000EEA22E950D40804E1EA500308B2
:1026C00001E1D58DEF50006E08E1D5BD06D0D5B93A
:1026D0001ED0D5B702D0200E0BD0D5AF06D02D0E10
:1026E000006EED50D59DD59F04D0D587D599300E7D
:1026F0000026EACFCFF3E9CFCEF300C0D7F3000135
:1027000015EC0DF0CFC3EAFFCEC3E9FF0301EE5095
:10271000D5ADD1D7000112000900F6CFCFF3F7CF26
:10272000D0F3F5CFD7F315EC0DF0CFC3F6FFD0C340
:10273000F7FF0301CE2F01D002D00001EDD7000139
:1027400012000301CE51D003F3CF01F0F4CF00F01B
:10275000D103F3500026CF51D003F3500020026E76
:102760000001120021D702C0CAF301C0C9F3196ADF
:10277000F2BE198EF29E960E0301F26F000145EC37
:1027800007F019BEF28E6E0EF66E100EF76E3EEC6E
:102790000DF0010E0301D86FD96F0001DCEC0CF0D5
:1027A000EA6AC30EE96ECDEC0EF0010E0301D86F9C
:1027B000030ED96F0001DCEC0CF0100EE96ECAC3F9
:1027C000CFF3C9C3CEF328DF730EF66E100EF76E8B
:1027D000050E0301CE6F00019FDF37DC01C053F00F
:1027E00053C0CBF30301CC6B030ECF6FCB0ECE6F78
:1027F000000167DC01C0CDF35350410801E140D036
:102800005350420801E13CD05350430801E138D015
:102810005350440801E134D053502A0802E131D02A
:102820002FD05350230810E10301C95302E1CA53CA
:1028300009E0CAC3CFF3C9C3CEF30001A9EC0DF080
:1028400020D003011CD00001CAC3CFF3C9C3CEF30B
:102850000301D16B0A0ED06F000173DF0301CD516C
:102860000124C96F000E0220CA6FCA51000807E296
:10287000FF0A03E1C9512C0802E2CA6BC96B0001CF
:1028800076D71200036A6051810FE96E010E0320B2
:10289000EA6EEFCFCBF3F2CFCCF3F29ECBC3A9FF1E
:1028A000A69CA69EA680A8500301CCBFF28E016E06
:1028B00000017CEF14F0036A6051810FE96E010E94
:1028C0000320EA6EEFCFCDF3F250006EF29ECDC33F
:1028D000A9FFCCC3A8FFA69CA69EA6840F01550EF7
:1028E000A76EAA0EA76EA682A6B2FED7A694005027
:1028F000F21200011200C6D70301C99101B0C981CB
:102900007A0EF66E100EF76E00013EEC0DF0010E21
:102910000301D86FD96F0001DCEC0CF0EA6ACF0E2E
:10292000E96ECDEC0EF00301C9B10FD0010ED86FE6
:10293000020ED96F0001DCEC0CF07C0EF66E100E6E
:10294000F76E3EEC0DF00ED00301010ED86F020EB3
:10295000D96F0001DCEC0CF0880EF66E100EF76EED
:102960003EEC0DF0D3DC01C0CAF30301CA51FC0FE9
:1029700011E2040F0001CDEF14F00301C9710AD078
:10298000000E0301C9B1010ECB6FCC6F000193DFC4
:1029900003D00301B5D700011200E824F76AF73627
:1029A000B50FF66E290EF7220A00F550FA6E0800F0
:1029B000F550F96E802990297A297A29036A6051A5
:1029C000850FE96E010E0320EA6EEFCFCEF3F2CF52
:1029D000CFF3F29ECEC3A9FFA69CA69EA680A850C8
:1029E0000301CFBFF28E016E0001F8EF14F0E6D7BD
:1029F0000301CA6B01C0C9F3196AF2BE198EF29EB7
:102A0000960EF26F000145EC07F019BEF28E940E9F
:102A1000F66E100EF76E3EEC0DF0010E0301D86F4E
:102A2000D96F0001DCEC0CF0EA6AE00EE96ECDEC47
:102A30000EF0010E0301D86F030ED96F0001DCEC1C
:102A40000CF0100EE96ECAC3CFF3C9C3CEF3E4DDB8
:102A5000990EF66E100EF76E030E0301CE6F000195
:102A60005BDE25EC10F001C053F053C0CBF3030143
:102A7000CC6B030ECF6FCB0ECE6F000161EC10F06C
:102A800001C0CDF35350410801E13DD053504208FD
:102A900001E139D05350430801E135D05350440887
:102AA00001E131D053502A0802E130D02CD05350EC
:102AB00023080EE10301C95302E1CA5307E0C9C369
:102AC000CEF3000158EC0DF021D003011CD0000121
:102AD000CAC3CFF3C9C3CEF30301D16B0A0ED06FC3
:102AE00000012FDE0301CD510124C96F000E022029
:102AF000CA6FCA51000807E2FF0A03E1C951C208C0
:102B000002E2CA6BC96B030177D700011200036AA6
:102B10006051890FE96E010E0320EA6EEFCFCDF30D
:102B2000F2CFCEF3F29ECDC3A9FFA69CA69EA680AF
:102B3000A8500301CEBFF28E016E0001A1EF15F087
:102B4000E6D701C0C9F3196AF2BE198EF29E960E3D
:102B50000301F26F000145EC07F019BEF28E9E0EE4
:102B6000F66E100EF76E3EEC0DF0010E0301D86FFD
:102B7000D96F0001DCEC0CF0EA6AEF0EE96ECDECE7
:102B80000EF0010E0301D86F030ED96F0001DCECCB
:102B90000CF0C9C3CDF3180E0301CE6F000100EC99
:102BA0000FF025EC10F001C053F053C0CAF303013D
:102BB000CB6B030ECF6FCA0ECE6F000161EC10F02D
:102BC00001C0CCF35350410801E12BD053504208CF
:102BD00001E127D05350430801E123D0535044086A
:102BE00001E11FD053502A0802E11CD01AD05350E3
:102BF00023080CE10301C95307E0C9C3CDF3000169
:102C000078EC0DF00FD003010BD000010301C95186
:102C10000A0DF350CC25C96FC951630801E2C96B95
:102C2000000191D71200036A6051910FE96E010E05
:102C30000320EA6EEFCFCDF3F2CFCEF3F29ECDC3F9
:102C4000A9FFA69CA69EA680A8500301CEBFF28E27
:102C5000016E00012DEF16F0E6D701C0C9F3196A25
:102C6000F2BE198EF29E960E0301F26F000145EC42
:102C700007F019BEF28EC20EF66E100EF76E3EEC25
:102C80000DF0010E0301D86FD96F0001DCEC0CF0E0
:102C9000010EEA6E2C0EE96ECDEC0EF0010E030172
:102CA000D86F030ED96F0001DCEC0CF0C9C3CDF373
:102CB000180E0301CE6F000100EC0FF0C60EF66E89
:102CC000100EF76E040E0301CE6F000125DD25EC1A
:102CD00010F001C053F053C0CAF30301CB6B030ED5
:102CE000CF6FCA0ECE6F000161EC10F001C0CCF3C3
:102CF0005350410801E128D05350420801E124D04B
:102D00005350430801E120D05350440801E11CD046
:102D100053502A0802E119D017D0535023080CE170
:102D20000301C95307E0C9C3CDF30001F6EC0DF070
:102D30000CD0030108D000010301CC51C927C951AF
:102D40000A0801E2C96B00018AD71200036A6051C8
:102D50008D0FE96E010E0320EA6EEFCFCBF3F2CFB9
:102D6000CCF3F29ECBC3A9FFA69CA69EA680A8503A
:102D70000301CCBFF28E016E0001E0EF16F0036A92
:102D800060518D0FE96E010E0320EA6EEFCFCDF397
:102D9000F250006EF29ECDC3A9FFCCC3A8FFA69C43
:102DA000A69EA6840F01550EA76EAA0EA76EA68238
:102DB000A6B2FED7A6940050F21200011200C6D7A8
:102DC0000301C99101B0C981A00EF66E100EF76E15
:102DD00000013EEC0DF0010E0301D86FD96F000128
:102DE000DCEC0CF0010EEA6E220EE96ECDEC0EF07A
:102DF0000301C9B10FD0010ED86F020ED96F0001C7
:102E0000DCEC0CF0A20EF66E100EF76E3EEC0DF040
:102E10000ED00301010ED86F020ED96F0001DCEC59
:102E20000CF0B00EF66E100EF76E3EEC0DF086EC68
:102E300011F001C0CAF30301CA51FC0F11E2040FE3
:102E4000000133EF17F00301C9710AD0000E03012E
:102E5000C9B1010ECB6FCC6F000191DF03D003012C
:102E6000B3D700011200E824F76AF736810FF66E37
:102E70002E0EF7220A00F550FA6E0800F550F96E92
:102E80004C2E5C2E462E462E036A6051990FE96E39
:102E9000010E0320EA6EEFCFCDF3F2CFCEF3F29E18
:102EA000CDC3A9FFA69CA69EA680A8500301CEBFB5
:102EB000F28E016E00015EEF17F0E6D701C0C9F394
:102EC000196AF2BE198EF29E960E0301F26F00018E
:102ED00045EC07F019BEF28EEC0EF66E100EF76E92
:102EE0003EEC0DF0010E0301D86FD96F0001DCEC50
:102EF0000CF0010EEA6E0F0EE96ECDEC0EF0010E35
:102F00000301D86F030ED96F0001DCEC0CF0C9C3CC
:102F1000CDF3180E0301CE6F000100EC0FF025EC8D
:102F200010F001C053F053C0CAF30301CB6B030E82
:102F3000CF6FCA0ECE6F000161EC10F001C0CCF370
:102F40005350410801E12BD05350420801E127D0F2
:102F50005350430801E123D05350440801E11FD0EE
:102F600053502A0802E11CD01AD0535023080CE118
:102F70000301C95307E0C9C3CDF3000116EC0EF0FD
:102F80000FD003010BD000010301C9510A0DF3500A
:102F9000CC25C96FC9513C0801E2C96B000190D72B
:102FA0001200036A6051950FE96E010E0320EA6E6C
:102FB000EFCFCBF3F2CFCCF3F29ECBC3A9FFA69C0D
:102FC000A69EA680A8500301CCBFF28E016E000120
:102FD0000BEF18F0036A6051950FE96E010E0320A4
:102FE000EA6EEFCFCCF3F250006EF29ECCC3A9FF95
:102FF000CBC3A8FFA69CA69EA6840F01550EA76E64
:10300000AA0EA76EA682A6B2FED7A6940050F21210
:1030100000011200C6D701C0C9F3196AF2BE198EA9
:10302000F29E320E0301F26F000145EC07F019BE6B
:10303000F28ECC0EF66E100EF76E3EEC0DF0010E19
:103040000301D86FD96F0001DCEC0CF0010EEA6EC1
:10305000030EE96ECDEC0EF00301C9530EE1010E33
:10306000D86F020ED96F0001DCEC0CF0CE0EF66EBC
:10307000100EF76E3EEC0DF00301C92D0ED0010EBF
:10308000D86F020ED96F0001DCEC0CF0D80EF66E92
:10309000100EF76E3EEC0DF00301C95102080EE16F
:1030A000010ED86F020ED96F0001DCEC0CF0E20EBD
:1030B000F66E100EF76E3EEC0DF00301000186EC8B
:1030C00011F001C0CAF30301CA51FC0F25E2040F3D
:1030D00000018FEF18F0010E0301C925CC6FD36FEB
:1030E000030ED46F0001DFEC0EF000C0C9F3030142
:1030F00013D0010E0301C95D030FCC6FD36F030E14
:10310000D46F0001DFEC0EF000C0C9F3030104D05E
:10311000C9C3CBF35FDF02D000017FD71200E824E0
:10312000F76AF736390FF66E310EF7220A00F550BE
:10313000FA6E0800F550F96E10311631F230D630C3
:10314000CDEC11F068EC12F0B2EC13F07BEC14F063
:103150004EDCF6DC1200010E606FF2DF1200020E90
:10316000606FEEDF1200030E606FEADF12000301F2
:10317000CC6B0001ADEC11F00301CC6B000148EC0D
:1031800012F00301CF6B1E0ECE6F0001A9EC0DF003
:103190000301CC6B00015BEC14F01E0E0301CE6F3B
:1031A000000158EC0DF0040E0301CD6F000178EC26
:1031B0000DF00301CC6B0001E2DD020E0301CD6FC7
:1031C0000001F6EC0DF0010E0301CB6F000102DFF0
:1031D0001E0E0301CD6F000116EC0EF01200010E61
:1031E000606FC5DF1200020E606FC1DF1200030EB8
:1031F000606FBDDF120025EC10F001C053F053C02A
:10320000C2F30301C36B030ECF6FC20ECE6F00017A
:1032100061EC10F001C0C4F30301C45312E0100EBE
:10322000C025E96E000EC121EA6EC451EF5C09E3CE
:10323000130EC025E96E000EC121EA6EC4C3EFFF74
:10324000A3D053502A081CE10E0EC025E96E000ED3
:10325000C121EA6EECCFCAF3ED52EFCFC9F3C953E7
:1032600002E1CA530DE00E0EC025E96E000EC12129
:10327000EA6EEFCF01F0EE52EDCF02F089D084D0AC
:103280005350410811E1130EC025E96E000EC12113
:10329000EA6EEF50010808E2130EC025E96E000E39
:1032A000C121EA6EEF0670D05350420819E1130EA7
:1032B000C025E96E000EC121EA6EEFCFC9F3100EF2
:1032C000C025E96E000EC121EA6EEF50C95D08E22B
:1032D000130EC025E96E000EC121EA6EEF2A54D00C
:1032E0005350230851E1130EC025E96E000EC12191
:1032F000EA6EEF5249E0130EC025E96E000EC121BF
:10330000EA6E010EEF5C036A026ED8900236033655
:103310000250020F016E000E03220150C025E96E1B
:10332000C1510320EA6EECCFC6F3ED52EFCFC5F3E7
:10333000110EC525E96E000EC621EA6EECCFCAF368
:10334000ED52EFCFC9F3C95302E1CA5318E0110E91
:10335000C525E96E000EC621EA6EECCFC8F3ED522A
:10336000EFCFC7F3030EEA6EC70EE96E000122EC41
:1033700007F00301C0C301F0C1C302F009D0C5C307
:1033800001F0C6C302F004D0C0C301F0C1C302F013
:103390000001E6EF19F0BDC3BFF3BCC3BEF3BFC36A
:1033A000C1F3BEC3C0F35EEF0FF0196AF2BE198E0F
:1033B000F29EFA0E0301F26F000145EC07F019BE10
:1033C000F28EBFC3C1F3BEC3C0F315D702C0BFF3B3
:1033D00001C0BEF3E4D7DDEF1EF0F86AD09E078E81
:1033E000600ED36ED350010E1D6E080E1E6E546A11
:1033F000556A010E566E576A606B01019E6B9D6B9C
:10340000C150C00B0F09C16E070EB46EB7D00200D9
:103410001F000104C00001800104C00001800104FC
:10342000C000118001000000010000010000010047
:10343000000100000002004D0000FF00614D454EFC
:1034400055205052494E434950414C004C41564141
:1034500052004147495441520043454241520050B5
:10346000524F4752414D4152004C617661720053B8
:10347000656C656320506172616D6574726F004C9C
:103480006176616E646F2E2E2E00466F726D6174D0
:103490002F4C617661646F3A004D6F646F3A00544F
:1034A0002F456E6A75616775653A005469706F2FB4
:1034B00041737069726163696F6E3A00566F6C2F69
:1034C00044697370656E7361723A0043616E742F64
:1034D0004369636C6F733A004167697461720049B4
:1034E0006E74656E73696461643A00542F41676954
:1034F000746163696F6E3A004365626172004D2FBB
:1035000043656261646F3A00542F43656261646F82
:103510003A005265737461626C656365720045645C
:103520006974617200426F727261720050726F67EB
:1035300072616D6123310050726F67723D80616D01
:103540006123320050726F6772616D612333000135
:10355000080F1702091118030A1219040B131A0590
:103560000C141B060D151C070E161D1E2022241FF1
:1035700021232526293C3F273A3D4000000EF86EC6
:10358000340EF76E0E0EF66E0900F550006E000A4E
:1035900013E00900F550016EE8BE05D03F0BEA6E5E
:1035A0000900F5CFE9FF01BC090001AC0900F5CF26
:1035B000EEFF004EE9D7F9D7F86A0001B8EF08F03E
:1035C000A7EC08F0000E0609CA6EFF0ECB6E9494AD
:1035D0008B940C0EBD6EB76AB66AC150C00B0E0953
:1035E000C16EC050C00B0709C06EC08EC280BE6ADB
:1035F0004E0E0301BC6F140EBD6F040EBE6F0001B2
:103600007DEF09F0010E0301BC6F000105EF0AF028
:10361000F00E936E8196819481928190F19EF28654
:10362000C00EF2120FEF0AF0015231E0040E030156
:10363000BC6F196AF2BE198EF29EFA0EF26F00018B
:1036400045EC07F019BEF28E0301BC2FF2D7F29AB7
:10365000220ECA6FCC6BC80ECB6FCE6B050ECD6F32
:10366000000112EC0BF0010E0301BC6F000136EFFC
:103670000CF001520CE0010E0301BC6FBE6B580E42
:10368000BD6FC06B010EBF6F0001B7EF0CF0030EF2
:103690000301D86F020ED96F0001DCEC0CF0FC0EB8
:1036A000F66E0F0EF76E3EEC0DF0030E01019F6FEC
:1036B0009F5112081DE39FC1D8F3030E0301D96F78
:1036C0000001DCEC0CF00E0EF66E100EF76E3EEC08
:1036D0000DF0196AF2BE198EF29E1E0E0301F26FF2
:1036E000000145EC07F019BEF28E01019F2BE0D7D7
:1036F000100EF66E100EF76E00013EEC0DF0120E7D
:10370000F66E100EF76E3EEC0DF0010E0301D86F51
:10371000020ED96F0001DCEC0CF0200EF66E100EDC
:10372000F76E3EEC0DF0010E0301D86F030ED96F5A
:103730000001DCEC0CF0280EF66E100EF76E3EEC7D
:103740000DF0020E0301BC6F196AF2BE198EF29ED3
:10375000FA0EF26F000145EC07F019BEF28E03017C
:10376000BC2FF2D7360EF66E100EF76E00013EEC4F
:103770000DF055EF0EF0010E0301BD6FA00EBC6FF2
:10378000BF6B610EBE6F000164EC0EF0010E030111
:10379000BD6FB40EBC6FBF6B700EBE6F000164ECEA
:1037A0000EF0010E0301BD6FC80EBC6FBF6B7D0E26
:1037B000BE6F000164EC0EF0010E0301BD6FDC0E64
:1037C000BC6FBF6B760EBE6F000164EC0EF0010E95
:1037D0000301BD6FF00EBC6FBF6B830EBE6F0001A7
:1037E00064EC0EF0020E0301BD6F040EBC6FBF6BE4
:1037F0008D0EBE6F000164EC0EF0020E0301BD6F72
:10380000180EBC6FBF6B930EBE6F000164EC0EF020
:10381000020E0301BD6F2C0EBC6FBF6BAE0EBE6FF0
:10382000000164EC0EF0020E0301BD6F400EBC6F90
:10383000BF6BBD0EBE6F000164EC0EF0020E030103
:10384000BD6F540EBC6FBF6BC30EBE6F000164EC46
:103850000EF0020E0301BD6F680EBC6FBF6BCF0E82
:10386000BE6F000164EC0EF0020E0301BD6F7C0E12
:10387000BC6FBF6BE00EBE6F000164EC0EF0020E79
:103880000301BD6F900EBC6FBF6BEF0EBE6F0001EA
:1038900064EC0EF0020E0301BD6FA40EBC6FBF6B93
:1038A000FC0EBE6F000164EC0EF0020E0301BD6F52
:1038B000B80EBC6F010EBF6F030EBE6F000164EC4B
:1038C0000EF0020E0301BD6FCC0EBC6F010EBF6F78
:1038D0000F0EBE6F000164EC0EF0020E0301BD6F0F
:1038E000E00EBC6F010EBF6F1C0EBE6F000164ECDA
:1038F0000EF0020E0301BD6FF40EBC6F010EBF6F20
:10390000220EBE6F000164EC0EF0030E0301BD6FCA
:10391000080EBC6F010EBF6F2C0EBE6F000164EC71
:103920000EF0030E0301BD6F300EBC6F010EBF6FB2
:10393000420EBE6F000164EC0EF0030E0301BD6F7A
:103940001C0EBC6F010EBF6F360EBE6F000164EC23
:103950000EF0030E0301BD6F440EBC6F010EBF6F6E
:10396000500EBE6F000164EC0EF0030E0301BD6F3C
:10397000580EBC6F010EBF6F5B0EBE6F000164EC92
:103980000EF0030E0301BD6F6C0EBC6F010EBF6F16
:10399000660EBE6F000164EC0EF0030E0301BD6FF6
:1039A000800EBC6F010EBF6F500EBE6F000164EC45
:1039B0000EF0030E0301BD6F940EBC6F010EBF6FBE
:1039C0005B0EBE6F000164EC0EF0030E0301BD6FD1
:1039D000A80EBC6F010EBF6F660EBE6F000164ECD7
:1039E0000EF0010E0301BD6FA00EBC6F010EBF6F84
:1039F000B40EBE6F000190EC0EF0010E0301BD6F1E
:103A0000A00EBC6F010EBF6FC80EBE6F000190EC20
:103A10000EF0010E0301BD6FA00EBC6F010EBF6F53
:103A2000DC0EBE6F000190EC0EF0010E0301BD6FC5
:103A3000A00EBC6F010EBF6FF00EBE6F000190ECC8
:103A40000EF0010E0301BD6FB40EBC6F020EBF6F0E
:103A5000040EBE6F000190EC0EF0010E0301BD6F6D
:103A6000B40EBC6F020EBF6F180EBE6F000190EC5B
:103A70000EF0020E0301BD6F180EBC6F020EBF6F79
:103A80002C0EBE6F000190EC0EF0020E0301BD6F14
:103A9000180EBC6F020EBF6F400EBE6F000190EC9F
:103AA0000EF0020E0301BD6F180EBC6F020EBF6F49
:103AB000540EBE6F000190EC0EF0020E0301BD6FBC
:103AC000180EBC6F020EBF6F680EBE6F000190EC47
:103AD0000EF0020E0301BD6F180EBC6F020EBF6F19
:103AE0007C0EBE6F000190EC0EF0020E0301BD6F64
:103AF000180EBC6F020EBF6F900EBE6F000190ECEF
:103B00000EF0010E0301BD6FDC0EBC6F020EBF6F25
:103B1000A40EBE6F000190EC0EF0010E0301BD6F0C
:103B2000DC0EBC6F020EBF6FB80EBE6F000190ECD2
:103B30000EF0010E0301BD6FDC0EBC6F020EBF6FF5
:103B4000CC0EBE6F000190EC0EF0010E0301BD6FB4
:103B5000C80EBC6F020EBF6FE00EBE6F000190EC8E
:103B60000EF0010E0301BD6FC80EBC6F020EBF6FD9
:103B7000F40EBE6F000190EC0EF0010E0301BD6F5C
:103B8000C80EBC6F030EBF6F080EBE6F000190EC35
:103B90000EF0010E0301BD6FF00EBC6F030EBF6F80
:103BA000300EBE6F000190EC0EF0010E0301BD6FF0
:103BB000F00EBC6F030EBF6F1C0EBE6F000190ECC9
:103BC0000EF0030E0301BD6F300EBC6F030EBF6F0E
:103BD000440EBE6F000190EC0EF0030E0301BD6FAA
:103BE000300EBC6F030EBF6F580EBE6F000190EC1D
:103BF0000EF0030E0301BD6F300EBC6F030EBF6FDE
:103C00006C0EBE6F000190EC0EF0030E0301BD6F51
:103C10001C0EBC6F030EBF6F800EBE6F000190ECD8
:103C20000EF0030E0301BD6F1C0EBC6F030EBF6FC1
:103C3000940EBE6F000190EC0EF0030E0301BD6FF9
:103C40001C0EBC6F030EBF6FA80EBE6F000190EC80
:103C50000EF0020EEA6E150EE96E220E036E540E81
:103C6000EF6E03C0ECFF020EEA6E3D0EE96E230E0E
:103C7000036E9A0EEF6E03C0ECFF020EEA6E510E59
:103C8000E96E240E036ED00EEF6E03C0ECFF020E41
:103C9000EA6E650EE96E270E036E640EEF6E03C0CA
:103CA000ECFF020EEA6E790EE96E280E036EF60E38
:103CB000EF6E03C0ECFF020EEA6E8D0EE96E290E68
:103CC000036EEE0EEF6E03C0ECFF020EEA6EA10E65
:103CD000E96E2B0E036E400EEF6E03C0ECFF030E79
:103CE000EA6E050EE96E2D0E036EBE0EEF6E03C07A
:103CF000ECFF030EEA6E190EE96E2C0E036E580EE1
:103D0000EF6E03C0ECFF020EEA6EC90EE96E300ED4
:103D1000036E140EEF6E03C0ECFF020EEA6EDD0EB2
:103D2000E96E2E0E036EBA0EEF6E03C0ECFF030EAB
:103D3000EA6E550EE96E310E036E560EEF6E03C03D
:103D4000ECFF030EEA6E690EE96E310E036E5E0E35
:103D5000EF6E03C0ECFF030EEA6E7D0EE96E310ECE
:103D6000036E660EEF6E03C0ECFF030EEA6E910E5B
:103D7000E96E310E036EDE0EEF6E03C0ECFF030E34
:103D8000EA6EA50EE96E310E036EE60EEF6E03C00D
:103D9000ECFF030EEA6EB90EE96E310E036EEE0E05
:103DA000EF6E03C0ECFFCBEF0EF0010E0301BD6F11
:0C3DB000A00EBC6F0001CBEF19F0030067
:087FC80004030904080343004F
:107FD000430053001A0343004300530020004800AD
:107FE000490044002000440065006D006F0012034A
:107FF00031003200330034003500360037003800DD
:020000040030CA
:0E00000027C8271E0087A1000FC00FE00F4089
:00000001FF
;PIC18F4550
;CRC=A799  CREATED="04-Nov-22 01:06"
