:100000005EEF12F068961200046ED8CF05F0E0CFD4
:1000100006F00001E9CF0CF0EACF07F0E1CF08F0DD
:10002000E2CF09F0D9CF0AF0DACF0BF0F3CF12F01C
:10003000F4CF13F0FACF14F0F5CF15F0F6CF16F099
:10004000F7CF17F000C00EF001C00FF002C010F0A3
:1000500003C011F0F2AA30EF00F0F2B42CEF07F079
:10006000F2A636EF00F0F2B0DCEF07F0A0AA3CEF0A
:1000700000F0A1BADCEF06F00EC000F00FC001F0F6
:1000800010C002F011C003F00CC0E9FF07C0EAFF86
:10009000078E08C0E1FF09C0E2FF0AC0D9FF0BC00C
:1000A000DAFF12C0F3FF13C0F4FF14C0FAFF15C04B
:1000B000F5FF16C0F6FF17C0F7FF045006C0E0FFBB
:1000C00005C0D8FF1000F76AD60FF66E000EF722B3
:1000D0000900F5501200280C0106F76AEA0FF66EC7
:1000E000000EF7220900F55012000003FFFFFFFF8A
:1000F000FFFFFFFFFFFFFFFFFFFFF76A0A0FF66E2C
:10010000010EF7220900F55012004000080000001F
:1001100000000000000000000000000000000000DF
:1001200000000000000000000000F76A3A0FF66EC1
:10013000010EF7220900F55012000600FF0901A187
:1001400001190129081580257F750895028102197A
:10015000012908750895029102C0F76A6A0FF66EC8
:10016000010EF7220900F55012000000F76A7C0F1B
:10017000F66E010EF7220900F55012002000F76A12
:100180008E0FF66E010EF7220900F55012000902DB
:100190002900010100803209040000020300000070
:1001A0000921000100012220000705810308000A3F
:1001B0000705010308000A00F76AC80FF66E010E72
:1001C000F7220900F55012000100F76ADA0FF66E07
:1001D000010EF7220900F55012001200F76AEC0F29
:1001E000F66E010EF7220900F550120012011001FF
:1001F00000000040610420000001010200016D9236
:10020000699468A402D06894FCD76898E8EF06F077
:10021000400E0401016F040E0201C76F100EC7C229
:1002200003F4E8CF02F4880E0401006F046B040E9F
:10023000076F500E066F0001120070A002D0E8DFB9
:100240007090689AEFEF06F06A6A6892F4EF06F031
:100250000201D391D2BFD381D29FD251100803E2C1
:10026000000E016E1AD0D3A10DD0036AD251000145
:1002700034DFFF0802E1000E01D0010E016E020121
:100280000CD00BD0036AD251000127DFFF0802E136
:10029000000E01D0010E016E020100011200036A7E
:1002A0000201D151700FE96E0F0E0320EA6EEF6A62
:1002B000D1C2D2F20001CCDF01521AE00201D151C9
:1002C000080DF350D36BE96E040ED325EA6EEF6A86
:1002D000D151080DF350D36BD26F040ED227000E0C
:1002E000D323D2C2E9FF040ED325EA6EEF6A0001E0
:1002F0001200010E0201D06FD0510F0807E3D0C2E7
:10030000D1F20001CCDF0201D02BF6D700011200A0
:100310002B6A2A6A0201C66BC6530AE1036AC651F8
:100320002C0FE96E000E0320EA6EEF6AC62BF4D79D
:10033000216A010E226E206A0001A7EF01F06B6AAC
:10034000696A6A6A686A6E6A706AD3DFE1D7160EF4
:10035000706E68A602D056DEFCD79F0E6B6E3D0E07
:10036000696E6D9855DF030E256EF9EF06F069840E
:1003700069986D82FEEF06F0689C03EF07F0CCC22F
:1003800026F0120026681200CFC201F0CEC200F0A3
:100390000066012A0900F5CFEEFF002EFBD7012EE3
:1003A000F9D7F86A12000201CA6B2A502B104BE0F1
:1003B000CA513F0848E32350FC0F33E2040F000109
:1003C0002FEF02F029C003F02850D9DEE8CFCBF29E
:1003D000020127D029C003F02850A7DEE8CFCBF2D6
:1003E00002011FD0C80E28240201CC6F7F0E2920E5
:1003F000CD6FF86AF76ECCC2F6FF020EEA6ECB0E36
:10040000E96ECF6B010ECE6F0001BEDF020109D095
:1004100029C003F02850E2DEE8CFCBF2020101D080
:100420000201282AD8B4292A2A50D8B42B062A0631
:10043000CA51CA2B036A500FE96E040E0320EA6EFC
:10044000CBC2EFFFB2D72A502B1004E1CA514008AB
:1004500001E0206ACAC2CCF2000191DF1200E82458
:10046000F76AF736790FF66E040EF7220A00F55098
:10047000FA6E0800F550F96EC403D403E4031004C7
:100480000201C96B296A286A236A04011351010A0F
:10049000000109E0030A0DE0010A0FE0220A44E02E
:1004A000030A5BE076D02B6A120E2A6E030E236ECF
:1004B00072D02B6A290E2A6E6ED0020E236E0201B4
:1004C000C96B040112510201C95D1BE2C80E282448
:1004D000CA6F7F0E2920CB6FF86ACBC2F7FFCAC262
:1004E000F6FF020EEA6ECC0EE96ECF6B010ECE6FF8
:1004F00000014ADF0201CC512826000E2922C92B17
:10050000E0D7C80E2824CA6F7F0E2920CB6FF86A67
:10051000F76ECAC2F6FFEA6A2A0EE96ECF6B010EC9
:10052000CE6F000131DF37D0036A040112510001A0
:100530004CDE036A286E03C029F0283C02D0295201
:100540000AE029C003F028501ADE036A2A6E03C0AD
:100550002BF021D002D016DF2DD0036A04011451F4
:100560000001FBDD036A286E03C029F0283C02D09D
:1005700029520DE0010E236E036A0401145100019B
:10058000F5DD036A2A6E03C02BF005D002D0FADE37
:1005900011D0F8DE0FD00401175308E12B5203E10C
:1005A0002A50165D03E22B6A16C42AF0010E206E53
:1005B0000001F9DE12000201C85306E1040E256EA7
:1005C000000197DEC8D00201050E256E040ECB6F28
:1005D000900ECA6F010EC96FC9510F08D8A0BBD0C9
:1005E000C9C2D1F200015BDE0201CC6B036AC951C2
:1005F000000173DDFF0855E0040E0201CC6FD890B6
:10060000C935036A000179DD0900F5CF03F0020165
:10061000CD6F03C0CEF2C951080DF350D16BD06F2E
:10062000010ED025016E000ED121036E01C0E9FF3D
:10063000040E0324EA6ECDC2EFFFC951080DF3503A
:10064000D16BD06F020ED025016E000ED121036E4A
:1006500001C0E9FF040E0324EA6ECBC2ECFFED52A9
:10066000CAC2EFFFD890C935036A000146DD090010
:10067000F5CF03F00201CA270350CB23880ECF6FBA
:10068000CEA101D0CF81CEA301D0CF83C951080D17
:10069000F350D16BE96E040ED125EA6ECFC2EFFFA5
:1006A0000001036A0201C951000117DDFF0838E0AB
:1006B0000201CC83C951080DF350D16BD06F040EE9
:1006C000D027000ED123020ED025016E000ED121BD
:1006D000036E01C0E9FF040E0324EA6ECBC2ECFFF7
:1006E000ED52CAC2EFFFD890C935036A000105DD9B
:1006F0000900F5CF03F00201CA270350CB23C951EB
:10070000080DF350D16BD06F040ED027000ED1230B
:10071000D0C2E9FF040ED125EA6E400EEF6E000153
:100720000201CC51060802E10E0ECC6F036AC951DA
:100730000001D3DC010803E00201CC890001036A57
:100740000201C951700FE96E0F0E0320EA6ECCC290
:10075000EFFFC92B41D7000102EF04F00401115152
:10076000000A00010DE0010A15E0020A21E0060A74
:100770002CE0030A33E00E0A33E0010A39E049D0E5
:1007800022C050F40401516B020E0201CC6F000133
:10079000F6DD40D00401122D08D0010E2216020110
:1007A000CC6B0001ECDD03D004010001EBDD32D0A5
:1007B0000401122D07D022820201CC6B0001DFDD83
:1007C00003D004010001DEDD25D0020E206E12C42C
:1007D00027F00201CC6B0001D2DD1CD051DE1AD013
:1007E00021C050F4010E0201CC6F0001C8DD12D00F
:1007F0000401125101080BE312C421F012C4C8F223
:100800000001D9D60201CC6B0001B9DD0401000161
:1008100001D0B8DD33EF05F021C0C8F20401115159
:10082000000A000107E00A0A0EE0010A2EE00D0AA4
:1008300042E043D00401506B516B020E0201CC6FB9
:1008400000019DDD3BD00201C8531CE0010EC85DD4
:10085000036A0001B1DC016E0401145DD8A002D06E
:10086000020110D0036A14512C0FE96E000E032010
:10087000EA6EEFCF50F4010E0201CC6F00017FDD74
:1008800003D0020100017EDD19D00201C85310E03F
:10089000036A040114512C0FE96E000E0320EA6E66
:1008A00012C4EFFF0201CC6B000169DD03D002012D
:1008B000000168DD03D0E4DD01D064DD33EF05F035
:1008C0000201C991C8BFC981C89FC9A111D0C8512F
:1008D000080DF350CB6BCA6F040ECA27000ECB2352
:1008E000CAC2E9FF040ECB25EA6E880EEF6E09D06E
:1008F000C851080DF350CB6BE96E040ECB25EA6EA0
:10090000EF6A036AC851700F016E0F0E032201C017
:10091000E9FF03C0EAFFEF900001F3EF04F00201EA
:10092000C991C8BFC981C89FC9A111D0C851080DBC
:10093000F350CB6BCA6F040ECA27000ECB23CAC27A
:10094000E9FF040ECB25EA6E840EEF6E0AD0C85183
:10095000080DF350CB6BE96E040ECB25EA6E840EC6
:10096000EF6E0001FBEF04F00201C991C8BFC9811D
:10097000C89FC9A111D0C851080DF350CC6BCB6FE3
:10098000040ECB27000ECC23CBC2E9FF040ECC25EE
:10099000EA6EEFCFCAF20AD0C851080DF350CC6B03
:1009A000E96E040ECC25EA6EEFCFCAF2CAAF02D0D0
:1009B000CAB502D0000E01D0010E016E000107EF92
:1009C00005F014C4D2F244DC01522EE004011151AE
:1009D000010A000105E0020A0BE0030A11E023D03E
:1009E00014C4C8F26DD70201CC6B0001C8DC1CD066
:1009F00014C4C8F294D70201CC6B0001C0DC14D03F
:100A00000401506B516B14C4C8F20001ADD7015200
:100A100004E0010E0401506F0001020E0201CC6FD0
:100A20000001ADDC01D0AEDC33EF05F00401115163
:100A30000001A8DC33EF05F0206A040110517F0BA0
:100A4000000A000107E0010A07E0030A07E0230AA1
:100A500007E008D083D607D0DFD605D0B2D703D0C1
:100A6000E5D701D08FDC7CEF06F00201C851080DFC
:100A7000F350CE6BE96E040ECE25EA6EEFCFCAF2CC
:100A8000C951020806E1CAAD02D0C96B02D0010EFD
:100A9000C96FC951030813E1840ECA6FC851080D0C
:100AA000F350CE6BCD6F040ECD27000ECE23CDC2FA
:100AB000E9FF040ECE25EA6E840EEF6E07D0C92D35
:100AC00003D0C80ECA6F02D0880ECA6FD890C8353E
:100AD000036A00017DEC00F00900F5CF03F002018C
:100AE000CB6F03C0CCF2C851080DF350CE6BCD6F65
:100AF000010ECD25016E000ECE21036E01C0E9FF6F
:100B0000040E0324EA6ECBC2EFFFCCA101D0CA8150
:100B1000CCA301D0CA83C851080DF350CE6BE96E47
:100B2000040ECE25EA6ECAC2EFFF00011200036A6E
:100B30000201CD51700FE96E0F0E0320EA6EEF52E5
:100B400012E0CD51080DF350CF6BCE6F040ECE27BF
:100B5000000ECF23CEC2E9FF040ECF25EA6EEFCF01
:100B6000D0F2D0AF02D0000E01D0010E016E000114
:100B7000BDEF05F0C8C2CDF2DAD70152D8B470D0BB
:100B80000201C851080DF350CE6BCD6F040ECD2776
:100B9000000ECE23010ECD25016E000ECE21036E78
:100BA00001C0E9FF040E0324EA6EC9C2EFFFCB5176
:100BB000020817E1C851080DF350CE6BCD6F040E3B
:100BC000CD27000ECE23CDC2E9FF040ECE25EA6E5E
:100BD000EFCFCCF2CCAD02D0CB6B02D0010ECB6FFD
:100BE00013D0CB51040810E1C851080DF350CE6B5F
:100BF000E96E040ECE25EA6EEFCFCCF2CCAD03D079
:100C0000010ECB6F01D0CB6BCB2D03D0480ECC6F38
:100C100002D0080ECC6FC851080DF350CE6BCD6FCB
:100C2000040ECD27000ECE23CDC2E9FF040ECE2543
:100C3000EA6ECCC2EFFFC851080DF350CE6BCD6FFA
:100C4000040ECD27000ECE23CDC2E9FF040ECE2523
:100C5000EA6EEF508009EF6E010E016E04D00001C4
:100C6000000E016E0201000112000201C85300E1F2
:100C700000011200C9C26EFF0201C95303E0040E55
:100C8000256E02D0020E256E00014CEF06F0216A9F
:100C9000206A27C0C9F2EED75DEF06F00201C85303
:100CA0000DE1202C05D00001D3EC01F006D00201AB
:100CB0002050020803E10001EAD7020100011200FE
:100CC00024300201C66FC633C6331F0EC617245226
:100CD0004EE1040100513C0B0201C76F430E0401B9
:100CE00000170201C751340825E104010451800BAB
:100CF00001E0046B0001A0D66D98263C07D00201EC
:100D0000C86B030EC96F0001B0DE12D00201C86BC0
:100D1000020EC96F0001A9DE2650FE0809E002019B
:100D2000C86BCA6B26C0C9F2040ECB6F000122DF6C
:100D30001CD00201C751040819E1C86B000195DFFE
:100D40000201C86B020EC96F00018FDE2650FE083B
:100D50000CE0263C01D009D00201C86BCA6B26C04A
:100D6000C9F2010ECB6F000105DF020122D0245031
:100D7000040812E12668C86B000190DF263C01D010
:100D800009D00201C86BCA6B26C0C9F2020ECB6F34
:100D90000001F0DE0DD0020124B406D0C6C2C8F2B4
:100DA000000163DF05D00201C6C2C8F2000176DF90
:100DB000020100010FEF07F0A19A2552D8B439D0F3
:100DC0006852D8B436D068A403D069B4FFEF00F0FD
:100DD0006DB22FD068AA03D069BA1DEF01F068A2E6
:100DE00003D069B224EF01F068A003D069B09FEF8F
:100DF00001F068A803D069B8B7EF01F068AC03D080
:100E000069BCBCEF01F00201C56B68A60AD069A6F7
:100E100008D06CCF24F0000102EC00F051D703D0D1
:100E2000020106D000010201C551C52B0308EDE205
:100E300000013CEF00F0ECCFFAFFED52EFCFE8FFFE
:100E4000F96E12006D656E75206163746976617468
:100E500065640A0073656700362A3650EF0802E1C0
:100E6000342A366A34503C0802E1352A346AFE0ED0
:100E7000D76E0C0ED66EF2943CEF00F0020EEA6EC6
:100E8000C50EE96EEF500EE0010E016E006A002EF5
:100E9000FED7012EFBD74A0E006E002EFED700D0E3
:100EA000EF2EF2D712008190818281848186815059
:100EB000EE0804E1310E0201C56F00018150DE0829
:100EC00004E1340E0201C56F00018150BE0804E147
:100ED000370E0201C56F000181507E0804E12A0E21
:100EE0000201C56F000181808192818481868150D9
:100EF000ED0804E1320E0201C56F00018150DD08EA
:100F000004E1350E0201C56F00018150BD0804E106
:100F1000380E0201C56F000181507D0804E1300EDA
:100F20000201C56F00018180818281948186815098
:100F3000EB0804E1330E0201C56F00018150DB08AC
:100F400004E1360E0201C56F00018150BB0804E1C7
:100F5000390E0201C56F000181507B0804E1230EA8
:100F60000201C56F00018180818281848196815058
:100F7000E70804E1410E0201C56F00018150D70866
:100F800004E1420E0201C56F00018150B70804E17F
:100F9000430E0201C56F00018150770804E1440E41
:100FA0000201C56F000181968194819281900201B6
:100FB000C5C201F0000112000F0E0201C56F000151
:100FC0005DDF81A806D081AA04D081AC02D081BEA9
:100FD00007D069DF01C033F08196819481928190BE
:100FE000F2903CEF00F02564536567200000434118
:100FF0005247414E444F2053495354454D41000000
:101000002E000C004249454E56454E49444F2E2E67
:101010002E004D572D323030310056657273696F96
:101020006E204265746100000C000C004C6176611A
:101030006E646F202E2E2E000C003C20554D454C2A
:10104000495341203E003C204D4943524F454C49B5
:101050005341203E00000C00080E016E00008B9CE6
:10106000949C00000201B4378B9ED8B0948ED8A017
:10107000949E948C82ACFED7012E01D002D0000148
:10108000EDD700008B9C949C0000948E0000000023
:10109000948C82ACFED7016A000082BE01808B9CDA
:1010A000949C8B9E949E000112000201B251000A92
:1010B000000103E0010A27E04DD00201B139006EC2
:1010C000F00E001600501E10B36FB46F0001C4DFA5
:1010D00000000201B139006EF00E00160050040944
:1010E0001E10B36FB46F0001B7DF00D00201B13939
:1010F000006EF00E00160050FB0B1E10B36FB46FA5
:101100000001AADF27D00201B139006EF00E0016EF
:10111000005001091E10B36FB46F00019DDF000085
:101120000201B139006EF00E0016005001090409E9
:101130001E10B36FB46F00018FDF00D00201B13910
:10114000006EF00E0016005001091E10B36FB46F50
:10115000000182DF1200948E0000948C00008B9EB0
:10116000949E00008B9C949C1AC0B4F275DF02011F
:10117000AE39B06F0F0EB017B0C2B1F2AFC2B2F25B
:10118000000193DF0201AE510F0BB06FB16FAFC220
:10119000B2F200018ADF949E0000948C82ACFED7EC
:1011A000000000D00000948E00001200010E020129
:1011B000AE6FAF6B0001CFDF196AF2BE198EF29EDF
:1011C000020E0201C56F000159DE19BEF28E010E3A
:1011D0001D6E12008FC21AF091C21BF090C21CF05B
:1011E000F29CF29EF2BEFDD7196AF2BE198EF29EF3
:1011F000320E0201C56F000141DE19BEF28E948EDF
:101200000000948C00008B9E949E00008B9C949C0C
:101210001AC0B4F221DF0201B16BB26B000145DFED
:10122000196AF2BE198EF29E0F0E0201C56F0001FF
:1012300025DE19BEF28E010E0201926F9251030853
:1012400013E3030EB16FB26B00012FDF196AF2BE18
:10125000198EF29E050E0201C56F00010FDE19BE48
:10126000F28E0201922BEAD7020EB16FB26B00012F
:101270001CDF196AF2BE198EF29E050E0201C56FBF
:101280000001FCDD19BEF28E949E0000948C82ACAD
:10129000FED7000000D00000948E00000201926B87
:1012A0009251030819E3036A9251000163EC00F0C4
:1012B0000201936FAE6FAF6B00014DDF196AF2BE92
:1012C000198EF29E050E0201C56F0001D7DD19BE11
:1012D000F28E0201922BE4D7000168DFC00EF212F9
:1012E0001BEF13F002018F5303E0080E1E6E01D0B6
:1012F0001E6A000121EF13F00201A8511B5C03E2FA
:101300001BC0A9F202D0A8C2A9F2A951010A00018A
:1013100007E0030A08E0010A0AE0070A0CE00FD020
:101320000201AB6B0ED0400E0201AB6F0AD0140E5F
:101330000201AB6F06D0540E0201AB6F02D0020166
:10134000AB6BA7511C5C03E21CC0AAF202D0A7C27F
:10135000AAF2010EAA5DAB25AC6FAC518009AD6F4E
:10136000AE6FAF6B0001F7DE12000201A6510C0A4E
:10137000000105E0060A05E0020A11E017D016DFB9
:101380001CD01D2A1D501B5C02E2010E1D6E010EB9
:101390000201A76F1DC0A8F20001AEDF0ED0100E33
:1013A0000201AE6FAF6B0001D6DE07D0A6C2AEF26F
:1013B000010E0201AF6F0001CEDE12000900F552EE
:1013C0000CE0F6CF9FF2F7CFA0F2F5CFA6F2CDDF7B
:1013D0009FC2F6FFA0C2F7FFF1D7120002019151A0
:1013E000030801E202D091C239F00001FEEF0AF0D9
:1013F000036A39500C0FE96E010E0320EA6EEFCF3D
:1014000092F2F250006EF29E92C2A9FF91C2A8FF22
:10141000A69CA69EA6840F01550EA76EAA0EA76EC7
:10142000A682A6B2FED7A6940050F212000103EFE6
:101430000BF0036A3950080FE96E010E0320EA6EC3
:10144000EFCF92F2F250006EF29E92C2A9FF91C2CB
:10145000A8FFA69CA69EA6840F01550EA76EAA0EF5
:10146000A76EA682A6B2FED7A6940050F212000183
:1014700008EF0BF00201946B956B9551036A016EB6
:1014800000011200020193C201F000011200036A80
:101490003950E96E010E0324EA6EEFCF92F291C249
:1014A00093F2E8DF01C093F2F250006EF29E92C216
:1014B000A9FF93C2A8FFA69CA69EA6840F01550E65
:1014C000A76EAA0EA76EA682A6B2FED7A69400505B
:1014D000F212036A3950040FE96E010E0320EA6E1E
:1014E000EFCF92F291C293F20001CCDF01C093F2F0
:1014F000F250006EF29E92C2A9FF93C2A8FFA69C72
:10150000A69EA6840F01550EA76EAA0EA76EA682F0
:10151000A6B2FED7A6940050F21200010DEF0BF018
:10152000036A3950140FE96E010E0320EA6EEFCF03
:1015300092F2F250006EF29E92C2A9FF91C2A8FFF1
:10154000A69CA69EA6840F01550EA76EAA0EA76E96
:10155000A682A6B2FED7A6940050F212000112EFA6
:101560000BF0036A39501C0FE96E010E0320EA6E7E
:10157000EFCF92F291C293F27DDF01C093F2F2506D
:10158000006EF29E92C2A9FF93C2A8FFA69CA69EDF
:10159000A6840F01550EA76EAA0EA76EA682A6B24C
:1015A000FED7A6940050F212036A3950200FE96E5C
:1015B000010E0320EA6EEFCF92F291C293F2000186
:1015C00061DF01C093F2F250006EF29E92C2A9FF59
:1015D00093C2A8FFA69CA69EA6840F01550EA76ED7
:1015E000AA0EA76EA682A6B2FED7A6940050F2124B
:1015F000000117EF0BF090C291F2F0D61E0E02011F
:10160000916F0001F5D6040E0201916F000111D710
:101610001E0E0201916F00013AD7020E0201916F76
:1016200000017ED71E0E0201916F00019AD722EFB2
:101630000BF002018F6B8F51030807E38FC290F20A
:101640000001D9D702018F2BF6D7000181EF13F0EB
:101650000E0E02018F25E96E000E9021EA6EEF6AF0
:101660000C0E8F25E96E000E9021EA6EEC6AED52A9
:10167000EF6A110E8F25E96E000E9021EA6EEF6A77
:101680000F0E8F25E96E000E9021EA6EEC6AED5286
:10169000EF6A8FC2E9FF90C2EAFF92C2ECFFED52FF
:1016A00091C2EFFF000112000E0E02018F25E96EBC
:1016B000000E9021EA6EEF506308D8A02ED00E0ED7
:1016C0008F25E96E000E9021EA6E036AEFCF02F0DB
:1016D000D890023603360250020F016E000E03222C
:1016E00001508F25E96E90510320EA6E92C2ECFF03
:1016F000ED5291C2EFFF0E0E8F25E96E000E902184
:10170000EA6EEF2A0C0E9125E96E000E9221EA6E28
:1017100090C2ECFFED528FC2EFFF00011200EF52BA
:101720000FE0EACFA2F2E9CFA1F2EFCFA6F21DDEE1
:10173000A2C2EAFFA1C2E9FFE92AD8B4EA2AEFD798
:1017400012000201A751016AA65D03E2A6C200F0E1
:101750000CD0006A080EA86FA6370036A751005CAF
:10176000D8B0006E0136A82FF7D700011200020191
:10177000A151A05D02E2A05101D0A151016E000172
:1017800071EF0CF0200E0201A1A9300EA26FA0C2D1
:1017900000F000AE08D0001E002A00C0A0F22D0EFE
:1017A000A26FA18FA1810150A0C2A6F2640EA76F03
:1017B0000001C7DF00C0A0F2300E01240201A36FB8
:1017C000A0C2A6F20A0EA76F0001BBDF300E0024F4
:1017D0000201A56F300E0124A46FA2C200F0300EEA
:1017E000A35D04E0A183A1BFA18512D0A2C2A3F290
:1017F000200EA26F300EA45D04E0A181A1BFA183E1
:1018000007D0D8A4A18104E1A3C2A4F2200EA36F43
:10181000A1B505D0A1B307D0A1B109D00CD0A2C207
:10182000A6F20001A2DDA3C2A6F200019EDDA4C2C1
:10183000A6F200019ADDA5C2A6F2000196DDA2EF94
:101840000CF0560EF66E100EF76EB8DD030E0201A8
:10185000A76F010EA86F00014FDD020193C2E9FFDF
:1018600094C2EAFFECCFA0F2ED52EFCF9FF2A0C2FC
:10187000EAFF9FC2E9FF000152DF0201956B110EE2
:101880009325E96E000E9421EA6EEFCF96F2020ED8
:10189000976F986B010E996F96C2A6F2030EA76F11
:1018A00000014FDF036A0050970FE96E020E03201C
:1018B000EA6EEFCF9AF202019651030804E29A51C0
:1018C000965DFF0F956F0E0E9325E96E000E942125
:1018D000EA6E9551EF5C9F6FA06F030EA16F000140
:1018E00046D701C09BF202019C6B9B519C5D56E266
:1018F00095519C25036A026ED89002360336025039
:10190000020F016E000E032201509325E96E9451DF
:101910000320EA6EECCF9EF2ED52EFCF9DF2020E65
:101920009C259F6F020EA76F9FC2A8F20001E4DC06
:1019300002019C519525010F9F6FA06F180EA16F9A
:10194000000120D7020E02019C259F6F030EA76F96
:101950009FC2A8F20001D0DC2D0E0201A66F00018B
:1019600004DD020E02019C259F6F040EA76F9FC22B
:10197000A8F20001C1DC02019DC2E9FF9EC2EAFF9C
:10198000ECCFA0F2ED52EFCF9FF2A0C2EAFF9FC2D0
:10199000E9FF0001C4DE02019C2BA7D7110E93259D
:1019A000E96E000E9421EA6EEF520FE0020E9A25C6
:1019B0009F6F010EA76F9FC2A8F200019DDC2A0E47
:1019C0000201A66F0001D1DC0201000146EF12F016
:1019D000196AF2BE198EF29E53EC07F019BEF28E10
:1019E00001C09CF202019C53D8A402D00001F0D7A0
:1019F0009CC201F000016EEF11F0006A016A020161
:101A0000A351D890A4B1002600320132A4B300261D
:101A100000320132A4B5002600320132A4B70026FC
:101A200000320132A4B9002600320132A4BB0026E4
:101A300000320132A4BD002600320132A4BF0026CC
:101A40000032013200018DEF0DF00201A16B9F6B9E
:101A50000A0EA06F9E6B9C519D1103E1000E016E5A
:101A6000BBD0A151A12B9C25E96E000E9D21EA6EF1
:101A7000EFCFA2F2A2512D080CE1010E9F6FA151F0
:101A8000A12B9C25E96E000E9D21EA6EEFCFA2F2FC
:101A90000CD0A2512B0809E1A151A12B9C25E96E84
:101AA000000E9D21EA6EEFCFA2F2A2512F08D8B00E
:101AB0008BD0A2513908D8A087D0A25130081EE19E
:101AC000A1519C25E96E000E9D21EA6EEF50780829
:101AD00009E0A1519C25E96E000E9D21EA6EEF50B0
:101AE00058080CE1100EA06FA12BA151A12B9C2531
:101AF000E96E000E9D21EA6EEFCFA2F2A0510A0816
:101B00001CE1A2512F0818E2A251390815E30A0E70
:101B1000A36F9EC2A4F2000170D7300E0201A25D35
:101B200001249E6FA151A12B9C25E96E000E9D21E1
:101B3000EA6EEFCFA2F2E5D747D0A051100844E1FA
:101B4000A251600806E2A2517A0803E3A251DF0B1A
:101B500001D0A251A26FA2512F0803E2A25139086D
:101B600006E2A251400830E2A25146082DE3A251FC
:101B70002F080CE2A251390809E39E39A36FF00E39
:101B8000A317300EA25DA3259E6F09D09E39A36FC7
:101B9000F00EA317410EA25D0A0FA3259E6FA1515F
:101BA000A12B9C25E96E000E9D21EA6EEFCFA2F2DB
:101BB000A251600806E2A2517A0803E3A251DF0BAA
:101BC00001D0A251A26FC7D79F2D04D0A0510A08FF
:101BD00001E19E6D9EC201F000017BEF11F0D8B2D1
:101BE00004D0020EEA6EC00EE96E006A016A026A53
:101BF000036A0201C06BC16BC26BC36BBF51BE11E4
:101C0000BD11BC112CE0200EC46FD890B837B93785
:101C1000BA37BB37C037C137C237C337BF51C35DCF
:101C200008E1BE51C25D05E1BD51C15D02E1BC519B
:101C3000C05D0FE3BC51C05FBD51D8A0BD3DC15FC9
:101C4000BE51D8A0BE3DC25FBF51D8A0BF3DC35F4B
:101C5000D8800036013602360336C42FD6D7C0C22C
:101C6000EFFFC1C2ECFFC2C2ECFFC3C2ECFF000138
:101C70001200016A026A006A036A0201B35102E1BA
:101C8000B25118E0100EB46FD890B037B1370036AB
:101C90000336B351035C02E1B251005C07E3B25179
:101CA000005ED8A00306B351035ED8800136023629
:101CB000B42FEAD7000112000201BC6BBD6B010E0C
:101CC000BE6FDA6AD96A020EC16FB40EC06F020E1F
:101CD000EA6EB80EE96EC1C2E2FFC0C2E1FFBEC249
:101CE000BFF2D890E550EE02F350BC23F450BD2370
:101CF000BF2FF7D7BCC2DEFFBDC2BCF2BD6BD8B0F0
:101D0000BD2BC02BD8B4C12BBE2BBE510508DFE1C3
:101D100000011200150E0201B55F0FE3020EEA6E1C
:101D2000B50EE96EFC0EEF16D890EF32EF32EF50A1
:101D300004E001D00000EF2EFDD70001CDEF0EF042
:101D40000201B46BB151B45D0EE2196AF2BE198E94
:101D5000F29EFA0EC56F00013EEC07F019BEF28E3E
:101D60000201B42BEFD7196AF2BE198EF29EB0C2EF
:101D7000C5F200013EEC07F019BEF28E0201B46B11
:101D8000B351B45D06E2530E006E002EFED7B42BA5
:101D9000F7D7B2C2B5F20001BDD712000201B051AF
:101DA000070B006EB031016E013201321F0E0116B9
:101DB0000150B225E96E000EB321EA6E016A012AD4
:101DC000002A01D00136002EFDD7B15303E00150A7
:101DD000EF1203D0011E0150EF1600011200D8923D
:101DE0000201BB6B0F0EBA6F420EB96F400EB86F97
:101DF000BF6BBE6B9FC2BDF29EC2BCF20001EFDEA4
:101E000003C0B3F202C0B2F201C0B1F200C0B0F23E
:101E1000D8900201B333B233B133B0330A0EB05DA0
:101E2000A26F000EB159A36F000EB259A46F000E3D
:101E3000B359A56FD892A5C2BBF2A4C2BAF2A3C28D
:101E4000B9F2A2C2B8F2BF6BBE6B030EBD6FE80E53
:101E5000BC6F0001C4DE01C0A7F200C0A6F2A7C299
:101E6000B1F2A6C2B0F20201B36BFA0EB26F00017A
:101E700000DF01C0ABF2A7C2B1F2A6C2B0F202010C
:101E8000B36BFA0EB26F0001F4DE00C0ACF20201D7
:101E9000D882020EEA6EB00EE96EA5C2BBF2A4C2F1
:101EA000BAF2A3C2B9F2A2C2B8F2BF6BBE6B030E04
:101EB000BD6FE80EBC6F000192DEB1C2A9F2B0C2E4
:101EC000A8F2A9C2B1F2A8C2B0F20201B36BFA0E35
:101ED000B26F0001CEDE01C0AAF2A9C2B1F2A8C25F
:101EE000B0F20201B36BFA0EB26F0001C2DE00C0A5
:101EF000ADF20201B36BB26BA1C2B1F2A0C2B0F2FB
:101F0000B3C2B7F2B2C2B6F2A1C2B5F2A0C2B4F285
:101F1000BB6BBA6B030EB96FE80EB86F0001CCDE75
:101F200003C0B3F202C0B2F201C0B1F200C0B0F21D
:101F3000D8920201BB6B0F0EBA6F420EB96F400E02
:101F4000B86FBF6BBE6B9FC2BDF29EC2BCF20001F8
:101F500046DE03C0B7F202C0B6F201C0B5F200C05F
:101F6000B4F2D892B3C2BBF2B2C2BAF2B1C2B9F201
:101F7000B0C2B8F203C0BFF202C0BEF201C0BDF2EF
:101F800000C0BCF22CDE01C0AFF200C0AEF2020114
:101F9000AFC2B1F2AE51D8B4AF07AE07B06FB05315
:101FA00002E1B1533EE0ACC2B0F2ABC2B1F2ADC29D
:101FB000B2F2AAC2B3F20001C3DE9DC2B0F2010EBA
:101FC0000201B16F0F0EB36F890EB26F0001E6DE32
:101FD0009DC2B0F20201B16B0F0EB36F920EB26FE1
:101FE0000001DCDEACC2B0F2ABC2B1F2ADC2B2F203
:101FF000AAC2B3F2A5DE9DC2B0F20201B16B0F0E10
:10200000B36F890EB26F0001C9DE9DC2B0F202014A
:10201000B16B0F0EB36F920EB26F0001BFDEB7D778
:102020000201000148EF10F02A0EF66E100EF76E56
:10203000DEEC09F0020E0201A76F030EA86F00018B
:102040007CEC09F02C0EF66E100EF76EDEEC09F04B
:10205000020E02019D6F196AF2BE198EF29EFA0EEF
:10206000C56F00013EEC07F019BEF28E02019D2FF4
:10207000F2D79C6B9C5104081AE3120E9D6F010E5F
:102080009F6FF40E9E6FA16B190EA06F0001A7D673
:10209000196AF2BE198EF29E640E0201C56F00012C
:1020A0003EEC07F019BEF28E02019C2BE3D7000133
:1020B0001200036A3950FC0FE96E000E0320EA6E2D
:1020C000EFCF9EF2F2CF9FF2F29E9EC2A9FFA69C96
:1020D000A69EA680A85002019FBFF28E016E00014D
:1020E000BBEF10F0196AF2BE198EF29E53EC07F0A6
:1020F00019BEF28E01C09EF202019E51430A0001F8
:1021000007E0070A09E06E0A0BE0090A0DE00FD0AC
:10211000030E016E0DD00BD0020E016E09D007D058
:10212000010E016E05D003D0000E016E01D0DAD78A
:10213000F2EF10F0036A3950FC0FE96E000E032035
:10214000EA6EEFCFA0F2F250006EF29EA0C2A9FF9D
:102150009FC2A8FFA69CA69EA6840F01550EA76E3F
:10216000AA0EA76EA682A6B2FED7A6940050F212BF
:10217000000112009ED702019C9101B09C81380E93
:10218000F66E100EF76E0001DEEC09F0010E020192
:10219000A76FA86F00017CEC09F0EA6A6C0EE96E8B
:1021A0008FEC0BF002019CB10FD0010EA76F020E55
:1021B000A86F00017CEC09F03A0EF66E100EF76E77
:1021C000DEEC09F00ED00201010EA76F020EA86F1F
:1021D00000017CEC09F0460EF66E100EF76EDEEC98
:1021E00009F080D701C09DF202019D51FC0F11E260
:1021F000040F00010CEF11F002019C710AD0000ED7
:1022000002019CB1010E9E6F9F6F000193DF03D00E
:102210000201B5D700011200E824F76AF736330F40
:10222000F66E220EF7220A00F550FA6E0800F550FD
:10223000F96EFE210E22F821F82132C0B7F231C02A
:10224000B6F230C0B5F22FC0B4F2410E0201BB6F3E
:10225000C60EBA6F4E0EB96F6D0EB86F00012CDD51
:10226000390E020100242F6E300E0120306E000E58
:102270000220316E000E0320326E31C000F032C0F9
:1022800001F0026A036A32C09FF231C09EF232C08E
:10229000B1F231C0B0F27F0EB36FB2690001E9DC78
:1022A00000C001F003C002F057EF11F0C6D701C023
:1022B0009DF2010E02019D179E6B9D5304E19E53FA
:1022C00002E19C9101D09C81000E9CB1010E9D6F9A
:1022D0009F6F00012FDF1200E8EF0CF001C033F018
:1022E00033C095F20201966B020E9D6F950E9C6FA6
:1022F000000125EF0DF001C097F20201975312E0A3
:102300000E0E9325E96E000E9421EA6E9751EF5C54
:1023100009E3110E9325E96E000E9421EA6E97C22F
:10232000EFFFA3D033502A081CE10C0E9325E96E71
:10233000000E9421EA6EECCF9DF2ED52EFCF9CF2AD
:102340009C5302E19D530DE00C0E9325E96E000EA7
:102350009421EA6EEFCF01F0EE52EDCF02F089D07A
:1023600084D03350410811E1110E9325E96E000E1F
:102370009421EA6EEF50010808E2110E9325E96EF0
:10238000000E9421EA6EEF0670D03350420819E136
:10239000110E9325E96E000E9421EA6EEFCF9CF2A8
:1023A0000E0E9325E96E000E9421EA6EEF509C5DAF
:1023B00008E2110E9325E96E000E9421EA6EEF2AD1
:1023C00054D03350230851E1110E9325E96E000ECD
:1023D0009421EA6EEF5249E0110E9325E96E000E4A
:1023E0009421EA6E010EEF5C036A026ED890023609
:1023F00003360250020F016E000E03220150932596
:10240000E96E94510320EA6EECCF99F2ED52EFCFD2
:1024100098F20F0E9825E96E000E9921EA6EECCF26
:102420009DF2ED52EFCF9CF29C5302E19D5318E0D8
:102430000F0E9825E96E000E9921EA6EECCF9BF203
:10244000ED52EFCF9AF2020EEA6E9A0EE96E00019B
:102450001BEC07F0020193C201F094C202F009D014
:1024600098C201F099C202F004D093C201F094C264
:1024700002F0000157EF12F090C292F28FC291F277
:1024800092C294F291C293F221EF0CF0196AF2BE5B
:10249000198EF29E0A0E0201C56F00013EEC07F094
:1024A00019BEF28E92C294F291C293F215D702C075
:1024B00092F201C091F2E4D764EF15F0F86AD09E71
:1024C000078E010E1D6E080E1E6E346A356A010EEF
:1024D000366E376A386A396A0101256B246BC15040
:1024E000C00B0F09C16E070EB46E7CD001001F0037
:1024F00002002D0000EA003A4D454E552050524949
:102500004E434950414C004C4156415200414749CD
:102510005441520043454241520050524F475241AC
:102520004D4152004C617661720053656C656320C9
:10253000506172616D6574726F004C6176616E649A
:102540006F2E2E2E00462F4C617661646F3A005438
:102550002F456E6A75616775653A00432F4369635D
:102560006C6F733A0041676974617200496E7465FB
:102570006E73696461643A00542F416769746163E2
:10258000696F6E3A004365626172004D2F43656268
:1025900061646F3A00542F43656261646F3A00438F
:1025A000726561720045646974617200426F727293
:1025B0006172004E6F6D62726500010B1015020CA6
:1025C0001116030D1217040E13180A0F1419051A09
:1025D0001C1E061B1D1F0720232608212427092255
:1025E00025280000000EF86E240EF76EEC0EF66E35
:1025F0000900F550006E000A13E00900F550016E65
:10260000E8BE05D03F0BEA6E0900F5CFE9FF01BC3B
:10261000090001AC0900F5CFEEFF004EE9D7F9D76C
:10262000F86A4E0E02018F6F140E906F040E916FB8
:102630000001EAEF08F0010E02018F6F000172EF56
:1026400009F0F00E936E8196819481928190F19EB3
:10265000F286C00EF212030E0201A76F020EA86FDF
:1026600000017CEC09F0EE0EF66E0F0EF76EDEEC5C
:1026700009F0030E0101266F2651120811E326C14D
:10268000A7F2030E0201A86F00017CEC09F0000E16
:10269000F66E100EF76EDEEC09F00101262BECD77A
:1026A000020EF66E100EF76E0001DEEC09F0040E5D
:1026B000F66E100EF76EDEEC09F0010E0201A76F48
:1026C000020EA86F00017CEC09F0120EF66E100EDF
:1026D000F76EDEEC09F0010E0201A76F030EA86F82
:1026E00000017CEC09F01A0EF66E100EF76EDEECAF
:1026F00009F0280EF66E100EF76EDEEC09F019EFF9
:102700000BF0010E0201906F270E8F6F926B3A0E45
:10271000916F000128EC0BF0010E0201906F390E51
:102720008F6F926B490E916F000128EC0BF0010E38
:102730000201906F4B0E8F6F926B560E916F0001DE
:1027400028EC0BF0010E0201906F5D0E8F6F926B03
:102750004F0E916F000128EC0BF0010E0201906FFB
:102760006F0E8F6F926B5C0E916F000128EC0BF077
:10277000010E0201906F810E8F6F926B660E916F4A
:10278000000128EC0BF0010E0201906F930E8F6F89
:10279000926B6C0E916F000128EC0BF0010E0201A0
:1027A000906FA50E8F6F926B870E916F000128ECD2
:1027B0000BF0010E0201906FB70E8F6F926B910EAE
:1027C000916F000128EC0BF0010E0201906FC90E11
:1027D0008F6F926B9D0E916F000128EC0BF0010E34
:1027E0000201906FDB0E8F6F926BA70E916F00014D
:1027F00028EC0BF0010E0201906FED0E8F6F926BC3
:10280000AE0E916F000128EC0BF0010E0201906FEB
:102810008F69926BBA0E916F000128EC0BF0020EDB
:102820000201906F110E8F6F926BC70E916F0001B6
:1028300028EC0BF0020E0201906F230E8F6F926B4B
:10284000CD0E916F000128EC0BF0020E0201906F8B
:10285000350E8F6F926BD70E916F000128EC0BF045
:10286000020E0201906F470E8F6F926BE10E916F17
:10287000000128EC0BF0020E0201906F590E8F6FD1
:10288000926BE70E916F000128EC0BF0020E020133
:10289000906F6B0E8F6F926BEE0E916F000128ECB4
:1028A0000BF0020E0201906F7D0E8F6F926BF50E92
:1028B000916F000128EC0BF0010E0201906F270EC2
:1028C0008F6F010E926F390E916F000154EC0BF077
:1028D000010E0201906F270E8F6F010E926F4B0E4B
:1028E000916F000154EC0BF0010E0201906F270E66
:1028F0008F6F010E926F5D0E916F000154EC0BF023
:10290000010E0201906F270E8F6F010E926F6F0EF6
:10291000916F000154EC0BF0010E0201906F390E23
:102920008F6F010E926F810E916F000154EC0BF0CE
:10293000010E0201906F390E8F6F010E926F930E90
:10294000916F000154EC0BF0010E0201906F930E99
:102950008F6F010E926FA50E916F000154EC0BF07A
:10296000010E0201906F930E8F6F010E926FB70EE2
:10297000916F000154EC0BF0010E0201906F930E69
:102980008F6F010E926FC90E916F000154EC0BF026
:10299000010E0201906F5D0E8F6F010E926FDB0EC4
:1029A000916F000154EC0BF0010E0201906F5D0E6F
:1029B0008F6F010E926FED0E916F000154EC0BF0D2
:1029C000010E0201906F5D0E8F6F010E926F916983
:1029D000000154EC0BF0010E0201906F4B0E8F6F53
:1029E000020E926F110E916F000154EC0BF0010E6C
:1029F0000201906F4B0E8F6F020E926F230E916F3C
:102A0000000154EC0BF0010E0201906F4B0E8F6F22
:102A1000020E926F350E916F000154EC0BF0010E17
:102A20000201906F6F0E8F6F020E926F470E916FC3
:102A3000000154EC0BF0010E0201906F6F0E8F6FCE
:102A4000020E926F590E916F000154EC0BF0010EC3
:102A50000201906F6F0E8F6F020E926F6B0E916F6F
:102A6000000154EC0BF0020E0201906F470E8F6FC5
:102A7000020E926F7D0E916F000154EC0BF0010E6F
:102A8000EA6E900EE96E200E036E280EEF6E03C004
:102A9000ECFF010EEA6EB40EE96E210E036E740EA9
:102AA000EF6E03C0ECFF010EEA6EC60EE96E220E59
:102AB000036EAC0EEF6E03C0ECFF010E0201906FCF
:0A2AC000270E8F6F0001D8D4030029
:087FC80004030904080343004F
:107FD000430053001A0343004300530020004800AD
:107FE000490044002000440065006D006F0012034A
:107FF00031003200330034003500360037003800DD
:020000040030CA
:0E0000003FCC271E0087A1000FC00FE00F406D
:00000001FF
;PIC18F4550
;CRC=881D  CREATED="31-Oct-22 14:13"
