:100000005CEF0DF068961200046ED8CF05F0E0CFDB
:1000100006F00001E9CF0CF0EACF07F0E1CF08F0DD
:10002000E2CF09F0D9CF0AF0DACF0BF0F3CF12F01C
:10003000F4CF13F0FACF14F0F5CF15F0F6CF16F099
:10004000F7CF17F000C00EF001C00FF002C010F0A3
:1000500003C011F0F2AA30EF00F0F2B426EF07F07F
:10006000F2A636EF00F0F2B0D6EF07F0A0AA3CEF10
:1000700000F0A1BADCEF06F00EC000F00FC001F0F6
:1000800010C002F011C003F00CC0E9FF07C0EAFF86
:10009000078E08C0E1FF09C0E2FF0AC0D9FF0BC00C
:1000A000DAFF12C0F3FF13C0F4FF14C0FAFF15C04B
:1000B000F5FF16C0F6FF17C0F7FF045006C0E0FFBB
:1000C00005C0D8FF1000F76AD60FF66E000EF722B3
:1000D0000900F5501200280C0106F76AEA0FF66EC7
:1000E000000EF7220900F55012000003FFFFFFFF8A
:1000F000FFFFFFFFFFFFFFFFFFFFF76A0A0FF66E2C
:10010000010EF7220900F55012004000080000001F
:1001100000000000000000000000000000000000DF
:1001200000000000000000000000F76A3A0FF66EC1
:10013000010EF7220900F55012000600FF0901A187
:1001400001190129081580257F750895028102197A
:10015000012908750895029102C0F76A6A0FF66EC8
:10016000010EF7220900F55012000000F76A7C0F1B
:10017000F66E010EF7220900F55012002000F76A12
:100180008E0FF66E010EF7220900F55012000902DB
:100190002900010100803209040000020300000070
:1001A0000921000100012220000705810308000A3F
:1001B0000705010308000A00F76AC80FF66E010E72
:1001C000F7220900F55012000100F76ADA0FF66E07
:1001D000010EF7220900F55012001200F76AEC0F29
:1001E000F66E010EF7220900F550120012011001FF
:1001F00000000040610420000001010200016D9236
:10020000699468A402D06894FCD76898E8EF06F077
:10021000400E0401016F040E0201A36F100EA3C271
:1002200003F4E8CF02F4880E0401006F046B040E9F
:10023000076F500E066F0001120070A002D0E8DFB9
:100240007090689AEFEF06F06A6A6892F4EF06F031
:100250000201AF91AEBFAF81AE9FAE51100803E275
:10026000000E016E1AD0AFA10DD0036AAE5100018D
:1002700034DFFF0802E1000E01D0010E016E020121
:100280000CD00BD0036AAE51000127DFFF0802E15A
:10029000000E01D0010E016E020100011200036A7E
:1002A0000201AD51700FE96E0F0E0320EA6EEF6A86
:1002B000ADC2AEF20001CCDF01521AE00201AD5135
:1002C000080DF350AF6BE96E040EAF25EA6EEF6ACE
:1002D000AD51080DF350AF6BAE6F040EAE27000E9C
:1002E000AF23AEC2E9FF040EAF25EA6EEF6A00014C
:1002F0001200010E0201AC6FAC510F0807E3ACC253
:10030000ADF20001CCDF0201AC2BF6D700011200E8
:100310002B6A2A6A0201A26BA2530AE1036AA25164
:100320002C0FE96E000E0320EA6EEF6AA22BF4D7C1
:10033000216A010E226E206A0001A7EF01F06B6AAC
:10034000696A6A6A686A6E6A706AD3DFE1D7160EF4
:10035000706E68A602D056DEFCD79F0E6B6E3D0E07
:10036000696E6D9855DF030E256EF9EF06F069840E
:1003700069986D82FEEF06F0689C03EF07F0A8C253
:1003800026F0120026681200ABC201F0AAC200F0EB
:100390000066012A0900F5CFEEFF002EFBD7012EE3
:1003A000F9D7F86A12000201A66B2A502B104BE015
:1003B000A6513F0848E32350FC0F33E2040F00012D
:1003C0002FEF02F029C003F02850D9DEE8CFA7F2C2
:1003D000020127D029C003F02850A7DEE8CFA7F2FA
:1003E00002011FD0C80E28240201A86F7F0E292009
:1003F000A96FF86AF76EA8C2F6FF020EEA6EA70EA2
:10040000E96EAB6B010EAA6F0001BEDF020109D0DD
:1004100029C003F02850E2DEE8CFA7F2020101D0A4
:100420000201282AD8B4292A2A50D8B42B062A0631
:10043000A651A62B036A500FE96E040E0320EA6E44
:10044000A7C2EFFFB2D72A502B1004E1A6514008F3
:1004500001E0206AA6C2A8F2000191DF1200E824A0
:10046000F76AF736790FF66E040EF7220A00F55098
:10047000FA6E0800F550F96EC403D403E4031004C7
:100480000201A56B296A286A236A04011351010A33
:10049000000109E0030A0DE0010A0FE0220A44E02E
:1004A000030A5BE076D02B6A120E2A6E030E236ECF
:1004B00072D02B6A290E2A6E6ED0020E236E0201B4
:1004C000A56B040112510201A55D1BE2C80E282490
:1004D000A66F7F0E2920A76FF86AA7C2F7FFA6C2F2
:1004E000F6FF020EEA6EA80EE96EAB6B010EAA6F64
:1004F00000014ADF0201A8512826000E2922A52B5F
:10050000E0D7C80E2824A66F7F0E2920A76FF86AAF
:10051000F76EA6C2F6FFEA6A2A0EE96EAB6B010E11
:10052000AA6F000131DF37D0036A040112510001C4
:100530004CDE036A286E03C029F0283C02D0295201
:100540000AE029C003F028501ADE036A2A6E03C0AD
:100550002BF021D002D016DF2DD0036A04011451F4
:100560000001FBDD036A286E03C029F0283C02D09D
:1005700029520DE0010E236E036A0401145100019B
:10058000F5DD036A2A6E03C02BF005D002D0FADE37
:1005900011D0F8DE0FD00401175308E12B5203E10C
:1005A0002A50165D03E22B6A16C42AF0010E206E53
:1005B0000001F9DE12000201A45306E1040E256ECB
:1005C000000197DEC8D00201050E256E040EA76F4C
:1005D000900EA66F010EA56FA5510F08D8A0BBD035
:1005E000A5C2ADF200015BDE0201A86B036AA55152
:1005F000000173DDFF0855E0040E0201A86FD890DA
:10060000A535036A000179DD0900F5CF03F0020189
:10061000A96F03C0AAF2A551080DF350AD6BAC6FE2
:10062000010EAC25016E000EAD21036E01C0E9FF85
:10063000040E0324EA6EA9C2EFFFA551080DF35082
:10064000AD6BAC6F020EAC25016E000EAD21036EDA
:1006500001C0E9FF040E0324EA6EA7C2ECFFED52CD
:10066000A6C2EFFFD890A535036A000146DD090058
:10067000F5CF03F00201A6270350A723880EAB6F26
:10068000AAA101D0AB81AAA301D0AB83A551080DCB
:10069000F350AD6BE96E040EAD25EA6EABC2EFFF11
:1006A0000001036A0201A551000117DDFF0838E0CF
:1006B0000201A883A551080DF350AD6BAC6F040E79
:1006C000AC27000EAD23020EAC25016E000EAD214D
:1006D000036E01C0E9FF040E0324EA6EA7C2ECFF1B
:1006E000ED52A6C2EFFFD890A535036A000105DDE3
:1006F0000900F5CF03F00201A6270350A723A55157
:10070000080DF350AD6BAC6F040EAC27000EAD239B
:10071000ACC2E9FF040EAD25EA6E400EEF6E00019B
:100720000201A851060802E10E0EA86F036AA55146
:100730000001D3DC010803E00201A8890001036A7B
:100740000201A551700FE96E0F0E0320EA6EA8C2D8
:10075000EFFFA52B41D7000102EF04F00401115176
:10076000000A00010DE0010A15E0020A21E0060A74
:100770002CE0030A33E00E0A33E0010A39E049D0E5
:1007800022C050F40401516B020E0201A86F000157
:10079000F6DD40D00401122D08D0010E2216020110
:1007A000A86B0001ECDD03D004010001EBDD32D0C9
:1007B0000401122D07D022820201A86B0001DFDDA7
:1007C00003D004010001DEDD25D0020E206E12C42C
:1007D00027F00201A86B0001D2DD1CD051DE1AD037
:1007E00021C050F4010E0201A86F0001C8DD12D033
:1007F0000401125101080BE312C421F012C4A4F247
:100800000001D9D60201A86B0001B9DD0401000185
:1008100001D0B8DD33EF05F021C0A4F2040111517D
:10082000000A000107E00A0A0EE0010A2EE00D0AA4
:1008300042E043D00401506B516B020E0201A86FDD
:1008400000019DDD3BD00201A4531CE0010EA45D1C
:10085000036A0001B1DC016E0401145DD8A002D06E
:10086000020110D0036A14512C0FE96E000E032010
:10087000EA6EEFCF50F4010E0201A86F00017FDD98
:1008800003D0020100017EDD19D00201A45310E063
:10089000036A040114512C0FE96E000E0320EA6E66
:1008A00012C4EFFF0201A86B000169DD03D0020151
:1008B000000168DD03D0E4DD01D064DD33EF05F035
:1008C0000201A591A4BFA581A49FA5A111D0A45107
:1008D000080DF350A76BA66F040EA627000EA723E2
:1008E000A6C2E9FF040EA725EA6E880EEF6E09D0B6
:1008F000A451080DF350A76BE96E040EA725EA6E0C
:10090000EF6A036AA451700F016E0F0E032201C03B
:10091000E9FF03C0EAFFEF900001F3EF04F00201EA
:10092000A591A4BFA581A49FA5A111D0A451080D94
:10093000F350A76BA66F040EA627000EA723A6C22E
:10094000E9FF040EA725EA6E840EEF6E0AD0A451CB
:10095000080DF350A76BE96E040EA725EA6E840E0E
:10096000EF6E0001FBEF04F00201A591A4BFA58189
:10097000A49FA5A111D0A451080DF350A86BA76F97
:10098000040EA727000EA823A7C2E9FF040EA8257E
:10099000EA6EEFCFA6F20AD0A451080DF350A86B6F
:1009A000E96E040EA825EA6EEFCFA6F2A6AF02D03C
:1009B000A6B502D0000E01D0010E016E000107EFB6
:1009C00005F014C4AEF244DC01522EE004011151D2
:1009D000010A000105E0020A0BE0030A11E023D03E
:1009E00014C4A4F26DD70201A86B0001C8DC1CD0AE
:1009F00014C4A4F294D70201A86B0001C0DC14D087
:100A00000401506B516B14C4A4F20001ADD7015224
:100A100004E0010E0401506F0001020E0201A86FF4
:100A20000001ADDC01D0AEDC33EF05F00401115163
:100A30000001A8DC33EF05F0206A040110517F0BA0
:100A4000000A000107E0010A07E0030A07E0230AA1
:100A500007E008D083D607D0DFD605D0B2D703D0C1
:100A6000E5D701D08FDC7CEF06F00201A451080D20
:100A7000F350AA6BE96E040EAA25EA6EEFCFA6F238
:100A8000A551020806E1A6AD02D0A56B02D0010E69
:100A9000A56FA551030813E1840EA66FA451080D9C
:100AA000F350AA6BA96F040EA927000EAA23A9C2AE
:100AB000E9FF040EAA25EA6E840EEF6E07D0A52D7D
:100AC00003D0C80EA66F02D0880EA66FD890A435AA
:100AD000036A00017DEC00F00900F5CF03F002018C
:100AE000A76F03C0A8F2A451080DF350AA6BA96F19
:100AF000010EA925016E000EAA21036E01C0E9FFB7
:100B0000040E0324EA6EA7C2EFFFA8A101D0A681BC
:100B1000A8A301D0A683A451080DF350AA6BE96ED7
:100B2000040EAA25EA6EA6C2EFFF00011200036AB6
:100B30000201A951700FE96E0F0E0320EA6EEF5209
:100B400012E0A951080DF350AB6BAA6F040EAA274F
:100B5000000EAB23AAC2E9FF040EAB25EA6EEFCF6D
:100B6000ACF2ACAF02D0000E01D0010E016E00015C
:100B7000BDEF05F0A4C2A9F2DAD70152D8B470D003
:100B80000201A451080DF350AA6BA96F040EA92706
:100B9000000EAA23010EA925016E000EAA21036EE4
:100BA00001C0E9FF040E0324EA6EA5C2EFFFA751BE
:100BB000020817E1A451080DF350AA6BA96F040EA7
:100BC000A927000EAA23A9C2E9FF040EAA25EA6EEE
:100BD000EFCFA8F2A8AD02D0A76B02D0010EA76F8D
:100BE00013D0A751040810E1A451080DF350AA6BCB
:100BF000E96E040EAA25EA6EEFCFA8F2A8AD03D0E5
:100C0000010EA76F01D0A76BA72D03D0480EA86FC8
:100C100002D0080EA86FA451080DF350AA6BA96F5B
:100C2000040EA927000EAA23A9C2E9FF040EAA25D3
:100C3000EA6EA8C2EFFFA451080DF350AA6BA96F8A
:100C4000040EA927000EAA23A9C2E9FF040EAA25B3
:100C5000EA6EEF508009EF6E010E016E04D00001C4
:100C6000000E016E0201000112000201A45300E116
:100C700000011200A5C26EFF0201A55303E0040E9D
:100C8000256E02D0020E256E00014CEF06F0216A9F
:100C9000206A27C0A5F2EED75DEF06F00201A4534B
:100CA0000DE1202C05D00001D3EC01F006D00201AB
:100CB0002050020803E10001EAD7020100011200FE
:100CC00024300201A26FA233A2331F0EA2172452B6
:100CD0004EE1040100513C0B0201A36F430E0401DD
:100CE00000170201A351340825E104010451800BCF
:100CF00001E0046B0001A0D66D98263C07D00201EC
:100D0000A46B030EA56F0001B0DE12D00201A46B2C
:100D1000020EA56F0001A9DE2650FE0809E00201BF
:100D2000A46BA66B26C0A5F2040EA76F000122DFFC
:100D30001CD00201A351040819E1A46B000195DF46
:100D40000201A46B020EA56F00018FDE2650FE0883
:100D50000CE0263C01D009D00201A46BA66B26C092
:100D6000A5F2010EA76F000105DF020122D0245079
:100D7000040812E12668A46B000190DF263C01D034
:100D800009D00201A46BA66B26C0A5F2020EA76FC4
:100D90000001F0DE0DD0020124B406D0A2C2A4F2FC
:100DA000000163DF05D00201A2C2A4F2000176DFD8
:100DB000020100010FEF07F0A19A2552D8B439D0F3
:100DC0006852D8B436D068A403D069B4FFEF00F0FD
:100DD0006DB22FD068AA03D069BA1DEF01F068A2E6
:100DE00003D069B224EF01F068A003D069B09FEF8F
:100DF00001F068A803D069B8B7EF01F068AC03D080
:100E000069BCBCEF01F00201A16B68A60AD069A61B
:100E100008D06CCF24F0000102EC00F051D703D0D1
:100E2000020106D000010201A151A12B0308EDE24D
:100E300000013CEF00F06D656E75206163746976AA
:100E4000617465640A000C0073656700362A3650C9
:100E5000EF0802E1342A366A34503C0802E1352AB0
:100E6000346AFE0ED76E0C0ED66EF2943CEF00F094
:100E7000020EEA6EA10EE96EEF500EE0010E016E59
:100E8000006A002EFED7012EFBD74A0E006E002E00
:100E9000FED700D0EF2EF2D712008190818281849C
:100EA00081868150EE0804E1310E0201A16F00013C
:100EB0008150DE0804E1340E0201A16F000181506F
:100EC000BE0804E1370E0201A16F000181507E08C7
:100ED00004E12A0E0201A16F0001818081928184C8
:100EE00081868150ED0804E1320E0201A16F0001FC
:100EF0008150DD0804E1350E0201A16F000181502F
:100F0000BD0804E1380E0201A16F000181507D0887
:100F100004E1300E0201A16F000181808182819481
:100F200081868150EB0804E1330E0201A16F0001BC
:100F30008150DB0804E1360E0201A16F00018150EF
:100F4000BB0804E1390E0201A16F000181507B084A
:100F500004E1230E0201A16F00018180818281845E
:100F600081968150E70804E1410E0201A16F000162
:100F70008150D70804E1420E0201A16F00018150A7
:100F8000B70804E1430E0201A16F00018150770808
:100F900004E1440E0201A16F0001819681948192C7
:100FA00081900201A1C201F0000112000F0E0201A6
:100FB000A16F00015DDF81A806D081AA04D081ACB9
:100FC00002D081BE07D069DF01C033F081968194E1
:100FD00081928190F2903CEF00F025645365672088
:100FE000000043415247414E444F2053495354451A
:100FF0004D4100002E000C004249454E56454E49D9
:10100000444F2E2E2E004D572D3230303100566574
:101010007273696F6E204265746100000C00080EE7
:10102000016E00008B9C949C00000201A0378B9EF7
:10103000D8B0948ED8A0949E948C82ACFED7012E0A
:1010400001D002D00001EDD700008B9C949C0000E1
:10105000948E00000000948C82ACFED7016A0000E0
:1010600082BE01808B9C949C8B9E949E00011200FA
:1010700002019E51000A000103E0010A27E04DD061
:1010800002019D39006EF00E001600501E109F6F79
:10109000A06F0001C4DF000002019D39006EF00E58
:1010A0000016005004091E109F6FA06F0001B7DFEB
:1010B00000D002019D39006EF00E00160050FB0BAF
:1010C0001E109F6FA06F0001AADF27D002019D397B
:1010D000006EF00E0016005001091E109F6FA06FE9
:1010E00000019DDF000002019D39006EF00E001628
:1010F0000050010904091E109F6FA06F00018FDFCF
:1011000000D002019D39006EF00E0016005001095A
:101110001E109F6FA06F000182DF1200948E0000EE
:10112000948C00008B9E949E00008B9C949C1AC013
:10113000A0F275DF02019A399C6F0F0E9C179CC2BA
:101140009DF29BC29EF2000193DF02019A510F0BA8
:101150009C6F9D6F9BC29EF200018ADF949E0000EF
:10116000948C82ACFED7000000D00000948E00006A
:101170001200010E02019A6F9B6B0001CFDF196A0A
:10118000F2BE198EF29E020E0201A16F000170DE06
:1011900019BEF28E010E1D6E12007BC21AF07DC2C6
:1011A0001BF07CC21CF0F29CF29EF2BEFDD7196AC5
:1011B000F2BE198EF29E320E0201A16F000158DEBE
:1011C00019BEF28E948E0000948C00008B9E949E2B
:1011D00000008B9C949C1AC0A0F221DF02019D6B41
:1011E0009E6B000145DF196AF2BE198EF29E0F0E4A
:1011F0000201A16F00013CDE19BEF28E010E020158
:101200007E6F7E51030813E3030E9D6F9E6B0001FA
:101210002FDF196AF2BE198EF29E050E0201A16F30
:10122000000126DE19BEF28E02017E2BEAD7020EE5
:101230009D6F9E6B00011CDF196AF2BE198EF29E33
:10124000050E0201A16F000113DE19BEF28E949EFD
:101250000000948C82ACFED7000000D00000948E79
:10126000000002017E6B7E51030819E3036A7E5180
:10127000000163EC00F002017F6F9A6F9B6B00012D
:101280004DDF196AF2BE198EF29E050E0201A16FA2
:101290000001EEDD19BEF28E02017E2BE4D70001C3
:1012A00068DFC00EF2120FEF0EF002017B5303E075
:1012B000080E1E6E01D01E6A000115EF0EF002012D
:1012C00094511B5C03E21BC095F202D094C295F2CC
:1012D0009551010A000107E0030A08E0010A0AE04B
:1012E000070A0CE00FD00201976B0ED0400E0201EE
:1012F000976F0AD0140E0201976F06D0540E0201A8
:10130000976F02D00201976B93511C5C03E21CC0E3
:1013100096F202D093C296F2010E965D9725986FD1
:1013200098518009996F9A6F9B6B0001F7DE12004C
:10133000020192510C0A000105E0060A05E0020ACA
:1013400011E017D016DF1CD01D2A1D501B5C02E2D5
:10135000010E1D6E010E0201936F1DC094F200017B
:10136000AEDF0ED0100E02019A6F9B6B0001D6DE2D
:1013700007D092C29AF2010E02019B6F0001CEDEED
:1013800012000900F5520CE0F6CF8BF2F7CF8CF289
:10139000F5CF92F2CDDF8BC2F6FF8CC2F7FFF1D70B
:1013A00012000E0E02017B25E96E000E7C21EA6E12
:1013B000EF6A0C0E7B25E96E000E7C21EA6EEC6A6A
:1013C000ED52EF6A110E7B25E96E000E7C21EA6E6C
:1013D000EF6A0F0E7B25E96E000E7C21EA6EEC6A47
:1013E000ED52EF6A7BC2E9FF7CC2EAFF7EC2ECFFEE
:1013F000ED527DC2EFFF000112000E0E02017B25AF
:10140000E96E000E7C21EA6EEF506308D8A02ED062
:101410000E0E7B25E96E000E7C21EA6E036AEFCF8B
:1014200002F0D890023603360250020F016E000E11
:10143000032201507B25E96E7C510320EA6E7EC2B7
:10144000ECFFED527DC2EFFF0E0E7B25E96E000E24
:101450007C21EA6EEF2A0C0E7D25E96E000E7E21BE
:10146000EA6E7CC2ECFFED527BC2EFFF000112007E
:10147000EF520FE0EACF8EF2E9CF8DF2EFCF92F28A
:1014800057DF8EC2EAFF8DC2E9FFE92AD8B4EA2A03
:10149000EFD7120002019351016A925D03E292C2FA
:1014A00000F00CD0006A080E946F9237003693510A
:1014B000005CD8B0006E0136942FF7D700011200FF
:1014C00002018D518C5D02E28C5101D08D51016E73
:1014D00000011AEF0BF0200E02018DA9300E8E6F65
:1014E0008CC200F000AE08D0001E002A00C08CF2B2
:1014F0002D0E8E6F8D8F8D8101508CC292F2640EF5
:10150000936F0001C7DF00C08CF2300E012402018E
:101510008F6F8CC292F20A0E936F0001BBDF300E08
:1015200000240201916F300E0124906F8EC200F0F2
:10153000300E8F5D04E08D838DBF8D8512D08EC2FD
:101540008FF2200E8E6F300E905D04E08D818DBF86
:101550008D8307D0D8A48D8104E18FC290F2200E34
:101560008F6F8DB505D08DB307D08DB109D00CD05C
:101570008EC292F20001DCDE8FC292F20001D8DE50
:1015800090C292F20001D4DE91C292F20001D0DE4C
:101590004BEF0BF0460EF66E0E0EF76EF2DE030EFC
:1015A0000201936F010E946F000189DE02017FC278
:1015B000E9FF80C2EAFFECCF8CF2ED52EFCF8BF265
:1015C0008CC2EAFF8BC2E9FF000152DF0201816B8E
:1015D000110E7F25E96E000E8021EA6EEFCF82F2B8
:1015E000020E836F846B010E856F82C292F2030E2E
:1015F000936F00014FDF036A0050830FE96E020E04
:101600000320EA6EEFCF86F202018251030804E262
:101610008651825DFF0F816F0E0E7F25E96E000EF1
:101620008021EA6E8151EF5C8B6F8C6F030E8D6FA2
:10163000000146D701C087F20201886B8751885D9F
:1016400056E281518825036A026ED890023603362D
:101650000250020F016E000E032201507F25E96E39
:1016600080510320EA6EECCF8AF2ED52EFCF89F27F
:10167000020E88258B6F020E936F8BC294F20001CD
:101680001EDE020188518125010F8B6F8C6F180EB1
:101690008D6F000120D7020E020188258B6F030E8B
:1016A000936F8BC294F200010ADE2D0E0201926F3D
:1016B00000013EDE020E020188258B6F040E936F3F
:1016C0008BC294F20001FBDD020189C2E9FF8AC2EC
:1016D000EAFFECCF8CF2ED52EFCF8BF28CC2EAFF37
:1016E0008BC2E9FF0001C4DE0201882BA7D7110ECF
:1016F0007F25E96E000E8021EA6EEF520FE0020EA8
:1017000086258B6F010E936F8BC294F20001D7DD9B
:101710002A0E0201926F00010BDE0201000144EF6C
:101720000DF0196AF2BE198EF29E4DEC07F019BE4B
:10173000F28E01C084F202018453D8A402D00001C9
:10174000F0D784C201F0000199EF0CF0006A016A41
:1017500002018B51D8908CB10026003201328CB33B
:101760000026003201328CB50026003201328CB7DF
:101770000026003201328CB90026003201328CBBC7
:101780000026003201328CBD0026003201328CBFAF
:10179000002600320132000136EF0CF00201896BA5
:1017A000876B0A0E886F866B8451851103E1000EEA
:1017B000016EBBD08951892B8425E96E000E8521ED
:1017C000EA6EEFCF8AF28A512D080CE1010E876F85
:1017D0008951892B8425E96E000E8521EA6EEFCFB1
:1017E0008AF20CD08A512B0809E18951892B842572
:1017F000E96E000E8521EA6EEFCF8AF28A512F083A
:10180000D8B08BD08A513908D8A087D08A513008F7
:101810001EE189518425E96E000E8521EA6EEF50A4
:10182000780809E089518425E96E000E8521EA6E69
:10183000EF5058080CE1100E886F892B8951892BC5
:101840008425E96E000E8521EA6EEFCF8AF2885179
:101850000A081CE18A512F0818E28A51390815E359
:101860000A0E8B6F86C28CF2000170D7300E020117
:101870008A5D0124866F8951892B8425E96E000ECB
:101880008521EA6EEFCF8AF2E5D747D0885110085C
:1018900044E18A51600806E28A517A0803E38A51DA
:1018A000DF0B01D08A518A6F8A512F0803E28A51D7
:1018B000390806E28A51400830E28A5146082DE391
:1018C0008A512F080CE28A51390809E386398B6F57
:1018D000F00E8B17300E8A5D8B25866F09D0863906
:1018E0008B6FF00E8B17410E8A5D0A0F8B25866F6A
:1018F0008951892B8425E96E000E8521EA6EEFCF90
:101900008AF28A51600806E28A517A0803E38A5112
:10191000DF0B01D08A518A6FC7D7872D04D0885139
:101920000A0801E1866D86C201F00001A5EF0CF006
:10193000F8D601C033F033C081F20201826B020E8F
:10194000856F810E846F000129D701C083F20201E7
:10195000835312E00E0E7F25E96E000E8021EA6EA1
:101960008351EF5C09E3110E7F25E96E000E8021A3
:10197000EA6E83C2EFFF78D033502A081CE10C0EC8
:101980007F25E96E000E8021EA6EECCF85F2ED52E4
:10199000EFCF84F2845302E185530DE00C0E7F25D6
:1019A000E96E000E8021EA6EEFCF01F0EE52EDCF2E
:1019B00002F05ED059D03350410811E1110E7F255D
:1019C000E96E000E8021EA6EEF50010808E2110E68
:1019D0007F25E96E000E8021EA6EEF0645D0335078
:1019E000420819E1110E7F25E96E000E8021EA6E92
:1019F000EFCF84F20E0E7F25E96E000E8021EA6E95
:101A0000EF50845D08E2110E7F25E96E000E802103
:101A1000EA6EEF2A29D03350230826E1110E7F25E4
:101A2000E96E000E8021EA6EEF521EE0110E7F2556
:101A3000E96E000E8021EA6E010EEF5C036A026E11
:101A4000D890023603360250020F016E000E0322B8
:101A500001507F25E96E80510320EA6EEFCF01F03F
:101A6000EE52EDCF02F004D07FC201F080C202F04E
:101A7000000155EF0DF07CC27EF27BC27DF27EC28A
:101A800080F27DC27FF286D5196AF2BE198EF29E6F
:101A90000A0E0201A16F000138EC07F019BEF28EA8
:101AA0007EC280F27DC27FF243D702C07EF201C0C7
:101AB0007DF2E5D739EF10F0F86AD09E078E010E5F
:101AC0001D6E080E1E6E346A356A010E366E376A58
:101AD000386A01010F6B116B106BC150C00B0F09FD
:101AE000C16E070EB46E72D001001F0002002D00FF
:101AF00000D600394D454E55205052494E4349506D
:101B0000414C004C4156415200414749544152001A
:101B100043454241520050524F4752414D415200BD
:101B20004C617661720053656C656320506172612F
:101B30006D6574726F004C6176616E646F2E2E2E2F
:101B400000462F4C617661646F3A00542F456E6AEF
:101B500075616775653A00432F4369636C6F733A2B
:101B60000041676974617200496E74656E736964DF
:101B700061643A00542F416769746163696F6E3A1A
:101B8000004365626172004D2F43656261646F3A84
:101B900000542F43656261646F3A0043726561725D
:101BA0000045646974617200426F72726172004E26
:101BB0006F6D62726500010B1015020C1116030D9A
:101BC0001217040E13180A0F14190000000EF86EF5
:101BD0001A0EF76EE80EF66E0900F550006E000A58
:101BE00013E00900F550016EE8BE05D03F0BEA6E28
:101BF0000900F5CFE9FF01BC090001AC0900F5CFF0
:101C0000EEFF004EE9D7F9D7F86A4E0E02017B6F5E
:101C1000140E7C6F040E7D6F0001CDEF08F0010EF5
:101C200002017B6F000155EF09F0F00E936E819673
:101C3000819481928190F19EF286C00EF212030E81
:101C40000201936F020E946F00015FEC09F0E20E47
:101C5000F66E0F0EF76EC1EC09F0030E0101126F64
:101C60001251120811E312C193F2030E0201946F94
:101C700000015FEC09F0F40EF66E0F0EF76EC1EC8A
:101C800009F00101122BECD7F60EF66E0F0EF76E6F
:101C90000001C1EC09F0F80EF66E0F0EF76EC1EC04
:101CA00009F0010E0201936F020E946F00015FECC8
:101CB00009F0060EF66E100EF76EC1EC09F0010E7B
:101CC0000201936F030E946F00015FEC09F00E0E9A
:101CD000F66E100EF76EC1EC09F01C0EF66E100ECB
:101CE000F76EC1EC09F0010E02017C6F130E7B6FE1
:101CF0007E6B390E7D6F0001D1EC09F0010E0201FF
:101D00007C6F250E7B6F7E6B480E7D6F0001D1ECE2
:101D100009F0010E02017C6F370E7B6F7E6B550E52
:101D20007D6F0001D1EC09F0010E02017C6F490EBC
:101D30007B6F7E6B4E0E7D6F0001D1EC09F0010EC2
:101D400002017C6F5B0E7B6F7E6B7D6F0001D1ECBF
:101D500009F0010E02017C6F6D0E7B6F7E6B650ECC
:101D60007D6F0001D1EC09F0010E02017C6F7F0E46
:101D70007B6F7E6B6B0E7D6F0001D1EC09F0010E65
:101D800002017C6F910E7B6F7E6B860E7D6F000172
:101D9000D1EC09F0010E02017C6FA30E7B6F7E6B0C
:101DA000900E7D6F0001D1EC09F0010E02017C6FF5
:101DB000B50E7B6F7E6B9C0E7D6F0001D1EC09F040
:101DC000010E02017C6FC70E7B6F7E6BA60E7D6FCE
:101DD0000001D1EC09F0010E02017C6FD90E7B6F7E
:101DE0007E6BAD0E7D6F0001D1EC09F0010E02019A
:101DF0007C6FEB0E7B6F7E6BB90E7D6F0001D1ECBB
:101E000009F0010E02017C6FFD0E7B6F7E6BC60E2A
:101E10007D6F0001D1EC09F0020E02017C6F0F0E04
:101E20007B6F7E6BCC0E7D6F0001D1EC09F0020E52
:101E300002017C6F210E7B6F7E6BD60E7D6F0001E1
:101E4000D1EC09F0020E02017C6F330E7B6F7E6BCA
:101E5000E00E7D6F0001D1EC09F0020E02017C6FF3
:101E6000450E7B6F7E6BE60E7D6F0001D1EC09F0B5
:101E7000020E02017C6F570E7B6F7E6BED0E7D6F45
:101E80000001D1EC09F0020E02017C6F690E7B6F3C
:101E90007E6BF40E7D6F0001D1EC09F0010E0201A2
:101EA0007C6F130E7B6F010E7E6F250E7D6F000120
:101EB000FDEC09F0010E02017C6F130E7B6F010E29
:101EC0007E6F370E7D6F0001FDEC09F0010E0201FF
:101ED0007C6F130E7B6F010E7E6F490E7D6F0001CC
:101EE000FDEC09F0010E02017C6F130E7B6F010EF9
:101EF0007E6F5B0E7D6F0001FDEC09F0010E0201AB
:101F00007C6F250E7B6F010E7E6F6D0E7D6F000165
:101F1000FDEC09F0010E02017C6F250E7B6F010EB6
:101F20007E6F7F0E7D6F0001FDEC09F0010E020156
:101F30007C6F7F0E7B6F010E7E6F910E7D6F0001B7
:101F4000FDEC09F0010E02017C6F7F0E7B6F010E2C
:101F50007E6FA30E7D6F0001FDEC09F0010E020102
:101F60007C6F7F0E7B6F010E7E6FB50E7D6F000163
:101F7000FDEC09F0010E02017C6F490E7B6F010E32
:101F80007E6FC70E7D6F0001FDEC09F0010E0201AE
:101F90007C6F490E7B6F010E7E6FD90E7D6F000145
:101FA000FDEC09F0010E02017C6F490E7B6F010E02
:101FB0007E6FEB0E7D6F0001FDEC09F0010E02015A
:101FC0007C6F370E7B6F010E7E6FFD0E7D6F000103
:101FD000FDEC09F0010E02017C6F370E7B6F020EE3
:101FE0007E6F0F0E7D6F0001FDEC09F0010E020106
:101FF0007C6F370E7B6F020E7E6F210E7D6F0001AE
:10200000FDEC09F0010E02017C6F5B0E7B6F020E8E
:102010007E6F330E7D6F0001FDEC09F0010E0201B1
:102020007C6F5B0E7B6F020E7E6F450E7D6F000135
:10203000FDEC09F0010E02017C6F5B0E7B6F020E5E
:102040007E6F570E7D6F0001FDEC09F0020E02015C
:102050007C6F330E7B6F020E7E6F690E7D6F000109
:10206000FDEC09F0010E02017C6F130E7B6F000185
:0420700002D5030092
:087FC80004030904080343004F
:107FD000430053001A0343004300530020004800AD
:107FE000490044002000440065006D006F0012034A
:107FF00031003200330034003500360037003800DD
:020000040030CA
:0E0000003FCC271E0087A1000FC00FE00F406D
:00000001FF
;PIC18F4550
;CRC=423C  CREATED="26-Oct-22 18:40"
