:100000009CEF13F068961200046ED8CF05F0E0CF95
:1000100006F00001E9CF0CF0EACF07F0E1CF08F0DD
:10002000E2CF09F0D9CF0AF0DACF0BF0F3CF12F01C
:10003000F4CF13F0FACF14F0F5CF15F0F6CF16F099
:10004000F7CF17F000C00EF001C00FF002C010F0A3
:1000500003C011F0F2AA30EF00F0F2B42CEF07F079
:10006000F2A636EF00F0F2B0DCEF07F0A0AA3CEF0A
:1000700000F0A1BADCEF06F00EC000F00FC001F0F6
:1000800010C002F011C003F00CC0E9FF07C0EAFF86
:10009000078E08C0E1FF09C0E2FF0AC0D9FF0BC00C
:1000A000DAFF12C0F3FF13C0F4FF14C0FAFF15C04B
:1000B000F5FF16C0F6FF17C0F7FF045006C0E0FFBB
:1000C00005C0D8FF1000F76AD60FF66E000EF722B3
:1000D0000900F5501200280C0106F76AEA0FF66EC7
:1000E000000EF7220900F55012000003FFFFFFFF8A
:1000F000FFFFFFFFFFFFFFFFFFFFF76A0A0FF66E2C
:10010000010EF7220900F55012004000080000001F
:1001100000000000000000000000000000000000DF
:1001200000000000000000000000F76A3A0FF66EC1
:10013000010EF7220900F55012000600FF0901A187
:1001400001190129081580257F750895028102197A
:10015000012908750895029102C0F76A6A0FF66EC8
:10016000010EF7220900F55012000000F76A7C0F1B
:10017000F66E010EF7220900F55012002000F76A12
:100180008E0FF66E010EF7220900F55012000902DB
:100190002900010100803209040000020300000070
:1001A0000921000100012220000705810308000A3F
:1001B0000705010308000A00F76AC80FF66E010E72
:1001C000F7220900F55012000100F76ADA0FF66E07
:1001D000010EF7220900F55012001200F76AEC0F29
:1001E000F66E010EF7220900F550120012011001FF
:1001F00000000040610420000001010200016D9236
:10020000699468A402D06894FCD76898E8EF06F077
:10021000400E0401016F040E0201C66F100EC6C22B
:1002200003F4E8CF02F4880E0401006F046B040E9F
:10023000076F500E066F0001120070A002D0E8DFB9
:100240007090689AEFEF06F06A6A6892F4EF06F031
:100250000201D291D1BFD281D19FD151100803E2C6
:10026000000E016E1AD0D2A10DD0036AD151000147
:1002700034DFFF0802E1000E01D0010E016E020121
:100280000CD00BD0036AD151000127DFFF0802E137
:10029000000E01D0010E016E020100011200036A7E
:1002A0000201D051700FE96E0F0E0320EA6EEF6A63
:1002B000D0C2D1F20001CCDF01521AE00201D051CC
:1002C000080DF350D26BE96E040ED225EA6EEF6A88
:1002D000D051080DF350D26BD16F040ED127000E10
:1002E000D223D1C2E9FF040ED225EA6EEF6A0001E3
:1002F0001200010E0201CF6FCF510F0807E3CFC2EA
:10030000D0F20001CCDF0201CF2BF6D700011200A2
:100310002B6A2A6A0201C56BC5530AE1036AC551FB
:100320002C0FE96E000E0320EA6EEF6AC52BF4D79E
:10033000216A010E226E206A0001A7EF01F06B6AAC
:10034000696A6A6A686A6E6A706AD3DFE1D7160EF4
:10035000706E68A602D056DEFCD79F0E6B6E3D0E07
:10036000696E6D9855DF030E256EF9EF06F069840E
:1003700069986D82FEEF06F0689C03EF07F0CBC230
:1003800026F0120026681200CEC201F0CDC200F0A5
:100390000066012A0900F5CFEEFF002EFBD7012EE3
:1003A000F9D7F86A12000201C96B2A502B104BE0F2
:1003B000C9513F0848E32350FC0F33E2040F00010A
:1003C0002FEF02F029C003F02850D9DEE8CFCAF29F
:1003D000020127D029C003F02850A7DEE8CFCAF2D7
:1003E00002011FD0C80E28240201CB6F7F0E2920E6
:1003F000CC6FF86AF76ECBC2F6FF020EEA6ECA0E39
:10040000E96ECE6B010ECD6F0001BEDF020109D097
:1004100029C003F02850E2DEE8CFCAF2020101D081
:100420000201282AD8B4292A2A50D8B42B062A0631
:10043000C951C92B036A500FE96E040E0320EA6EFE
:10044000CAC2EFFFB2D72A502B1004E1C9514008AD
:1004500001E0206AC9C2CBF2000191DF1200E8245A
:10046000F76AF736790FF66E040EF7220A00F55098
:10047000FA6E0800F550F96EC403D403E4031004C7
:100480000201C86B296A286A236A04011351010A10
:10049000000109E0030A0DE0010A0FE0220A44E02E
:1004A000030A5BE076D02B6A120E2A6E030E236ECF
:1004B00072D02B6A290E2A6E6ED0020E236E0201B4
:1004C000C86B040112510201C85D1BE2C80E28244A
:1004D000C96F7F0E2920CA6FF86ACAC2F7FFC9C266
:1004E000F6FF020EEA6ECB0EE96ECE6B010ECD6FFB
:1004F00000014ADF0201CB512826000E2922C82B19
:10050000E0D7C80E2824C96F7F0E2920CA6FF86A69
:10051000F76EC9C2F6FFEA6A2A0EE96ECE6B010ECB
:10052000CD6F000131DF37D0036A040112510001A1
:100530004CDE036A286E03C029F0283C02D0295201
:100540000AE029C003F028501ADE036A2A6E03C0AD
:100550002BF021D002D016DF2DD0036A04011451F4
:100560000001FBDD036A286E03C029F0283C02D09D
:1005700029520DE0010E236E036A0401145100019B
:10058000F5DD036A2A6E03C02BF005D002D0FADE37
:1005900011D0F8DE0FD00401175308E12B5203E10C
:1005A0002A50165D03E22B6A16C42AF0010E206E53
:1005B0000001F9DE12000201C75306E1040E256EA8
:1005C000000197DEC8D00201050E256E040ECA6F29
:1005D000900EC96F010EC86FC8510F08D8A0BBD0CC
:1005E000C8C2D0F200015BDE0201CB6B036AC851C6
:1005F000000173DDFF0855E0040E0201CB6FD890B7
:10060000C835036A000179DD0900F5CF03F0020166
:10061000CC6F03C0CDF2C851080DF350D06BCF6F33
:10062000010ECF25016E000ED021036E01C0E9FF3F
:10063000040E0324EA6ECCC2EFFFC851080DF3503C
:10064000D06BCF6F020ECF25016E000ED021036E4E
:1006500001C0E9FF040E0324EA6ECAC2ECFFED52AA
:10066000C9C2EFFFD890C835036A000146DD090012
:10067000F5CF03F00201C9270350CA23880ECE6FBD
:10068000CDA101D0CE81CDA301D0CE83C851080D1C
:10069000F350D06BE96E040ED025EA6ECEC2EFFFA8
:1006A0000001036A0201C851000117DDFF0838E0AC
:1006B0000201CB83C851080DF350D06BCF6F040EED
:1006C000CF27000ED023020ECF25016E000ED021C1
:1006D000036E01C0E9FF040E0324EA6ECAC2ECFFF8
:1006E000ED52C9C2EFFFD890C835036A000105DD9D
:1006F0000900F5CF03F00201C9270350CA23C851EE
:10070000080DF350D06BCF6F040ECF27000ED0230F
:10071000CFC2E9FF040ED025EA6E400EEF6E000155
:100720000201CB51060802E10E0ECB6F036AC851DD
:100730000001D3DC010803E00201CB890001036A58
:100740000201C851700FE96E0F0E0320EA6ECBC292
:10075000EFFFC82B41D7000102EF04F00401115153
:10076000000A00010DE0010A15E0020A21E0060A74
:100770002CE0030A33E00E0A33E0010A39E049D0E5
:1007800022C050F40401516B020E0201CB6F000134
:10079000F6DD40D00401122D08D0010E2216020110
:1007A000CB6B0001ECDD03D004010001EBDD32D0A6
:1007B0000401122D07D022820201CB6B0001DFDD84
:1007C00003D004010001DEDD25D0020E206E12C42C
:1007D00027F00201CB6B0001D2DD1CD051DE1AD014
:1007E00021C050F4010E0201CB6F0001C8DD12D010
:1007F0000401125101080BE312C421F012C4C7F224
:100800000001D9D60201CB6B0001B9DD0401000162
:1008100001D0B8DD33EF05F021C0C7F2040111515A
:10082000000A000107E00A0A0EE0010A2EE00D0AA4
:1008300042E043D00401506B516B020E0201CB6FBA
:1008400000019DDD3BD00201C7531CE0010EC75DD6
:10085000036A0001B1DC016E0401145DD8A002D06E
:10086000020110D0036A14512C0FE96E000E032010
:10087000EA6EEFCF50F4010E0201CB6F00017FDD75
:1008800003D0020100017EDD19D00201C75310E040
:10089000036A040114512C0FE96E000E0320EA6E66
:1008A00012C4EFFF0201CB6B000169DD03D002012E
:1008B000000168DD03D0E4DD01D064DD33EF05F035
:1008C0000201C891C7BFC881C79FC8A111D0C75135
:1008D000080DF350CA6BC96F040EC927000ECA2356
:1008E000C9C2E9FF040ECA25EA6E880EEF6E09D070
:1008F000C751080DF350CA6BE96E040ECA25EA6EA3
:10090000EF6A036AC751700F016E0F0E032201C018
:10091000E9FF03C0EAFFEF900001F3EF04F00201EA
:10092000C891C7BFC881C79FC8A111D0C751080DC2
:10093000F350CA6BC96F040EC927000ECA23C9C27F
:10094000E9FF040ECA25EA6E840EEF6E0AD0C75185
:10095000080DF350CA6BE96E040ECA25EA6E840EC8
:10096000EF6E0001FBEF04F00201C891C7BFC88120
:10097000C79FC8A111D0C751080DF350CB6BCA6FE8
:10098000040ECA27000ECB23CAC2E9FF040ECB25F2
:10099000EA6EEFCFC9F20AD0C751080DF350CB6B06
:1009A000E96E040ECB25EA6EEFCFC9F2C9AF02D0D3
:1009B000C9B502D0000E01D0010E016E000107EF93
:1009C00005F014C4D1F244DC01522EE004011151AF
:1009D000010A000105E0020A0BE0030A11E023D03E
:1009E00014C4C7F26DD70201CB6B0001C8DC1CD068
:1009F00014C4C7F294D70201CB6B0001C0DC14D041
:100A00000401506B516B14C4C7F20001ADD7015201
:100A100004E0010E0401506F0001020E0201CB6FD1
:100A20000001ADDC01D0AEDC33EF05F00401115163
:100A30000001A8DC33EF05F0206A040110517F0BA0
:100A4000000A000107E0010A07E0030A07E0230AA1
:100A500007E008D083D607D0DFD605D0B2D703D0C1
:100A6000E5D701D08FDC7CEF06F00201C751080DFD
:100A7000F350CD6BE96E040ECD25EA6EEFCFC9F2CF
:100A8000C851020806E1C9AD02D0C86B02D0010E00
:100A9000C86FC851030813E1840EC96FC751080D10
:100AA000F350CD6BCC6F040ECC27000ECD23CCC2FF
:100AB000E9FF040ECD25EA6E840EEF6E07D0C82D37
:100AC00003D0C80EC96F02D0880EC96FD890C73541
:100AD000036A00017DEC00F00900F5CF03F002018C
:100AE000CA6F03C0CBF2C751080DF350CD6BCC6F6A
:100AF000010ECC25016E000ECD21036E01C0E9FF71
:100B0000040E0324EA6ECAC2EFFFCBA101D0C98153
:100B1000CBA301D0C983C751080DF350CD6BE96E4B
:100B2000040ECD25EA6EC9C2EFFF00011200036A70
:100B30000201CC51700FE96E0F0E0320EA6EEF52E6
:100B400012E0CC51080DF350CE6BCD6F040ECD27C3
:100B5000000ECE23CDC2E9FF040ECE25EA6EEFCF04
:100B6000CFF2CFAF02D0000E01D0010E016E000116
:100B7000BDEF05F0C7C2CCF2DAD70152D8B470D0BD
:100B80000201C751080DF350CD6BCC6F040ECC277A
:100B9000000ECD23010ECC25016E000ECD21036E7B
:100BA00001C0E9FF040E0324EA6EC8C2EFFFCA5178
:100BB000020817E1C751080DF350CD6BCC6F040E3E
:100BC000CC27000ECD23CCC2E9FF040ECD25EA6E62
:100BD000EFCFCBF2CBAD02D0CA6B02D0010ECA6F01
:100BE00013D0CA51040810E1C751080DF350CD6B62
:100BF000E96E040ECD25EA6EEFCFCBF2CBAD03D07C
:100C0000010ECA6F01D0CA6BCA2D03D0480ECB6F3C
:100C100002D0080ECB6FC751080DF350CD6BCC6FCF
:100C2000040ECC27000ECD23CCC2E9FF040ECD2547
:100C3000EA6ECBC2EFFFC751080DF350CD6BCC6FFE
:100C4000040ECC27000ECD23CCC2E9FF040ECD2527
:100C5000EA6EEF508009EF6E010E016E04D00001C4
:100C6000000E016E0201000112000201C75300E1F3
:100C700000011200C8C26EFF0201C85303E0040E57
:100C8000256E02D0020E256E00014CEF06F0216A9F
:100C9000206A27C0C8F2EED75DEF06F00201C75305
:100CA0000DE1202C05D00001D3EC01F006D00201AB
:100CB0002050020803E10001EAD7020100011200FE
:100CC00024300201C56FC533C5331F0EC51724522A
:100CD0004EE1040100513C0B0201C66F430E0401BA
:100CE00000170201C651340825E104010451800BAC
:100CF00001E0046B0001A0D66D98263C07D00201EC
:100D0000C76B030EC86F0001B0DE12D00201C76BC3
:100D1000020EC86F0001A9DE2650FE0809E002019C
:100D2000C76BC96B26C0C8F2040ECA6F000122DF70
:100D30001CD00201C651040819E1C76B000195DF00
:100D40000201C76B020EC86F00018FDE2650FE083D
:100D50000CE0263C01D009D00201C76BC96B26C04C
:100D6000C8F2010ECA6F000105DF020122D0245033
:100D7000040812E12668C76B000190DF263C01D011
:100D800009D00201C76BC96B26C0C8F2020ECA6F38
:100D90000001F0DE0DD0020124B406D0C5C2C7F2B6
:100DA000000163DF05D00201C5C2C7F2000176DF92
:100DB000020100010FEF07F0A19A2552D8B439D0F3
:100DC0006852D8B436D068A403D069B4FFEF00F0FD
:100DD0006DB22FD068AA03D069BA1DEF01F068A2E6
:100DE00003D069B224EF01F068A003D069B09FEF8F
:100DF00001F068A803D069B8B7EF01F068AC03D080
:100E000069BCBCEF01F00201C46B68A60AD069A6F8
:100E100008D06CCF24F0000102EC00F051D703D0D1
:100E2000020106D000010201C451C42B0308EDE207
:100E300000013CEF00F0ECCFFAFFED52EFCFE8FFFE
:100E4000F96E12006D656E75206163746976617468
:100E500065640A0073656700362A3650EF0802E1C0
:100E6000342A366A34503C0802E1352A346AFE0ED0
:100E7000D76E0C0ED66EF2943CEF00F0020EEA6EC6
:100E8000C40EE96EEF500EE0010E016E006A002EF6
:100E9000FED7012EFBD74A0E006E002EFED700D0E3
:100EA000EF2EF2D712008190818281848186815059
:100EB000EE0804E1310E0201C46F00018150DE082A
:100EC00004E1340E0201C46F00018150BE0804E148
:100ED000370E0201C46F000181507E0804E12A0E22
:100EE0000201C46F000181808192818481868150DA
:100EF000ED0804E1320E0201C46F00018150DD08EB
:100F000004E1350E0201C46F00018150BD0804E107
:100F1000380E0201C46F000181507D0804E1300EDB
:100F20000201C46F00018180818281948186815099
:100F3000EB0804E1330E0201C46F00018150DB08AD
:100F400004E1360E0201C46F00018150BB0804E1C8
:100F5000390E0201C46F000181507B0804E1230EA9
:100F60000201C46F00018180818281848196815059
:100F7000E70804E1410E0201C46F00018150D70867
:100F800004E1420E0201C46F00018150B70804E180
:100F9000430E0201C46F00018150770804E1440E42
:100FA0000201C46F000181968194819281900201B7
:100FB000C4C201F0000112000F0E0201C46F000153
:100FC0005DDF81A806D081AA04D081AC02D081BEA9
:100FD00007D069DF01C033F08196819481928190BE
:100FE000F2903CEF00F02564536567200000434118
:100FF0005247414E444F2053495354454D41000000
:101000002E000C004249454E56454E49444F2E2E67
:101010002E004D572D323030310056657273696F96
:101020006E204265746100000C000C004C6176611A
:101030006E646F202E2E2E000C003C20554D454C2A
:10104000495341203E003C204D4943524F454C49B5
:101050005341203E00000C00256C6420736567201E
:1010600000000C00080E016E00008B9C949C000098
:101070000201B7378B9ED8B0948ED8A0949E948CE2
:1010800082ACFED7012E01D002D00001EDD70000C6
:101090008B9C949C0000948E00000000948C82AC89
:1010A000FED7016A000082BE01808B9C949C8B9EBF
:1010B000949E000112000201B551000A000103E0F4
:1010C000010A27E04DD00201B439006EF00E00167F
:1010D00000501E10B66FB76F0001C4DF00000201A0
:1010E000B439006EF00E0016005004091E10B66FE1
:1010F000B76F0001B7DF00D00201B439006EF00E07
:1011000000160050FB0B1E10B66FB76F0001AADF70
:1011100027D00201B439006EF00E0016005001090C
:101120001E10B66FB76F00019DDF00000201B439D9
:10113000006EF00E00160050010904091E10B66F73
:10114000B76F00018FDF00D00201B439006EF00EDE
:101150000016005001091E10B66FB76F000182DF44
:101160001200948E0000948C00008B9E949E0000D0
:101170008B9C949C1AC0B7F275DF0201B139B36F32
:101180000F0EB317B3C2B4F2B2C2B5F2000193DFCF
:101190000201B1510F0BB36FB46FB2C2B5F20001CF
:1011A0008ADF949E0000948C82ACFED7000000D0B1
:1011B0000000948E00001200010E0201B16FB26BAC
:1011C0000001CFDF196AF2BE198EF29E020E0201F3
:1011D000C46F000153DE19BEF28E010E1D6E1200A7
:1011E0008EC21AF090C21BF08FC21CF0F29CF29ECD
:1011F000F2BEFDD7196AF2BE198EF29E320E0201BE
:10120000C46F00013BDE19BEF28E948E0000948CF8
:1012100000008B9E949E00008B9C949C1AC0B7F299
:1012200021DF0201B46BB56B000145DF196AF2BE24
:10123000198EF29E0F0E0201C46F00011FDE19BE4F
:10124000F28E010E0201916F9151030813E3030E18
:10125000B46FB56B00012FDF196AF2BE198EF29ED2
:10126000050E0201C46F000109DE19BEF28E0201F3
:10127000912BEAD7020EB46FB56B00011CDF196A1F
:10128000F2BE198EF29E050E0201C46F0001F6DD5A
:1012900019BEF28E949E0000948C82ACFED70000A2
:1012A00000D00000948E00000201916B9151030860
:1012B00019E3036A9151000163EC00F00201926F9F
:1012C000B16FB26B00014DDF196AF2BE198EF29E4A
:1012D000050E0201C46F0001D1DD19BEF28E0201BC
:1012E000912BE4D7000168DFC00EF21258EF14F022
:1012F00002018E5303E0080E1E6E01D01E6A00012B
:101300005EEF14F00201AB511B5C03E21BC0ACF2B8
:1013100002D0ABC2ACF2AC51010A000107E0030AF3
:1013200008E0010A0AE0070A0CE00FD00201AE6BE8
:101330000ED0400E0201AE6F0AD0140E0201AE6F45
:1013400006D0540E0201AE6F02D00201AE6BAA515C
:101350001C5C03E21CC0ADF202D0AAC2ADF2010EC9
:10136000AD5DAE25AF6FAF518009B06FB16FB26B9D
:101370000001F7DE12000201A9510C0A000105E08C
:10138000060A05E0020A11E017D016DF1CD01D2A5C
:101390001D501B5C02E2010E1D6E010E0201AA6FC0
:1013A0001DC0ABF20001AEDF0ED0100E0201B16F16
:1013B000B26B0001D6DE07D0A9C2B1F2010E020164
:1013C000B26F0001CEDE12000900F5520CE0F6CF3C
:1013D000A0F2F7CFA1F2F5CFA9F2CDDFA0C2F6FFC0
:1013E000A1C2F7FFF1D7120002019051030801E2F8
:1013F00002D090C238F000010FEF0BF0036A3850B2
:101400000B0FE96E010E0320EA6EEFCF91F2F2505E
:10141000006EF29E91C2A9FF90C2A8FFA69CA69E54
:10142000A6840F01550EA76EAA0EA76EA682A6B2BD
:10143000FED7A6940050F212000114EF0BF0036ADD
:101440003850070FE96E010E0320EA6EEFCF91F2DC
:10145000F250006EF29E91C2A9FF90C2A8FFA69C16
:10146000A69EA6840F01550EA76EAA0EA76EA68291
:10147000A6B2FED7A6940050F212000119EF0BF0AD
:101480000201A56BA451036A016E00011200020162
:10149000A3C200F0036A00C001F000011200036A59
:1014A0003850FF0FE96E000E0320EA6EEFCFA2F274
:1014B000A1C2A4F2A0C2A3F2E3DF01C0A3F2F250E2
:1014C000006EF29EA2C2A9FFA3C2A8FFA69CA69E80
:1014D000A6840F01550EA76EAA0EA76EA682A6B20D
:1014E000FED7A6940050F212036A3850030FE96E3B
:1014F000010E0320EA6EEFCFA2F2A1C2A4F2A0C2B5
:10150000A3F20001C4DF01C0A3F2F250006EF29E0C
:10151000A2C2A9FFA3C2A8FFA69CA69EA6840F01F3
:10152000550EA76EAA0EA76EA682A6B2FED7A694E7
:101530000050F21200011200036A3850130FE96ED6
:10154000010E0320EA6EEFCF91F2F250006EF29E90
:1015500091C2A9FF90C2A8FFA69CA69EA6840F01D7
:10156000550EA76EAA0EA76EA682A6B2FED7A694A7
:101570000050F212000124EF0BF0036A38501B0FE9
:10158000E96E010E0320EA6EEFCF91F20201A46B27
:1015900090C2A3F2000174DF01C092F2F250006E1B
:1015A000F29E91C2A9FF92C2A8FFA69CA69EA68405
:1015B0000F01550EA76EAA0EA76EA682A6B2FED781
:1015C000A6940050F212036A38501F0FE96E010E04
:1015D0000320EA6EEFCF91F20201A46B90C2A3F256
:1015E000000155DF01C092F2F250006EF29E91C2EE
:1015F000A9FF92C2A8FFA69CA69EA6840F01550E25
:10160000A76EAA0EA76EA682A6B2FED7A694005019
:10161000F212000129EF0BF08FC290F2E5D61E0EF8
:101620000201906F0001EAD6040E0201906F0001E2
:1016300006D70201A16B1E0EA06F000130DF020E63
:101640000201906F000178D71E0E0201906F000119
:1016500094D734EF0BF002018E6B8E51030807E331
:101660008EC28FF20001D8D702018E2BF6D700016F
:10167000BEEF14F00E0E02018E25E96E000E8F21D2
:10168000EA6EEF6A0C0E8E25E96E000E8F21EA6E6F
:10169000EC6AED52EF6A110E8E25E96E000E8F2175
:1016A000EA6EEF6A0F0E8E25E96E000E8F21EA6E4C
:1016B000EC6AED52EF6A8EC2E9FF8FC2EAFF91C277
:1016C000ECFFED5290C2EFFF000112000E0E02017E
:1016D0008E25E96E000E8F21EA6EEF506308D8A0C8
:1016E0002ED00E0E8E25E96E000E8F21EA6E036A53
:1016F000EFCF02F0D890023603360250020F016E8F
:10170000000E032201508E25E96E8F510320EA6EF0
:1017100091C2ECFFED5290C2EFFF0E0E8E25E96EE6
:10172000000E8F21EA6EEF2A0C0E9025E96E000E56
:101730009121EA6E8FC2ECFFED528EC2EFFF0001E5
:101740001200EF520FE0EACFA1F2E9CFA0F2EFCF03
:10175000A9F211DEA1C2EAFFA0C2E9FFE92AD8B4CA
:10176000EA2AEFD712000201A651016AA55D03E241
:10177000A5C200F00CD0006A080EA76FA53700368E
:10178000A651005CD8B0006E0136A72FF7D7000134
:1017900012000201A0519F5D02E29F5101D0A051B1
:1017A000016E000183EF0CF0200E0201A0A9300EA3
:1017B000A16F9FC200F000AE08D0001E002A00C03A
:1017C0009FF22D0EA16FA08FA08101509FC2A5F2A4
:1017D000640EA66F0001C7DF00C09FF2300E012427
:1017E0000201A26F9FC2A5F20A0EA66F0001BBDF25
:1017F000300E00240201A46F300E0124A36FA1C299
:1018000000F0300EA25D04E0A083A0BFA08512D03E
:10181000A1C2A2F2200EA16F300EA35D04E0A08150
:10182000A0BFA08307D0D8A4A08104E1A2C2A3F2E4
:10183000200EA26FA0B505D0A0B307D0A0B109D0EB
:101840000CD0A1C2A9F2000196DDA2C2A9F200014A
:1018500092DDA3C2A9F200018EDDA4C2A9F20001AB
:101860008ADDB4EF0CF0620EF66E100EF76EACDD92
:10187000030E0201AA6F010EAB6F000143DD0201EE
:1018800092C2E9FF93C2EAFFECCF9FF2ED52EFCF95
:101890009EF29FC2EAFF9EC2E9FF000152DF0201F1
:1018A000946B110E9225E96E000E9321EA6EEFCF34
:1018B00095F2020E966F976B010E986F95C2A5F286
:1018C000030EA66F00014FDF036A0050960FE96E0A
:1018D000020E0320EA6EEFCF99F202019551030840
:1018E00004E29951955DFF0F946F0E0E9225E96EFB
:1018F000000E9321EA6E9451EF5C9E6F9F6F030E72
:10190000A06F000146D701C09AF202019B6B9A5169
:101910009B5D56E294519B25036A026ED890023675
:1019200003360250020F016E000E03220150922571
:10193000E96E93510320EA6EECCF9DF2ED52EFCFAA
:101940009CF2020E9B259E6F020EAA6F9EC2ABF206
:101950000001D8DC02019B519425010F9E6F9F6FFF
:10196000180EA06F000120D7020E02019B259E6F6A
:10197000030EAA6F9EC2ABF20001C4DC2D0E020161
:10198000A96F0001F8DC020E02019B259E6F040E78
:10199000AA6F9EC2ABF20001B5DC02019CC2E9FF56
:1019A0009DC2EAFFECCF9FF2ED52EFCF9EF29FC2B5
:1019B000EAFF9EC2E9FF0001C4DE02019B2BA7D70C
:1019C000110E9225E96E000E9321EA6EEF520FE0A0
:1019D000020E99259E6F010EAA6F9EC2ABF2000106
:1019E00091DC2A0E0201A96F0001C5DC0201000191
:1019F00084EF13F0196AF2BE198EF29E53EC07F0D1
:101A000019BEF28E01C0A0F20201A053D8A402D0E8
:101A10000001F0D7A0C201F000011200006A016AC3
:101A20000201A751D890A8B1002600320132A8B314
:101A3000002600320132A8B5002600320132A8B7D4
:101A4000002600320132A8B9002600320132A8BBBC
:101A5000002600320132A8BD002600320132A8BFA4
:101A600000260032013200019EEF0DF00201A56B4D
:101A7000A36B0A0EA46FA26BA051A11103E1000E8B
:101A8000016EBBD0A551A52BA025E96E000EA121AA
:101A9000EA6EEFCFA6F2A6512D080CE1010EA36F5E
:101AA000A551A52BA025E96E000EA121EA6EEFCF6E
:101AB000A6F20CD0A6512B0809E1A551A52BA02513
:101AC000E96E000EA121EA6EEFCFA6F2A6512F0813
:101AD000D8B08BD0A6513908D8A087D0A6513008ED
:101AE0001EE1A551A025E96E000EA121EA6EEF507E
:101AF000780809E0A551A025E96E000EA121EA6E43
:101B0000EF5058080CE1100EA46FA52BA551A52B82
:101B1000A025E96E000EA121EA6EEFCFA6F2A45136
:101B20000A081CE1A6512F0818E2A651390815E34E
:101B30000A0EA76FA2C2A8F2000170D7300E0201F0
:101B4000A65D0124A26FA551A52BA025E96E000E6C
:101B5000A121EA6EEFCFA6F2E5D747D0A451100835
:101B600044E1A651600806E2A6517A0803E3A651B3
:101B7000DF0B01D0A651A66FA6512F0803E2A65194
:101B8000390806E2A651400830E2A65146082DE386
:101B9000A6512F080CE2A651390809E3A239A76F14
:101BA000F00EA717300EA65DA725A26F09D0A239A7
:101BB000A76FF00EA717410EA65D0A0FA725A26F0B
:101BC000A551A52BA025E96E000EA121EA6EEFCF4D
:101BD000A6F2A651600806E2A6517A0803E3A651D0
:101BE000DF0B01D0A651A66FC7D7A32D04D0A451F7
:101BF0000A0801E1A26DA2C201F000011200D8B2F0
:101C000004D0020EEA6EBF0EE96E006A016A026A33
:101C1000036A0201BF6BC06BC16BC26BBE51BD11C9
:101C2000BC11BB112CE0200EC36FD890B737B8376A
:101C3000B937BA37BF37C037C137C237BE51C25DB7
:101C400008E1BD51C15D05E1BC51C05D02E1BB5180
:101C5000BF5D0FE3BB51BF5FBC51D8A0BC3DC05FAF
:101C6000BD51D8A0BD3DC15FBE51D8A0BE3DC25F31
:101C7000D8800036013602360336C32FD6D7BFC20E
:101C8000EFFFC0C2ECFFC1C2ECFFC2C2ECFF00011B
:101C90001200016A026A006A036A0201B25102E19B
:101CA000B15118E0100EB36FD890AF37B03700368F
:101CB0000336B251035C02E1B151005C07E3B1515C
:101CC000005ED8A00306B251035ED880013602360A
:101CD000B32FEAD7000112000201BB6BBC6B010EEF
:101CE000BD6FDA6AD96A020EC06FB30EBF6F020E03
:101CF000EA6EB70EE96EC0C2E2FFBFC2E1FFBDC22D
:101D0000BEF2D890E550EE02F350BB23F450BC2352
:101D1000BE2FF7D7BBC2DEFFBCC2BBF2BC6BD8B0D4
:101D2000BC2BBF2BD8B4C02BBD2BBD510508DFE1A8
:101D30000001A1EF0FF0150E0201B45F0FE3020ED8
:101D4000EA6EB40EE96EFC0EEF16D890EF32EF3269
:101D5000EF5004E001D00000EF2EFDD70001DEEFD0
:101D60000EF00201B36BB051B35D0EE2196AF2BE20
:101D7000198EF29EFA0EC46F00013EEC07F019BEF8
:101D8000F28E0201B32BEFD7196AF2BE198EF29EC2
:101D9000AFC2C4F200013EEC07F019BEF28E0201A0
:101DA000B36BB251B35D06E2530E006E002EFED748
:101DB000B32BF7D7B1C2B4F20001BDD712000201B4
:101DC000AF51070B006EAF31016E013201321F0EB1
:101DD00001160150B125E96E000EB221EA6E016ACA
:101DE000012A002A01D00136002EFDD7B05303E0AE
:101DF0000150EF1203D0011E0150EF160001120036
:101E0000D8920201BA6B0F0EB96F420EB86F400E36
:101E1000B76FBE6BBD6B9EC2BCF29DC2BBF2000130
:101E2000EEDE03C0B2F202C0B1F201C0B0F200C0F7
:101E3000AFF2D8900201B233B133B033AF330A0EF0
:101E4000AF5DA16F000EB059A26F000EB159A36F24
:101E5000000EB259A46FD892A4C2BAF2A3C2B9F2CA
:101E6000A2C2B8F2A1C2B7F2BE6BBD6B030EBC6FCB
:101E7000E80EBB6F0001C3DE01C0A6F200C0A5F2F0
:101E8000A6C2B0F2A5C2AFF20201B26BFA0EB16FF8
:101E90000001FFDE01C0AAF2A6C2B0F2A5C2AFF2F5
:101EA0000201B26BFA0EB16F0001F3DE00C0ABF2BB
:101EB0000201D882020EEA6EAF0EE96EA4C2BAF237
:101EC000A3C2B9F2A2C2B8F2A1C2B7F2BE6BBD6B97
:101ED000030EBC6FE80EBB6F000191DEB0C2A8F22A
:101EE000AFC2A7F2A8C2B0F2A7C2AFF20201B26BB2
:101EF000FA0EB16F0001CDDE01C0A9F2A8C2B0F2A6
:101F0000A7C2AFF20201B26BFA0EB16F0001C1DEDF
:101F100000C0ACF20201B26BB16BA0C2B0F29FC2C2
:101F2000AFF2B2C2B6F2B1C2B5F2A0C2B4F29FC271
:101F3000B3F2BA6BB96B030EB86FE80EB76F00015E
:101F4000CBD603C0B2F202C0B1F201C0B0F200C001
:101F5000AFF2D8920201BA6B0F0EB96F420EB86F92
:101F6000400EB76FBE6BBD6B9EC2BCF29DC2BBF292
:101F7000000145DE03C0B6F202C0B5F201C0B4F202
:101F800000C0B3F2D892B2C2BAF2B1C2B9F2B0C2D2
:101F9000B8F2AFC2B7F203C0BEF202C0BDF201C0D8
:101FA000BCF200C0BBF22BDE01C0AEF200C0ADF24D
:101FB0000201AEC2B0F2AD51D8B4AE07AD07AF6FFB
:101FC000AF5302E1B0533EE0ABC2AFF2AAC2B0F2EF
:101FD000ACC2B1F2A9C2B2F20001C3DE9CC2AFF240
:101FE000010E0201B06F0F0EB26F890EB16F0001CA
:101FF000E6DE9CC2AFF20201B06B0F0EB26F920E22
:10200000B16F0001DCDEABC2AFF2AAC2B0F2ACC26B
:10201000B1F2A9C2B2F2A5DE9CC2AFF20201B06B6E
:102020000F0EB26F890EB16F0001C9DE9CC2AFF214
:102030000201B06B0F0EB26F920EB16F0001BFDEE6
:10204000B7D70201000159EF10F02A0EF66E100EFC
:10205000F76EE4EC09F0020E0201AA6F030EAB6FFB
:10206000000182EC09F02C0EF66E100EF76EE4EC17
:1020700009F0020E02019C6F196AF2BE198EF29EDF
:10208000FA0EC46F00013EEC07F019BEF28E020199
:102090009C2FF2D79B6B9B5104081AE3120E9C6F86
:1020A000010E9E6FF40E9D6FA06B190E9F6F0001C5
:1020B000A7D6196AF2BE198EF29E640E0201C46F91
:1020C00000013EEC07F019BEF28E02019B2BE3D714
:1020D00000011200036A3850FB0FE96E000E032066
:1020E000EA6EEFCF9DF2F2CF9EF2F29E9DC2A9FF63
:1020F000A69CA69EA680A85002019EBFF28E016EED
:102100000001CDEF10F0196AF2BE198EF29E53EC69
:1021100007F019BEF28E01C09DF202019D51430AE3
:10212000000107E0070A09E06E0A0BE0090A0DE06A
:102130000FD0030E016E0DD00BD0020E016E09D030
:1021400007D0010E016E05D003D0000E016E01D044
:10215000DAD704EF11F0036A3850FB0FE96E000E76
:102160000320EA6EEFCF9FF2F250006EF29E9FC204
:10217000A9FF9EC2A8FFA69CA69EA6840F01550E8D
:10218000A76EAA0EA76EA682A6B2FED7A69400508E
:10219000F212000119EF11F09DD702019B9101B0DD
:1021A0009B81380EF66E100EF76E0001E4EC09F01C
:1021B000010E0201AA6FAB6F000182EC09F0EA6A1E
:1021C0006B0EE96EA1EC0BF002019BB10FD0010E7A
:1021D000AA6F020EAB6F000182EC09F03A0EF66EA8
:1021E000100EF76EE4EC09F00ED00201010EAA6F9A
:1021F000020EAB6F000182EC09F0460EF66E100E77
:10220000F76EE4EC09F07FD701C09CF202019C510B
:10221000FC0F11E2040F00011EEF11F002019B718F
:102220000AD0000E02019BB1010E9D6F9E6F00014E
:1022300092D703D00201B5D700011200E824F76A53
:10224000F736570FF66E220EF7220A00F550FA6E97
:102250000800F550F96E222232221C221C22000EA8
:102260000201A511036A016E03C002F000016CEFC8
:1022700011F0036A3850FF0FE96E000E0320EA6E7A
:10228000EFCFA4F2F2CFA5F2F29EA4C2A9FFA69CC2
:10229000A69EA680A8500201A5BFF28EA16BA06FDA
:1022A000036A3850030FE96E010E0320EA6EEFCF88
:1022B000A4F2F2CFA6F2F29EA4C2A9FFA69CA69E0B
:1022C000A680A850A6BFF28EA36BA26FA0C2A4F2F4
:1022D000A2C2A5F20001C3D7025019EF12F0EACF53
:1022E000A8F2E9CFA7F20201A1AF08D0A78FA7A952
:1022F000A72BA01FA11FA02BD8B4A12BA139F00997
:10230000A36FA327E20FA46F320FA66FA1510F0B8B
:10231000A427A427A627E90FA56FA527A527A039DD
:102320000F0BA527A627A537A637A61FA637A051AE
:102330000F0BA627A337070EA26F0A0EA507A62725
:10234000FDE3A407A527FDE3A307A427FDE3A20758
:10235000A327FDE3020EEA6EA20EE96E070EA71593
:10236000A79DED52A71507E1A7B9EE52A7B903D073
:10237000200E006E21D0E926000EEA22E950A608C0
:1023800004E1EA50020801E1A78DEF50006E08E178
:10239000A7BD06D0A7B91ED0A7B702D0200E0BD07C
:1023A000A7AF06D02D0E006EED50A79DA79F04D0BD
:1023B000A787A799300E0026EACFA1F2E9CFA0F2B5
:1023C00000C0A9F20001BBEC09F0A1C2EAFFA0C263
:1023D000E9FF0201EE50A7ADD1D700014AEF12F09C
:1023E0000900F6CFA1F2F7CFA2F2F5CFA9F2BBEC2C
:1023F00009F0A1C2F6FFA2C2F7FF0201A02F01D08F
:1024000002D00001EDD7000153EF12F00201A051FC
:10241000A203F3CF01F0F4CF00F0A303F3500026A2
:10242000A151A203F3500020026E000196EF12F0BA
:1024300020D702C09CF201C09BF2196AF2BE198E2D
:10244000F29E960E0201C46F00013EEC07F019BE29
:10245000F28E560EF66E100EF76EE4EC09F0010ED9
:102460000201AA6FAB6F000182EC09F0EA6A6B0E01
:10247000E96EA1EC0BF0010E0201AA6F030EAB6F27
:10248000000182EC09F0100EE96E9CC2A1F29BC221
:10249000A0F225D75B0EF66E100EF76E050E020148
:1024A000A06F00019DD7FAEC0CF001C033F033C0EF
:1024B0009DF202019E6B020EA16F9D0EA06F0001A6
:1024C00036EC0DF001C09FF23350410801E140D0DD
:1024D0003350420801E13CD03350430801E138D089
:1024E0003350440801E134D033502A0802E131D09E
:1024F0002FD03350230810E102019B5302E19C537B
:1025000009E09CC2A1F29BC2A0F200014FEC0AF0CC
:1025100020D002011CD000019CC2A1F29BC2A0F2FB
:102520000201A36B0A0EA26F000170D702019F5136
:1025300001249B6F000E02209C6F9C51000807E253
:10254000FF0A03E19B512C0802E29C6B9B6B00018C
:1025500074D71200FAEC0CF001C033F033C094F2DF
:102560000201956B020EA16F940EA06F000136EC74
:102570000DF001C096F20201965312E00E0E922564
:10258000E96E000E9321EA6E9651EF5C09E3110E9D
:102590009225E96E000E9321EA6E96C2EFFFA3D05A
:1025A00033502A081CE10C0E9225E96E000E93218F
:1025B000EA6EECCF9CF2ED52EFCF9BF29B5302E11F
:1025C0009C530DE00C0E9225E96E000E9321EA6EED
:1025D000EFCF01F0EE52EDCF02F089D084D033502E
:1025E000410811E1110E9225E96E000E9321EA6E69
:1025F000EF50010808E2110E9225E96E000E9321BA
:10260000EA6EEF0670D03350420819E1110E9225A0
:10261000E96E000E9321EA6EEFCF9BF20E0E92252B
:10262000E96E000E9321EA6EEF509B5D08E2110EF9
:102630009225E96E000E9321EA6EEF2A54D03350B2
:10264000230851E1110E9225E96E000E9321EA6EE6
:10265000EF5249E0110E9225E96E000E9321EA6EC9
:10266000010EEF5C036A026ED89002360336025008
:10267000020F016E000E032201509225E96E935164
:102680000320EA6EECCF98F2ED52EFCF97F20F0EE7
:102690009725E96E000E9821EA6EECCF9CF2ED5280
:1026A000EFCF9BF29B5302E19C5318E00F0E97254E
:1026B000E96E000E9821EA6EECCF9AF2ED52EFCF60
:1026C00099F2020EEA6E990EE96E00011BEC07F01A
:1026D000020192C201F093C202F009D097C201F048
:1026E00098C202F004D092C201F093C202F000013D
:1026F00095EF13F08FC291F28EC290F291C293F2D5
:1027000090C292F233EF0CF0196AF2BE198EF29E6B
:102710000A0E0201C46F00013EEC07F019BEF28EF2
:1027200091C293F290C292F215D702C091F201C009
:1027300090F2E4D7A3EF16F0F86AD09E078E010E50
:102740001D6E080E1E6E346A356A010E366E376ACB
:10275000386A0101246B236BC150C00B0F09C16E95
:10276000070EB46E7CD001001F0002002D0000EAAD
:1027700000394D454E55205052494E434950414C29
:10278000004C415641520041474954415200434593
:102790004241520050524F4752414D4152004C610C
:1027A0007661720053656C656320506172616D657E
:1027B00074726F004C6176616E646F2E2E2E00462F
:1027C0002F4C617661646F3A00542F456E6A7561D3
:1027D0006775653A00432F4369636C6F733A004134
:1027E000676974617200496E74656E7369646164CF
:1027F0003A00542F416769746163696F6E3A004310
:1028000065626172004D2F43656261646F3A0054E6
:102810002F43656261646F3A0043726561720045DF
:10282000646974617200426F72726172004E6F6D02
:1028300062726500010B1015020C1116030D1217C0
:10284000040E13180A0F1419051A1C1E061B1D1F4F
:102850000720232608212427092225280000000E0E
:10286000F86E270EF76E660EF66E0900F550006ED4
:10287000000A13E00900F550016EE8BE05D03F0BD9
:10288000EA6E0900F5CFE9FF01BC090001AC0900BF
:10289000F5CFEEFF004EE9D7F9D7F86A4E0E0201E8
:1028A0008E6F140E8F6F040E906F0001F0EF08F022
:1028B000010E02018E6F000178EF09F0F00E936EA9
:1028C0008196819481928190F19EF286C00EF212DF
:1028D000030E0201AA6F020EAB6F000182EC09F039
:1028E000EE0EF66E0F0EF76EE4EC09F0030E01012A
:1028F000256F2551120811E325C1AAF2030E02012A
:10290000AB6F000182EC09F0000EF66E100EF76E50
:10291000E4EC09F00101252BECD7020EF66E100E47
:10292000F76E0001E4EC09F0040EF66E100EF76E7F
:10293000E4EC09F0010E0201AA6F020EAB6F000178
:1029400082EC09F0120EF66E100EF76EE4EC09F050
:10295000010E0201AA6F030EAB6F000182EC09F0B9
:102960001A0EF66E100EF76EE4EC09F0280EF66EF5
:10297000100EF76EE4EC09F02BEF0BF0010E0201E4
:102980008F6F260E8E6F916B390E906F00013AECAF
:102990000BF0010E02018F6F380E8E6F916B480E97
:1029A000906F00013AEC0BF0010E02018F6F4A0E9E
:1029B0008E6F916B550E906F00013AEC0BF0010E8B
:1029C00002018F6F5C0E8E6F916B4E0E906F000147
:1029D0003AEC0BF0010E02018F6F6E0E8E6F916B51
:1029E0005B0E906F00013AEC0BF0010E02018F6F4D
:1029F000800E8E6F916B650E906F00013AEC0BF0BC
:102A0000010E02018F6F920E8E6F916B6B0E906FA5
:102A100000013AEC0BF0010E02018F6FA40E8E6FD5
:102A2000916B860E906F00013AEC0BF0010E0201E3
:102A30008F6FB60E8E6F916B900E906F00013AEC17
:102A40000BF0010E02018F6FC80E8E6F916B9C0E02
:102A5000906F00013AEC0BF0010E02018F6FDA0E5D
:102A60008E6F916BA60E906F00013AEC0BF0010E89
:102A700002018F6FEC0E8E6F916BAD0E906F0001A7
:102A80003AEC0BF0010E02018F6FFE0E8E6F916B10
:102A9000B90E906F00013AEC0BF0020E02018F6F3D
:102AA000100E8E6F916BC60E906F00013AEC0BF01A
:102AB000020E02018F6F220E8E6F916BCC0E906F03
:102AC00000013AEC0BF0020E02018F6F340E8E6F94
:102AD000916BD60E906F00013AEC0BF0020E0201E2
:102AE0008F6F460E8E6F916BE00E906F00013AEC87
:102AF0000BF0020E02018F6F580E8E6F916BE60E77
:102B0000906F00013AEC0BF0020E02018F6F6A0E1B
:102B10008E6F916BED0E906F00013AEC0BF0020E90
:102B200002018F6F7C0E8E6F916BF40E906F00011F
:102B30003AEC0BF0010E02018F6F260E8E6F010E24
:102B4000916F380E906F000166EC0BF0010E0201E0
:102B50008F6F260E8E6F010E916F4A0E906F0001DF
:102B600066EC0BF0010E02018F6F260E8E6F010EC8
:102B7000916F5C0E906F000166EC0BF0010E02018C
:102B80008F6F260E8E6F010E916F6E0E906F00018B
:102B900066EC0BF0010E02018F6F380E8E6F010E86
:102BA000916F800E906F000166EC0BF0010E020138
:102BB0008F6F380E8E6F010E916F920E906F000125
:102BC00066EC0BF0010E02018F6F920E8E6F010EFC
:102BD000916FA40E906F000166EC0BF0010E0201E4
:102BE0008F6F920E8E6F010E916FB60E906F000177
:102BF00066EC0BF0010E02018F6F920E8E6F010ECC
:102C0000916FC80E906F000166EC0BF0010E02018F
:102C10008F6F5C0E8E6F010E916FDA0E906F000158
:102C200066EC0BF0010E02018F6F5C0E8E6F010ED1
:102C3000916FEC0E906F000166EC0BF0010E02013B
:102C40008F6F5C0E8E6F010E916FFE0E906F000104
:102C500066EC0BF0010E02018F6F4A0E8E6F020EB2
:102C6000916F100E906F000166EC0BF0010E0201E7
:102C70008F6F4A0E8E6F020E916F220E906F0001C1
:102C800066EC0BF0010E02018F6F4A0E8E6F020E82
:102C9000916F340E906F000166EC0BF0010E020193
:102CA0008F6F6E0E8E6F020E916F460E906F000149
:102CB00066EC0BF0010E02018F6F6E0E8E6F020E2E
:102CC000916F580E906F000166EC0BF0010E02013F
:102CD0008F6F6E0E8E6F020E916F6A0E906F0001F5
:102CE00066EC0BF0020E02018F6F460E8E6F020E25
:102CF000916F7C0E906F000166EC0BF0010EEA6E96
:102D00008F0EE96E200E036E4A0EEF6E03C0ECFFCD
:102D1000010EEA6EB30EE96E210E036E980EEF6E91
:102D200003C0ECFF010EEA6EC50EE96E240E036EC1
:102D3000300EEF6E03C0ECFF010E02018F6F260E06
:082D40008E6F0001D7D40300DF
:087FC80004030904080343004F
:107FD000430053001A0343004300530020004800AD
:107FE000490044002000440065006D006F0012034A
:107FF00031003200330034003500360037003800DD
:020000040030CA
:0E0000003FCC271E0087A1000FC00FE00F406D
:00000001FF
;PIC18F4550
;CRC=88E8  CREATED="31-Oct-22 22:05"
