:100000005CEF0DF068961200046ED8CF05F0E0CFDB
:1000100006F00001E9CF0CF0EACF07F0E1CF08F0DD
:10002000E2CF09F0D9CF0AF0DACF0BF0F3CF12F01C
:10003000F4CF13F0FACF14F0F5CF15F0F6CF16F099
:10004000F7CF17F000C00EF001C00FF002C010F0A3
:1000500003C011F0F2AA30EF00F0F2B426EF07F07F
:10006000F2A636EF00F0F2B0D6EF07F0A0AA3CEF10
:1000700000F0A1BADCEF06F00EC000F00FC001F0F6
:1000800010C002F011C003F00CC0E9FF07C0EAFF86
:10009000078E08C0E1FF09C0E2FF0AC0D9FF0BC00C
:1000A000DAFF12C0F3FF13C0F4FF14C0FAFF15C04B
:1000B000F5FF16C0F6FF17C0F7FF045006C0E0FFBB
:1000C00005C0D8FF1000F76AD60FF66E000EF722B3
:1000D0000900F5501200280C0106F76AEA0FF66EC7
:1000E000000EF7220900F55012000003FFFFFFFF8A
:1000F000FFFFFFFFFFFFFFFFFFFFF76A0A0FF66E2C
:10010000010EF7220900F55012004000080000001F
:1001100000000000000000000000000000000000DF
:1001200000000000000000000000F76A3A0FF66EC1
:10013000010EF7220900F55012000600FF0901A187
:1001400001190129081580257F750895028102197A
:10015000012908750895029102C0F76A6A0FF66EC8
:10016000010EF7220900F55012000000F76A7C0F1B
:10017000F66E010EF7220900F55012002000F76A12
:100180008E0FF66E010EF7220900F55012000902DB
:100190002900010100803209040000020300000070
:1001A0000921000100012220000705810308000A3F
:1001B0000705010308000A00F76AC80FF66E010E72
:1001C000F7220900F55012000100F76ADA0FF66E07
:1001D000010EF7220900F55012001200F76AEC0F29
:1001E000F66E010EF7220900F550120012011001FF
:1001F00000000040610420000001010200016D9236
:10020000699468A402D06894FCD76898E8EF06F077
:10021000400E0401016F040E02018E6F100E8EC29B
:1002200003F4E8CF02F4880E0401006F046B040E9F
:10023000076F500E066F0001120070A002D0E8DFB9
:100240007090689AEFEF06F06A6A6892F4EF06F031
:1002500002019A9199BF9A81999F9951100803E2DE
:10026000000E016E1AD09AA10DD0036A99510001B7
:1002700034DFFF0802E1000E01D0010E016E020121
:100280000CD00BD0036A9951000127DFFF0802E16F
:10029000000E01D0010E016E020100011200036A7E
:1002A00002019851700FE96E0F0E0320EA6EEF6A9B
:1002B00098C299F20001CCDF01521AE00201985174
:1002C000080DF3509A6BE96E040E9A25EA6EEF6AF8
:1002D0009851080DF3509A6B996F040E9927000EF0
:1002E0009A2399C2E9FF040E9A25EA6EEF6A00018B
:1002F0001200010E0201976F97510F0807E397C292
:1003000098F20001CCDF0201972BF6D70001120012
:100310002B6A2A6A02018D6B8D530AE1036A8D51A3
:100320002C0FE96E000E0320EA6EEF6A8D2BF4D7D6
:10033000216A010E226E206A0001A7EF01F06B6AAC
:10034000696A6A6A686A6E6A706AD3DFE1D7160EF4
:10035000706E68A602D056DEFCD79F0E6B6E3D0E07
:10036000696E6D9855DF030E256EF9EF06F069840E
:1003700069986D82FEEF06F0689C03EF07F093C268
:1003800026F012002668120096C201F095C200F015
:100390000066012A0900F5CFEEFF002EFBD7012EE3
:1003A000F9D7F86A12000201916B2A502B104BE02A
:1003B00091513F0848E32350FC0F33E2040F000142
:1003C0002FEF02F029C003F02850D9DEE8CF92F2D7
:1003D000020127D029C003F02850A7DEE8CF92F20F
:1003E00002011FD0C80E28240201936F7F0E29201E
:1003F000946FF86AF76E93C2F6FF020EEA6E920EE1
:10040000E96E966B010E956F0001BEDF020109D007
:1004100029C003F02850E2DEE8CF92F2020101D0B9
:100420000201282AD8B4292A2A50D8B42B062A0631
:100430009151912B036A500FE96E040E0320EA6E6E
:1004400092C2EFFFB2D72A502B1004E1915140081D
:1004500001E0206A91C293F2000191DF1200E824CA
:10046000F76AF736790FF66E040EF7220A00F55098
:10047000FA6E0800F550F96EC403D403E4031004C7
:100480000201906B296A286A236A04011351010A48
:10049000000109E0030A0DE0010A0FE0220A44E02E
:1004A000030A5BE076D02B6A120E2A6E030E236ECF
:1004B00072D02B6A290E2A6E6ED0020E236E0201B4
:1004C000906B040112510201905D1BE2C80E2824BA
:1004D000916F7F0E2920926FF86A92C2F7FF91C246
:1004E000F6FF020EEA6E930EE96E966B010E956FA3
:1004F00000014ADF020193512826000E2922902B89
:10050000E0D7C80E2824916F7F0E2920926FF86AD9
:10051000F76E91C2F6FFEA6A2A0EE96E966B010E3B
:10052000956F000131DF37D0036A040112510001D9
:100530004CDE036A286E03C029F0283C02D0295201
:100540000AE029C003F028501ADE036A2A6E03C0AD
:100550002BF021D002D016DF2DD0036A04011451F4
:100560000001FBDD036A286E03C029F0283C02D09D
:1005700029520DE0010E236E036A0401145100019B
:10058000F5DD036A2A6E03C02BF005D002D0FADE37
:1005900011D0F8DE0FD00401175308E12B5203E10C
:1005A0002A50165D03E22B6A16C42AF0010E206E53
:1005B0000001F9DE120002018F5306E1040E256EE0
:1005C000000197DEC8D00201050E256E040E926F61
:1005D000900E916F010E906F90510F08D8A0BBD074
:1005E00090C298F200015BDE0201936B036A9051A6
:1005F000000173DDFF0855E0040E0201936FD890EF
:100600009035036A000179DD0900F5CF03F002019E
:10061000946F03C095F29051080DF350986B976F4B
:10062000010E9725016E000E9821036E01C0E9FFAF
:10063000040E0324EA6E94C2EFFF9051080DF350AC
:10064000986B976F020E9725016E000E9821036E2E
:1006500001C0E9FF040E0324EA6E92C2ECFFED52E2
:1006600091C2EFFFD8909035036A000146DD090082
:10067000F5CF03F00201912703509223880E966F65
:1006800095A101D0968195A301D096839051080D34
:10069000F350986BE96E040E9825EA6E96C2EFFF50
:1006A0000001036A02019051000117DDFF0838E0E4
:1006B000020193839051080DF350986B976F040ECD
:1006C0009727000E9823020E9725016E000E9821A1
:1006D000036E01C0E9FF040E0324EA6E92C2ECFF30
:1006E000ED5291C2EFFFD8909035036A000105DD0D
:1006F0000900F5CF03F00201912703509223905196
:10070000080DF350986B976F040E9727000E9823EF
:1007100097C2E9FF040E9825EA6E400EEF6E0001C5
:1007200002019351060802E10E0E936F036A905185
:100730000001D3DC010803E0020193890001036A90
:1007400002019051700FE96E0F0E0320EA6E93C202
:10075000EFFF902B41D7000102EF04F0040111518B
:10076000000A00010DE0010A15E0020A21E0060A74
:100770002CE0030A33E00E0A33E0010A39E049D0E5
:1007800022C050F40401516B020E0201936F00016C
:10079000F6DD40D00401122D08D0010E2216020110
:1007A000936B0001ECDD03D004010001EBDD32D0DE
:1007B0000401122D07D022820201936B0001DFDDBC
:1007C00003D004010001DEDD25D0020E206E12C42C
:1007D00027F00201936B0001D2DD1CD051DE1AD04C
:1007E00021C050F4010E0201936F0001C8DD12D048
:1007F0000401125101080BE312C421F012C48FF25C
:100800000001D9D60201936B0001B9DD040100019A
:1008100001D0B8DD33EF05F021C08FF20401115192
:10082000000A000107E00A0A0EE0010A2EE00D0AA4
:1008300042E043D00401506B516B020E0201936FF2
:1008400000019DDD3BD002018F531CE0010E8F5D46
:10085000036A0001B1DC016E0401145DD8A002D06E
:10086000020110D0036A14512C0FE96E000E032010
:10087000EA6EEFCF50F4010E0201936F00017FDDAD
:1008800003D0020100017EDD19D002018F5310E078
:10089000036A040114512C0FE96E000E0320EA6E66
:1008A00012C4EFFF0201936B000169DD03D0020166
:1008B000000168DD03D0E4DD01D064DD33EF05F035
:1008C000020190918FBF90818F9F90A111D08F5185
:1008D000080DF350926B916F040E9127000E922336
:1008E00091C2E9FF040E9225EA6E880EEF6E09D0E0
:1008F0008F51080DF350926BE96E040E9225EA6E4B
:10090000EF6A036A8F51700F016E0F0E032201C050
:10091000E9FF03C0EAFFEF900001F3EF04F00201EA
:1009200090918FBF90818F9F90A111D08F51080D12
:10093000F350926B916F040E9127000E922391C297
:10094000E9FF040E9225EA6E840EEF6E0AD08F51F5
:10095000080DF350926BE96E040E9225EA6E840E38
:10096000EF6E0001FBEF04F0020190918FBF9081C8
:100970008F9F90A111D08F51080DF350936B926F00
:10098000040E9227000E932392C2E9FF040E9325D2
:10099000EA6EEFCF91F20AD08F51080DF350936BAE
:1009A000E96E040E9325EA6EEFCF91F291AF02D07B
:1009B00091B502D0000E01D0010E016E000107EFCB
:1009C00005F014C499F244DC01522EE004011151E7
:1009D000010A000105E0020A0BE0030A11E023D03E
:1009E00014C48FF26DD70201936B0001C8DC1CD0D8
:1009F00014C48FF294D70201936B0001C0DC14D0B1
:100A00000401506B516B14C48FF20001ADD7015239
:100A100004E0010E0401506F0001020E0201936F09
:100A20000001ADDC01D0AEDC33EF05F00401115163
:100A30000001A8DC33EF05F0206A040110517F0BA0
:100A4000000A000107E0010A07E0030A07E0230AA1
:100A500007E008D083D607D0DFD605D0B2D703D0C1
:100A6000E5D701D08FDC7CEF06F002018F51080D35
:100A7000F350956BE96E040E9525EA6EEFCF91F277
:100A80009051020806E191AD02D0906B02D0010EA8
:100A9000906F9051030813E1840E916F8F51080DF0
:100AA000F350956B946F040E9427000E952394C217
:100AB000E9FF040E9525EA6E840EEF6E07D0902DA7
:100AC00003D0C80E916F02D0880E916FD8908F35E9
:100AD000036A00017DEC00F00900F5CF03F002018C
:100AE000926F03C093F28F51080DF350956B946F82
:100AF000010E9425016E000E9521036E01C0E9FFE1
:100B0000040E0324EA6E92C2EFFF93A101D09181FB
:100B100093A301D091838F51080DF350956BE96E2B
:100B2000040E9525EA6E91C2EFFF00011200036AE0
:100B300002019451700FE96E0F0E0320EA6EEF521E
:100B400012E09451080DF350966B956F040E9527A3
:100B5000000E962395C2E9FF040E9625EA6EEFCFAC
:100B600097F297AF02D0000E01D0010E016E000186
:100B7000BDEF05F08FC294F2DAD70152D8B470D02D
:100B800002018F51080DF350956B946F040E94275A
:100B9000000E9523010E9425016E000E9521036E23
:100BA00001C0E9FF040E0324EA6E90C2EFFF9251E8
:100BB000020817E18F51080DF350956B946F040EE6
:100BC0009427000E952394C2E9FF040E9525EA6E42
:100BD000EFCF93F293AD02D0926B02D0010E926FE1
:100BE00013D09251040810E18F51080DF350956B0A
:100BF000E96E040E9525EA6EEFCF93F293AD03D024
:100C0000010E926F01D0926B922D03D0480E936F1C
:100C100002D0080E936F8F51080DF350956B946FAF
:100C2000040E9427000E952394C2E9FF040E952527
:100C3000EA6E93C2EFFF8F51080DF350956B946FDE
:100C4000040E9427000E952394C2E9FF040E952507
:100C5000EA6EEF508009EF6E010E016E04D00001C4
:100C6000000E016E02010001120002018F5300E12B
:100C70000001120090C26EFF0201905303E0040EC7
:100C8000256E02D0020E256E00014CEF06F0216A9F
:100C9000206A27C090F2EED75DEF06F002018F5375
:100CA0000DE1202C05D00001D3EC01F006D00201AB
:100CB0002050020803E10001EAD7020100011200FE
:100CC000243002018D6F8D338D331F0E8D1724520A
:100CD0004EE1040100513C0B02018E6F430E0401F2
:100CE000001702018E51340825E104010451800BE4
:100CF00001E0046B0001A0D66D98263C07D00201EC
:100D00008F6B030E906F0001B0DE12D002018F6B6B
:100D1000020E906F0001A9DE2650FE0809E00201D4
:100D20008F6B916B26C090F2040E926F000122DF50
:100D30001CD002018E51040819E18F6B000195DF70
:100D400002018F6B020E906F00018FDE2650FE08AD
:100D50000CE0263C01D009D002018F6B916B26C0BC
:100D600090F2010E926F000105DF020122D02450A3
:100D7000040812E126688F6B000190DF263C01D049
:100D800009D002018F6B916B26C090F2020E926F18
:100D90000001F0DE0DD0020124B406D08DC28FF226
:100DA000000163DF05D002018DC28FF2000176DF02
:100DB000020100010FEF07F0A19A2552D8B439D0F3
:100DC0006852D8B436D068A403D069B4FFEF00F0FD
:100DD0006DB22FD068AA03D069BA1DEF01F068A2E6
:100DE00003D069B224EF01F068A003D069B09FEF8F
:100DF00001F068A803D069B8B7EF01F068AC03D080
:100E000069BCBCEF01F002018C6B68A60AD069A630
:100E100008D06CCF24F0000102EC00F051D703D0D1
:100E2000020106D0000102018C518C2B0308EDE277
:100E300000013CEF00F06D656E75206163746976AA
:100E4000617465640A000C0073656700362A3650C9
:100E5000EF0802E1342A366A34503C0802E1352AB0
:100E6000346AFE0ED76E0C0ED66EF2943CEF00F094
:100E7000020EEA6E8C0EE96EEF500EE0010E016E6E
:100E8000006A002EFED7012EFBD74A0E006E002E00
:100E9000FED700D0EF2EF2D712008190818281849C
:100EA00081868150EE0804E1310E02018C6F000151
:100EB0008150DE0804E1340E02018C6F0001815084
:100EC000BE0804E1370E02018C6F000181507E08DC
:100ED00004E12A0E02018C6F0001818081928184DD
:100EE00081868150ED0804E1320E02018C6F000111
:100EF0008150DD0804E1350E02018C6F0001815044
:100F0000BD0804E1380E02018C6F000181507D089C
:100F100004E1300E02018C6F000181808182819496
:100F200081868150EB0804E1330E02018C6F0001D1
:100F30008150DB0804E1360E02018C6F0001815004
:100F4000BB0804E1390E02018C6F000181507B085F
:100F500004E1230E02018C6F000181808182818473
:100F600081968150E70804E1410E02018C6F000177
:100F70008150D70804E1420E02018C6F00018150BC
:100F8000B70804E1430E02018C6F0001815077081D
:100F900004E1440E02018C6F0001819681948192DC
:100FA000819002018CC201F0000112000F0E0201BB
:100FB0008C6F00015DDF81A806D081AA04D081ACCE
:100FC00002D081BE07D069DF01C033F081968194E1
:100FD00081928190F2903CEF00F025645365672088
:100FE000000043415247414E444F2053495354451A
:100FF0004D4100002E000C004249454E56454E49D9
:10100000444F2E2E2E004D572D3230303100566574
:101010007273696F6E204265746100000C00080EE7
:10102000016E00008B9C949C000002018B378B9E0C
:10103000D8B0948ED8A0949E948C82ACFED7012E0A
:1010400001D002D00001EDD700008B9C949C0000E1
:10105000948E00000000948C82ACFED7016A0000E0
:1010600082BE01808B9C949C8B9E949E00011200FA
:1010700002018951000A000103E0010A27E04DD076
:1010800002018839006EF00E001600501E108A6FA3
:101090008B6F0001C4DF000002018839006EF00E82
:1010A0000016005004091E108A6F8B6F0001B7DF15
:1010B00000D002018839006EF00E00160050FB0BC4
:1010C0001E108A6F8B6F0001AADF27D002018839BA
:1010D000006EF00E0016005001091E108A6F8B6F13
:1010E00000019DDF000002018839006EF00E00163D
:1010F0000050010904091E108A6F8B6F00018FDFF9
:1011000000D002018839006EF00E0016005001096F
:101110001E108A6F8B6F000182DF1200948E000018
:10112000948C00008B9E949E00008B9C949C1AC013
:101130008BF275DF02018539876F0F0E871787C223
:1011400088F286C289F2000193DF020185510F0BFC
:10115000876F886F86C289F200018ADF949E000043
:10116000948C82ACFED7000000D00000948E00006A
:101170001200010E0201856F866B0001CFDF196A34
:10118000F2BE198EF29E020E02018C6F000170DE1B
:1011900019BEF28E010E1D6E120066C21AF068C2F0
:1011A0001BF067C21CF0F29CF29EF2BEFDD7196ADA
:1011B000F2BE198EF29E320E02018C6F000158DED3
:1011C00019BEF28E948E0000948C00008B9E949E2B
:1011D00000008B9C949C1AC08BF221DF0201886B6B
:1011E000896B000145DF196AF2BE198EF29E0F0E5F
:1011F00002018C6F00013CDE19BEF28E010E02016D
:10120000696F6951030813E3030E886F896B00014E
:101210002FDF196AF2BE198EF29E050E02018C6F45
:10122000000126DE19BEF28E0201692BEAD7020EFA
:10123000886F896B00011CDF196AF2BE198EF29E5D
:10124000050E02018C6F000113DE19BEF28E949E12
:101250000000948C82ACFED7000000D00000948E79
:1012600000000201696B6951030819E3036A6951BF
:10127000000163EC00F002016A6F856F866B00016C
:101280004DDF196AF2BE198EF29E050E02018C6FB7
:101290000001EEDD19BEF28E0201692BE4D70001D8
:1012A00068DFC00EF21203EF0EF00201665303E096
:1012B000080E1E6E01D01E6A000109EF0EF0020139
:1012C0007F511B5C03E21BC080F202D07FC280F220
:1012D0008051010A000107E0030A08E0010A0AE060
:1012E000070A0CE00FD00201826B0ED0400E020103
:1012F000826F0AD0140E0201826F06D0540E0201D2
:10130000826F02D00201826B7E511C5C03E21CC022
:1013100081F202D07EC281F2010E815D8225836F4F
:1013200083518009846F856F866B0001F7DE1200A0
:1013300002017D510C0A000105E0060A05E0020ADF
:1013400011E017D016DF1CD01D2A1D501B5C02E2D5
:10135000010E1D6E010E02017E6F1DC07FF20001A5
:10136000AEDF0ED0100E0201856F866B0001D6DE57
:1013700007D07DC285F2010E0201866F0001CEDE2C
:1013800012000900F5520CE0F6CF76F2F7CF77F2B3
:10139000F5CF7DF2CDDF76C2F6FF77C2F7FFF1D74A
:1013A00012000E0E02016625E96E000E6721EA6E3C
:1013B000EF6A0C0E6625E96E000E6721EA6EEC6A94
:1013C000ED52EF6A110E6625E96E000E6721EA6E96
:1013D000EF6A0F0E6625E96E000E6721EA6EEC6A71
:1013E000ED52EF6A66C2E9FF67C2EAFF69C2ECFF2D
:1013F000ED5268C2EFFF000112000E0E02016625D9
:10140000E96E000E6721EA6EEF506308D8A02ED077
:101410000E0E6625E96E000E6721EA6E036AEFCFB5
:1014200002F0D890023603360250020F016E000E11
:10143000032201506625E96E67510320EA6E69C2F6
:10144000ECFFED5268C2EFFF0E0E6625E96E000E4E
:101450006721EA6EEF2A0C0E6825E96E000E6921FD
:10146000EA6E67C2ECFFED5266C2EFFF00011200A8
:10147000EF520FE0EACF79F2E9CF78F2EFCF7DF2C9
:1014800057DF79C2EAFF78C2E9FFE92AD8B4EA2A2D
:10149000EFD7120002017E51016A7D5D03E27DC239
:1014A00000F00CD0006A080E7F6F7D3700367E5149
:1014B000005CD8B0006E01367F2FF7D70001120014
:1014C00002017851775D02E2775101D07851016EC7
:1014D00000011AEF0BF0200E020178A9300E796F8F
:1014E00077C200F000AE08D0001E002A00C077F2DC
:1014F0002D0E796F788F7881015077C27DF2640E5E
:101500007E6F0001C7DF00C077F2300E01240201B8
:101510007A6F77C27DF20A0E7E6F0001BBDF300E5C
:10152000002402017C6F300E01247B6F79C200F031
:10153000300E7A5D04E0788378BF788512D079C266
:101540007AF2200E796F300E7B5D04E0788178BFEF
:10155000788307D0D8A4788104E17AC27BF2200E88
:101560007A6F78B505D078B307D078B109D00CD0B0
:1015700079C27DF20001DCDE7AC27DF20001D8DEA4
:101580007BC27DF20001D4DE7CC27DF20001D0DEA0
:101590004BEF0BF0460EF66E0E0EF76EF2DE030EFC
:1015A00002017E6F010E7F6F000189DE02016AC2B7
:1015B000E9FF6BC2EAFFECCF77F2ED52EFCF76F2A4
:1015C00077C2EAFF76C2E9FF000152DF02016C6BCD
:1015D000110E6A25E96E000E6B21EA6EEFCF6DF2F7
:1015E000020E6E6F6F6B010E706F6DC27DF2030E97
:1015F0007E6F00014FDF036A00506E0FE96E020E2E
:101600000320EA6EEFCF71F202016D51030804E28C
:1016100071516D5DFF0F6C6F0E0E6A25E96E000E45
:101620006B21EA6E6C51EF5C766F776F030E786F0B
:10163000000146D701C072F20201736B7251735DF3
:1016400056E26C517325036A026ED8900236033657
:101650000250020F016E000E032201506A25E96E4E
:101660006B510320EA6EECCF75F2ED52EFCF74F2BE
:10167000020E7325766F020E7E6F76C27FF2000136
:101680001EDE020173516C25010F766F776F180E05
:10169000786F000120D7020E02017325766F030ECA
:1016A0007E6F76C27FF200010ADE2D0E02017D6F91
:1016B00000013EDE020E02017325766F040E7E6F7E
:1016C00076C27FF20001FBDD020174C2E9FF75C240
:1016D000EAFFECCF77F2ED52EFCF76F277C2EAFF76
:1016E00076C2E9FF0001C4DE0201732BA7D7110EF9
:1016F0006A25E96E000E6B21EA6EEF520FE0020ED2
:101700007125766F010E7E6F76C27FF20001D7DD04
:101710002A0E02017D6F00010BDE0201000144EF81
:101720000DF0196AF2BE198EF29E4DEC07F019BE4B
:10173000F28E01C06FF202016F53D8A402D00001F3
:10174000F0D76FC201F0000199EF0CF0006A016A56
:1017500002017651D89077B100260032013277B37A
:1017600000260032013277B500260032013277B709
:1017700000260032013277B900260032013277BBF1
:1017800000260032013277BD00260032013277BFD9
:10179000002600320132000136EF0CF00201746BBA
:1017A000726B0A0E736F716B6F51701103E1000E53
:1017B000016EBBD07451742B6F25E96E000E702141
:1017C000EA6EEFCF75F275512D080CE1010E726FC4
:1017D0007451742B6F25E96E000E7021EA6EEFCF05
:1017E00075F20CD075512B0809E17451742B6F25DB
:1017F000E96E000E7021EA6EEFCF75F275512F0879
:10180000D8B08BD075513908D8A087D07551300821
:101810001EE174516F25E96E000E7021EA6EEF50E3
:10182000780809E074516F25E96E000E7021EA6EA8
:10183000EF5058080CE1100E736F742B7451742B19
:101840006F25E96E000E7021EA6EEFCF75F27351CD
:101850000A081CE175512F0818E27551390815E383
:101860000A0E766F71C277F2000170D7300E020156
:10187000755D0124716F7451742B6F25E96E000E34
:101880007021EA6EEFCF75F2E5D747D0735110089B
:1018900044E17551600806E275517A0803E3755119
:1018A000DF0B01D07551756F75512F0803E275512B
:1018B000390806E27551400830E2755146082DE3BB
:1018C00075512F080CE27551390809E37139766FAB
:1018D000F00E7617300E755D7625716F09D071396F
:1018E000766FF00E7617410E755D0A0F7625716FD3
:1018F0007451742B6F25E96E000E7021EA6EEFCFE4
:1019000075F27551600806E275517A0803E3755166
:10191000DF0B01D07551756FC7D7722D04D073518D
:101920000A0801E1716D71C201F00001A5EF0CF030
:10193000F8D601C033F033C06CF202016D6B020EB9
:10194000706F6C0E6F6F000129D701C06EF202013B
:101950006E5312E00E0E6A25E96E000E6B21EA6EE0
:101960006E51EF5C09E3110E6A25E96E000E6B21E2
:10197000EA6E6EC2EFFF78D033502A081CE10C0EDD
:101980006A25E96E000E6B21EA6EECCF70F2ED5223
:10199000EFCF6FF26F5302E170530DE00C0E6A252A
:1019A000E96E000E6B21EA6EEFCF01F0EE52EDCF43
:1019B00002F05ED059D03350410811E1110E6A2572
:1019C000E96E000E6B21EA6EEF50010808E2110E7D
:1019D0006A25E96E000E6B21EA6EEF0645D03350A2
:1019E000420819E1110E6A25E96E000E6B21EA6EBC
:1019F000EFCF6FF20E0E6A25E96E000E6B21EA6ED4
:101A0000EF506F5D08E2110E6A25E96E000E6B2142
:101A1000EA6EEF2A29D03350230826E1110E6A25F9
:101A2000E96E000E6B21EA6EEF521EE0110E6A2580
:101A3000E96E000E6B21EA6E010EEF5C036A026E26
:101A4000D890023603360250020F016E000E0322B8
:101A500001506A25E96E6B510320EA6EEFCF01F069
:101A6000EE52EDCF02F004D06AC201F06BC202F078
:101A7000000155EF0DF067C269F266C268F269C2F3
:101A80006BF268C26AF286D5196AF2BE198EF29EAE
:101A90000A0E02018C6F000138EC07F019BEF28EBD
:101AA00069C26BF268C26AF243D702C069F201C030
:101AB00068F2E5D725EF10F0F86AD09E078E010E88
:101AC0001D6E080E1E6E346A356A010E366E376A58
:101AD000386AFC6BFB6BC150C00B0F09C16E070E5F
:101AE000B46E68D001001F0002002D0000C2003952
:101AF0004D454E55205052494E434950414C004CA3
:101B000041564152004147495441520043454241E8
:101B1000520050524F4752414D4152004C61766144
:101B2000720053656C656320506172616D657472FB
:101B30006F004C6176616E646F2E2E2E00462F4C26
:101B4000617661646F3A00542F456E6A75616775FE
:101B5000653A00432F4369636C6F733A00416769CC
:101B600074617200496E74656E73696461643A00F1
:101B7000542F416769746163696F6E3A004365620F
:101B80006172004D2F43656261646F3A00542F43C8
:101B9000656261646F3A0043726561720045646911
:101BA00074617200426F72726172004E6F6D627288
:101BB00065000000000EF86E1A0EF76EE40EF66E69
:101BC0000900F550006E000A13E00900F550016E9F
:101BD000E8BE05D03F0BEA6E0900F5CFE9FF01BC76
:101BE000090001AC0900F5CFEEFF004EE9D7F9D7A7
:101BF000F86A4E0E0201666F140E676F040E686F6E
:101C00000001CDEF08F0010E0201666F000155EFF3
:101C100009F0F00E936E8196819481928190F19EED
:101C2000F286C00EF212030E02017E6F020E7F6F6B
:101C300000015FEC09F0E20EF66E0F0EF76EC1ECDC
:101C400009F0030EFD6FFD51120810E3FDC07EF296
:101C5000030E02017F6F00015FEC09F0F40EF66ED7
:101C60000F0EF76EC1EC09F0FD2BEDD7F60EF66EF8
:101C70000F0EF76EC1EC09F0F80EF66E0F0EF76E50
:101C8000C1EC09F0010E02017E6F020E7F6F0001B0
:101C90005FEC09F0060EF66E100EF76EC1EC09F05F
:101CA000010E02017E6F030E7F6F00015FEC09F0F1
:101CB0000E0EF66E100EF76EC1EC09F01C0EF66EED
:101CC000100EF76EC1EC09F00201676BFE0E666F35
:101CD000696B390E686F0001D1EC09F0010E020149
:101CE000676F100E666F696B480E686F0001D1EC6C
:101CF00009F0010E0201676F220E666F696B550EC7
:101D0000686F0001D1EC09F0010E0201676F340E1B
:101D1000666F696B4E0E686F0001D1EC09F0010E21
:101D20000201676F460E666F696B5B0E686F00019C
:101D3000D1EC09F0010E0201676F580E666F696BF6
:101D4000650E686F0001D1EC09F0010E0201676FAA
:101D50006A0E666F696B6B0E686F0001D1EC09F05B
:101D6000010E0201676F7C0E666F696B860E686FED
:101D70000001D1EC09F0010E0201676F8E0E666F53
:101D8000696B900E686F0001D1EC09F0010E020141
:101D9000676FA00E666F696B9C0E686F0001D1ECD7
:101DA00009F0010E0201676FB20E666F696BA60E35
:101DB000686F0001D1EC09F0010E0201676FC40EDB
:101DC000666F696BAD0E686F0001D1EC09F0010E12
:101DD0000201676FD60E666F696BB90E686F0001FE
:101DE000D1EC09F0010E0201676FE80E666F696BB6
:101DF000C60E686F0001D1EC09F0010E0201676F99
:101E0000FA0E666F696BCC0E686F0001D1EC09F0B9
:101E1000020E0201676F0C0E666F696BD60E686F5B
:101E20000001D1EC09F0020E0201676F1E0E666F11
:101E3000696BE00E686F0001D1EC09F0020E02013F
:101E4000676F300E666F696BE60E686F0001D1EC4C
:101E500009F0020E0201676F420E666F696BED0EAC
:101E6000686F0001D1EC09F0020E0201676F540E99
:101E7000666F696BF40E686F0001D1EC09F0020126
:101E8000676BFE0E666F010E696F100E686F0001C2
:101E9000FDEC09F00201676BFE0E666F010E696FC3
:101EA000220E686F0001FDEC09F00201676BFE0E67
:101EB000666F010E696F340E686F0001FDEC09F06A
:101EC0000201676BFE0E666F010E696F460E686F4A
:101ED0000001FDEC09F0010E0201676F100E666F44
:101EE000010E696F580E686F0001FDEC09F0010EDC
:101EF0000201676F100E666F010E696F6A0E686FE0
:101F00000001FDEC09F0010E0201676F6A0E666FB9
:101F1000010E696F7C0E686F0001FDEC09F0010E87
:101F20000201676F6A0E666F010E696F8E0E686F31
:101F30000001FDEC09F0010E0201676F6A0E666F89
:101F4000010E696FA00E686F0001FDEC09F0010E33
:101F50000201676F340E666F010E696FB20E686F13
:101F60000001FDEC09F0010E0201676F340E666F8F
:101F7000010E696FC40E686F0001FDEC09F0010EDF
:101F80000201676F340E666F010E696FD60E686FBF
:101F90000001FDEC09F0010E0201676F220E666F71
:101FA000010E696FE80E686F0001FDEC09F0010E8B
:101FB0000201676F220E666F010E696FFA0E686F7D
:101FC0000001FDEC09F0010E0201676F220E666F41
:101FD000020E696F0C0E686F0001FDEC09F0010E36
:101FE0000201676F460E666F020E696F1E0E686F04
:101FF0000001FDEC09F0010E0201676F460E666FED
:10200000020E696F300E686F0001FDEC09F0010EE1
:102010000201676F460E666F020E696F420E686FAF
:102020000001FDEC09F0020E0201676F1E0E666FE3
:10203000020E696F540E686F0001FDEC09F0020199
:0C204000676BFE0E666F000116D50300F2
:087FC80004030904080343004F
:107FD000430053001A0343004300530020004800AD
:107FE000490044002000440065006D006F0012034A
:107FF00031003200330034003500360037003800DD
:020000040030CA
:0E0000003FCC271E0087A1000FC00FE00F406D
:00000001FF
;PIC18F4550
;CRC=276E  CREATED="26-Oct-22 18:02"
