:1000000047EF0EF068961200046ED8CF05F0E0CFEF
:1000100006F00001E9CF0CF0EACF07F0E1CF08F0DD
:10002000E2CF09F0D9CF0AF0DACF0BF0F3CF12F01C
:10003000F4CF13F0FACF14F0F5CF15F0F6CF16F099
:10004000F7CF17F000C00EF001C00FF002C010F0A3
:1000500003C011F0F2AA30EF00F0F2B4F0EF07F0B5
:10006000F2A636EF00F0F2B0A0EF08F0A0AA3CEF45
:1000700000F0A1BADCEF06F00EC000F00FC001F0F6
:1000800010C002F011C003F00CC0E9FF07C0EAFF86
:10009000078E08C0E1FF09C0E2FF0AC0D9FF0BC00C
:1000A000DAFF12C0F3FF13C0F4FF14C0FAFF15C04B
:1000B000F5FF16C0F6FF17C0F7FF045006C0E0FFBB
:1000C00005C0D8FF1000F76AD60FF66E000EF722B3
:1000D0000900F5501200280C0106F76AEA0FF66EC7
:1000E000000EF7220900F55012000003FFFFFFFF8A
:1000F000FFFFFFFFFFFFFFFFFFFFF76A0A0FF66E2C
:10010000010EF7220900F55012004000080000001F
:1001100000000000000000000000000000000000DF
:1001200000000000000000000000F76A3A0FF66EC1
:10013000010EF7220900F55012000600FF0901A187
:1001400001190129081580257F750895028102197A
:10015000012908750895029102C0F76A6A0FF66EC8
:10016000010EF7220900F55012000000F76A7C0F1B
:10017000F66E010EF7220900F55012002000F76A12
:100180008E0FF66E010EF7220900F55012000902DB
:100190002900010100803209040000020300000070
:1001A0000921000100012220000705810308000A3F
:1001B0000705010308000A00F76AC80FF66E010E72
:1001C000F7220900F55012000100F76ADA0FF66E07
:1001D000010EF7220900F55012001200F76AEC0F29
:1001E000F66E010EF7220900F550120012011001FF
:1001F00000000040610420000001010200016D9236
:10020000699468A402D06894FCD76898E8EF06F077
:10021000400E0401016F040E01013E6F100E3EC13D
:1002200003F4E8CF02F4880E0401006F046B040E9F
:10023000076F500E066F0001120070A002D0E8DFB9
:100240007090689AEFEF06F06A6A6892F4EF06F031
:1002500001014A9149BF4A81499F4951100803E26F
:10026000000E016E1AD04AA10DD0036A4951000157
:1002700034DFFF0802E1000E01D0010E016E010122
:100280000CD00BD0036A4951000127DFFF0802E1BF
:10029000000E01D0010E016E010100011200036A7F
:1002A00001014851700FE96E0F0E0320EA6EEF6AEC
:1002B00048C149F10001CCDF01521AE00101485167
:1002C000080DF3504A6BE96E040E4A25EA6EEF6A98
:1002D0004851080DF3504A6B496F040E4927000E30
:1002E0004A2349C1E9FF040E4A25EA6EEF6A00017C
:1002F0001200010E0101476F47510F0807E347C184
:1003000048F10001CCDF0101472BF6D700011200B4
:100310002B6A2A6A01013D6B3D530AE1036A3D5194
:100320002C0FE96E000E0320EA6EEF6A3D2BF4D726
:10033000216A010E226E206A0001A7EF01F06B6AAC
:10034000696A6A6A686A6E6A706AD3DFE1D7160EF4
:10035000706E68A602D056DEFCD79F0E6B6E3D0E07
:10036000696E6D9855DF030E256EF9EF06F069840E
:1003700069986D82FEEF06F0689C03EF07F043C1B9
:1003800026F012002668120046C101F045C100F0B7
:100390000066012A0900F5CFEEFF002EFBD7012EE3
:1003A000F9D7F86A12000101416B2A502B104BE07B
:1003B00041513F0848E32350FC0F33E2040F000192
:1003C0002FEF02F029C003F02850D9DEE8CF42F128
:1003D000010127D029C003F02850A7DEE8CF42F161
:1003E00001011FD0C80E28240101436F7F0E292070
:1003F000446FF86AF76E43C1F6FF010EEA6E420ED3
:10040000E96E466B010E456F0001BEDF010109D0A8
:1004100029C003F02850E2DEE8CF42F1010101D00B
:100420000101282AD8B4292A2A50D8B42B062A0632
:100430004151412B036A500FE96E040E0320EA6E0E
:1004400042C1EFFFB2D72A502B1004E141514008BE
:1004500001E0206A41C143F1000191DF1200E8246C
:10046000F76AF736790FF66E040EF7220A00F55098
:10047000FA6E0800F550F96EC403D403E4031004C7
:100480000101406B296A286A236A04011351010A99
:10049000000109E0030A0DE0010A0FE0220A44E02E
:1004A000030A5BE076D02B6A120E2A6E030E236ECF
:1004B00072D02B6A290E2A6E6ED0020E236E0101B5
:1004C000406B040112510101405D1BE2C80E28245B
:1004D000416F7F0E2920426FF86A42C1F7FF41C188
:1004E000F6FF010EEA6E430EE96E466B010E456F94
:1004F00000014ADF010143512826000E2922402B2A
:10050000E0D7C80E2824416F7F0E2920426FF86A79
:10051000F76E41C1F6FFEA6A2A0EE96E466B010EDC
:10052000456F000131DF37D0036A04011251000129
:100530004CDE036A286E03C029F0283C02D0295201
:100540000AE029C003F028501ADE036A2A6E03C0AD
:100550002BF021D002D016DF2DD0036A04011451F4
:100560000001FBDD036A286E03C029F0283C02D09D
:1005700029520DE0010E236E036A0401145100019B
:10058000F5DD036A2A6E03C02BF005D002D0FADE37
:1005900011D0F8DE0FD00401175308E12B5203E10C
:1005A0002A50165D03E22B6A16C42AF0010E206E53
:1005B0000001F9DE120001013F5306E1040E256E31
:1005C000000197DEC8D00101050E256E040E426FB2
:1005D000900E416F010E406F40510F08D8A0BBD064
:1005E00040C148F100015BDE0101436B036A4051E9
:1005F000000173DDFF0855E0040E0101436FD89040
:100600004035036A000179DD0900F5CF03F00101EF
:10061000446F03C045F14051080DF350486B476FDC
:10062000010E4725016E000E4821036E01C0E9FF4F
:10063000040E0324EA6E44C1EFFF4051080DF3504D
:10064000486B476F020E4725016E000E4821036E6E
:1006500001C0E9FF040E0324EA6E42C1ECFFED5233
:1006600041C1EFFFD8904035036A000146DD090023
:10067000F5CF03F00101412703504223880E466F56
:1006800045A101D0468145A301D046834051080DC4
:10069000F350486BE96E040E4825EA6E46C1EFFF41
:1006A0000001036A01014051000117DDFF0838E035
:1006B000010143834051080DF350486B476F040E0E
:1006C0004727000E4823020E4725016E000E4821E1
:1006D000036E01C0E9FF040E0324EA6E42C1ECFF81
:1006E000ED5241C1EFFFD8904035036A000105DDAE
:1006F0000900F5CF03F00101412703504223405187
:10070000080DF350486B476F040E4727000E48232F
:1007100047C1E9FF040E4825EA6E400EEF6E000166
:1007200001014351060802E10E0E436F036A405176
:100730000001D3DC010803E0010143890001036AE1
:1007400001014051700FE96E0F0E0320EA6E43C1A4
:10075000EFFF402B41D7000102EF04F004011151DB
:10076000000A00010DE0010A15E0020A21E0060A74
:100770002CE0030A33E00E0A33E0010A39E049D0E5
:1007800022C050F40401516B020E0101436F0001BD
:10079000F6DD40D00401122D08D0010E2216010111
:1007A000436B0001ECDD03D004010001EBDD32D02E
:1007B0000401122D07D022820101436B0001DFDD0D
:1007C00003D004010001DEDD25D0020E206E12C42C
:1007D00027F00101436B0001D2DD1CD051DE1AD09D
:1007E00021C050F4010E0101436F0001C8DD12D099
:1007F0000401125101080BE312C421F012C43FF1AD
:100800000001D9D60101436B0001B9DD04010001EB
:1008100001D0B8DD33EF05F021C03FF104011151E3
:10082000000A000107E00A0A0EE0010A2EE00D0AA4
:1008300042E043D00401506B516B020E0101436F43
:1008400000019DDD3BD001013F531CE0010E3F5DE7
:10085000036A0001B1DC016E0401145DD8A002D06E
:10086000010110D0036A14512C0FE96E000E032011
:10087000EA6EEFCF50F4010E0101436F00017FDDFE
:1008800003D0010100017EDD19D001013F5310E0CA
:10089000036A040114512C0FE96E000E0320EA6E66
:1008A00012C4EFFF0101436B000169DD03D00101B8
:1008B000000168DD03D0E4DD01D064DD33EF05F035
:1008C000010140913FBF40813F9F40A111D03F5166
:1008D000080DF350426B416F040E4127000E422376
:1008E00041C1E9FF040E4225EA6E880EEF6E09D081
:1008F0003F51080DF350426BE96E040E4225EA6E3B
:10090000EF6A036A3F51700F016E0F0E032201C0A0
:10091000E9FF03C0EAFFEF900001F3EF04F00101EB
:1009200040913FBF40813F9F40A111D03F51080DF2
:10093000F350426B416F040E4127000E422341C128
:10094000E9FF040E4225EA6E840EEF6E0AD03F5195
:10095000080DF350426BE96E040E4225EA6E840ED8
:10096000EF6E0001FBEF04F0010140913FBF4081B9
:100970003F9F40A111D03F51080DF350436B426F90
:10098000040E4227000E432342C1E9FF040E432513
:10099000EA6EEFCF41F10AD03F51080DF350436B9F
:1009A000E96E040E4325EA6EEFCF41F141AF02D06C
:1009B00041B502D0000E01D0010E016E000107EF1B
:1009C00005F014C449F144DC01522EE00401115138
:1009D000010A000105E0020A0BE0030A11E023D03E
:1009E00014C43FF16DD70101436B0001C8DC1CD07A
:1009F00014C43FF194D70101436B0001C0DC14D053
:100A00000401506B516B14C43FF10001ADD701528A
:100A100004E0010E0401506F0001020E0101436F5A
:100A20000001ADDC01D0AEDC33EF05F00401115163
:100A30000001A8DC33EF05F0206A040110517F0BA0
:100A4000000A000107E0010A07E0030A07E0230AA1
:100A500007E008D083D607D0DFD605D0B2D703D0C1
:100A6000E5D701D08FDC7CEF06F001013F51080D86
:100A7000F350456BE96E040E4525EA6EEFCF41F168
:100A80004051020806E141AD02D0406B02D0010E98
:100A9000406F4051030813E1840E416F3F51080D30
:100AA000F350456B446F040E4427000E452344C1A8
:100AB000E9FF040E4525EA6E840EEF6E07D0402D47
:100AC00003D0C80E416F02D0880E416FD8903F35D9
:100AD000036A00017DEC00F00900F5CF03F001018D
:100AE000426F03C043F13F51080DF350456B446F13
:100AF000010E4425016E000E4521036E01C0E9FF81
:100B0000040E0324EA6E42C1EFFF43A101D04181EC
:100B100043A301D041833F51080DF350456BE96E6B
:100B2000040E4525EA6E41C1EFFF00011200036A81
:100B300001014451700FE96E0F0E0320EA6EEF526F
:100B400012E04451080DF350466B456F040E4527E3
:100B5000000E462345C1E9FF040E4625EA6EEFCF9D
:100B600047F147AF02D0000E01D0010E016E000127
:100B7000BDEF05F03FC144F1DAD70152D8B470D0CF
:100B800001013F51080DF350456B446F040E44279B
:100B9000000E4523010E4425016E000E4521036E13
:100BA00001C0E9FF040E0324EA6E40C1EFFF425189
:100BB000020817E13F51080DF350456B446F040ED6
:100BC0004427000E452344C1E9FF040E4525EA6E83
:100BD000EFCF43F143AD02D0426B02D0010E426F22
:100BE00013D04251040810E13F51080DF350456BFA
:100BF000E96E040E4525EA6EEFCF43F143AD03D015
:100C0000010E426F01D0426B422D03D0480E436F5C
:100C100002D0080E436F3F51080DF350456B446FEF
:100C2000040E4427000E452344C1E9FF040E452568
:100C3000EA6E43C1EFFF3F51080DF350456B446F1F
:100C4000040E4427000E452344C1E9FF040E452548
:100C5000EA6EEF508009EF6E010E016E04D00001C4
:100C6000000E016E01010001120001013F5300E17D
:100C70000001120040C16EFF0101405303E0040E69
:100C8000256E02D0020E256E00014CEF06F0216A9F
:100C9000206A27C040F1EED75DEF06F001013F5317
:100CA0000DE1202C05D00001D3EC01F006D00101AC
:100CB0002050020803E10001EAD7010100011200FF
:100CC000243001013D6F3D333D331F0E3D1724524B
:100CD0004EE1040100513C0B01013E6F430E040143
:100CE000001701013E51340825E104010451800B35
:100CF00001E0046B0001A0D66D98263C07D00101ED
:100D00003F6B030E406F0001B0DE12D001013F6B5C
:100D1000020E406F0001A9DE2650FE0809E0010125
:100D20003F6B416B26C040F1040E426F000122DF91
:100D30001CD001013E51040819E13F6B000195DF11
:100D400001013F6B020E406F00018FDE2650FE084E
:100D50000CE0263C01D009D001013F6B416B26C05D
:100D600040F1010E426F000105DF010122D0245045
:100D7000040812E126683F6B000190DF263C01D099
:100D800009D001013F6B416B26C040F1020E426F5A
:100D90000001F0DE0DD0010124B406D03DC13FF1C9
:100DA000000163DF05D001013DC13FF1000176DFA5
:100DB000010100010FEF07F0A19A2552D8B439D0F4
:100DC0006852D8B436D068A403D069B4FFEF00F0FD
:100DD0006DB22FD068AA03D069BA1DEF01F068A2E6
:100DE00003D069B224EF01F068A003D069B09FEF8F
:100DF00001F068A803D069B8B7EF01F068AC03D080
:100E000069BCBCEF01F001013C6B68A60AD069A681
:100E100008D06CCF24F0000102EC00F051D703D0D1
:100E2000010106D0000101013C513C2B0308EDE219
:100E300000013CEF00F06D656E75206163746976AA
:100E4000617465640A000C000C004D454E5520503D
:100E500052494E434950414C0000312D4C415641BE
:100E60005200322D434542415200332D41474954EF
:100E7000415200000C004D454E55204C4156415208
:100E80000000312D53656C656320506172616D65A2
:100E900074726F730000322D4C61766172000C0029
:100EA0004D454E552043454241520000312D4D2FB6
:100EB00063656261646F3A00322D542F636562612D
:100EC000646F3A00332D43656261723A00000C0092
:100ED0004D454E552041474954415200312D496EF0
:100EE00074656E73696461643A00322D542F6167D2
:100EF00069746163696F6E3A0000332D41676974EC
:100F0000617200000C004D454E552050524F475223
:100F1000414D41520000312D437265617200322D06
:100F20004564697461720000332D426F72726172A0
:100F300000000C00462F6C617661646F3A00542FFC
:100F4000656E6A75616775653A0043616E742F63FB
:100F500069636C6F733A00004C6176616E646F2E4A
:100F60002E2E0000542F4C617661646F3A000C0005
:100F7000312D4E6F6D6272652F50726F6772616DA9
:100F80006100322D466F726D61746F2F4C61766116
:100F9000646F0000332D566F6C756D656E2F44695C
:100FA0007370656E73617200342D5469656D702FB6
:100FB000456E6A75616775650000352D43616E7415
:100FC0002F4369636C6F7300362D5469706F2F4126
:100FD00073706972616369F36E3A0000736567004C
:100FE000362A3650EF0802E1342A366A34503C087B
:100FF00002E1352A346AFE0ED76E0C0ED66EF294DC
:101000003CEF00F0010EEA6E3C0EE96EEF500EE090
:10101000010E016E006A002EFED7012EFBD74A0E8C
:10102000006E002EFED700D0EF2EF2D71200819076
:101030008182818481868150EE0804E1310E0101B4
:101040003C6F00018150DE0804E1340E01013C6F69
:1010500000018150BE0804E1370E01013C6F000120
:1010600081507E0804E12A0E01013C6F000181805D
:101070008192818481868150ED0804E1320E010164
:101080003C6F00018150DD0804E1350E01013C6F29
:1010900000018150BD0804E1380E01013C6F0001E0
:1010A00081507D0804E1300E01013C6F0001818018
:1010B0008182819481868150EB0804E1330E010125
:1010C0003C6F00018150DB0804E1360E01013C6FEA
:1010D00000018150BB0804E1390E01013C6F0001A1
:1010E00081507B0804E1230E01013C6F00018180E7
:1010F0008182818481968150E70804E1410E0101DB
:101100003C6F00018150D70804E1420E01013C6FA1
:1011100000018150B70804E1430E01013C6F00015A
:101120008150770804E1440E01013C6F0001819673
:1011300081948192819001013CC101F00001120073
:101140000F0E01013C6F00015DDF81A806D081AA6E
:1011500004D081AC02D081BE07D069DF01C033F07A
:101160008196819481928190F2903CEF00F03C5501
:101170004D454C4953413E003C4D6963454C4953F4
:10118000413E00003C554D454C4953413E003C4DCD
:101190006963454C4953413E00003C554D454C491F
:1011A00053413E003C4D6963454C4953413E00006C
:1011B000256453656720000043415247414E444F28
:1011C0002053495354454D4100002E000C00424924
:1011D000454E56454E49444F2E2E2E004D572D322A
:1011E0003030310056657273696F6E2042657461EC
:1011F00000000C00080E016E00008B9C949C000007
:1012000001013B378B9ED8B0948ED8A0949E948CCD
:1012100082ACFED7012E01D002D00001EDD7000034
:101220008B9C949C0000948E00000000948C82ACF7
:10123000FED7016A000082BE01808B9C949C8B9E2D
:10124000949E0001120001013951000A000103E0DF
:10125000010A27E04DD001013839006EF00E00166A
:1012600000501E103A6F3B6F0001C4DF0000010107
:101270003839006EF00E0016005004091E103A6F47
:101280003B6F0001B7DF00D001013839006EF00E6E
:1012900000160050FB0B1E103A6F3B6F0001AADFD7
:1012A00027D001013839006EF00E001600500109F8
:1012B0001E103A6F3B6F00019DDF000001013839BD
:1012C000006EF00E00160050010904091E103A6F5E
:1012D0003B6F00018FDF00D001013839006EF00E46
:1012E0000016005001091E103A6F3B6F000182DFAB
:1012F0001200948E0000948C00008B9E949E00003F
:101300008B9C949C1AC03BF175DF01013539376F16
:101310000F0E371737C138F136C139F1000193DFAD
:10132000010135510F0B376F386F36C139F10001AC
:101330008ADF949E0000948C82ACFED7000000D01F
:101340000000948E00001200010E0101356F366B13
:101350000001CFDF196AF2BE198EF29E020E010162
:101360003C6F00014FDE19BEF28E010E1D6E1200A1
:1013700016C11AF018C11BF017C11CF0F29CF29EA6
:10138000F2BEFDD7196AF2BE198EF29E320E01012D
:101390003C6F000137DE19BEF28E948E0000948CF3
:1013A00000008B9E949E00008B9C949C1AC03BF185
:1013B00021DF0101386B396B000145DF196AF2BE8C
:1013C000198EF29E0F0E01013C6F00011BDE19BE4B
:1013D000F28E010E0101196F1951030813E3030E78
:1013E000386F396B00012FDF196AF2BE198EF29E39
:1013F000050E01013C6F000105DE19BEF28E0101F0
:10140000192BEAD7020E386F396B00011CDF196AFD
:10141000F2BE198EF29E050E01013C6F0001F2DD55
:1014200019BEF28E949E0000948C82ACFED7000010
:1014300000D00000948E00000101196B19510308BF
:1014400019E3036A1951000163EC00F001011A6FFE
:10145000356F366B00014DDF196AF2BE198EF29EB0
:10146000050E01013C6F0001CDDD19BEF28E0101B8
:10147000192BE4D7000168DFC00EF212B4EF0EF0B2
:101480000101165303E0080E1E6E01D01E6A000112
:10149000BAEF0EF001012F511B5C03E21BC030F1CB
:1014A00002D02FC130F13051010A000107E0030AD8
:1014B00008E0010A0AE0070A0CE00FD00101326BD4
:1014C0000ED0400E0101326F0AD0140E0101326FAE
:1014D00006D0540E0101326F02D00101326B2E5141
:1014E0001C5C03E21CC031F102D02EC131F1010EAF
:1014F000315D3225336F33518009346F356F366B70
:101500000001F7DE120001012D510C0A000105E077
:10151000060A05E0020A11E017D016DF1CD01D2ACA
:101520001D501B5C02E2010E1D6E010E01012E6FAB
:101530001DC02FF10001AEDF0ED0100E0101356F7E
:10154000366B0001D6DE07D02DC135F1010E010149
:10155000366F0001CEDE12000900F5520CE0F6CF26
:1015600026F1F7CF27F1F5CF2DF1CDDF26C1F6FF1C
:1015700027C1F7FFF1D712000E0E01011625E96E03
:10158000000E1721EA6EEF6A0C0E1625E96E000EAA
:101590001721EA6EEC6AED52EF6A110E1625E96E1C
:1015A000000E1721EA6EEF6A0F0E1625E96E000E87
:1015B0001721EA6EEC6AED52EF6A16C1E9FF17C116
:1015C000EAFF19C1ECFFED5218C1EFFF0001120054
:1015D0000E0E01011625E96E000E1721EA6EEF507E
:1015E0006308D8A02ED00E0E1625E96E000E172126
:1015F000EA6E036AEFCF02F0D8900236033602504B
:10160000020F016E000E032201501625E96E1751DC
:101610000320EA6E19C1ECFFED5218C1EFFF0E0E68
:101620001625E96E000E1721EA6EEF2A0C0E18251A
:10163000E96E000E1921EA6E17C1ECFFED5216C1DA
:10164000EFFF00011200EF520FE0EACF29F1E9CFDE
:1016500028F1EFCF2DF157DF29C1EAFF28C1E9FFBB
:10166000E92AD8B4EA2AEFD7120001012E51016A03
:101670002D5D03E22DC100F00CD0006A080E2F6F23
:101680002D3700362E51005CD8B0006E01362F2F5A
:10169000F7D70001120001012851275D02E227510E
:1016A00001D02851016E000105EF0CF0200E010160
:1016B00028A9300E296F27C100F000AE08D0001E07
:1016C000002A00C027F12D0E296F288F2881015094
:1016D00027C12DF1640E2E6F0001C7DF00C027F176
:1016E000300E012401012A6F27C12DF10A0E2E6F41
:1016F0000001BBDF300E002401012C6F300E0124ED
:101700002B6F29C100F0300E2A5D04E0288328BF2A
:10171000288512D029C12AF1200E296F300E2B5DA9
:1017200004E0288128BF288307D0D8A4288104E1B9
:101730002AC12BF1200E2A6F28B505D028B307D077
:1017400028B109D00CD029C12DF10001DCDE2AC15D
:101750002DF10001D8DE2BC12DF10001D4DE2CC10A
:101760002DF10001D0DE36EF0CF0460EF66E0E0EB7
:10177000F76EF2DE030E01012E6F010E2F6F0001D6
:1017800089DE01011AC1E9FF1BC1EAFFECCF27F195
:10179000ED52EFCF26F127C1EAFF26C1E9FF000194
:1017A00052DF01011C6B110E1A25E96E000E1B2180
:1017B000EA6EEFCF1DF1020E1E6F1F6B010E206F40
:1017C0001DC12DF1030E2E6F00014FDF036A005083
:1017D0001E0FE96E010E0320EA6EEFCF21F1010129
:1017E0001D51030804E221511D5DFF0F1C6F0E0EF9
:1017F0001A25E96E000E1B21EA6E1C51EF5C266F64
:10180000276F030E286F000146D701C022F10101A6
:10181000236B2251235D56E21C512325036A026E7D
:10182000D890023603360250020F016E000E0322DA
:1018300001501A25E96E1B510320EA6EECCF25F109
:10184000ED52EFCF24F1020E2325266F020E2E6FEC
:1018500026C12FF100011EDE010123511C25010FBD
:10186000266F276F180E286F000120D7020E010186
:101870002325266F030E2E6F26C12FF100010ADEED
:101880002D0E01012D6F00013EDE020E0101232508
:10189000266F040E2E6F26C12FF10001FBDD010122
:1018A00024C1E9FF25C1EAFFECCF27F1ED52EFCFCC
:1018B00026F127C1EAFF26C1E9FF0001C4DE0101CC
:1018C000232BA7D7110E1A25E96E000E1B21EA6EF5
:1018D000EF520FE0020E2125266F010E2E6F26C15A
:1018E0002FF10001D7DD2A0E01012D6F00010BDE63
:1018F000010100012FEF0EF0196AF2BE198EF29E5F
:1019000017EC08F019BEF28E01C01FF101011F5340
:10191000D8A402D00001F0D71FC101F0000184EF6C
:101920000DF0006A016A01012651D89027B1002606
:101930000032013227B300260032013227B50026DB
:101940000032013227B700260032013227B90026C3
:101950000032013227BB00260032013227BD0026AB
:101960000032013227BF002600320132000121EF90
:101970000DF00101246B226B0A0E236F216B1F51A6
:10198000201103E1000E016EBBD02451242B1F2532
:10199000E96E000E2021EA6EEFCF25F125512D08CA
:1019A0000CE1010E226F2451242B1F25E96E000E3D
:1019B0002021EA6EEFCF25F10CD025512B0809E14B
:1019C0002451242B1F25E96E000E2021EA6EEFCF53
:1019D00025F125512F08D8B08BD025513908D8A032
:1019E00087D0255130081EE124511F25E96E000ED5
:1019F0002021EA6EEF50780809E024511F25E96E96
:101A0000000E2021EA6EEF5058080CE1100E236FF3
:101A1000242B2451242B1F25E96E000E2021EA6E71
:101A2000EFCF25F123510A081CE125512F0818E2B8
:101A30002551390815E30A0E266F21C127F100014F
:101A400070D7300E0101255D0124216F2451242B14
:101A50001F25E96E000E2021EA6EEFCF25F1E5D7B4
:101A600047D02351100844E12551600806E2255172
:101A70007A0803E32551DF0B01D02551256F25514D
:101A80002F0803E22551390806E22551400830E2CB
:101A9000255146082DE325512F080CE22551390820
:101AA00009E32139266FF00E2617300E255D262515
:101AB000216F09D02139266FF00E2617410E255DC2
:101AC0000A0F2625216F2451242B1F25E96E000EB5
:101AD0002021EA6EEFCF25F12551600806E225515D
:101AE0007A0803E32551DF0B01D02551256FC7D7B5
:101AF000222D04D023510A0801E1216D21C101F0FA
:101B0000000190EF0DF0F8D601C033F033C01CF1A6
:101B100001011D6B010E206F1C0E1F6F000129D7E4
:101B200001C01EF101011E5312E00E0E1A25E96ECE
:101B3000000E1B21EA6E1E51EF5C09E3110E1A25FF
:101B4000E96E000E1B21EA6E1EC1EFFF78D0335004
:101B50002A081CE10C0E1A25E96E000E1B21EA6E04
:101B6000ECCF20F1ED52EFCF1FF11F5302E12053D4
:101B70000DE00C0E1A25E96E000E1B21EA6EEFCF68
:101B800001F0EE52EDCF02F05ED059D03350410853
:101B900011E1110E1A25E96E000E1B21EA6EEF50BD
:101BA000010808E2110E1A25E96E000E1B21EA6EEB
:101BB000EF0645D03350420819E1110E1A25E96E9F
:101BC000000E1B21EA6EEFCF1FF10E0E1A25E96EF3
:101BD000000E1B21EA6EEF501F5D08E2110E1A2560
:101BE000E96E000E1B21EA6EEF2A29D0335023083C
:101BF00026E1110E1A25E96E000E1B21EA6EEF5246
:101C00001EE0110E1A25E96E000E1B21EA6E010E70
:101C1000EF5C036A026ED890023603360250020F60
:101C2000016E000E032201501A25E96E1B5103209C
:101C3000EA6EEFCF01F0EE52EDCF02F004D01AC100
:101C400001F01BC102F0000140EF0EF017C119F1C5
:101C500016C118F119C11BF118C11AF186D5196AFC
:101C6000F2BE198EF29E0A0E01013C6F000102ECD9
:101C700008F019BEF28E19C11BF118C11AF143D731
:101C800002C019F101C018F1E5D7B3EF0FF0F86AFF
:101C9000D09E078E010E1D6E080E1E6E346A356AC8
:101CA000010E366E376E386E396A3A6A3B6A3C6AA4
:101CB0003D6A846B836BC150C00B0F09C16E070E68
:101CC000B46E29D001001F0002002D000045003E27
:101CD0004D61696E204D656E7500576173680053E4
:101CE00068616B65005072696D650050726F677254
:101CF000616D0050726F6772616D3200496E6E6582
:101D00007220576173680053656C6563742050617D
:101D100072616D730000000EF86E1C0EF76EC40E3B
:101D2000F66E0900F550006E000A13E00900F55048
:101D3000016EE8BE05D03F0BEA6E0900F5CFE9FF62
:101D400001BC090001AC0900F5CFEEFF004EE9D758
:101D5000F9D7F86A4E0E0101166F140E176F040EB4
:101D6000186F0001B8EF09F0010E0101166F0001B4
:101D700040EF0AF0F00E936E8196819481928190EB
:101D8000F19EF286C00EF212030E01012E6F020EBA
:101D90002F6F00014AEC0AF0B80EF66E110EF76EC6
:101DA000ACEC0AF0030E856F8551120810E385C074
:101DB0002EF1030E01012F6F00014AEC0AF0CA0E4A
:101DC000F66E110EF76EACEC0AF0852BEDD7CC0E4B
:101DD000F66E110EF76EACEC0AF0CE0EF66E110E2A
:101DE000F76EACEC0AF0010E01012E6F020E2F6FA0
:101DF00000014AEC0AF0DC0EF66E110EF76EACEC48
:101E00000AF0010E01012E6F030E2F6F00014AEC44
:101E10000AF0E40EF66E110EF76EACEC0AF0F20E5C
:101E2000F66E110EF76EACEC0AF00101176B860E20
:101E3000166F196B3E0E186F0001BCEC0AF0010121
:101E4000176B980E166F196B480E186F0001BCECDB
:101E50000AF00101176BAA0E166F196B530E186F5B
:101E60000001BCEC0AF00101176BBC0E166F196B78
:101E70004D0E186F0001BCEC0AF00101176BF20E59
:101E8000166F196B6A0E186F0001BCEC0AF0010E98
:101E90000101176F040E166F196B750E186F000194
:101EA000BCEC0AF00101176BCE0E166F196B590EC0
:101EB000186F0001BCEC0AF00101176BE00E166F01
:101EC000196B610E186F0001BCEC0AF00101176B71
:101ED000860E166F196B980E186F0001E8EC0AF069
:101EE0000101176B860E166F196BAA0E186F000191
:101EF000E8EC0AF00101176B860E166F196BBC0E29
:101F0000186F0001E8EC0AF00101176B860E166FDE
:101F1000196BCE0E186F0001E8EC0AF00101176B87
:101F2000860E166F196BE00E186F0001E8EC0AF0D0
:101F30000101176B980E166F196BF20E186F0001E6
:101F4000E8EC0AF00101176B980E166F010E196F7D
:101F5000040E186F0001E8EC0AF00101176B860E01
:081F6000166F000173D60300A7
:087FC80004030904080343004F
:107FD000430053001A0343004300530020004800AD
:107FE000490044002000440065006D006F0012034A
:107FF00031003200330034003500360037003800DD
:020000040030CA
:0E0000003FCC271E0087A1000FC00FE00F406D
:00000001FF
;PIC18F4550
;CRC=E1EC  CREATED="26-Oct-22 15:33"
