:1000000000EF0FF068961200046ED8CF05F0E0CF35
:1000100006F00001E9CF0CF0EACF07F0E1CF08F0DD
:10002000E2CF09F0D9CF0AF0DACF0BF0F3CF12F01C
:10003000F4CF13F0FACF14F0F5CF15F0F6CF16F099
:10004000F7CF17F000C00EF001C00FF002C010F0A3
:1000500003C011F0F2AA30EF00F0F2B42CEF07F079
:10006000F2A636EF00F0F2B0DCEF07F0A0AA3CEF0A
:1000700000F0A1BADCEF06F00EC000F00FC001F0F6
:1000800010C002F011C003F00CC0E9FF07C0EAFF86
:10009000078E08C0E1FF09C0E2FF0AC0D9FF0BC00C
:1000A000DAFF12C0F3FF13C0F4FF14C0FAFF15C04B
:1000B000F5FF16C0F6FF17C0F7FF045006C0E0FFBB
:1000C00005C0D8FF1000F76AD60FF66E000EF722B3
:1000D0000900F5501200280C0106F76AEA0FF66EC7
:1000E000000EF7220900F55012000003FFFFFFFF8A
:1000F000FFFFFFFFFFFFFFFFFFFFF76A0A0FF66E2C
:10010000010EF7220900F55012004000080000001F
:1001100000000000000000000000000000000000DF
:1001200000000000000000000000F76A3A0FF66EC1
:10013000010EF7220900F55012000600FF0901A187
:1001400001190129081580257F750895028102197A
:10015000012908750895029102C0F76A6A0FF66EC8
:10016000010EF7220900F55012000000F76A7C0F1B
:10017000F66E010EF7220900F55012002000F76A12
:100180008E0FF66E010EF7220900F55012000902DB
:100190002900010100803209040000020300000070
:1001A0000921000100012220000705810308000A3F
:1001B0000705010308000A00F76AC80FF66E010E72
:1001C000F7220900F55012000100F76ADA0FF66E07
:1001D000010EF7220900F55012001200F76AEC0F29
:1001E000F66E010EF7220900F550120012011001FF
:1001F00000000040610420000001010200016D9236
:10020000699468A402D06894FCD76898E8EF06F077
:10021000400E0401016F040E0201B76F100EB7C249
:1002200003F4E8CF02F4880E0401006F046B040E9F
:10023000076F500E066F0001120070A002D0E8DFB9
:100240007090689AEFEF06F06A6A6892F4EF06F031
:100250000201C391C2BFC381C29FC251100803E211
:10026000000E016E1AD0C3A10DD0036AC251000165
:1002700034DFFF0802E1000E01D0010E016E020121
:100280000CD00BD0036AC251000127DFFF0802E146
:10029000000E01D0010E016E020100011200036A7E
:1002A0000201C151700FE96E0F0E0320EA6EEF6A72
:1002B000C1C2C2F20001CCDF01521AE00201C151F9
:1002C000080DF350C36BE96E040EC325EA6EEF6AA6
:1002D000C151080DF350C36BC26F040EC227000E4C
:1002E000C323C2C2E9FF040EC325EA6EEF6A000110
:1002F0001200010E0201C06FC0510F0807E3C0C217
:10030000C1F20001CCDF0201C02BF6D700011200C0
:100310002B6A2A6A0201B66BB6530AE1036AB65128
:100320002C0FE96E000E0320EA6EEF6AB62BF4D7AD
:10033000216A010E226E206A0001A7EF01F06B6AAC
:10034000696A6A6A686A6E6A706AD3DFE1D7160EF4
:10035000706E68A602D056DEFCD79F0E6B6E3D0E07
:10036000696E6D9855DF030E256EF9EF06F069840E
:1003700069986D82FEEF06F0689C03EF07F0BCC23F
:1003800026F0120026681200BFC201F0BEC200F0C3
:100390000066012A0900F5CFEEFF002EFBD7012EE3
:1003A000F9D7F86A12000201BA6B2A502B104BE001
:1003B000BA513F0848E32350FC0F33E2040F000119
:1003C0002FEF02F029C003F02850D9DEE8CFBBF2AE
:1003D000020127D029C003F02850A7DEE8CFBBF2E6
:1003E00002011FD0C80E28240201BC6F7F0E2920F5
:1003F000BD6FF86AF76EBCC2F6FF020EEA6EBB0E66
:10040000E96EBF6B010EBE6F0001BEDF020109D0B5
:1004100029C003F02850E2DEE8CFBBF2020101D090
:100420000201282AD8B4292A2A50D8B42B062A0631
:10043000BA51BA2B036A500FE96E040E0320EA6E1C
:10044000BBC2EFFFB2D72A502B1004E1BA514008CB
:1004500001E0206ABAC2BCF2000191DF1200E82478
:10046000F76AF736790FF66E040EF7220A00F55098
:10047000FA6E0800F550F96EC403D403E4031004C7
:100480000201B96B296A286A236A04011351010A1F
:10049000000109E0030A0DE0010A0FE0220A44E02E
:1004A000030A5BE076D02B6A120E2A6E030E236ECF
:1004B00072D02B6A290E2A6E6ED0020E236E0201B4
:1004C000B96B040112510201B95D1BE2C80E282468
:1004D000BA6F7F0E2920BB6FF86ABBC2F7FFBAC2A2
:1004E000F6FF020EEA6EBC0EE96EBF6B010EBE6F28
:1004F00000014ADF0201BC512826000E2922B92B37
:10050000E0D7C80E2824BA6F7F0E2920BB6FF86A87
:10051000F76EBAC2F6FFEA6A2A0EE96EBF6B010EE9
:10052000BE6F000131DF37D0036A040112510001B0
:100530004CDE036A286E03C029F0283C02D0295201
:100540000AE029C003F028501ADE036A2A6E03C0AD
:100550002BF021D002D016DF2DD0036A04011451F4
:100560000001FBDD036A286E03C029F0283C02D09D
:1005700029520DE0010E236E036A0401145100019B
:10058000F5DD036A2A6E03C02BF005D002D0FADE37
:1005900011D0F8DE0FD00401175308E12B5203E10C
:1005A0002A50165D03E22B6A16C42AF0010E206E53
:1005B0000001F9DE12000201B85306E1040E256EB7
:1005C000000197DEC8D00201050E256E040EBB6F38
:1005D000900EBA6F010EB96FB9510F08D8A0BBD0F9
:1005E000B9C2C1F200015BDE0201BC6B036AB95102
:1005F000000173DDFF0855E0040E0201BC6FD890C6
:10060000B935036A000179DD0900F5CF03F0020175
:10061000BD6F03C0BEF2B951080DF350C16BC06F7E
:10062000010EC025016E000EC121036E01C0E9FF5D
:10063000040E0324EA6EBDC2EFFFB951080DF3505A
:10064000C16BC06F020EC025016E000EC121036E8A
:1006500001C0E9FF040E0324EA6EBBC2ECFFED52B9
:10066000BAC2EFFFD890B935036A000146DD090030
:10067000F5CF03F00201BA270350BB23880EBF6FEA
:10068000BEA101D0BF81BEA301D0BF83B951080D67
:10069000F350C16BE96E040EC125EA6EBFC2EFFFD5
:1006A0000001036A0201B951000117DDFF0838E0BB
:1006B0000201BC83B951080DF350C16BC06F040E29
:1006C000C027000EC123020EC025016E000EC121FD
:1006D000036E01C0E9FF040E0324EA6EBBC2ECFF07
:1006E000ED52BAC2EFFFD890B935036A000105DDBB
:1006F0000900F5CF03F00201BA270350BB23B9511B
:10070000080DF350C16BC06F040EC027000EC1234B
:10071000C0C2E9FF040EC125EA6E400EEF6E000173
:100720000201BC51060802E10E0EBC6F036AB9510A
:100730000001D3DC010803E00201BC890001036A67
:100740000201B951700FE96E0F0E0320EA6EBCC2B0
:10075000EFFFB92B41D7000102EF04F00401115162
:10076000000A00010DE0010A15E0020A21E0060A74
:100770002CE0030A33E00E0A33E0010A39E049D0E5
:1007800022C050F40401516B020E0201BC6F000143
:10079000F6DD40D00401122D08D0010E2216020110
:1007A000BC6B0001ECDD03D004010001EBDD32D0B5
:1007B0000401122D07D022820201BC6B0001DFDD93
:1007C00003D004010001DEDD25D0020E206E12C42C
:1007D00027F00201BC6B0001D2DD1CD051DE1AD023
:1007E00021C050F4010E0201BC6F0001C8DD12D01F
:1007F0000401125101080BE312C421F012C4B8F233
:100800000001D9D60201BC6B0001B9DD0401000171
:1008100001D0B8DD33EF05F021C0B8F20401115169
:10082000000A000107E00A0A0EE0010A2EE00D0AA4
:1008300042E043D00401506B516B020E0201BC6FC9
:1008400000019DDD3BD00201B8531CE0010EB85DF4
:10085000036A0001B1DC016E0401145DD8A002D06E
:10086000020110D0036A14512C0FE96E000E032010
:10087000EA6EEFCF50F4010E0201BC6F00017FDD84
:1008800003D0020100017EDD19D00201B85310E04F
:10089000036A040114512C0FE96E000E0320EA6E66
:1008A00012C4EFFF0201BC6B000169DD03D002013D
:1008B000000168DD03D0E4DD01D064DD33EF05F035
:1008C0000201B991B8BFB981B89FB9A111D0B8518F
:1008D000080DF350BB6BBA6F040EBA27000EBB2392
:1008E000BAC2E9FF040EBB25EA6E880EEF6E09D08E
:1008F000B851080DF350BB6BE96E040EBB25EA6ED0
:10090000EF6A036AB851700F016E0F0E032201C027
:10091000E9FF03C0EAFFEF900001F3EF04F00201EA
:10092000B991B8BFB981B89FB9A111D0B851080D1C
:10093000F350BB6BBA6F040EBA27000EBB23BAC2CA
:10094000E9FF040EBB25EA6E840EEF6E0AD0B851A3
:10095000080DF350BB6BE96E040EBB25EA6E840EE6
:10096000EF6E0001FBEF04F00201B991B8BFB9814D
:10097000B89FB9A111D0B851080DF350BC6BBB6F33
:10098000040EBB27000EBC23BBC2E9FF040EBC252E
:10099000EA6EEFCFBAF20AD0B851080DF350BC6B33
:1009A000E96E040EBC25EA6EEFCFBAF2BAAF02D000
:1009B000BAB502D0000E01D0010E016E000107EFA2
:1009C00005F014C4C2F244DC01522EE004011151BE
:1009D000010A000105E0020A0BE0030A11E023D03E
:1009E00014C4B8F26DD70201BC6B0001C8DC1CD086
:1009F00014C4B8F294D70201BC6B0001C0DC14D05F
:100A00000401506B516B14C4B8F20001ADD7015210
:100A100004E0010E0401506F0001020E0201BC6FE0
:100A20000001ADDC01D0AEDC33EF05F00401115163
:100A30000001A8DC33EF05F0206A040110517F0BA0
:100A4000000A000107E0010A07E0030A07E0230AA1
:100A500007E008D083D607D0DFD605D0B2D703D0C1
:100A6000E5D701D08FDC7CEF06F00201B851080D0C
:100A7000F350BE6BE96E040EBE25EA6EEFCFBAF2FC
:100A8000B951020806E1BAAD02D0B96B02D0010E2D
:100A9000B96FB951030813E1840EBA6FB851080D4C
:100AA000F350BE6BBD6F040EBD27000EBE23BDC24A
:100AB000E9FF040EBE25EA6E840EEF6E07D0B92D55
:100AC00003D0C80EBA6F02D0880EBA6FD890B8356E
:100AD000036A00017DEC00F00900F5CF03F002018C
:100AE000BB6F03C0BCF2B851080DF350BE6BBD6FB5
:100AF000010EBD25016E000EBE21036E01C0E9FF8F
:100B0000040E0324EA6EBBC2EFFFBCA101D0BA8180
:100B1000BCA301D0BA83B851080DF350BE6BE96E87
:100B2000040EBE25EA6EBAC2EFFF00011200036A8E
:100B30000201BD51700FE96E0F0E0320EA6EEF52F5
:100B400012E0BD51080DF350BF6BBE6F040EBE27FF
:100B5000000EBF23BEC2E9FF040EBF25EA6EEFCF31
:100B6000C0F2C0AF02D0000E01D0010E016E000134
:100B7000BDEF05F0B8C2BDF2DAD70152D8B470D0DB
:100B80000201B851080DF350BE6BBD6F040EBD27B6
:100B9000000EBE23010EBD25016E000EBE21036EA8
:100BA00001C0E9FF040E0324EA6EB9C2EFFFBB5196
:100BB000020817E1B851080DF350BE6BBD6F040E6B
:100BC000BD27000EBE23BDC2E9FF040EBE25EA6E9E
:100BD000EFCFBCF2BCAD02D0BB6B02D0010EBB6F3D
:100BE00013D0BB51040810E1B851080DF350BE6B8F
:100BF000E96E040EBE25EA6EEFCFBCF2BCAD03D0A9
:100C0000010EBB6F01D0BB6BBB2D03D0480EBC6F78
:100C100002D0080EBC6FB851080DF350BE6BBD6F0B
:100C2000040EBD27000EBE23BDC2E9FF040EBE2583
:100C3000EA6EBCC2EFFFB851080DF350BE6BBD6F3A
:100C4000040EBD27000EBE23BDC2E9FF040EBE2563
:100C5000EA6EEF508009EF6E010E016E04D00001C4
:100C6000000E016E0201000112000201B85300E102
:100C700000011200B9C26EFF0201B95303E0040E75
:100C8000256E02D0020E256E00014CEF06F0216A9F
:100C9000206A27C0B9F2EED75DEF06F00201B85323
:100CA0000DE1202C05D00001D3EC01F006D00201AB
:100CB0002050020803E10001EAD7020100011200FE
:100CC00024300201B66FB633B6331F0EB617245266
:100CD0004EE1040100513C0B0201B76F430E0401C9
:100CE00000170201B751340825E104010451800BBB
:100CF00001E0046B0001A0D66D98263C07D00201EC
:100D0000B86B030EB96F0001B0DE12D00201B86BF0
:100D1000020EB96F0001A9DE2650FE0809E00201AB
:100D2000B86BBA6B26C0B9F2040EBB6F000122DFAC
:100D30001CD00201B751040819E1B86B000195DF1E
:100D40000201B86B020EB96F00018FDE2650FE085B
:100D50000CE0263C01D009D00201B86BBA6B26C06A
:100D6000B9F2010EBB6F000105DF020122D0245051
:100D7000040812E12668B86B000190DF263C01D020
:100D800009D00201B86BBA6B26C0B9F2020EBB6F74
:100D90000001F0DE0DD0020124B406D0B6C2B8F2D4
:100DA000000163DF05D00201B6C2B8F2000176DFB0
:100DB000020100010FEF07F0A19A2552D8B439D0F3
:100DC0006852D8B436D068A403D069B4FFEF00F0FD
:100DD0006DB22FD068AA03D069BA1DEF01F068A2E6
:100DE00003D069B224EF01F068A003D069B09FEF8F
:100DF00001F068A803D069B8B7EF01F068AC03D080
:100E000069BCBCEF01F00201B56B68A60AD069A607
:100E100008D06CCF24F0000102EC00F051D703D0D1
:100E2000020106D000010201B551B52B0308EDE225
:100E300000013CEF00F0ECCFFAFFED52EFCFE8FFFE
:100E4000F96E12006D656E75206163746976617468
:100E500065640A0073656700362A3650EF0802E1C0
:100E6000342A366A34503C0802E1352A346AFE0ED0
:100E7000D76E0C0ED66EF2943CEF00F0020EEA6EC6
:100E8000B50EE96EEF500EE0010E016E006A002E05
:100E9000FED7012EFBD74A0E006E002EFED700D0E3
:100EA000EF2EF2D712008190818281848186815059
:100EB000EE0804E1310E0201B56F00018150DE0839
:100EC00004E1340E0201B56F00018150BE0804E157
:100ED000370E0201B56F000181507E0804E12A0E31
:100EE0000201B56F000181808192818481868150E9
:100EF000ED0804E1320E0201B56F00018150DD08FA
:100F000004E1350E0201B56F00018150BD0804E116
:100F1000380E0201B56F000181507D0804E1300EEA
:100F20000201B56F000181808182819481868150A8
:100F3000EB0804E1330E0201B56F00018150DB08BC
:100F400004E1360E0201B56F00018150BB0804E1D7
:100F5000390E0201B56F000181507B0804E1230EB8
:100F60000201B56F00018180818281848196815068
:100F7000E70804E1410E0201B56F00018150D70876
:100F800004E1420E0201B56F00018150B70804E18F
:100F9000430E0201B56F00018150770804E1440E51
:100FA0000201B56F000181968194819281900201C6
:100FB000B5C201F0000112000F0E0201B56F000171
:100FC0005DDF81A806D081AA04D081AC02D081BEA9
:100FD00007D069DF01C033F08196819481928190BE
:100FE000F2903CEF00F02564536567200000434118
:100FF0005247414E444F2053495354454D41000000
:101000002E000C004249454E56454E49444F2E2E67
:101010002E004D572D323030310056657273696F96
:101020006E204265746100000C000C004C6176611A
:101030006E646F202E2E2E000C00080E016E000034
:101040008B9C949C00000201B4378B9ED8B0948E88
:10105000D8A0949E948C82ACFED7012E01D002D0F1
:101060000001EDD700008B9C949C0000948E000042
:101070000000948C82ACFED7016A000082BE018021
:101080008B9C949C8B9E949E000112000201B25195
:10109000000A000103E0010A27E04DD00201B13946
:1010A000006EF00E001600501E10B36FB46F0001FA
:1010B000C4DF00000201B139006EF00E00160050CE
:1010C00004091E10B36FB46F0001B7DF00D0020136
:1010D000B139006EF00E00160050FB0B1E10B36FFE
:1010E000B46F0001AADF27D00201B139006EF00E03
:1010F0000016005001091E10B36FB46F00019DDF90
:1011000000000201B139006EF00E00160050010916
:1011100004091E10B36FB46F00018FDF00D002010D
:10112000B139006EF00E0016005001091E10B36FA9
:10113000B46F000182DF1200948E0000948C0000D6
:101140008B9E949E00008B9C949C1AC0B4F275DF19
:101150000201AE39B06F0F0EB017B0C2B1F2AFC21C
:10116000B2F2000193DF0201AE510F0BB06FB16F0D
:10117000AFC2B2F200018ADF949E0000948C82AC70
:10118000FED7000000D00000948E00001200010E77
:101190000201AE6FAF6B0001CFDF196AF2BE198E8C
:1011A000F29E020E0201B56F000168DE19BEF28EDA
:1011B000010E1D6E12008FC21AF091C21BF090C278
:1011C0001CF0F29CF29EF2BEFDD7196AF2BE198E97
:1011D000F29E320E0201B56F000150DE19BEF28E92
:1011E000948E0000948C00008B9E949E00008B9C3B
:1011F000949C1AC0B4F221DF0201B16BB26B000102
:1012000045DF196AF2BE198EF29E0F0E0201B56F0C
:10121000000134DE19BEF28E010E0201926F92516E
:10122000030813E3030EB16FB26B00012FDF196ADD
:10123000F2BE198EF29E050E0201B56F00011EDE90
:1012400019BEF28E0201922BEAD7020EB16FB26B79
:1012500000011CDF196AF2BE198EF29E050E020112
:10126000B56F00010BDE19BEF28E949E0000948CC7
:1012700082ACFED7000000D00000948E0000020176
:10128000926B9251030819E3036A9251000163ECD7
:1012900000F00201936FAE6FAF6B00014DDF196A72
:1012A000F2BE198EF29E050E0201B56F0001E6DD59
:1012B00019BEF28E0201922BE4D7000168DFC00E46
:1012C000F212BDEF0FF002018F5303E0080E1E6E05
:1012D00001D01E6A0001C3EF0FF00201A8511B5C90
:1012E00003E21BC0A9F202D0A8C2A9F2A951010AC7
:1012F000000107E0030A08E0010A0AE0070A0CE01F
:101300000FD00201AB6B0ED0400E0201AB6F0AD0C2
:10131000140E0201AB6F06D0540E0201AB6F02D067
:101320000201AB6BA7511C5C03E21CC0AAF202D005
:10133000A7C2AAF2010EAA5DAB25AC6FAC51800921
:10134000AD6FAE6FAF6B0001F7DE12000201A65168
:101350000C0A000105E0060A05E0020A11E017D0B8
:1013600016DF1CD01D2A1D501B5C02E2010E1D6EF3
:10137000010E0201A76F1DC0A8F20001AEDF0ED062
:10138000100E0201AE6FAF6B0001D6DE07D0A6C211
:10139000AEF2010E0201AF6F0001CEDE12000900B5
:1013A000F5520CE0F6CF9FF2F7CFA0F2F5CFA6F200
:1013B000CDDF9FC2F6FFA0C2F7FFF1D712000201F6
:1013C0009151030801E202D091C223F10001F9EF2B
:1013D0000AF0036A010123510B0FE96E010E03208D
:1013E000EA6EEFCF92F2F250006EF29E92C2A9FF27
:1013F00091C2A8FFA69CA69EA6840F01550EA76EBB
:10140000AA0EA76EA682A6B2FED7A6940050F2122C
:101410000001FEEF0AF0036A01012351070FE96E94
:10142000010E0320EA6EEFCF92F2F250006EF29EB0
:1014300092C2A9FF91C2A8FFA69CA69EA6840F01F6
:10144000550EA76EAA0EA76EA682A6B2FED7A694C8
:101450000050F212000103EF0BF00201946B956B48
:101460009551036A016E00011200020193C201F05E
:1014700000011200036A01012351FF0FE96E000E03
:101480000320EA6EEFCF92F291C293F20001E5DF02
:1014900001C093F2F250006EF29E92C2A9FF93C275
:1014A000A8FFA69CA69EA6840F01550EA76EAA0EA5
:1014B000A76EA682A6B2FED7A6940050F212036AC7
:1014C00001012351030FE96E010E0320EA6EEFCFF5
:1014D00092F291C293F20001C8DF01C093F2F25080
:1014E000006EF29E92C2A9FF93C2A8FFA69CA69E80
:1014F000A6840F01550EA76EAA0EA76EA682A6B2ED
:10150000FED7A6940050F212000108EF0BF0036A18
:1015100001012351130FE96E010E0320EA6EEFCF94
:1015200092F2F250006EF29E92C2A9FF91C2A8FF01
:10153000A69CA69EA6840F01550EA76EAA0EA76EA6
:10154000A682A6B2FED7A6940050F21200010DEFBB
:101550000BF0036A010123511B0FE96E010E0320FA
:10156000EA6EEFCF92F291C293F2000176DF01C0F2
:1015700093F2F250006EF29E92C2A9FF93C2A8FFAE
:10158000A69CA69EA6840F01550EA76EAA0EA76E56
:10159000A682A6B2FED7A6940050F212036A0101F9
:1015A00023511F0FE96E010E0320EA6EEFCF92F276
:1015B00091C293F2000159DF01C093F2F250006E24
:1015C000F29E92C2A9FF93C2A8FFA69CA69EA684E3
:1015D0000F01550EA76EAA0EA76EA682A6B2FED761
:1015E000A6940050F212000112EF0BF090C291F29B
:1015F000E6D61E0E0201916F0001EBD6040E020129
:10160000916F000108D71E0E0201916F000132D7C1
:10161000020E0201916F00017AD71E0E0201916F36
:10162000000197D71DEF0BF002018F6B8F5103085C
:1016300007E38FC290F20001D9D702018F2BF6D7B2
:10164000000123EF10F00E0E02018F25E96E000E4F
:101650009021EA6EEF6A0C0E8F25E96E000E902144
:10166000EA6EEC6AED52EF6A110E8F25E96E000EFC
:101670009021EA6EEF6A0F0E8F25E96E000E902121
:10168000EA6EEC6AED52EF6A8FC2E9FF90C2EAFFA0
:1016900092C2ECFFED5291C2EFFF000112000E0E5C
:1016A00002018F25E96E000E9021EA6EEF5063086B
:1016B000D8A02ED00E0E8F25E96E000E9021EA6E76
:1016C000036AEFCF02F0D890023603360250020FC1
:1016D000016E000E032201508F25E96E9051032008
:1016E000EA6E92C2ECFFED5291C2EFFF0E0E8F2513
:1016F000E96E000E9021EA6EEF2A0C0E9125E96E3C
:10170000000E9221EA6E90C2ECFFED528FC2EFFF05
:1017100000011200EF520FE0EACFA2F2E9CFA1F2EE
:10172000EFCFA6F213DEA2C2EAFFA1C2E9FFE92AC7
:10173000D8B4EA2AEFD712000201A751016AA65DC8
:1017400003E2A6C200F00CD0006A080EA86FA6370C
:101750000036A751005CD8B0006E0136A82FF7D72D
:10176000000112000201A151A05D02E2A05101D0CE
:10177000A151016E00016CEF0CF0200E0201A1A935
:10178000300EA26FA0C200F000AE08D0001E002AEA
:1017900000C0A0F22D0EA26FA18FA1810150A0C2A6
:1017A000A6F2640EA76F0001C7DF00C0A0F2300EE2
:1017B00001240201A36FA0C2A6F20A0EA76F0001C6
:1017C000BBDF300E00240201A56F300E0124A46F90
:1017D000A2C200F0300EA35D04E0A183A1BFA185E9
:1017E00012D0A2C2A3F2200EA26F300EA45D04E0BC
:1017F000A181A1BFA18307D0D8A4A18104E1A3C284
:10180000A4F2200EA36FA1B505D0A1B307D0A1B15A
:1018100009D00CD0A2C2A6F2000198DDA3C2A6F2A4
:10182000000194DDA4C2A6F2000190DDA5C2A6F2DB
:1018300000018CDD9DEF0CF0380EF66E100EF76E89
:10184000AEDD030E0201A76F010EA86F000145DD9A
:10185000020193C2E9FF94C2EAFFECCFA0F2ED527D
:10186000EFCF9FF2A0C2EAFF9FC2E9FF000152DF63
:101870000201956B110E9325E96E000E9421EA6E1C
:10188000EFCF96F2020E976F986B010E996F96C28A
:10189000A6F2030EA76F00014FDF036A0050970FF7
:1018A000E96E020E0320EA6EEFCF9AF20201965122
:1018B000030804E29A51965DFF0F956F0E0E932573
:1018C000E96E000E9421EA6E9551EF5C9F6FA06F58
:1018D000030EA16F000146D701C09BF202019C6B71
:1018E0009B519C5D56E295519C25036A026ED890EF
:1018F000023603360250020F016E000E0322015021
:101900009325E96E94510320EA6EECCF9EF2ED52DE
:10191000EFCF9DF2020E9C259F6F020EA76F9FC214
:10192000A8F20001DADC02019C519525010F9F6F9E
:10193000A06F180EA16F000120D7020E02019C2596
:101940009F6F030EA76F9FC2A8F20001C6DC2D0E89
:101950000201A66F0001FADC020E02019C259F6FB6
:10196000040EA76F9FC2A8F20001B7DC02019DC25E
:10197000E9FF9EC2EAFFECCFA0F2ED52EFCF9FF25B
:10198000A0C2EAFF9FC2E9FF0001C4DE02019C2B56
:10199000A7D7110E9325E96E000E9421EA6EEF523F
:1019A0000FE0020E9A259F6F010EA76F9FC2A8F24B
:1019B000000193DC2A0E0201A66F0001C7DC0201C0
:1019C0000001E8EF0EF0196AF2BE198EF29E53EC98
:1019D00007F019BEF28E01C09CF202019C53D8A4FC
:1019E00002D00001F0D79CC201F0000112EF0EF00E
:1019F000006A016A0201A351D890A4B10026003206
:101A00000132A4B3002600320132A4B50026003210
:101A10000132A4B7002600320132A4B900260032F8
:101A20000132A4BB002600320132A4BD00260032E0
:101A30000132A4BF002600320132000188EF0DF010
:101A40000201A16B9F6B0A0EA06F9E6B9C519D11B2
:101A500003E1000E016EBBD0A151A12B9C25E96EC4
:101A6000000E9D21EA6EEFCFA2F2A2512D080CE1EB
:101A7000010E9F6FA151A12B9C25E96E000E9D21A7
:101A8000EA6EEFCFA2F20CD0A2512B0809E1A151CE
:101A9000A12B9C25E96E000E9D21EA6EEFCFA2F2EC
:101AA000A2512F08D8B08BD0A2513908D8A087D026
:101AB000A25130081EE1A1519C25E96E000E9D2126
:101AC000EA6EEF50780809E0A1519C25E96E000EFE
:101AD0009D21EA6EEF5058080CE1100EA06FA12B6B
:101AE000A151A12B9C25E96E000E9D21EA6EEFCF3E
:101AF000A2F2A0510A081CE1A2512F0818E2A2513B
:101B0000390815E30A0EA36F9EC2A4F2000170D734
:101B1000300E0201A25D01249E6FA151A12B9C25D4
:101B2000E96E000E9D21EA6EEFCFA2F2E5D747D015
:101B3000A051100844E1A251600806E2A2517A08BF
:101B400003E3A251DF0B01D0A251A26FA2512F08D3
:101B500003E2A251390806E2A251400830E2A25144
:101B600046082DE3A2512F080CE2A251390809E3DF
:101B70009E39A36FF00EA317300EA25DA3259E6FB2
:101B800009D09E39A36FF00EA317410EA25D0A0F74
:101B9000A3259E6FA151A12B9C25E96E000E9D21CE
:101BA000EA6EEFCFA2F2A251600806E2A2517A08D3
:101BB00003E3A251DF0B01D0A251A26FC7D79F2D23
:101BC00004D0A0510A0801E19E6D9EC201F00001FF
:101BD0001EEF0EF02A0EF66E100EF76ECFEC09F027
:101BE000020E0201A76F030EA86F00016DEC09F051
:101BF0002C0EF66E100EF76ECFEC09F0140E0201EB
:101C00009C6F196AF2BE198EF29EFA0EB56F000132
:101C10003EEC07F019BEF28E02019C2FF2D70001B4
:101C20001200D1D601C033F033C095F20201966B99
:101C3000020E9D6F950E9C6F000102D701C097F2B6
:101C40000201975312E00E0E9325E96E000E9421C7
:101C5000EA6E9751EF5C09E3110E9325E96E000ED1
:101C60009421EA6E97C2EFFFA3D033502A081CE1FB
:101C70000C0E9325E96E000E9421EA6EECCF9DF2D6
:101C8000ED52EFCF9CF29C5302E19D530DE00C0E00
:101C90009325E96E000E9421EA6EEFCF01F0EE522B
:101CA000EDCF02F089D084D03350410811E1110EFC
:101CB0009325E96E000E9421EA6EEF50010808E2C8
:101CC000110E9325E96E000E9421EA6EEF0670D096
:101CD0003350420819E1110E9325E96E000E94214C
:101CE000EA6EEFCF9CF20E0E9325E96E000E942162
:101CF000EA6EEF509C5D08E2110E9325E96E000E2E
:101D00009421EA6EEF2A54D03350230851E1110E8A
:101D10009325E96E000E9421EA6EEF5249E0110E10
:101D20009325E96E000E9421EA6E010EEF5C036AC2
:101D3000026ED890023603360250020F016E000E7A
:101D4000032201509325E96E94510320EA6EECCFF3
:101D500099F2ED52EFCF98F20F0E9825E96E000E32
:101D60009921EA6EECCF9DF2ED52EFCF9CF29C539D
:101D700002E19D5318E00F0E9825E96E000E99219F
:101D8000EA6EECCF9BF2ED52EFCF9AF2020EEA6EC2
:101D90009A0EE96E00011BEC07F0020193C201F0FC
:101DA00094C202F009D098C201F099C202F004D0A6
:101DB00093C201F094C202F00001F9EF0EF090C25C
:101DC00092F28FC291F292C294F291C293F234D500
:101DD000196AF2BE198EF29E0A0E0201B56F000159
:101DE0003EEC07F019BEF28E92C294F291C293F2C9
:101DF00018D702C092F201C091F2E5D7F2EF11F0CC
:101E0000F86AD09E078E010E1D6E080E1E6E346A93
:101E1000356A010E366E376A386A0101236B256B0D
:101E2000246BC150C00B0F09C16E070EB46E7CD07D
:101E300001001F0002002D0000EA00394D454E55FB
:101E4000205052494E434950414C004C415641525A
:101E500000414749544152004345424152005052CB
:101E60004F4752414D4152004C61766172005365BB
:101E70006C656320506172616D6574726F004C61B6
:101E800076616E646F2E2E2E00462F4C6176616453
:101E90006F3A00542F456E6A75616775653A004365
:101EA0002F4369636C6F733A004167697461720014
:101EB000496E74656E73696461643A00542F4167BA
:101EC00069746163696F6E3A004365626172004DC7
:101ED0002F43656261646F3A00542F436562616409
:101EE0006F3A004372656172004564697461720003
:101EF000426F72726172004E6F6D62726500010B0B
:101F00001015020C1116030D1217040E13180A0FE8
:101F10001419051A1C1E061B1D1F07202326082145
:101F20002427092225280000000EF86E1E0EF76EE9
:101F3000300EF66E0900F550006E000A13E009003D
:101F4000F550016EE8BE05D03F0BEA6E0900F5CFF3
:101F5000E9FF01BC090001AC0900F5CFEEFF004E1E
:101F6000E9D7F9D7F86A4E0E02018F6F140E906F01
:101F7000040E916F0001DBEF08F0010E02018F6F7C
:101F8000000163EF09F0F00E936E819681948192C7
:101F90008190F19EF286C00EF212030E0201A76F2D
:101FA000020EA86F00016DEC09F0EE0EF66E0F0E3A
:101FB000F76ECFEC09F0030E0101266F26511208CF
:101FC00011E326C1A7F2030E0201A86F00016DEC18
:101FD00009F0000EF66E100EF76ECFEC09F001015D
:101FE000262BECD7020EF66E100EF76E0001CFEC2A
:101FF00009F0040EF66E100EF76ECFEC09F0010E2C
:102000000201A76F020EA86F00016DEC09F0120E1D
:10201000F66E100EF76ECFEC09F0010E0201A76FFD
:10202000030EA86F00016DEC09F01A0EF66E100E8B
:10203000F76ECFEC09F0280EF66E100EF76ECFECAF
:1020400009F014EF0BF0010E0201906F270E8F6F55
:10205000926B390E916F000123EC0BF0010E02011F
:10206000906F390E8F6F926B480E916F000123ECC9
:102070000BF0010E0201906F4B0E8F6F926B550E9D
:10208000916F000123EC0BF0010E0201906F5D0EC9
:102090008F6F926B4E0E916F000123EC0BF0010ECF
:1020A0000201906F6F0E8F6F926B5B0E916F00014C
:1020B00023EC0BF0010E0201906F810E8F6F926B7B
:1020C000650E916F000123EC0BF0010E0201906F81
:1020D000930E8F6F926B6B0E916F000123EC0BF0E0
:1020E000010E0201906FA50E8F6F926B860E916F9D
:1020F000000123EC0BF0010E0201906FB70E8F6F01
:10210000926B900E916F000123EC0BF0010E020117
:10211000906FC90E8F6F926B9C0E916F000123EC34
:102120000BF0010E0201906FDB0E8F6F926BA60E0B
:10213000916F000123EC0BF0010E0201906FED0E88
:102140008F6F926BAD0E916F000123EC0BF0010EBF
:102150000201906F8F69926BB90E916F000123ECB1
:102160000BF0020E0201906F110E8F6F926BC60E74
:10217000916F000123EC0BF0020E0201906F230E11
:102180008F6F926BCC0E916F000123EC0BF0020E5F
:102190000201906F350E8F6F926BD60E916F00011A
:1021A00023EC0BF0020E0201906F470E8F6F926BC3
:1021B000E00E916F000123EC0BF0020E0201906F14
:1021C000590E8F6F926BE60E916F000123EC0BF0AE
:1021D000020E0201906F6B0E8F6F926BED0E916F7E
:1021E000000123EC0BF0020E0201906F7D0E8F6F49
:1021F000926BF40E916F000123EC0BF0010E0201C3
:10220000906F270E8F6F010E926F390E916F000144
:102210004FEC0BF0010E0201906F270E8F6F010E35
:10222000926F4B0E916F00014FEC0BF0010E02010B
:10223000906F270E8F6F010E926F5D0E916F0001F0
:102240004FEC0BF0010E0201906F270E8F6F010E05
:10225000926F6F0E916F00014FEC0BF0010E0201B7
:10226000906F390E8F6F010E926F810E916F00018A
:102270004FEC0BF0010E0201906F390E8F6F010EC3
:10228000926F930E916F00014FEC0BF0010E020163
:10229000906F930E8F6F010E926FA50E916F0001DC
:1022A0004FEC0BF0010E0201906F930E8F6F010E39
:1022B000926FB70E916F00014FEC0BF0010E02010F
:1022C000906F930E8F6F010E926FC90E916F000188
:1022D0004FEC0BF0010E0201906F5D0E8F6F010E3F
:1022E000926FDB0E916F00014FEC0BF0010E0201BB
:1022F000906F5D0E8F6F010E926FED0E916F00016A
:102300004FEC0BF0010E0201906F5D0E8F6F010E0E
:10231000926F916900014FEC0BF0010E0201906F7A
:102320004B0E8F6F020E926F110E916F00014FECEA
:102330000BF0010E0201906F4B0E8F6F020E926F29
:10234000230E916F00014FEC0BF0010E0201906F14
:102350004B0E8F6F020E926F350E916F00014FEC96
:102360000BF0010E0201906F6F0E8F6F020E926FD5
:10237000470E916F00014FEC0BF0010E0201906FC0
:102380006F0E8F6F020E926F590E916F00014FEC1E
:102390000BF0010E0201906F6F0E8F6F020E926FA5
:1023A0006B0E916F00014FEC0BF0020E0201906F6B
:1023B000470E8F6F020E926F7D0E916F00014FECF2
:1023C0000BF0010EEA6E900EE96E1B0E036ED40E3A
:1023D000EF6E03C0ECFF010E0201906F270E8F6FAE
:0623E0000001EDD4030032
:087FC80004030904080343004F
:107FD000430053001A0343004300530020004800AD
:107FE000490044002000440065006D006F0012034A
:107FF00031003200330034003500360037003800DD
:020000040030CA
:0E0000003FCC271E0087A1000FC00FE00F406D
:00000001FF
;PIC18F4550
;CRC=2926  CREATED="26-Oct-22 20:26"
