:1000000010EF1AF068961200046ED8CF05F0E0CF1A
:1000100006F00001E9CF0CF0EACF07F0E1CF08F0DD
:10002000E2CF09F0D9CF0AF0DACF0BF0F3CF12F01C
:10003000F4CF13F0FACF14F0F5CF15F0F6CF16F099
:10004000F7CF17F000C00EF001C00FF002C010F0A3
:1000500003C011F0F2AA30EF00F0F2B45AEF07F04B
:10006000F2A636EF00F0F2B00AEF08F0A0AA3CEFDB
:1000700000F0A1BA0AEF07F00EC000F00FC001F0C7
:1000800010C002F011C003F00CC0E9FF07C0EAFF86
:10009000078E08C0E1FF09C0E2FF0AC0D9FF0BC00C
:1000A000DAFF12C0F3FF13C0F4FF14C0FAFF15C04B
:1000B000F5FF16C0F6FF17C0F7FF045006C0E0FFBB
:1000C00005C0D8FF1000F76AD60FF66E000EF722B3
:1000D0000900F5501200280C0106F76AEA0FF66EC7
:1000E000000EF7220900F55012000003FFFFFFFF8A
:1000F000FFFFFFFFFFFFFFFFFFFFF76A0A0FF66E2C
:10010000010EF7220900F55012004000080000001F
:1001100000000000000000000000000000000000DF
:1001200000000000000000000000F76A3A0FF66EC1
:10013000010EF7220900F55012000600FF0901A187
:1001400001190129081580257F750895028102197A
:10015000012908750895029102C0F76A6A0FF66EC8
:10016000010EF7220900F55012000000F76A7C0F1B
:10017000F66E010EF7220900F55012002000F76A12
:100180008E0FF66E010EF7220900F55012000902DB
:100190002900010100803209040000020300000070
:1001A0000921000100012220000705810308000A3F
:1001B0000705010308000A00F76AC80FF66E010E72
:1001C000F7220900F55012000100F76ADA0FF66E07
:1001D000010EF7220900F55012001200F76AEC0F29
:1001E000F66E010EF7220900F550120012011001FF
:1001F00000000040610420000001010200016D9236
:10020000699468A402D06894FCD7689816EF07F048
:10021000400E0401016F040E0301FC6F100EFCC3BD
:1002200003F4E8CF02F4880E0401006F046B040E9F
:10023000076F500E066F0001120070A002D0E8DFB9
:100240007090689A1DEF07F06A6A689222EF07F0D3
:100250000401AC91ABBFAC81AB9FAB51100803E282
:10026000000E016E1AD0ACA10DD0036AAB51000193
:1002700034DFFF0802E1000E01D0010E016E04011F
:100280000CD00BD0036AAB51000127DFFF0802E15D
:10029000000E01D0010E016E040100011200036A7C
:1002A0000401AA51700FE96E0F0E0320EA6EEF6A87
:1002B000AAC4ABF40001CCDF01521AE00401AA5138
:1002C000080DF350AC6BE96E040EAC25EA6EEF6AD4
:1002D000AA51080DF350AC6BAB6F040EAB27000EA8
:1002E000AC23ABC4E9FF040EAC25EA6EEF6A000153
:1002F0001200010E0401A96FA9510F0807E3A9C458
:10030000AAF40001CCDF0401A92BF6D700011200EA
:100310002B6A2A6A0301FB6BFB530AE1036AFB5158
:100320002C0FE96E000E0320EA6EEF6AFB2BF4D768
:10033000216A010E226E206A000112006B6A696A4E
:100340006A6A686A6E6A706AD4DFE2DF160E706EDF
:1003500068A602D057DEFCD79F0E6B6E3D0E696E0D
:100360006D9856DF030E256E27EF07F069846998B4
:100370006D822CEF07F0689C31EF07F0A3C426F0E4
:10038000120026681200A6C401F0A5C400F00066A1
:10039000012A0900F5CFEEFF002EFBD7012EF9D779
:1003A000F86A12000401A16B2A502B104BE0A151F6
:1003B0003F0848E32350FC0F33E2040F00012EEF07
:1003C00002F029C003F02850DADEE8CFA2F40401DD
:1003D00027D029C003F02850A8DEE8CFA2F40401FA
:1003E0001FD0C80E28240401A36F7F0E2920A46FFC
:1003F000F86AF76EA3C4F6FF040EEA6EA20EE96E69
:10040000A66B010EA56F0001BEDF040109D029C053
:1004100003F02850E3DEE8CFA2F4040101D0040188
:10042000282AD8B4292A2A50D8B42B062A06A15142
:10043000A12B036A500FE96E040E0320EA6EA2C4DA
:10044000EFFFB2D72A502B1004E1A151400801E080
:10045000206AA1C4A3F4000191DF1200E824F76A26
:10046000F736770FF66E040EF7220A00F550FA6E93
:100470000800F550F96EC203D203E2030E04030133
:10048000FE6B296A286A236A04011351010A0001DC
:1004900009E0030A0DE0010A0FE0220A47E0030A1F
:1004A0005EE079D02B6A120E2A6E030E236E75D091
:1004B0002B6A290E2A6E71D0020E236E0301FE6B89
:1004C000040112510301FE5D1DE2C80E282404013F
:1004D000A06F7F0E2920A16FF86AA1C4F7FFA0C406
:1004E000F6FF040EEA6EA20EE96EA66B010EA56F72
:1004F000000149DF0401A2512826000E2922030130
:10050000FE2BDED7C80E28240401A06F7F0E292001
:10051000A16FF86AF76EA0C4F6FFEA6A2A0EE96EC8
:10052000A66B010EA56F00012EDF37D0036A040110
:10053000125100014ADE036A286E03C029F0283CEC
:1005400002D029520AE029C003F0285018DE036ABD
:100550002A6E03C02BF021D002D013DF2DD0036A06
:10056000040114510001F9DD036A286E03C029F06B
:10057000283C02D029520DE0010E236E036A0401CB
:1005800014510001F3DD036A2A6E03C02BF005D07D
:1005900002D0F7DE11D0F5DE0FD00401175308E1C9
:1005A0002B5203E12A50165D03E22B6A16C42AF08F
:1005B000010E206E0001F6DE12000301FD5306E17C
:1005C000040E256E000195DED5D00301050E256EC3
:1005D000040E0401A16F900EA06F010E0301FE6FC7
:1005E000FE510F08D8A0C6D0FEC3AAF4000157DE02
:1005F0000301FF6B036AFE5100016FDDFF085CE041
:10060000040E0301FF6FD890FE35036A000175DD0B
:100610000900F5CF03F00401A26F03C0A3F40301A6
:10062000FE51080DF3500401A66BA56F010EA52520
:10063000016E000EA621036E01C0E9FF040E032423
:10064000EA6EA2C4EFFF0301FE51080DF35004014E
:10065000A66BA56F020EA525016E000EA621036EE6
:1006600001C0E9FF040E0324EA6EA1C4ECFFED52C1
:10067000A0C4EFFFD8900301FE35036A00013DDD01
:100680000900F5CF03F00401A0270350A123880E31
:10069000A46FA3A101D0A481A3A301D0A4830301CB
:1006A000FE51080DF3500401A66BE96E040EA62559
:1006B000EA6EA4C4EFFF0001036A0301FE510001CA
:1006C0000CDDFF083CE00301FF83FE51080DF350F1
:1006D0000401A66BA56F040EA527000EA623020E2B
:1006E000A525016E000EA621036E01C0E9FF040ED0
:1006F0000324EA6EA1C4ECFFED52A0C4EFFFD89032
:100700000301FE35036A0001F8DC0900F5CF03F0B0
:100710000401A0270350A1230301FE51080DF3504B
:100720000401A66BA56F040EA527000EA623A5C481
:10073000E9FF040EA625EA6E400EEF6E00010301EC
:10074000FF51060802E10E0EFF6F036AFE51000121
:10075000C4DC010803E00301FF890001036A03010F
:10076000FE51700FE96E0F0E0320EA6EFFC3EFFF1C
:10077000FE2B36D700010EEF04F004011151000AE0
:1007800000010DE0010A14E0020A1FE0060A29E058
:10079000030A30E00E0A30E0010A36E046D022C0FB
:1007A00050F40401516B020EA36F0001E7DD3ED04F
:1007B0000401122D07D0010E2216A36B0001DEDD0D
:1007C00003D004010001DDDD31D00401122D06D07B
:1007D0002282A36B0001D2DD03D004010001D1DD30
:1007E00025D0020E206E12C427F00401A36B000175
:1007F000C5DD1CD044DE1AD021C050F4010E040126
:10080000A36F0001BBDD12D00401125101080BE3FC
:1008100012C421F012C4FDF30001CFD60401A36B72
:100820000001ACDD0401000101D0ABDD47EF05F0B4
:1008300021C0FDF304011151000A000107E00A0A7A
:100840000DE0010A2CE00D0A3FE040D00401506B9E
:10085000516B020EA36F000191DD39D00301FD53EE
:100860001BE0010EFD5D036A0001A6DC016E0401C0
:10087000145DD8A002D003010FD0036A14512C0FCD
:10088000E96E000E0320EA6EEFCF50F4010EA36F65
:10089000000174DD03D00301000173DD18D00301F2
:1008A000FD530FE0036A040114512C0FE96E000E92
:1008B0000320EA6E12C4EFFFA36B00015FDD03D0DB
:1008C000030100015EDD03D0DADD01D05ADD47EF20
:1008D00005F00301FE91FDBFFE81FD9FFEA113D037
:1008E000FD51080DF3500401A16BA06F040EA02769
:1008F000000EA123A0C4E9FF040EA125EA6E880E14
:10090000EF6E0BD00301FD51080DF3500401A16BF4
:10091000E96E040EA125EA6EEF6A036A0301FD5138
:10092000700F016E0F0E032201C0E9FF03C0EAFF42
:10093000EF90000107EF05F00301FE91FDBFFE817E
:10094000FD9FFEA113D0FD51080DF3500401A16BD2
:10095000A06F040EA027000EA123A0C4E9FF040E7F
:10096000A125EA6E840EEF6E0CD00301FD51080D37
:10097000F3500401A16BE96E040EA125EA6E840E0A
:10098000EF6E00010FEF05F00301FE91FDBFFE8148
:10099000FD9FFEA113D0FD51080DF3500401A16B82
:1009A000A06F040EA027000EA123A0C4E9FF040E2F
:1009B000A125EA6EEFCFFFF30CD00301FD51080D26
:1009C000F3500401A16BE96E040EA125EA6EEFCF8E
:1009D000FFF30301FFAF02D0FFB502D0000E01D03C
:1009E000010E016E00011BEF05F014C4ABF430DC06
:1009F00001522EE004011151010A000105E0020A32
:100A00000BE0030A11E023D014C4FDF362D7040104
:100A1000A36B0001B3DC1CD014C4FDF38DD704011B
:100A2000A36B0001ABDC14D00401506B516B14C4F8
:100A3000FDF30001A9D7015204E0010E0401506F3B
:100A40000001020E0401A36F000198DC01D099DCC3
:100A500047EF05F004011151000193DC47EF05F069
:100A6000206A040110517F0B000A000107E0010A0F
:100A700007E0030A07E0230A07E008D07ED607D084
:100A8000D7D605D0B2D703D0E5D701D07ADCA7EF0F
:100A900006F00301FD51080DF3500401A36BE96E4C
:100AA000040EA325EA6EEFCFFFF30301FE51020807
:100AB00006E1FFAD02D0FE6B02D0010EFE6FFE51CB
:100AC000030815E1840EFF6FFD51080DF35004017A
:100AD000A36BA26F040EA227000EA323A2C4E9FFFA
:100AE000040EA325EA6E840EEF6E09D00301FE2DDD
:100AF00003D0C80EFF6F02D0880EFF6F0401D8909C
:100B00000301FD35036A00017DEC00F00900F5CF1B
:100B100003F00401A06F03C0A1F40301FD51080D0F
:100B2000F3500401A36BA26F010EA225016E000E0B
:100B3000A321036E01C0E9FF040E0324EA6EA0C4E2
:100B4000EFFFA1A103D00301FF810401A1A303D002
:100B50000301FF8304010301FD51080DF35004015B
:100B6000A36BE96E040EA325EA6EFFC3EFFF00013D
:100B70001200036A0401A551700FE96E0F0E0320E5
:100B8000EA6EEF5212E0A551080DF350A76BA66F65
:100B9000040EA627000EA723A6C4E9FF040EA7256E
:100BA000EA6EEFCFA8F4A8AF02D0000E01D0010E7C
:100BB000016E0001DFEF05F0FDC3A5F4DAD70152A5
:100BC000D8B479D00301FD51080DF3500401A36B93
:100BD000A26F040EA227000EA323010EA225016E10
:100BE000000EA321036E01C0E9FF040E0324EA6E88
:100BF000FEC3EFFFA051020819E10301FD51080DEA
:100C0000F3500401A36BA26F040EA227000EA323CE
:100C1000A2C4E9FF040EA325EA6EEFCFA1F4A1ADB3
:100C200002D0A06B02D0010EA06F15D0A051040815
:100C300012E10301FD51080DF3500401A36BE96EAD
:100C4000040EA325EA6EEFCFA1F4A1AD03D0010EEF
:100C5000A06F01D0A06BA02D03D0480EA16F02D0D1
:100C6000080EA16F0301FD51080DF3500401A36BA1
:100C7000A26F040EA227000EA323A2C4E9FF040E54
:100C8000A325EA6EA1C4EFFF0301FD51080DF35047
:100C90000401A36BA26F040EA227000EA323A2C41B
:100CA000E9FF040EA325EA6EEF508009EF6E010EF6
:100CB000016E04D00001000E016E0401000112005B
:100CC0000301FD5300E100011200FEC36EFF0301AA
:100CD000FE5303E0040E256E02D0020E256E0001C5
:100CE00077EF06F0216A206A27C0FEF3EED788EF7F
:100CF00006F00301FD530DE1202C05D00001D2ECDC
:100D000001F006D003012050020803E10001EAD7F8
:100D100003010001120024300301FB6FFB33FB339E
:100D20001F0EFB17245250E1040100513C0B03013C
:100D3000FC6F430E040100170301FC51340826E147
:100D400004010451800B01E0046B000189D66D9809
:100D5000263C07D00301FD6B030EFE6F000199DEF8
:100D600013D00301FD6B020EFE6F000192DE2650D0
:100D7000FE080AE00301FD6BFF6B26C0FEF3040EC4
:100D80000401A06F000118DF1DD00301FC5104080D
:100D90001AE1FD6B000194DF0301FD6B020EFE6F93
:100DA000000177DE2650FE080DE0263C01D00AD077
:100DB0000301FD6BFF6B26C0FEF3010E0401A06F63
:100DC0000001FADE030123D02450040813E1266851
:100DD000FD6B00018EDF263C01D00AD00301FD6BC4
:100DE000FF6B26C0FEF3020E0401A06F0001E4DEDB
:100DF0000DD0030124B406D0FBC3FDF3000160DF76
:100E000005D00301FBC3FDF3000173DF0301000103
:100E10003DEF07F0A19A2552D8B439D06852D8B422
:100E200036D068A403D069B4FFEF00F06DB22FD0C4
:100E300068AA03D069BA1DEF01F068A203D069B2B5
:100E400024EF01F068A003D069B09EEF01F068A81C
:100E500003D069B8B6EF01F068AC03D069BCBBEF52
:100E600001F00301FA6B68A60AD069A608D06CCF1E
:100E700024F0000102EC00F04ED703D0030106D0AD
:100E800000010301FA51FA2B0308EDE200013CEFE7
:100E900000F0ECCFFAFFED52EFCFE8FFF96E120051
:100EA0006D656E75206163746976617465640A00AE
:100EB00073656700362A3650EF0802E1342A366A35
:100EC00034503C0802E1352A346AFE0ED76E0C0E0F
:100ED000D66EF2943CEF00F0030EEA6EFA0EE96E65
:100EE000EF500EE0010E016E006A002EFED7012EBB
:100EF000FBD74A0E006E002EFED700D0EF2EF2D7A1
:100F0000120081908182818481868150EE0804E103
:100F1000310E0301FA6F00018150DE0804E1340E46
:100F20000301FA6F00018150BE0804E1370E03018E
:100F3000FA6F000181507E0804E12A0E0301FA6F66
:100F4000000181808192818481868150ED0804E1D5
:100F5000320E0301FA6F00018150DD0804E1350E05
:100F60000301FA6F00018150BD0804E1380E03014E
:100F7000FA6F000181507D0804E1300E0301FA6F21
:100F8000000181808182819481868150EB0804E197
:100F9000330E0301FA6F00018150DB0804E1360EC5
:100FA0000301FA6F00018150BB0804E1390E03010F
:100FB000FA6F000181507B0804E1230E0301FA6FF0
:100FC000000181808182818481968150E70804E15B
:100FD000410E0301FA6F00018150D70804E1420E6F
:100FE0000301FA6F00018150B70804E1430E0301C9
:100FF000FA6F00018150770804E1440E0301FA6F93
:10100000000181968194819281900301FAC301F0DD
:10101000000112000F0E0301FA6F00015DDF81A8CD
:1010200006D081AA04D081AC02D081BE07D069DF8E
:1010300001C033F08196819481928190F2903CEFCF
:1010400000F0256453656720000043415247414E3C
:10105000444F2053495354454D4100002E000C008D
:101060004249454E56454E49444F2E2E2E004D576F
:101070002D323030310056657273696F6E204265D3
:10108000746100000C000C000C003C20554D454CD8
:10109000495341203E003C204D6963726F454C49E5
:1010A0005341203E00000C003C20506C61636120E5
:1010B0003E003C2054697261203E00000C00256C0B
:1010C00064207365672000000C003C204E6F726D39
:1010D000616C203E00003C204372757A616461209F
:1010E0003E000C00256C64206D6C00000C000C00B0
:1010F0003C20436F6E74696E756F203E00003C208B
:10110000496E7465726D6974656E7465203E000089
:101110000C002564206D696E00000C003C204261CB
:101120006A61203E00003C204D65646961203E00FC
:101130003C20416C7461203E00000C000C006D925C
:101140006D6A696A080E6F6E945030090301946EDF
:10115000256A196AF2BE198EF29E000188EC01F030
:1011600019BEF28EB5EF08F0EAD7E0EF08F0196A81
:10117000F2BE198EF29E88EC01F019BEF28E6D92CD
:101180006D6A6D8C00D000D000006D9C140E6F6EE7
:10119000696A6D86010E256ED1EF08F06DB601D03B
:1011A000E6D7252C0BD06DBA09D0686A696AA08A87
:1011B000C00EF212110E696E020E256E1200D4D707
:1011C000EDDF25500208FCE1FCEF1AF0080E016E7D
:1011D00000008B9C949C00000301ED378B9ED8B0DF
:1011E000948ED8A0949E948C82ACFED7012E01D010
:1011F00002D00001EDD700008B9C949C0000948EDF
:1012000000000000948C82ACFED7016A000082BE10
:1012100001808B9C949C8B9E949E00011200030184
:10122000EB51000A000103E0010A27E04DD0030161
:10123000EA39006EF00E001600501E10EC6FED6FD4
:101240000001C4DF00000301EA39006EF00E001651
:10125000005004091E10EC6FED6F0001B7DF00D0E5
:101260000301EA39006EF00E00160050FB0B1E1051
:10127000EC6FED6F0001AADF27D00301EA39006EA1
:10128000F00E0016005001091E10EC6FED6F00010A
:101290009DDF00000301EA39006EF00E00160050D9
:1012A000010904091E10EC6FED6F00018FDF00D003
:1012B0000301EA39006EF00E0016005001091E10FD
:1012C000EC6FED6F000182DF1200948E0000948CB1
:1012D00000008B9E949E00008B9C949C1AC0EDF3A2
:1012E00075DF0301E739E96F0F0EE917E9C3EAF388
:1012F000E8C3EBF3000193DF0301E7510F0BE96F44
:10130000EA6FE8C3EBF300018ADF949E0000948C3F
:1013100082ACFED7000000D00000948E00001200C6
:10132000010E0301E76FE86B0001CFDF196AF2BE1F
:10133000198EF29E020E0301FA6F0001CDDD19BE77
:10134000F28E010E1D6E1200C4C31AF0C6C31BF04C
:10135000C5C31CF0F29CF29EF2BEFDD7196AF2BE24
:10136000198EF29E320E0301FA6F0001B5DD19BE2F
:10137000F28E948E0000948C00008B9E949E000050
:101380008B9C949C1AC0EDF321DF0301EA6BEB6B9D
:10139000000145DF196AF2BE198EF29E0F0E03019D
:1013A000FA6F000199DD19BEF28E010E0301C76FBD
:1013B000C751030813E3030EEA6FEB6B00012FDF45
:1013C000196AF2BE198EF29E050E0301FA6F000132
:1013D00083DD19BEF28E0301C72BEAD7020EEA6F36
:1013E000EB6B00011CDF196AF2BE198EF29E050E2E
:1013F0000301FA6F000170DD19BEF28E949E0000A9
:10140000948C82ACFED7000000D00000948E0000C7
:101410000301C76BC751030819E3036AC7510001F1
:1014200063EC00F00301C86FE76FE86B00014DDF6C
:10143000196AF2BE198EF29E050E0301FA6F0001C1
:101440004BDD19BEF28E0301C72BE4D7000168DF24
:10145000C00EF21208EF1BF00301C45303E0080EA4
:101460001E6E01D01E6A00010EEF1BF02150016EAE
:101470001AEF1BF0D8B204D0030EEA6EF50EE96E37
:10148000006A016A026A036A0301F56BF66BF76B87
:10149000F86BF451F311F211F1112CE0200EF96FF9
:1014A000D890ED37EE37EF37F037F537F637F737B7
:1014B000F837F451F85D08E1F351F75D05E1F251B9
:1014C000F65D02E1F151F55D0FE3F151F55FF25187
:1014D000D8A0F23DF65FF351D8A0F33DF75FF45189
:1014E000D8A0F43DF85FD8800036013602360336C6
:1014F000F92FD6D7F5C3EFFFF6C3ECFFF7C3ECFF28
:10150000F8C3ECFF00011200016A026A006A036A74
:101510000301E85102E1E75118E0100EE96FD8909D
:10152000E537E63700360336E851035C02E1E75160
:10153000005C07E3E751005ED8A00306E851035EB4
:10154000D88001360236E92FEAD7000112000301E4
:10155000F16BF26B010EF36FDA6AD96A030EF66F64
:10156000E90EF56F030EEA6EED0EE96EF6C3E2FFCB
:10157000F5C3E1FFF3C3F4F3D890E550EE02F35066
:10158000F123F450F223F42FF7D7F1C3DEFFF2C3B7
:10159000F1F3F26BD8B0F22BF52BD8B4F62BF32B7A
:1015A000F3510508DFE10001DAEF0BF0150E03013E
:1015B000EA5F0FE3030EEA6EEA0EE96EFC0EEF1629
:1015C000D890EF32EF32EF5004E001D00000EF2E60
:1015D000FDD7000117EF0BF00301E96BE651E95D60
:1015E0000DE2196AF2BE198EF29EFA0EFA6F000130
:1015F00073DC19BEF28E0301E92BF0D7196AF2BE33
:10160000198EF29EE5C3FAF3000166DC19BEF28E74
:101610000301E96BE851E95D06E2530E006E002E0E
:10162000FED7E92BF7D7E7C3EAF30001BFD71200D3
:101630000301E551070B006EE531016E0132013205
:101640001F0E01160150E725E96E000EE821EA6E33
:10165000016A012A002A01D00136002EFDD7E65387
:1016600003E00150EF1203D0011E0150EF160001FC
:101670001200D8920301F06B0F0EEF6F420EEE6F67
:10168000400EED6FF46BF36BD4C3F2F3D3C3F1F3FD
:101690000001F0DE03C0E8F302C0E7F301C0E6F3A7
:1016A00000C0E5F3D8900301E833E733E633E533D0
:1016B0000A0EE55DD76F000EE659D86F000EE759A8
:1016C000D96F000EE859DA6FD892DAC3F0F3D9C3B4
:1016D000EFF3D8C3EEF3D7C3EDF3F46BF36B030E64
:1016E000F26FE80EF16F0001C5DE01C0DCF300C04F
:1016F000DBF3DCC3E6F3DBC3E5F30301E86BFA0ECF
:10170000E76F000101DF01C0E0F3DCC3E6F3DBC3F8
:10171000E5F30301E86BFA0EE76F0001F5DE00C0A8
:10172000E1F30301D882030EEA6EE50EE96EDAC337
:10173000F0F3D9C3EFF3D8C3EEF3D7C3EDF3F46BF3
:10174000F36B030EF26FE80EF16F000193DEE6C358
:10175000DEF3E5C3DDF3DEC3E6F3DDC3E5F303014A
:10176000E86BFA0EE76F0001CFDE01C0DFF3DEC3E6
:10177000E6F3DDC3E5F30301E86BFA0EE76F000162
:10178000C3DE00C0E2F30301E86BE76BD6C3E6F308
:10179000D5C3E5F3E8C3ECF3E7C3EBF3D6C3EAF351
:1017A000D5C3E9F3F06BEF6B030EEE6FE80EED6F50
:1017B0000001CDD603C0E8F302C0E7F301C0E6F3B1
:1017C00000C0E5F3D8920301F06B0F0EEF6F420EED
:1017D000EE6F400EED6FF46BF36BD4C3F2F3D3C333
:1017E000F1F3000147DE03C0ECF302C0EBF301C0EC
:1017F000EAF300C0E9F3D892E8C3F0F3E7C3EFF3EC
:10180000E6C3EEF3E5C3EDF303C0F4F302C0F3F374
:1018100001C0F2F300C0F1F32DDE01C0E4F300C01B
:10182000E3F30301E4C3E6F3E351D8B4E407E307C9
:10183000E56FE55302E1E6533EE0E1C3E5F3E0C3C3
:10184000E6F3E2C3E7F3DFC3E8F30001C5DED2C38A
:10185000E5F3010E0301E66F0F0EE86F890EE76FE7
:101860000001E6DED2C3E5F30301E66B0F0EE86F7D
:10187000920EE76F0001DCDEE1C3E5F3E0C3E6F3BF
:10188000E2C3E7F3DFC3E8F3A7DED2C3E5F3030166
:10189000E66B0F0EE86F890EE76F0001C9DED2C359
:1018A000E5F30301E66B0F0EE86F920EE76F0001A0
:1018B000BFDEB7D7030100011200036A0301C45160
:1018C000700FE96E0F0E0320EA6EEF520DE0C45167
:1018D000080DF350C66BC56FE96E040EC625EA6E9F
:1018E000EFCFC7F3C7AF02D0000E01D0010E016EDB
:1018F00000013FEF1BF00301C951080DF350D46BF9
:10190000D36F020ED325016E000ED421036E01C0E9
:10191000E9FF040E0324EA6EECCFCFF3ED52EFCFD4
:10192000CEF3C951080DF350D46BD36F010ED325FC
:10193000016E000ED421036E01C0E9FF040E0324E2
:10194000EA6ED26BEFCFD1F3C951080DF350D46BCF
:10195000E96E040ED425EA6EEFCFD0F3D0A101D00A
:10196000D281D0A301D0D283D251CD5D08E303E16F
:10197000CC51D15D04E2D2C3CDF3D1C3CCF3CBC300
:10198000EAFFCAC3E9FFCFC3E2FFCEC3E1FFCDC385
:1019900002F0CCC301F0015202E0022A02D002524E
:1019A00006E0E6CFEEFF012EFCD7022EFAD7CCC31D
:1019B00001F0CDC302F00001E9EF0CF0C4C3C9F39C
:1019C000C6C3CBF3C5C3CAF3C8C3CDF3C7C3CCF3F7
:1019D00092D702C0C8F301C0C7F3196AF2BE198ECC
:1019E000F29EC4C3FDF3020E0301FE6F000149EC39
:1019F00005F019BEF28E0301C7C301F0C8C302F09F
:101A000000014DEF1BF00301E1511B5C03E21BC021
:101A1000E2F302D0E1C3E2F3E251010A000107E080
:101A2000030A08E0010A0AE0070A0CE00FD00301EC
:101A3000E46B0ED0400E0301E46F0AD0140E0301D4
:101A4000E46F06D0540E0301E46F02D00301E46B8F
:101A5000E0511C5C03E21CC0E3F302D0E0C3E3F3FB
:101A6000010EE35DE425E56FE5518009E66FE76F60
:101A7000E86B00012ADC12000301DF510C0A0001AF
:101A800005E0060A05E0020A11E017D049DC1CD087
:101A90001D2A1D501B5C02E2010E1D6E010E03018A
:101AA000E06F1DC0E1F30001AEDF0ED0100E0301A8
:101AB000E76FE86B000109DC07D0DFC3E7F3010E35
:101AC0000301E86F000101DC12000900F5520CE08F
:101AD000F6CFD6F3F7CFD7F3F5CFDFF3CDDFD6C30D
:101AE000F6FFD7C3F7FFF1D712000301C651030871
:101AF00001E202D0C6C340F0000160EF0EF0036ABD
:101B00004050650FE96E010E0320EA6EEFCFD7F368
:101B1000F250006EF29ED7C3A9FFD6C3A8FFA69CC1
:101B2000A69EA6840F01550EA76EAA0EA76EA682CA
:101B3000A6B2FED7A6940050F21200011200036A6A
:101B40004050690FE96E010E0320EA6EEFCFD6F325
:101B5000F250006EF29ED6C3A9FFD5C3A8FFA69C83
:101B6000A69EA6840F01550EA76EAA0EA76EA6828A
:101B7000A6B2FED7A6940050F21200011200030193
:101B8000DB6BDA51036A016E0001DEEF0DF0030139
:101B9000D9C300F0036A00C001F0000104EF0EF0A9
:101BA000036A4050590FE96E010E0320EA6EEFCF31
:101BB000D8F3D7C3DAF3D6C3D9F3E1D701C0D9F349
:101BC000F250006EF29ED8C3A9FFD9C3A8FFA69C0D
:101BD000A69EA6840F01550EA76EAA0EA76EA6821A
:101BE000A6B2FED7A6940050F212036A40505D0FD1
:101BF000E96E010E0320EA6EEFCFD8F3D7C3DAF314
:101C0000D6C3D9F30001C3D701C0D9F3F250006E97
:101C1000F29ED8C3A9FFD9C3A8FFA69CA69EA684FE
:101C20000F01550EA76EAA0EA76EA682A6B2FED70A
:101C3000A6940050F21200011200036A4050710F86
:101C4000E96E010E0320EA6EEFCFD6F3F250006E7C
:101C5000F29ED6C3A9FFD5C3A8FFA69CA69EA684C4
:101C60000F01550EA76EAA0EA76EA682A6B2FED7CA
:101C7000A6940050F21200011200036A4050790F3E
:101C8000E96E010E0320EA6EEFCFD6F3F250006E3C
:101C9000F29ED6C3A9FFD5C3A8FFA69CA69EA68484
:101CA0000F01550EA76EAA0EA76EA682A6B2FED78A
:101CB000A6940050F21200011200C5C3C6F315D756
:101CC0001E0E0301D66F00011ADF040E0301D56F4B
:101CD000000135DF0301D76B1E0ED66F000160DFF8
:101CE000020E0301D56F0001A8DF1E0E0301D56FA0
:101CF0000001C3DF85EF0EF00301C46BC45103087C
:101D000007E3C4C3C5F30001D8D70301C42BF6D73A
:101D10000001A3EF1BF0100E0301C425E96E000EB5
:101D2000C521EA6EEF6A0E0EC425E96E000EC521CC
:101D3000EA6EEC6AED52EF6A130EC425E96E000EEE
:101D4000C521EA6EEF6A110EC425E96E000EC521A9
:101D5000EA6EEC6AED52EF6AC4C3E9FFC5C3EAFF5D
:101D6000C7C3ECFFED52C6C3EFFF00011200100E17
:101D70000301C425E96E000EC521EA6EEF50630829
:101D8000D8A02ED0100EC425E96E000EC521EA6E33
:101D9000036AEFCF02F0D890023603360250020FEA
:101DA000016E000E03220150C425E96EC5510320C7
:101DB000EA6EC7C3ECFFED52C6C3EFFF100EC42599
:101DC000E96E000EC521EA6EEF2A0E0EC625E96EF9
:101DD000000EC721EA6EC5C3ECFFED52C4C3EFFF8E
:101DE00000011200BAEF1EF0EF520FE0EACFD7F376
:101DF000E9CFD6F3EFCFDFF33FDED7C3EAFFD6C399
:101E0000E9FFE92AD8B4EA2AEFD712000301DC512E
:101E1000016ADB5D03E2DBC300F00CD0006A080E50
:101E2000DD6FDB370036DC51005CD8B0006E013668
:101E3000DD2FF7D7000112000301D651D55D02E274
:101E4000D55101D0D651016E0001D5EF0FF0200E13
:101E50000301D6A9300ED76FD5C300F000AE08D06D
:101E6000001E002A00C0D5F32D0ED76FD68FD68165
:101E70000150D5C3DBF3640EDC6F0001C7DF00C087
:101E8000D5F3300E01240301D86FD5C3DBF30A0E5E
:101E9000DC6F0001BBDF300E00240301DA6F300E6F
:101EA0000124D96FD7C300F0300ED85D04E0D6838B
:101EB000D6BFD68512D0D7C3D8F3200ED76F300E39
:101EC000D95D04E0D681D6BFD68307D0D8A4D68109
:101ED00004E1D8C3D9F3200ED86FD6B505D0D6B358
:101EE00007D0D6B109D00CD0D7C3DFF30001C4DDD1
:101EF000D8C3DFF30001C0DDD9C3DFF30001BCDDCF
:101F0000DAC3DFF30001B8DD12003C0EF66E110EED
:101F1000F76EDBDD030E0301E06F010EE16F0001E0
:101F200072DD0301C8C3E9FFC9C3EAFFECCFD5F3F3
:101F3000ED52EFCFD4F3D5C3EAFFD4C3E9FF0001DC
:101F400053DF0301CA6B130EC825E96E000EC921C9
:101F5000EA6EEFCFCBF3020ECC6FCD6B010ECE6FDE
:101F6000CBC3DBF3030EDC6F000150DF036A0050CC
:101F7000CC0FE96E030E0320EA6EEFCFCFF303011F
:101F8000CB51030804E2CF51CB5DFF0FCA6F100E97
:101F9000C825E96E000EC921EA6ECA51EF5CD46F04
:101FA000D56F030ED66F000147D701C0D0F30301F0
:101FB000D16BD051D15D56E2CA51D125036A026E70
:101FC000D890023603360250020F016E000E032233
:101FD0000150C825E96EC9510320EA6EECCFD3F356
:101FE000ED52EFCFD2F3020ED125D46F020EE06F87
:101FF000D4C3E1F3000107DD0301D151CA25010F6C
:10200000D46FD56F180ED66F000121DF020E0301C9
:10201000D125D46F030EE06FD4C3E1F30001F3DCEC
:102020002D0E0301DF6F000127DD020E0301D12514
:10203000D46F040EE06FD4C3E1F30001E4DC0301CC
:10204000D2C3E9FFD3C3EAFFECCFD5F3ED52EFCF14
:10205000D4F3D5C3EAFFD4C3E9FF0001C5DE030111
:10206000D12BA7D7130EC825E96E000EC921EA6E41
:10207000EF520FE0020ECF25D46F010EE06FD4C3F4
:10208000E1F30001C0DC2A0E0301DF6F0001F4DC84
:1020900003010001F8EF19F0196AF2BE198EF29EE1
:1020A00081EC07F019BEF28E01C0D6F30301D653BE
:1020B000D8A402D00001F0D7D6C301F0000112006D
:1020C000006A016A0301DD51D890DEB100260032BA
:1020D0000132DEB3002600320132DEB500260032C6
:1020E0000132DEB7002600320132DEB900260032AE
:1020F0000132DEBB002600320132DEBD0026003296
:102100000132DEBF0026003201320001F0EF10F094
:102110000301DB6BD96B0A0EDA6FD86BD651D7117E
:1021200003E1000E016EBBD0DB51DB2BD625E96E3F
:10213000000ED721EA6EEFCFDCF3DC512D080CE165
:10214000010ED96FDB51DB2BD625E96E000ED721AE
:10215000EA6EEFCFDCF30CD0DC512B0809E1DB5148
:10216000DB2BD625E96E000ED721EA6EEFCFDCF32C
:10217000DC512F08D8B08BD0DC513908D8A087D0DB
:10218000DC5130081EE1DB51D625E96E000ED72167
:10219000EA6EEF50780809E0DB51D625E96E000EB3
:1021A000D721EA6EEF5058080CE1100EDA6FDB2BE6
:1021B000DB51DB2BD625E96E000ED721EA6EEFCF7F
:1021C000DCF3DA510A081CE1DC512F0818E2DC517B
:1021D000390815E30A0EDD6FD8C3DEF3000170D7AE
:1021E000300E0301DC5D0124D86FDB51DB2BD625DB
:1021F000E96E000ED721EA6EEFCFDCF3E5D747D0CA
:10220000DA51100844E1DC51600806E2DC517A083A
:1022100003E3DC51DF0B01D0DC51DC6FDC512F0814
:1022200003E2DC51390806E2DC51400830E2DC51BF
:1022300046082DE3DC512F080CE2DC51390809E394
:10224000D839DD6FF00EDD17300EDC5DDD25D86F7F
:1022500009D0D839DD6FF00EDD17410EDC5D0A0FB5
:10226000DD25D86FDB51DB2BD625E96E000ED7219B
:10227000EA6EEFCFDCF3DC51600806E2DC517A084D
:1022800003E3DC51DF0B01D0DC51DC6FC7D7D92D64
:1022900004D0DA510A0801E1D86DD8C301F0000179
:1022A0001200860EF66E100EF76E0FDC020E0301A2
:1022B000E06F030EE16F000103EC0DF0EA6A830E9C
:1022C000E96E92DD020E0301D26F196AF2BE198E19
:1022D000F29EFA0EFA6F00016CEC07F019BEF28E56
:1022E0000301D22FF2D7D16BD15104081BE3120E98
:1022F000D26F010ED46FF40ED36FD66B190ED56F5B
:10230000000139EC0BF0196AF2BE198EF29E640ED0
:102310000301FA6F00016CEC07F019BEF28E0301A5
:10232000D12BE2D700011200036A4050510FE96E31
:10233000010E0320EA6EEFCFD3F3F2CFD4F3F29E77
:10234000D3C3A9FFA69CA69EA680A8500301D4BF14
:10235000F28E016E0001F5EF11F0196AF2BE198ECE
:10236000F29E81EC07F019BEF28E01C0D3F3030197
:10237000D351430A000107E0070A09E06E0A0BE0A7
:10238000090A0DE00FD0030E016E0DD00BD0020E26
:10239000016E09D007D0010E016E05D003D0000EEA
:1023A000016E01D0DAD71200036A4050510FE96E76
:1023B000010E0320EA6EEFCFD5F3F250006EF29ECD
:1023C000D5C3A9FFD4C3A8FFA69CA69EA6840F01CF
:1023D000550EA76EAA0EA76EA682A6B2FED7A69429
:1023E0000050F212000112009FD70301D19101B0F9
:1023F000D181880EF66E100EF76E000165EC0DF0BF
:10240000010E0301E06FE16F000103EC0DF0EA6AD9
:102410008E0EE96EE9DC0301D1B10FD0010EE06F41
:10242000020EE16F000103EC0DF08A0EF66E100E45
:10243000F76E65EC0DF00ED00301010EE06F020E99
:10244000E16F000103EC0DF0960EF66E100EF76EC4
:1024500065EC0DF082DF01C0D2F30301D251FC0F15
:1024600011E2040F000145EF12F00301D1710AD00F
:10247000000E0301D1B1010ED36FD46F000194DFC0
:1024800003D00301B6D700011200E824F76AF7363B
:10249000A50FF66E240EF7220A00F550FA6E08001A
:1024A000F550F96E702480246A246A24036A40502F
:1024B000550FE96E010E0320EA6EEFCFD3F3F2CF92
:1024C000D4F3F29ED3C3A9FFA69CA69EA680A850D3
:1024D0000301D4BFF28E016E000190EF12F0036A87
:1024E0004050550FE96E010E0320EA6EEFCFD5F391
:1024F000F250006EF29ED5C3A9FFD4C3A8FFA69CDC
:10250000A69EA6840F01550EA76EAA0EA76EA682E0
:10251000A6B2FED7A6940050F21200011200C6D750
:102520000301D19101B0D181A60EF66E100EF76EA7
:10253000000165EC0DF0010E0301E06FE16F000199
:1025400003EC0DF0EA6A9D0EE96E4EDC0301D1B199
:102550000FD0010EE06F020EE16F000103EC0DF0F1
:10256000A80EF66E100EF76E65EC0DF00ED003019E
:10257000010EE06F020EE16F000103EC0DF0B20EF0
:10258000F66E100EF76E65EC0DF0E7DE01C0D2F3CB
:102590000301D251FC0F11E2040F0001E0EF12F031
:1025A0000301D1710AD0000E0301D1B1010ED36F26
:1025B000D46F000194DF03D00301B6D700011200ED
:1025C000E824F76AF736DB0FF66E250EF7220A00CD
:1025D000F550FA6E0800F550F96EA625B625A0252F
:1025E000A025000E0301DB11036A016E03C002F097
:1025F00000012EEF13F0036A4050590FE96E010EEF
:102600000320EA6EEFCFDAF3F2CFDBF3F29EDAC308
:10261000A9FFA69CA69EA680A8500301DBBFF28E50
:10262000D76BD66F036A40505D0FE96E010E032031
:10263000EA6EEFCFDAF3F2CFDCF3F29EDAC3A9FF52
:10264000A69CA69EA680A850DCBFF28ED96BD86F40
:10265000D6C3DAF3D8C3DBF30001C3D70250D8EFF7
:1026600013F0EACFDEF3E9CFDDF30301D7AF08D0F3
:10267000DD8FDDA9DD2BD61FD71FD62BD8B4D72BE6
:10268000D739F009D96FD927E20FDA6F320FDC6F33
:10269000D7510F0BDA27DA27DC27E90FDB6FDB27AF
:1026A000DB27D6390F0BDB27DC27DB37DC37DC1FDA
:1026B000DC37D6510F0BDC27D937070ED86F0A0E3F
:1026C000DB07DC27FDE3DA07DB27FDE3D907DA27A1
:1026D000FDE3D807D927FDE3030EEA6ED80EE96EB5
:1026E000070EDD15DD9DED52DD1507E1DDB9EE527A
:1026F000DDB903D0200E006E21D0E926000EEA22BB
:10270000E950DC0804E1EA50030801E1DD8DEF50F7
:10271000006E08E1DDBD06D0DDB91ED0DDB702D008
:10272000200E0BD0DDAF06D02D0E006EED50DD9DDE
:10273000DD9F04D0DD87DD99300E0026EACFD7F388
:10274000E9CFD6F300C0DFF300013CEC0DF0D7C3B6
:10275000EAFFD6C3E9FF0301EE50DDADD1D700019A
:1027600012000900F6CFD7F3F7CFD8F3F5CFDFF398
:102770003CEC0DF0D7C3F6FFD8C3F7FF0301D62F0B
:1027800001D002D00001EDD7000112000301D651A3
:10279000D803F3CF01F0F4CF00F0D903F3500026B3
:1027A000D751D803F3500020026E0001120023D746
:1027B00002C0D2F301C0D1F3196AF2BE198EF29EA3
:1027C000960E0301FA6F00016CEC07F019BEF28E51
:1027D000BC0EF66E100EF76E65EC0DF0010E0301E7
:1027E000E06FE16F000103EC0DF0EA6AA30EE96E01
:1027F000F4EC0EF0010E0301E06F030EE16F000137
:1028000003EC0DF0100EE96ED2C3D7F3D1C3D6F3AB
:1028100028DFC10EF66E100EF76E050E0301D66F9F
:1028200000019FDF39DC01C033F033C0D3F3030173
:10283000D46B030ED76FD30ED66F000169DC01C0D5
:10284000D5F33350410801E140D03350420801E153
:102850003CD03350430801E138D03350440801E103
:1028600034D033502A0802E131D02FD0335023081E
:1028700010E10301D15302E1D25309E0D2C3D7F3EF
:10288000D1C3D6F30001D0EC0DF020D003011CD051
:102890000001D2C3D7F3D1C3D6F30301D96B0A0E1B
:1028A000D86F000173DF0301D5510124D16F000EF1
:1028B0000220D26FD251000807E2FF0A03E1D15192
:1028C0002C0802E2D26BD16B000176D71200036AAA
:1028D0004050610FE96E010E0320EA6EEFCFD3F393
:1028E000F2CFD4F3F29ED3C3A9FFA69CA69EA680E6
:1028F000A8500301D4BFF28E016E0001A1EF14F0C5
:10290000036A4050610FE96E010E0320EA6EEFCFBB
:10291000D5F3F250006EF29ED5C3A9FFD4C3A8FF31
:10292000A69CA69EA6840F01550EA76EAA0EA76EA2
:10293000A682A6B2FED7A6940050F21200011200A1
:10294000C6D70301D19101B0D181C80EF66E100E29
:10295000F76E000165EC0DF0010E0301E06FE16F11
:10296000000103EC0DF0EA6AAF0EE96EF4EC0EF034
:102970000301D1B10FD0010EE06F020EE16F000133
:1029800003EC0DF0CA0EF66E100EF76E65EC0DF04E
:102990000ED00301010EE06F020EE16F000103ECA7
:1029A0000DF0D60EF66E100EF76E65EC0DF0D5DC60
:1029B00001C0D2F30301D251FC0F11E2040F000158
:1029C000F2EF14F00301D1710AD0000E0301D1B16E
:1029D000010ED36FD46F000193DF03D00301B5D78D
:1029E00000011200E824F76AF736FF0FF66E290E91
:1029F000F7220A00F550FA6E0800F550F96ECA2960
:102A0000DA29C429C429036A4050650FE96E010E12
:102A10000320EA6EEFCFD6F3F2CFD7F3F29ED6C300
:102A2000A9FFA69CA69EA680A8500301D7BFF28E40
:102A3000016E00011DEF15F0E6D70301D26B01C056
:102A4000D1F3196AF2BE198EF29E960EFA6F00014A
:102A50006CEC07F019BEF28EE20EF66E100EF76EF9
:102A600065EC0DF0010E0301E06FE16F000103EC76
:102A70000DF0EA6AC00EE96EF4EC0EF0010E0301EF
:102A8000E06F030EE16F000103EC0DF0100EE96E34
:102A9000D2C3D7F3D1C3D6F3E4DDE70EF66E100E42
:102AA000F76E030E0301D66F00015BDE4CEC10F0F5
:102AB00001C033F033C0D3F30301D46B030ED76FDF
:102AC000D30ED66F000188EC10F001C0D5F333505F
:102AD000410801E13DD03350420801E139D0335083
:102AE000430801E135D03350440801E131D033507F
:102AF0002A0802E130D02CD0335023080EE1030124
:102B0000D15302E1D25307E0D1C3D6F300017FECE9
:102B10000DF021D003011CD00001D2C3D7F3D1C3E3
:102B2000D6F30301D96B0A0ED86F00012FDE030123
:102B3000D5510124D16F000E0220D26FD25100086E
:102B400007E2FF0A03E1D151C20802E2D26BD16B66
:102B5000030177D700011200036A4050690FE96E44
:102B6000010E0320EA6EEFCFD5F3F2CFD6F3F29E3B
:102B7000D5C3A9FFA69CA69EA680A8500301D6BFD8
:102B8000F28E016E0001C6EF15F0E6D701C0D1F359
:102B9000196AF2BE198EF29E960E0301FA6F0001B9
:102BA0006CEC07F019BEF28EEC0EF66E100EF76E9E
:102BB00065EC0DF0010E0301E06FE16F000103EC25
:102BC0000DF0EA6ACF0EE96EF4EC0EF0010E03018F
:102BD000E06F030EE16F000103EC0DF0D1C3D5F3FC
:102BE000180E0301D66F000127EC0FF04CEC10F02B
:102BF00001C033F033C0D2F30301D36B030ED76FA0
:102C0000D20ED66F000188EC10F001C0D4F333501F
:102C1000410801E12BD03350420801E127D0335065
:102C2000430801E123D03350440801E11FD0335061
:102C30002A0802E11CD01AD0335023080CE103010A
:102C4000D15307E0D1C3D5F300019FEC0DF00FD0B5
:102C500003010BD000010301D1510A0DF350D4251B
:102C6000D16FD151630801E2D16B000191D71200FD
:102C7000036A4050710FE96E010E0320EA6EEFCF38
:102C8000D5F3F2CFD6F3F29ED5C3A9FFA69CA69E9C
:102C9000A680A8500301D6BFF28E016E000152EF4C
:102CA00016F0E6D701C0D1F3196AF2BE198EF29E72
:102CB000960E0301FA6F00016CEC07F019BEF28E5C
:102CC000100EF66E110EF76E65EC0DF0010E03019D
:102CD000E06FE16F000103EC0DF0010EEA6E0C0EE7
:102CE000E96EF4EC0EF0010E0301E06F030EE16FEC
:102CF000000103EC0DF0D1C3D5F3180E0301D66F1C
:102D0000000127EC0FF0140EF66E110EF76E040E94
:102D10000301D66F000125DD4CEC10F001C033F04B
:102D200033C0D2F30301D36B030ED76FD20ED66F2D
:102D3000000188EC10F001C0D4F33350410801E1E8
:102D400028D03350420801E124D03350430801E138
:102D500020D03350440801E11CD033502A0802E14E
:102D600019D017D0335023080CE10301D15307E0E9
:102D7000D1C3D5F300011DEC0EF00CD0030108D037
:102D800000010301D451D127D1510A0801E2D16BCE
:102D900000018AD71200036A40506D0FE96E010EE0
:102DA0000320EA6EEFCFD3F3F2CFD4F3F29ED3C376
:102DB000A9FFA69CA69EA680A8500301D4BFF28EB0
:102DC000016E000105EF17F0036A40506D0FE96EC8
:102DD000010E0320EA6EEFCFD5F3F250006EF29EA3
:102DE000D5C3A9FFD4C3A8FFA69CA69EA6840F01A5
:102DF000550EA76EAA0EA76EA682A6B2FED7A694FF
:102E00000050F21200011200C6D70301D19101B0A7
:102E1000D181EE0EF66E100EF76E000165EC0DF02E
:102E2000010E0301E06FE16F000103EC0DF0010EF4
:102E3000EA6E020EE96EF4EC0EF00301D1B10FD090
:102E4000010EE06F020EE16F000103EC0DF0F00ED9
:102E5000F66E100EF76E65EC0DF00ED00301010E4C
:102E6000E06F020EE16F000103EC0DF0FE0EF66E56
:102E7000100EF76E65EC0DF0ADEC11F001C0D2F361
:102E80000301D251FC0F11E2040F000158EF17F0BB
:102E90000301D1710AD0000E0301D1B1010ED36F2D
:102EA000D46F000191DF03D00301B3D700011200FA
:102EB000E824F76AF736CB0FF66E2E0EF7220A00DB
:102EC000F550FA6E0800F550F96E962EA62E902E4B
:102ED000902E036A4050790FE96E010E0320EA6ECE
:102EE000EFCFD5F3F2CFD6F3F29ED5C3A9FFA69CC0
:102EF000A69EA680A8500301D6BFF28E016E0001E7
:102F000083EF17F0E6D701C0D1F3196AF2BE198E2C
:102F1000F29E960E0301FA6F00016CEC07F019BEE9
:102F2000F28E3A0EF66E110EF76E65EC0DF0010E94
:102F30000301E06FE16F000103EC0DF0EA6AEF0EB0
:102F4000E96EF4EC0EF0010E0301E06F030EE16F89
:102F5000000103EC0DF0D1C3D5F3180E0301D66FB9
:102F6000000127EC0FF04CEC10F001C033F033C03F
:102F7000D2F30301D36B030ED76FD20ED66F0001CD
:102F800088EC10F001C0D4F33350410801E12BD09C
:102F90003350420801E127D03350430801E123D0E8
:102FA0003350440801E11FD033502A0802E11CD0FD
:102FB0001AD0335023080CE10301D15307E0D1C3E9
:102FC000D5F300013DEC0EF00FD003010BD0000152
:102FD0000301D1510A0DF350D425D16FD1513C08D2
:102FE00001E2D16B000191D71200036A4050750FC6
:102FF000E96E010E0320EA6EEFCFD3F3F2CFD4F3E4
:10300000F29ED3C3A9FFA69CA69EA680A85003014A
:10301000D4BFF28E016E00012FEF18F0036A40500A
:10302000750FE96E010E0320EA6EEFCFD4F3F25074
:10303000006EF29ED4C3A9FFD3C3A8FFA69CA69E90
:10304000A6840F01550EA76EAA0EA76EA682A6B281
:10305000FED7A6940050F21200011200C6D701C09C
:10306000D1F3196AF2BE198EF29E320E0301FA6F85
:1030700000016CEC07F019BEF28E1A0EF66E110EFE
:10308000F76E65EC0DF0010E0301E06FE16F0001DA
:1030900003EC0DF0EA6AE30EE96EF4EC0EF00301C6
:1030A000D1530EE1010EE06F020EE16F000103EC5F
:1030B0000DF01C0EF66E110EF76E65EC0DF00301AF
:1030C000D12D0ED0010EE06F020EE16F000103EC76
:1030D0000DF0260EF66E110EF76E65EC0DF0030185
:1030E000D15102080EE1010EE06F020EE16F000106
:1030F00003EC0DF0300EF66E110EF76E65EC0DF070
:1031000003010001ADEC11F001C0D2F30301D25173
:10311000FC0F25E2040F0001B2EF18F0010E0301CD
:10312000D125D46FDB6F030EDC6F000106EC0FF0CE
:1031300000C0D1F3030113D0010E0301D15D030FD1
:10314000D46FDB6F030EDC6F000106EC0FF000C0E4
:10315000D1F3030104D0D1C3D3F360DF02D0000167
:1031600080D71200E824F76AF7367F0FF66E310E2B
:10317000F7220A00F550FA6E0800F550F96E563144
:103180005C3138311C31F4EC11F08FEC12F0D7ECDB
:1031900013F0A0EC14F050DCF8DC1200010E406ECD
:1031A000F2DF1200020E406EEEDF1200030E406EE0
:1031B000EADF12000301D46B0001D4EC11F003012B
:1031C000D46B00016FEC12F00301D76B1E0ED66FAB
:1031D0000001D0EC0DF00301D46B000180EC14F081
:1031E0001E0E0301D66F00017FEC0DF0040E0301EB
:1031F000D56F00019FEC0DF00301D46B0001E4DDFD
:10320000020E0301D56F00011DEC0EF0010E03014B
:10321000D36F000103DF1E0E0301D56F00013DECEB
:103220000EF01200010E406EC5DF1200020E406E5D
:10323000C1DF1200030E406EBDDF12004CEC10F037
:1032400001C033F033C0CAF30301CB6B030ED76F59
:10325000CA0ED66F000188EC10F001C0CCF3030158
:10326000CC5312E0100EC825E96E000EC921EA6E9B
:10327000CC51EF5C09E3130EC825E96E000EC9219D
:10328000EA6ECCC3EFFFA3D033502A081CE10E0E28
:10329000C825E96E000EC921EA6EECCFD2F3ED52DB
:1032A000EFCFD1F3D15302E1D2530DE00E0EC8257A
:1032B000E96E000EC921EA6EEFCF01F0EE52EDCFBC
:1032C00002F089D084D03350410811E1130EC82593
:1032D000E96E000EC921EA6EEF50010808E2130EF4
:1032E000C825E96E000EC921EA6EEF0670D0335092
:1032F000420819E1130EC825E96E000EC921EA6ED5
:10330000EFCFD1F3100EC825E96E000EC921EA6E89
:10331000EF50D15D08E2130EC825E96E000EC921F9
:10332000EA6EEF2A54D03350230851E1130EC8251A
:10333000E96E000EC921EA6EEF5249E0130EC8256E
:10334000E96E000EC921EA6E010EEF5C036A026E9F
:10335000D890023603360250020F016E000E03228F
:103360000150C825E96EC9510320EA6EECCFCEF3B7
:10337000ED52EFCFCDF3110ECD25E96E000ECE212B
:10338000EA6EECCFD2F3ED52EFCFD1F3D15302E19D
:10339000D25318E0110ECD25E96E000ECE21EA6E53
:1033A000ECCFD0F3ED52EFCFCFF3030EEA6ECF0E9A
:1033B000E96E000149EC07F00301C8C301F0C9C37D
:1033C00002F009D0CDC301F0CEC302F004D0C8C3CF
:1033D00001F0C9C302F0000109EF1AF0C5C3C7F339
:1033E000C4C3C6F3C7C3C9F3C6C3C8F385EF0FF0A0
:1033F000196AF2BE198EF29E0A0E0301FA6F0001DD
:103400006CEC07F019BEF28EC7C3C9F3C6C3C8F38C
:1034100015D702C0C7F301C0C6F3E4D7C2EF1EF050
:10342000F86AD09E078E600ED36ED350010E1D6ECB
:10343000080E1E6E346A356A010E366E376A406AAF
:1034400001017E6B7D6BC150C00B0F09C16E070E71
:10345000B46EA6D001001F0002002D0000FF004145
:103460004D454E55205052494E434950414C004C19
:10347000415641520041474954415200434542415F
:10348000520050524F4752414D4152004C617661BB
:10349000720053656C656320506172616D65747272
:1034A0006F004C6176616E646F2E2E2E00466F7237
:1034B0006D61742F4C617661646F3A004D6F646F7B
:1034C0003A00542F456E6A75616775653A00546914
:1034D000706F2F41737069726163696F6E3A005645
:1034E0006F6C2F44697370656E7361723A0043614B
:1034F0006E742F4369636C6F733A0041676974613E
:103500007200496E74656E73696461643A00542F89
:10351000416769746163696F6E3A00436562617205
:10352000004D2F43656261646F3A00542F4365621A
:1035300061646F3A005265737461626C65636572B1
:103540000045646974617200426F7272617200506A
:10355000726F6772616D6123310050726F67723DE7
:1035600080616D6123320050726F6772616D6123FB
:10357000330001080F1702091118030A1219040B6E
:10358000131A050C141B060D151C070E161D1E2004
:1035900022241F21232526293C3F273A3D400000B5
:1035A000000EF86E340EF76E540EF66E0900F550EC
:1035B000006E000A13E00900F550016EE8BE05D068
:1035C0003F0BEA6E0900F5CFE9FF01BC090001AC31
:1035D0000900F5CFEEFF004EE9D7F9D7F86AC150E0
:1035E000C00B0E09C16EC050C00B0709C06EC08E63
:1035F000C2800001DFEF08F0CEEC08F04E0E0301B0
:10360000C46F140EC56F040EC66F0001A4EF09F05D
:10361000010E0301C46F00012CEF0AF0F00E936E4F
:103620008196819481928190F19EF286C00EF21271
:1036300036EF0AF0015231E0040E0301C46F196A3B
:10364000F2BE198EF29EFA0EFA6F00016CEC07F0D2
:1036500019BEF28E0301C42FF2D7F29A120ED26F66
:10366000D46BC80ED36FD66B050ED56F000139EC45
:103670000BF0010E0301C46F00015DEF0CF001526D
:103680000CE0010E0301C46FC66B380EC56FC86B2A
:10369000010EC76F0001DEEF0CF0030E0301E06FB7
:1036A000020EE16F000103EC0DF04A0EF66E100EF3
:1036B000F76E65EC0DF0030E01017F6F7F5112086C
:1036C00011E37FC1E0F3030E0301E16F000103EC9E
:1036D0000DF05C0EF66E100EF76E65EC0DF001014C
:1036E0007F2BECD75E0EF66E100EF76E000165ECC8
:1036F0000DF0600EF66E100EF76E65EC0DF0010E1B
:103700000301E06F020EE16F000103EC0DF06E0E9D
:10371000F66E100EF76E65EC0DF0010E0301E06F12
:10372000030EE16F000103EC0DF0760EF66E100E45
:10373000F76E65EC0DF0840EF66E100EF76E65EC0C
:103740000DF07CEF0EF0010E0301C56F800EC46F0B
:10375000C76B410EC66F00018BEC0EF0010E03012A
:10376000C56F940EC46FC76B500EC66F00018BEC13
:103770000EF0010E0301C56FA80EC46FC76B5D0E7E
:10378000C66F00018BEC0EF0010E0301C56FBC0E7D
:10379000C46FC76B560EC66F00018BEC0EF0010EA6
:1037A0000301C56FD00EC46FC76B630EC66F0001F7
:1037B0008BEC0EF0010E0301C56FE40EC46FC76BF6
:1037C0006D0EC66F00018BEC0EF0010E0301C56F8C
:1037D000F80EC46FC76B730EC66F00018BEC0EF052
:1037E000020E0301C56F0C0EC46FC76B8E0EC66F41
:1037F00000018BEC0EF0020E0301C56F200EC46FAA
:10380000C76B9D0EC66F00018BEC0EF0020E03011C
:10381000C56F340EC46FC76BA30EC66F00018BEC6F
:103820000EF0020E0301C56F480EC46FC76BAF0EDA
:10383000C66F00018BEC0EF0020E0301C56F5C0E2B
:10384000C46FC76BC00EC66F00018BEC0EF0020E8A
:103850000301C56F700EC46FC76BCF0EC66F00013A
:103860008BEC0EF0020E0301C56F840EC46FC76BA4
:10387000DC0EC66F00018BEC0EF0020E0301C56F6B
:10388000980EC46FC76BE30EC66F00018BEC0EF091
:10389000020E0301C56FAC0EC46FC76BEF0EC66F8F
:1038A00000018BEC0EF0020E0301C56FC00EC46F59
:1038B000C76BFC0EC66F00018BEC0EF0020E03010D
:1038C000C56FD40EC46F010EC76F020EC66F000124
:1038D0008BEC0EF0020E0301C56FE80EC46F010EF3
:1038E000C76F0C0EC66F00018BEC0EF0030E0301C8
:1038F000C56F100EC46F010EC76F220EC66F000198
:103900008BEC0EF0020E0301C56FFC0EC46F010EAE
:10391000C76F160EC66F00018BEC0EF0030E03018D
:10392000C56F4C0EC46F010EC76F300EC66F00011D
:103930008BEC0EF0030E0301C56F600EC46F010E19
:10394000C76F3B0EC66F00018BEC0EF0030E030138
:10395000C56F740EC46F010EC76F460EC66F0001AF
:103960008BEC0EF0030E0301C56F880EC46F010EC1
:10397000C76F300EC66F00018BEC0EF0030E030113
:10398000C56F9C0EC46F010EC76F3B0EC66F000162
:103990008BEC0EF0030E0301C56FB00EC46F010E69
:1039A000C76F460EC66F00018BEC0EF0010E0301CF
:1039B000C56F800EC46F010EC76F940EC66F0001F5
:1039C000B7EC0EF0010E0301C56F800EC46F010E3F
:1039D000C76FA80EC66F0001B7EC0EF0010E030111
:1039E000C56F800EC46F010EC76FBC0EC66F00019D
:1039F000B7EC0EF0010E0301C56F800EC46F010E0F
:103A0000C76FD00EC66F0001B7EC0EF0010E0301B8
:103A1000C56F940EC46F010EC76FE40EC66F000130
:103A2000B7EC0EF0010E0301C56F940EC46F010ECA
:103A3000C76FF80EC66F0001B7EC0EF0010E030160
:103A4000C56FF80EC46F020EC76F0C0EC66F000173
:103A5000B7EC0EF0010E0301C56FF80EC46F020E35
:103A6000C76F200EC66F0001B7EC0EF0010E030108
:103A7000C56FF80EC46F020EC76F340EC66F00011B
:103A8000B7EC0EF0010E0301C56FF80EC46F020E05
:103A9000C76F480EC66F0001B7EC0EF0010E0301B0
:103AA000C56FF80EC46F020EC76F5C0EC66F0001C3
:103AB000B7EC0EF0010E0301C56FF80EC46F020ED5
:103AC000C76F700EC66F0001B7EC0EF0010E030158
:103AD000C56FBC0EC46F020EC76F840EC66F0001A7
:103AE000B7EC0EF0010E0301C56FBC0EC46F020EE1
:103AF000C76F980EC66F0001B7EC0EF0010E030100
:103B0000C56FBC0EC46F020EC76FAC0EC66F00014E
:103B1000B7EC0EF0010E0301C56FA80EC46F020EC4
:103B2000C76FC00EC66F0001B7EC0EF0010E0301A7
:103B3000C56FA80EC46F020EC76FD40EC66F00010A
:103B4000B7EC0EF0010E0301C56FA80EC46F020E94
:103B5000C76FE80EC66F0001B7EC0EF0010E03014F
:103B6000C56FD00EC46F030EC76F100EC66F000175
:103B7000B7EC0EF0010E0301C56FD00EC46F020E3C
:103B8000C76FFC0EC66F0001B7EC0EF0030E030109
:103B9000C56F100EC46F030EC76F4C0EC66F0001C9
:103BA000B7EC0EF0030E0301C56F100EC46F030EC9
:103BB000C76F600EC66F0001B7EC0EF0030E030175
:103BC000C56F100EC46F030EC76F740EC66F000171
:103BD000B7EC0EF0020E0301C56FFC0EC46F030EAE
:103BE000C76F880EC66F0001B7EC0EF0020E03011E
:103BF000C56FFC0EC46F030EC76F9C0EC66F00012D
:103C0000B7EC0EF0020E0301C56FFC0EC46F030E7D
:103C1000C76FB00EC66F0001B7EC0EF0010EEA6E72
:103C2000F50EE96E220E036EA20EEF6E03C0ECFFDE
:103C3000020EEA6E1D0EE96E230E036EE80EEF6EA5
:103C400003C0ECFF020EEA6E310EE96E250E036E24
:103C50001E0EEF6E03C0ECFF020EEA6E450EE96E1B
:103C6000270E036EAE0EEF6E03C0ECFF020EEA6E7F
:103C7000590EE96E290E036E400EEF6E03C0ECFF85
:103C8000020EEA6E6D0EE96E2A0E036E380EEF6EAE
:103C900003C0ECFF020EEA6E810EE96E2B0E036E7E
:103CA0008A0EEF6E03C0ECFF020EEA6EE50EE96EBF
:103CB0002E0E036E080EEF6E03C0ECFF020EEA6ECE
:103CC000F90EE96E2C0E036EA20EEF6E03C0ECFF30
:103CD000020EEA6EA90EE96E300E036E5C0EEF6EF8
:103CE00003C0ECFF020EEA6EBD0EE96E2F0E036EEE
:103CF000040EEF6E03C0ECFF030EEA6E5D0EE96E7C
:103D0000310E036E9C0EEF6E03C0ECFF030EEA6EE5
:103D1000710EE96E310E036EA40EEF6E03C0ECFF60
:103D2000030EEA6E850EE96E310E036EAC0EEF6E79
:103D300003C0ECFF030EEA6E990EE96E320E036EBD
:103D4000240EEF6E03C0ECFF030EEA6EAD0EE96EBB
:103D5000320E036E2C0EEF6E03C0ECFF030EEA6E04
:103D6000C10EE96E320E036E340EEF6E03C0ECFF2F
:103D7000F2EF0EF0010E0301C56F800EC46F00015B
:063D8000EEEF19F0030054
:087FC80004030904080343004F
:107FD000430053001A0343004300530020004800AD
:107FE000490044002000440065006D006F0012034A
:107FF00031003200330034003500360037003800DD
:020000040030CA
:0E00000027C8271E0087A1000FC00FE00F4089
:00000001FF
;PIC18F4550
;CRC=2DF5  CREATED="02-Nov-22 15:04"
