:100000000DEF0EF068961200046ED8CF05F0E0CF29
:1000100006F00001E9CF0CF0EACF07F0E1CF08F0DD
:10002000E2CF09F0D9CF0AF0DACF0BF0F3CF12F01C
:10003000F4CF13F0FACF14F0F5CF15F0F6CF16F099
:10004000F7CF17F000C00EF001C00FF002C010F0A3
:1000500003C011F0F2AA30EF00F0F2B459EF07F04C
:10006000F2A636EF00F0F2B0E6EF07F0A0AA3CEF00
:1000700000F0A1BA54EF06F00EC000F00FC001F07E
:1000800010C002F011C003F00CC0E9FF07C0EAFF86
:10009000078E08C0E1FF09C0E2FF0AC0D9FF0BC00C
:1000A000DAFF12C0F3FF13C0F4FF14C0FAFF15C04B
:1000B000F5FF16C0F6FF17C0F7FF045006C0E0FFBB
:1000C00005C0D8FF1000F76AD60FF66E000EF722B3
:1000D0000900F5501200280C0106F76AEA0FF66EC7
:1000E000000EF7220900F55012000003FFFFFFFF8A
:1000F000FFFFFFFFFFFFFFFFFFFFF76A0A0FF66E2C
:10010000010EF7220900F55012004000080000001F
:1001100000000000000000000000000000000000DF
:1001200000000000000000000000F76A3A0FF66EC1
:10013000010EF7220900F55012000600FF0901A187
:1001400001190129081580257F750895028102197A
:10015000012908750895029102C0F76A6A0FF66EC8
:10016000010EF7220900F55012000000F76A7C0F1B
:10017000F66E010EF7220900F55012002000F76A12
:100180008E0FF66E010EF7220900F55012000902DB
:100190002900010100803209040000020300000070
:1001A0000921000100012220000705810308000A3F
:1001B0000705010308000A00F76AC80FF66E010E72
:1001C000F7220900F55012000100F76ADA0FF66E07
:1001D000010EF7220900F55012001200F76AEC0F29
:1001E000F66E010EF7220900F550120012011001FF
:1001F00000000040610420000001010200016D9236
:10020000699468A402D06894FCD7689860EF06F0FF
:10021000400E0401016F040E0001706F100E70C0DB
:1002200003F4E8CF02F4880E0401006F046B040E9F
:10023000076F500E066F0001120070A002D0E8DFB9
:100240007090689A67EF06F06A6A68926CEF06F041
:100250007C917BBF7C817B9F7B51100803E2000E69
:10026000016E16D07CA10BD0036A7B5136DFFF08EC
:1002700002E1000E01D0010E016E0AD009D0036A1E
:100280007B512BDFFF0802E1000E01D0010E016E51
:100290001200036A7A51700FE96E0F0E0320EA6EA6
:1002A000EF6A7AC07BF0D4DF015218E07A51080D72
:1002B000F3507C6BE96E040E7C25EA6EEF6A7A518E
:1002C000080DF3507C6B7B6F040E7B27000E7C23A4
:1002D0007BC0E9FF040E7C25EA6EEF6A1200010E76
:1002E000796F79510F0805E379C07AF0D2DF792B65
:1002F000F8D71200316A306A6F6B6F530AE1036AF4
:100300006F51320FE96E000E0320EA6EEF6A6F2B19
:10031000F4D7276A010E286E266A97EF01F06B6A00
:10032000696A6A6A686A6E6A706AD9DFE3D7160E0C
:10033000706E68A602D066DEFCD79F0E6B6E3D0E17
:10034000696E6D9865DF030E2B6E71EF06F06984A0
:1003500069986D8276EF06F0689C7BEF06F075C0B9
:100360002CF012002C68120078C001F077C000F069
:100370007767012A0900F5CFEEFF002EFBD7012E8B
:10038000F9D7F86A1200736B305031103EE07351A8
:100390003F083BE32950FC0F26E2040F10EF02F068
:1003A0002FC003F02E50EBDE746F1DD02FC003F072
:1003B0002E50BBDE746F17D0C80E2E24756F7F0EC3
:1003C0002F20766FF86AF76E75C0F6FFEA6A740E32
:1003D000E96E786B010E776FC7DF05D02FC003F091
:1003E0002E50FCDE746F2E2AD8B42F2A3050D8B489
:1003F000310630067351732B036A500FE96E040EF9
:100400000320EA6E74C0EFFFBFD73050311004E113
:100410007351400801E0266A73C075F0A0DF120036
:10042000E824F76AF7363B0FF66E040EF7220A004F
:10043000F550FA6E0800F550F96EA003AC03B8034E
:10044000DC03726B2F6A2E6A296A04011351010AB8
:10045000000109E0030A0DE0010A0FE0220A3FE073
:10046000030A56E071D0316A120E306E030E296E07
:100470006DD0316A290E306E69D0020E296E726B12
:10048000040112510001725D18E2C80E2E24736F30
:100490007F0E2F20746FF86A74C0F7FF73C0F6FFE9
:1004A000EA6A750EE96E786B010E776F5DDF755144
:1004B0002E26000E2F22722BE3D7C80E2E24736F28
:1004C0007F0E2F20746FF86AF76E73C0F6FFEA6A2A
:1004D000300EE96E786B010E776F46DF37D0036A16
:1004E00004011251000171DE036A2E6E03C02FF069
:1004F0002E3C02D02F520AE02FC003F02E503FDED8
:10050000036A306E03C031F021D002D02BDF2DD032
:10051000036A04011451000120DE036A2E6E03C039
:100520002FF02E3C02D02F520DE0010E296E036AEF
:100530000401145100011ADE036A306E03C031F069
:1005400005D002D00FDF11D00DDF0FD004011753FB
:1005500008E1315203E13050165D03E2316A16C4FE
:1005600030F0010E266E00010EDF1200715304E11F
:10057000040E2B6EB4DEB3D0050E2B6E040E746F1A
:10058000900E736F010E726F72510F08D8A0A7D032
:1005900072C07AF07EDE756B036A72519EDDFF08D1
:1005A0004FE0040E756FD8907235036AA6DD09001E
:1005B000F5CF03F0766F03C077F07251080DF3505A
:1005C0007A6B796F010E7925016E000E7A21036E28
:1005D00001C0E9FF040E0324EA6E76C0EFFF7251FA
:1005E000080DF3507A6B796F020E7925016E000EBB
:1005F0007A21036E01C0E9FF040E0324EA6E74C081
:10060000ECFFED5273C0EFFFD8907235036A75DDD1
:100610000900F5CF03F0732703507423880E786F19
:1006200077A101D0788177A301D078837251080D2A
:10063000F3507A6BE96E040E7A25EA6E78C0EFFF0C
:10064000036A72514ADDFF0834E075837251080D68
:10065000F3507A6B796F040E7927000E7A23020E1D
:100660007925016E000E7A21036E01C0E9FF040EA8
:100670000324EA6E74C0ECFFED5273C0EFFFD89014
:100680007235036A3ADD0900F5CF03F07327035092
:1006900074237251080DF3507A6B796F040E792729
:1006A000000E7A2379C0E9FF040E7A25EA6E400E27
:1006B000EF6E7551060802E10E0E756F036A7251F6
:1006C0000CDD010801E07589036A7251700FE96E53
:1006D0000F0E0320EA6E75C0EFFF722B55D7BEEFE9
:1006E00003F004011151000A00010DE0010A14E0B9
:1006F000020A1FE0060A29E0030A2EE00E0A2EE095
:10070000010A32E040D028C050F40401516B020EBF
:100710000001756F24DE38D00401122D07D0010EC0
:1007200028160001756B1BDE03D0040100011ADEE0
:100730002BD00401122D06D028820001756B0FDE2C
:1007400003D0040100010EDE1FD0020E266E12C47B
:100750002DF0756B04DE18D074DE16D027C050F46F
:10076000010E756FFCDD10D004011251010809E380
:1007700012C427F012C471F00001F8D6756BEFDDDA
:100780000401000101D0EEDDD7EF04F027C071F0C5
:1007900004011151000A000107E00A0A0DE0010AF4
:1007A00028E00D0A38E039D00401506B516B020E7D
:1007B0000001756FD4DD32D0715319E0010E715D07
:1007C000036AFADC016E0401145DD8A002D00001B6
:1007D0000ED0036A1451320FE96E000E0320EA6E48
:1007E000EFCF50F4010E0001756FB9DD01D0BADD15
:1007F00015D071530EE0036A04011451320FE96EF3
:10080000000E0320EA6E12C4EFFF0001756BA7DD36
:1008100001D0A8DD03D015DE01D0A4DDD7EF04F0B0
:10082000729171BF7281719F72A111D07151080DC7
:10083000F350746B736F040E7327000E742373C030
:10084000E9FF040E7425EA6E880EEF6E09D071512F
:10085000080DF350746BE96E040E7425EA6EEF6AAE
:10086000036A7151700F016E0F0E032201C0E9FF80
:1008700003C0EAFFEF909DEF04F0729171BF7281A7
:10088000719F72A111D07151080DF350746B736F89
:10089000040E7327000E742373C0E9FF040E742541
:1008A000EA6E840EEF6E0AD07151080DF350746B2E
:1008B000E96E040E7425EA6E840EEF6EA3EF04F069
:1008C000729171BF7281719F72A111D07151080D27
:1008D000F350756B746F040E7427000E752374C08B
:1008E000E9FF040E7525EA6EEFCF73F00AD071515F
:1008F000080DF350756BE96E040E7525EA6EEFCFA7
:1009000073F073AF02D073B502D0000E01D0010EA8
:10091000016EADEF04F014C47BF09ADC015228E0C4
:1009200004011151010A000105E0020A09E0030A6D
:100930000DE01DD014C471F073D7756B10DD18D0A5
:1009400014C471F09AD7756B0ADD12D00401506B94
:10095000516B14C471F00001B3D7015204E0010ED1
:100960000401506F0001020E756FF9DC01D0FADC52
:10097000D7EF04F0040111510001F4DCD7EF04F0CB
:10098000266A040110517F0B000A000107E0010AEA
:1009900007E0030A07E0230A07E008D0A2D607D041
:1009A000F5D605D0B8D703D0E5D701D0DBDC0AEF08
:1009B00006F07151080DF350776BE96E040E772540
:1009C000EA6EEFCF73F07251020806E173AD02D008
:1009D000726B02D0010E726F7251030813E1840E24
:1009E000736F7151080DF350776B766F040E762795
:1009F000000E772376C0E9FF040E7725EA6E840E99
:100A0000EF6E07D0722D03D0C80E736F02D0880E20
:100A1000736FD8907135036A7DEC00F00900F5CF53
:100A200003F0746F03C075F07151080DF350776BCC
:100A3000766F010E7625016E000E7721036E01C0E0
:100A4000E9FF040E0324EA6E74C0EFFF75A101D024
:100A5000738175A301D073837151080DF350776BC7
:100A6000E96E040E7725EA6E73C0EFFF1200036A89
:100A70007651700FE96E0F0E0320EA6EEF5212E00E
:100A80007651080DF350786B776F040E7727000EC0
:100A9000782377C0E9FF040E7825EA6EEFCF79F06E
:100AA00079AF02D0000E01D0010E016E5BEF05F0B0
:100AB00071C076F0DCD701526EE07151080DF35031
:100AC000776B766F040E7627000E7723010E76255E
:100AD000016E000E7721036E01C0E9FF040E0324AE
:100AE000EA6E72C0EFFF7451020817E17151080DF0
:100AF000F350776B766F040E7627000E772376C05F
:100B0000E9FF040E7725EA6EEFCF75F075AD02D0E0
:100B1000746B02D0010E746F13D07451040810E18D
:100B20007151080DF350776BE96E040E7725EA6E6C
:100B3000EFCF75F075AD03D0010E746F01D0746BFB
:100B4000742D03D0480E756F02D0080E756F715169
:100B5000080DF350776B766F040E7627000E77231F
:100B600076C0E9FF040E7725EA6E75C0EFFF71517C
:100B7000080DF350776B766F040E7627000E7723FF
:100B800076C0E9FF040E7725EA6EEF508009EF6E1C
:100B9000010E016E02D0000E016E1200715300E1D1
:100BA000120072C06EFF725303E0040E2B6E02D06F
:100BB000020E2B6EE1EF05F0276A266A2DC072F057
:100BC000F0D7EEEF05F0715309E1262C03D0C3EC0A
:100BD00001F004D026500208D8B4EED712002A3013
:100BE0006F6F6F336F331F0E6F172A5241E104018D
:100BF00000513C0B0001706F430E0401001700010F
:100C0000705134081EE104010451800B01E0046BB3
:100C10000001B6D66D982C3C05D0716B030E726F37
:100C2000C8DE0ED0716B020E726FC3DE2C50FE0850
:100C300007E0716B736B2CC072F0040E746F38DFB9
:100C400016D07051040813E1716BA8DF716B020EAE
:100C5000726FAFDE2C50FE080AE02C3C01D007D0AA
:100C6000716B736B2CC072F0010E746F21DF1AD0A0
:100C70002A5004080EE12C68716BA5DF2C3C01D0D2
:100C800007D0716B736B2CC072F0020E746F10DFA3
:100C900009D02AB404D06FC071F080DF03D06FC0D8
:100CA00071F091DF85EF06F0A19A2B52D8B433D0C2
:100CB0006852D8B430D068A403D069B4FFEF00F014
:100CC0006DB229D068AA03D069BA1DEF01F068A2FD
:100CD00003D069B224EF01F068A003D069B08FEFB0
:100CE00001F068A803D069B8A7EF01F068AC03D0A1
:100CF00069BCACEF01F06E6B68A608D069A606D09F
:100D00006CCF2AF002EC00F06AD701D004D06E510B
:100D10006E2B0308F1E23CEF00F00C004D454E5500
:100D2000205052494E434950414C0000312D4C4116
:100D300056415200322D434542415200332D414726
:100D40004954415200000C004D454E55204C41562F
:100D500041520000312D53656C6563205061726112
:100D60006D6574726F730000322D4C617661720094
:100D70000C004D454E552043454241520000312D57
:100D80004D2F63656261646F3A00322D542F6365A5
:100D90006261646F3A00332D43656261723A00000C
:100DA0000C004D454E552041474954415200312DCC
:100DB000496E74656E73696461643A00322D542F14
:100DC000616769746163696F6E3A0000332D416732
:100DD0006974617200000C004D454E552050524F11
:100DE0004752414D41520000312D437265617200FE
:100DF000322D4564697461720000332D426F727246
:100E0000617200000C00462F6C617661646F3A00DD
:100E1000542F656E6A75616775653A0043616E743B
:100E20002F6369636C6F733A00004C6176616E6486
:100E30006F2E2E2E0000542F4C617661646F3A00A5
:100E40000C00312D4E6F6D6272652F50726F67729C
:100E5000616D6100322D466F726D61746F2F4C6150
:100E60007661646F0000332D566F6C756D656E2F63
:100E700044697370656E73617200342D5469656DD9
:100E8000702F456E6A75616775650000352D436189
:100E90006E742F4369636C6F7300362D5469706FE5
:100EA0002F4173706972616369F36E3A0000736574
:100EB0006700362A3650EF0802E1342A366A345089
:100EC0003C0802E1352A346AFE0ED76E0C0ED66E4F
:100ED000F2943CEF00F0EA6A6E0EE96EEF500EE01D
:100EE000010E016E006A002EFED7012EFBD74A0EBE
:100EF000006E002EFED700D0EF2EF2D712008190A8
:100F00008182818481868150EE0802E1310E6E6F0C
:100F10008150DE0802E1340E6E6F8150BE0802E19E
:100F2000370E6E6F81507E0802E12A0E6E6F81804F
:100F30008192818481868150ED0802E1320E6E6FCC
:100F40008150DD0802E1350E6E6F8150BD0802E16F
:100F5000380E6E6F81507D0802E1300E6E6F818019
:100F60008182819481868150EB0802E1330E6E6F9D
:100F70008150DB0802E1360E6E6F8150BB0802E142
:100F8000390E6E6F81507B0802E1230E6E6F8180F7
:100F90008182818481968150E70802E1410E6E6F63
:100FA0008150D70802E1420E6E6F8150B70802E10E
:100FB000430E6E6F8150770802E1440E6E6F81968A
:100FC0008194819281906EC001F012000F0E6E6FBD
:100FD00082DF81A806D081AA04D081AC02D081BE74
:100FE00007D08DDF01C033F081968194819281908A
:100FF000F2903CEF00F03C554D454C4953413E00CA
:101000003C4D6963454C4953413E00003C554D45BC
:101010004C4953413E003C4D6963454C4953413E68
:1010200000003C554D454C4953413E003C4D6963E1
:10103000454C4953413E000025645365672000003C
:1010400043415247414E444F2053495354454D412B
:1010500000002E000C004249454E56454E49444F73
:101060002E2E2E004D572D323030310056657273C2
:10107000696F6E204265746100000C002A002A002E
:101080002A000C002A342D50524F4752414D4152F4
:1010900000002A002A002A000C002A342D50524F4A
:1010A0004752414D415200002A002A002A002A5589
:1010B0004D4D454C4953412A00002A4D69634D4529
:1010C0004C4953412A00080E016E00008B9C949CF1
:1010D00000005B368B9ED8B0948ED8A0949E948CE2
:1010E00082ACFED7012EF1D700008B9C949C0000AF
:1010F000948E00000000948C82ACFED7016A000040
:1011000082BE01808B9C949C8B9E949E12005950B1
:10111000000A03E0010A21E041D05838006EF00EC9
:10112000001600501E105A6E5B6ECDDF000058385E
:10113000006EF00E0016005004091E105A6E5B6E11
:10114000C2DF00D05838006EF00E00160050FB0BC6
:101150001E105A6E5B6EB7DF21D05838006EF00E4D
:101160000016005001091E105A6E5B6EACDF0000C5
:101170005838006EF00E00160050010904091E10C8
:101180005A6E5B6EA0DF00D05838006EF00E00166D
:10119000005001091E105A6E5B6E95DF1200948E8E
:1011A0000000948C00008B9E949E00008B9C949C6D
:1011B0001AC05BF088DF5538576E0F0E571657C0B0
:1011C00058F056C059F0A3DF55500F0B576E586EAC
:1011D00056C059F09CDF949E0000948C82ACFED7E0
:1011E000000000D00000948E00001200010E556E29
:1011F000566AD5DF196AF2BE198EF29E020E6E6F24
:101200006ADE19BEF28E010E1D6E120046C01AF083
:1012100048C01BF047C01CF0F29CF29EF2BEFDD706
:10122000196AF2BE198EF29E320E6E6F54DE19BE2E
:10123000F28E948E0000948C00008B9E949E000091
:101240008B9C949C1AC05BF03EDF586A596A5FDF42
:10125000196AF2BE198EF29E0F0E6E6F3CDE19BE39
:10126000F28E010E496E495003080FE3030E586ECB
:10127000596A4DDF196AF2BE198EF29E050E6E6F25
:101280002ADE19BEF28E492AEED7020E586E596A2E
:101290003EDF196AF2BE198EF29E050E6E6F1BDEDE
:1012A00019BEF28E949E0000948C82ACFED7000092
:1012B00000D00000948E0000496A4950030813E3EF
:1012C000036A495063EC00F04A6E556E566A67DF58
:1012D000196AF2BE198EF29E050E6E6FFCDD19BE04
:1012E000F28E492AEAD782DFC00EF21232EF0EF0F8
:1012F000465203E0080E1E6E01D01E6A36EF0EF055
:101300004F501B5C03E21BC050F002D04FC050F0A6
:101310005050010A07E0030A07E0010A08E0070A43
:1013200009E00BD0526A0AD0400E526E07D0140E5C
:10133000526E04D0540E526E01D0526A4E501C5C54
:1013400003E21CC051F002D04EC051F0010E515CBE
:101350005224536E53508009546E556E566A1FDFE7
:1013600012004D500C0A05E0060A05E0020A0FE0E3
:1013700013D03CDF16D01D2A1D501B5C02E2010E6B
:101380001D6E010E4E6E1DC04FF0BADF0AD0100E5A
:10139000556E566A04DF05D04DC055F0010E566EED
:1013A000FEDE12000900F5520CE0F6CF46F0F7CF52
:1013B00047F0F5CF4DF0D5DF46C0F6FF47C0F7FF49
:1013C000F1D712001A0EF66E0D0EF76EEBDF030E5C
:1013D0004E6E010E4F6E94DF1C0EF66E0D0EF76E04
:1013E000E1DF020E4E6E4F6E8BDF2C0EF66E0D0E91
:1013F000F76ED8DF020E4E6E030E4F6E81DF340E95
:10140000F66E0D0EF76ECEDF020E4E6E040E4F6EB0
:1014100077DF3C0EF66E0D0EF76EC4DF1200196A10
:10142000F2BE198EF29E6BDD19BEF28E01C046F03F
:101430004652F5E046C001F0A5EF0EF0460EF66EFE
:101440000D0EF76EAFDF040E4E6E010E4F6E58DFBD
:10145000480EF66E0D0EF76EA5DF010E4E6E020EF3
:101460004F6E4EDF540EF66E0D0EF76E9BDF010EC3
:101470004E6E030E4F6E44DF680EF66E0D0EF76E65
:1014800091DF9DEF0FF0040EF66E0E0EF76E8ADF01
:10149000010E4E6E4F6E34DF060EF66E0E0EF76EB8
:1014A00081DF010E4E6E020E4F6E2ADF100EF66EB9
:1014B0000E0EF76E77DF010E4E6E030E4F6E20DFBD
:1014C0001C0EF66E0E0EF76E6DDFB9EF0FF00C0E00
:1014D0004D6E47DF010E4E6E4F6E12DF2A0EF66E16
:1014E0000E0EF76E5FDF010E4E6E030E4F6E08DFBD
:1014F000360EF66E0E0EF76E55DFE8EF0FF04E501B
:10150000016A4D5C03E24DC000F00CD0006A080E89
:101510004F6E4D3600364E50005CD8B0006E01362E
:101520004F2EF7D71200200E48A8300E496E47C044
:1015300000F047AE08D0001E002A00C047F02D0E74
:10154000496E488E4880015047C04DF0640E4E6E83
:10155000D6DF00C047F0300E01244A6E47C04DF080
:101560000A0E4E6ECCDF300E00244C6E300E01247D
:101570004B6E49C000F0300E4A5C04E0488248BE21
:10158000488412D049C04AF0200E496E300E4B5CA0
:1015900004E0488048BE488207D0D8A4488004E1CF
:1015A0004AC04BF0200E4A6E48B405D048B206D06F
:1015B00048B007D009D049C04DF0D3DE4AC04DF045
:1015C000D0DE4BC04DF0CDDE4CC04DF0CADE120077
:1015D0000900F6CF48F0F7CF49F0F5CF4DF0C1DE66
:1015E00048C0F6FF49C0F7FF472EF2D70DEF0BF0CA
:1015F000466A465005081BE30C0E4E6E030E4F6EF6
:101600007FDE46C047F0180E486E8DDF3A0EF66E4C
:10161000100EF76E040E476EDBD7196AF2BE198EF4
:10162000F29E6E6958DC19BEF28E462AE2D7365019
:101630000608DEE0ECEF0FF0D8B203D0EA6A690EDC
:10164000E96E006A016A026A036A696B6A6B6B6B16
:101650006C6B68516711661165112CE0200E6D6F7F
:10166000D890613762376337643769376A376B37C9
:101670006C3768516C5D08E167516B5D05E166513F
:101680006A5D02E16551695D0FE36551695F66510D
:10169000D8A0663D6A5F6751D8A0673D6B5F68510F
:1016A000D8A0683D6C5FD88000360136023603361C
:1016B0006D2FD6D769C0EFFF6AC0ECFF6BC0ECFF9F
:1016C0006CC0ECFF1200016A026A006A036A5C5097
:1016D00002E15B5018E0100E5D6ED89059365A3614
:1016E000003603365C50035C02E15B50005C07E3AC
:1016F0005B50005ED8A003065C50035ED8800136C4
:1017000002365D2EEAD71200656B666B010E676FBD
:10171000DA6AD96A6A6B5D0E696FEA6A610EE96E10
:101720006AC0E2FF69C0E1FF67C068F0D890E55089
:10173000EE02F3506523F4506623682FF7D765C097
:10174000DEFF66C065F0666BD8B0662B692BD8B437
:101750006A2B672B67510508E0E199EF0CF0150E35
:101760005E5E0EE3EA6A5E0EE96EFC0EEF16D8903E
:10177000EF32EF32EF5004E001D00000EF2EFDD742
:10178000E9EF0BF05D6A5A505D5C0CE2196AF2BE3B
:10179000198EF29EFA0E6E6F6BEC07F019BEF28E88
:1017A0005D2AF1D7196AF2BE198EF29E59C06EF009
:1017B0006BEC07F019BEF28E5D6A5C505D5C06E270
:1017C000530E006E002EFED75D2AF7D75BC05EF089
:1017D000C6D712005950070B006E5930016E013206
:1017E00001321F0E011601505B24E96E000E5C20D1
:1017F000EA6E016A012A002A01D00136002EFDD7C7
:101800005A5203E00150EF1203D0011E0150EF16AF
:101810001200D892646B0F0E636F420E626F400E1F
:10182000616F686B676B48C066F047C065F004DFA6
:1018300003C05CF002C05BF001C05AF000C059F078
:10184000D8905C325B325A3259320A0E595C4B6E78
:10185000000E5A584C6E000E5B584D6E000E5C58D0
:101860004E6ED8924EC064F04DC063F04CC062F032
:101870004BC061F0686B676B030E666FE80E656FB7
:10188000DBDE01C050F000C04FF050C05AF04FC036
:1018900059F05C6AFA0E5B6E16DF01C054F050C05E
:1018A0005AF04FC059F05C6AFA0E5B6E0CDF00C054
:1018B00055F0D882EA6A590EE96E4EC064F04DC008
:1018C00063F04CC062F04BC061F0686B676B030E55
:1018D000666FE80E656FB0DE5AC052F059C051F025
:1018E00052C05AF051C059F05C6AFA0E5B6EEBDEE2
:1018F00001C053F052C05AF051C059F05C6AFA0E60
:101900005B6EE1DE00C056F05C6A5B6A4AC05AF06A
:1019100049C059F05CC060F05BC05FF04AC05EF047
:1019200049C05DF0646B636B030E626FE80E616F1C
:10193000EBD603C05CF002C05BF001C05AF000C0FF
:1019400059F0D892646B0F0E636F420E626F400EB7
:10195000616F686B676B48C066F047C065F06CDE0E
:1019600003C060F002C05FF001C05EF000C05DF037
:10197000D8925CC064F05BC063F05AC062F059C09A
:1019800061F003C068F002C067F001C066F000C0FB
:1019900065F052DE01C058F000C057F058C05AF050
:1019A0005750D8B458065706596E595202E15A5248
:1019B00034E055C059F054C05AF056C05BF053C0E3
:1019C0005CF0E0DE46C059F0010E5A6E0F0E5C6E00
:1019D000890E5B6EFFDE46C059F05A6A0F0E5C6ED0
:1019E000920E5B6EF7DE55C059F054C05AF056C0E7
:1019F0005BF053C05CF0C6DE46C059F05A6A0F0E69
:101A00005C6E890E5B6EE6DE46C059F05A6A0F0EB8
:101A10005C6E920E5B6EDEDEC1D7F6EF0FF0700EDD
:101A2000F66E0D0EF76EBEDC010E4E6E4F6E68DC6C
:101A3000720EF66E0D0EF76EB5DC010E4E6E020ED6
:101A40004F6E5EDC7E0EF66E0D0EF76EABDC010E99
:101A50004E6E030E4F6E54DC8A0EF66E0D0EF76E50
:101A6000A1DC010E4E6E040E4F6E4ADC960EF66E31
:101A70000D0EF76E97DCFEEF0FF00D0E4E6E020EA0
:101A80004F6E3EDC3BC047F0180E486E4CDD480EF2
:101A90004D6E67DC200E4D6E64DC0D0E4E6E030E37
:101AA0004F6E2EDC3CC047F0180E486E3CDD480EF1
:101AB0004D6E57DC200E4D6E54DCFFEF0FF0A00E84
:101AC000F66E0D0EF76E6EDC010E4E6E4F6E18DC6C
:101AD000A20EF66E0D0EF76E65DC010E4E6E020E56
:101AE0004F6E0EDCAE0EF66E0D0EF76E5BDC010E69
:101AF0004E6E030E4F6E04DCBC0EF66E0D0EF76ECE
:101B000051DC010E4E6E040E4F6E80EC09F0CC0ECF
:101B1000F66E0D0EF76E46DC1EEF10F0D60EF66E6A
:101B20000D0EF76E3FDC010E4E6E4F6E80EC09F02D
:101B3000D80EF66E0D0EF76E35DC010E4E6E020EEF
:101B40004F6E80EC09F0E80EF66E0D0EF76E2ADC93
:101B5000010E4E6E030E4F6E80EC09F0F00EF66E25
:101B60000D0EF76E1FDC010E4E6E040E4F6E80ECF4
:101B700009F0FA0EF66E0D0EF76E14DC1200400E30
:101B8000F66E0E0EF76E0EDC010E4E6E4F6E80EC92
:101B900009F0420EF66E0E0EF76E04DC010E4E6E6C
:101BA000020E4F6E80EC09F0540EF66E0E0EF76EBC
:101BB000D2EC09F0010E4E6E030E4F6E80EC09F070
:101BC000660EF66E0E0EF76ED2EC09F0010E4E6E3A
:101BD000040E4F6E80EC09F07A0EF66E0E0EF76E64
:101BE000D2EC09F058EF10F0010E4E6E4F6E80EC03
:101BF00009F08C0EF66E0E0EF76ED2EC09F0010EA7
:101C00004E6E020E4F6E80EC09F09A0EF66E0E0EBE
:101C1000F76ED2EC09F05CEF10F0F86AD09E078EF8
:101C2000010E1D6E080E1E6E346A356A010E366E88
:101C3000376E386E396A3A6A3B6A3C6A3D6A3F6A77
:101C40003E6AC150C00B0F09C16E070EB46E1F6A09
:101C5000206A216A4E0E466E140E476E040E486EC0
:101C600006EF09F0010E466E78EF09F0F00E936E64
:101C70008196819481928190F19EF286C00EF2123B
:101C8000030E4E6E020E4F6E80EC09F0400EF66EA3
:101C9000100EF76ED2EC09F0030E406E40501208A1
:101CA00018E340C04EF0030E4F6E80EC09F0520E68
:101CB000F66E100EF76ED2EC09F0196AF2BE198EAC
:101CC000F29E0A0E6E6F6BEC07F019BEF28E402A80
:101CD000E5D7540EF66E100EF76ED2EC09F0560EE4
:101CE000F66E100EF76ED2EC09F0010E4E6E020E7B
:101CF0004F6E80EC09F0640EF66E100EF76ED2ECAB
:101D000009F0010E4E6E030E4F6E80EC09F06C0E62
:101D1000F66E100EF76ED2EC09F0020E466E196ADE
:101D2000F2BE198EF29EFA0E6E6F6BEC07F019BEC2
:101D3000F28E462EF4D77A0EF66E100EF76ED2ECB7
:101D400009F0E2EC09F00FEF0AF001C033F0335074
:101D5000310A0CE0030A1DE0010A2EE0070A3FE009
:101D6000760A53E0030AD8B4A2D0E0D0E2EC09F03E
:101D7000010E4E6E020E4F6E80EC09F07C0EF66E78
:101D8000100EF76ED2EC09F0010E396E366A366E1F
:101D9000CDD0E2EC09F0010E4E6E030E4F6E80ECDA
:101DA00009F07E0EF66E100EF76ED2EC09F0020E00
:101DB000396E366A366EBAD0E2EC09F0010E4E6E1C
:101DC000040E4F6E80EC09F0800EF66E100EF76E6A
:101DD000D2EC09F0030E396E366A366EA7D0820E49
:101DE000F66E100EF76ED2EC09F0010E4E6E4F6ECD
:101DF00080EC09F0840EF66E100EF76ED2EC09F04E
:101E0000040E396E366A366E91D0010E3626362CA7
:101E100010D0E2EC09F0010E4E6E020E4F6E80EC17
:101E200009F0920EF66E100EF76ED2EC09F0010E6C
:101E3000396E3650020810E1E2EC09F0010E4E6EE8
:101E4000030E4F6E80EC09F0940EF66E100EF76ED6
:101E5000D2EC09F0020E396E3650030810E1E2ECC4
:101E600009F0010E4E6E040E4F6E80EC09F0960ED6
:101E7000F66E100EF76ED2EC09F0030E396E365086
:101E8000040814E1980EF66E100EF76ED2EC09F00D
:101E9000010E4E6E4F6E80EC09F09A0EF66E100E2B
:101EA000F76ED2EC09F0040E396E366E3FD0010E9B
:101EB000365E3650040814E1E2EC09F0010E4E6E75
:101EC000040E4F6E80EC09F0A80EF66E100EF76E41
:101ED000D2EC09F0030E396E362C01D001D0000E81
:101EE0003650030810E1E2EC09F0010E4E6E030ECD
:101EF0004F6E80EC09F0AA0EF66E100EF76ED2EC63
:101F000009F0020E396E3650020810E1E2EC09F0D9
:101F1000010E4E6E020E4F6E80EC09F0AC0EF66EA6
:101F2000100EF76ED2EC09F0010E396E3350230813
:101F30005EE1392C5CD01EEF0AF0416A415257E154
:101F4000196AF2BE198EF29E7FEC07F019BEF28E6E
:101F500001C033F033502A0807E1010E416EE2EC74
:101F600009F0366A010E366E335031082CE143EF2A
:101F70000AF0010E376E196AF2BE198EF29E7FECDE
:101F800007F019BEF28E01C042F0335041080CE157
:101F90000B0E4E6E010E4F6E80EC09F0AE0EF66E1B
:101FA000100EF76ED2EC09F0335042080CE10B0E24
:101FB0004E6E010E4F6E80EC09F0BA0EF66E100EEA
:101FC000F76ED2EC09F03350320810E167EF0AF0F7
:101FD000020E376EF8EF0AF0120E466E130E486EC0
:101FE000880E476E4A6A640E496E13D4A7D73350E1
:101FF00023081DE1395002081AE111D53ED5436A84
:10200000435215E1196AF2BE198EF29E7FEC07F079
:1020100019BEF28E01C033F033502A0807E1010ED9
:10202000436EE2EC09F0366A020E366EE9D73350A1
:1020300023081CE13950030819E141D5446A445290
:1020400015E1196AF2BE198EF29E7FEC07F019BEF7
:10205000F28E01C033F033502A0807E1010E446EBE
:10206000E2EC09F0366A030E366EE9D733502308E6
:102070002CE13950040829E151DD456A455225E13A
:10208000196AF2BE198EF29E7FEC07F019BEF28E2D
:1020900001C033F033502A0807E1010E456EE2EC2F
:1020A00009F0366A040E366E335031080DE167D5FB
:1020B0003350420809E198D533502A0805E10C0E47
:0E20C0004D6EB1EC09F02ADDD9D73DD60300F4
:087FC80004030904080343004F
:107FD000430053001A0343004300530020004800AD
:107FE000490044002000440065006D006F0012034A
:107FF00031003200330034003500360037003800DD
:020000040030CA
:0E0000003FCC271E0087A1000FC00FE00F406D
:00000001FF
;PIC18F4550
;CRC=C691  CREATED="21-oct.-22 14:58"
