:100000002CEF0CF068961200046ED8CF05F0E0CF0C
:1000100006F00001E9CF0CF0EACF07F0E1CF08F0DD
:10002000E2CF09F0D9CF0AF0DACF0BF0F3CF12F01C
:10003000F4CF13F0FACF14F0F5CF15F0F6CF16F099
:10004000F7CF17F000C00EF001C00FF002C010F0A3
:1000500003C011F0F2AA30EF00F0F2B4F0EF07F0B5
:10006000F2A636EF00F0F2B0A0EF08F0A0AA3CEF45
:1000700000F0A1BADCEF06F00EC000F00FC001F0F6
:1000800010C002F011C003F00CC0E9FF07C0EAFF86
:10009000078E08C0E1FF09C0E2FF0AC0D9FF0BC00C
:1000A000DAFF12C0F3FF13C0F4FF14C0FAFF15C04B
:1000B000F5FF16C0F6FF17C0F7FF045006C0E0FFBB
:1000C00005C0D8FF1000F76AD60FF66E000EF722B3
:1000D0000900F5501200280C0106F76AEA0FF66EC7
:1000E000000EF7220900F55012000003FFFFFFFF8A
:1000F000FFFFFFFFFFFFFFFFFFFFF76A0A0FF66E2C
:10010000010EF7220900F55012004000080000001F
:1001100000000000000000000000000000000000DF
:1001200000000000000000000000F76A3A0FF66EC1
:10013000010EF7220900F55012000600FF0901A187
:1001400001190129081580257F750895028102197A
:10015000012908750895029102C0F76A6A0FF66EC8
:10016000010EF7220900F55012000000F76A7C0F1B
:10017000F66E010EF7220900F55012002000F76A12
:100180008E0FF66E010EF7220900F55012000902DB
:100190002900010100803209040000020300000070
:1001A0000921000100012220000705810308000A3F
:1001B0000705010308000A00F76AC80FF66E010E72
:1001C000F7220900F55012000100F76ADA0FF66E07
:1001D000010EF7220900F55012001200F76AEC0F29
:1001E000F66E010EF7220900F550120012011001FF
:1001F00000000040610420000001010200016D9236
:10020000699468A402D06894FCD76898E8EF06F077
:10021000400E0401016F040E0101256F100E25C16F
:1002200003F4E8CF02F4880E0401006F046B040E9F
:10023000076F500E066F0001120070A002D0E8DFB9
:100240007090689AEFEF06F06A6A6892F4EF06F031
:100250000101319130BF3181309F3051100803E2EC
:10026000000E016E1AD031A10DD0036A3051000189
:1002700034DFFF0802E1000E01D0010E016E010122
:100280000CD00BD0036A3051000127DFFF0802E1D8
:10029000000E01D0010E016E010100011200036A7F
:1002A00001012F51700FE96E0F0E0320EA6EEF6A05
:1002B0002FC130F10001CCDF01521AE001012F51B2
:1002C000080DF350316BE96E040E3125EA6EEF6ACA
:1002D0002F51080DF350316B306F040E3027000E94
:1002E000312330C1E9FF040E3125EA6EEF6A0001C7
:1002F0001200010E01012E6F2E510F0807E32EC1CF
:100300002FF10001CCDF01012E2BF6D700011200E6
:100310002B6A2A6A0101246B24530AE1036A2451DF
:100320002C0FE96E000E0320EA6EEF6A242BF4D73F
:10033000216A010E226E206A0001A7EF01F06B6AAC
:10034000696A6A6A686A6E6A706AD3DFE1D7160EF4
:10035000706E68A602D056DEFCD79F0E6B6E3D0E07
:10036000696E6D9855DF030E256EF9EF06F069840E
:1003700069986D82FEEF06F0689C03EF07F02AC1D2
:1003800026F01200266812002DC101F02CC100F0E9
:100390000066012A0900F5CFEEFF002EFBD7012EE3
:1003A000F9D7F86A12000101286B2A502B104BE094
:1003B00028513F0848E32350FC0F33E2040F0001AB
:1003C0002FEF02F029C003F02850D9DEE8CF29F141
:1003D000010127D029C003F02850A7DEE8CF29F17A
:1003E00001011FD0C80E282401012A6F7F0E292089
:1003F0002B6FF86AF76E2AC1F6FF010EEA6E290E1E
:10040000E96E2D6B010E2C6F0001BEDF010109D0DA
:1004100029C003F02850E2DEE8CF29F1010101D024
:100420000101282AD8B4292A2A50D8B42B062A0632
:100430002851282B036A500FE96E040E0320EA6E40
:1004400029C1EFFFB2D72A502B1004E128514008F0
:1004500001E0206A28C12AF1000191DF1200E8249E
:10046000F76AF736790FF66E040EF7220A00F55098
:10047000FA6E0800F550F96EC403D403E4031004C7
:100480000101276B296A286A236A04011351010AB2
:10049000000109E0030A0DE0010A0FE0220A44E02E
:1004A000030A5BE076D02B6A120E2A6E030E236ECF
:1004B00072D02B6A290E2A6E6ED0020E236E0101B5
:1004C000276B040112510101275D1BE2C80E28248D
:1004D000286F7F0E2920296FF86A29C1F7FF28C1EC
:1004E000F6FF010EEA6E2A0EE96E2D6B010E2C6FDF
:1004F00000014ADF01012A512826000E2922272B5C
:10050000E0D7C80E2824286F7F0E2920296FF86AAB
:10051000F76E28C1F6FFEA6A2A0EE96E2D6B010E0E
:100520002C6F000131DF37D0036A04011251000142
:100530004CDE036A286E03C029F0283C02D0295201
:100540000AE029C003F028501ADE036A2A6E03C0AD
:100550002BF021D002D016DF2DD0036A04011451F4
:100560000001FBDD036A286E03C029F0283C02D09D
:1005700029520DE0010E236E036A0401145100019B
:10058000F5DD036A2A6E03C02BF005D002D0FADE37
:1005900011D0F8DE0FD00401175308E12B5203E10C
:1005A0002A50165D03E22B6A16C42AF0010E206E53
:1005B0000001F9DE12000101265306E1040E256E4A
:1005C000000197DEC8D00101050E256E040E296FCB
:1005D000900E286F010E276F27510F08D8A0BBD0AF
:1005E00027C12FF100015BDE01012A6B036A27514D
:1005F000000173DDFF0855E0040E01012A6FD89059
:100600002735036A000179DD0900F5CF03F0010108
:100610002B6F03C02CF12751080DF3502F6B2E6F59
:10062000010E2E25016E000E2F21036E01C0E9FF81
:10063000040E0324EA6E2BC1EFFF2751080DF3507F
:100640002F6B2E6F020E2E25016E000E2F21036ED2
:1006500001C0E9FF040E0324EA6E29C1ECFFED524C
:1006600028C1EFFFD8902735036A000146DD090055
:10067000F5CF03F00101282703502923880E2D6FA1
:100680002CA101D02D812CA301D02D832751080D41
:10069000F3502F6BE96E040E2F25EA6E2DC1EFFF8C
:1006A0000001036A01012751000117DDFF0838E04E
:1006B00001012A832751080DF3502F6B2E6F040E72
:1006C0002E27000E2F23020E2E25016E000E2F2145
:1006D000036E01C0E9FF040E0324EA6E29C1ECFF9A
:1006E000ED5228C1EFFFD8902735036A000105DDE0
:1006F0000900F5CF03F001012827035029232751D2
:10070000080DF3502F6B2E6F040E2E27000E2F2393
:100710002EC1E9FF040E2F25EA6E400EEF6E000198
:1007200001012A51060802E10E0E2A6F036A2751C1
:100730000001D3DC010803E001012A890001036AFA
:1007400001012751700FE96E0F0E0320EA6E2AC1D6
:10075000EFFF272B41D7000102EF04F004011151F4
:10076000000A00010DE0010A15E0020A21E0060A74
:100770002CE0030A33E00E0A33E0010A39E049D0E5
:1007800022C050F40401516B020E01012A6F0001D6
:10079000F6DD40D00401122D08D0010E2216010111
:1007A0002A6B0001ECDD03D004010001EBDD32D047
:1007B0000401122D07D0228201012A6B0001DFDD26
:1007C00003D004010001DEDD25D0020E206E12C42C
:1007D00027F001012A6B0001D2DD1CD051DE1AD0B6
:1007E00021C050F4010E01012A6F0001C8DD12D0B2
:1007F0000401125101080BE312C421F012C426F1C6
:100800000001D9D601012A6B0001B9DD0401000104
:1008100001D0B8DD33EF05F021C026F104011151FC
:10082000000A000107E00A0A0EE0010A2EE00D0AA4
:1008300042E043D00401506B516B020E01012A6F5C
:1008400000019DDD3BD0010126531CE0010E265D19
:10085000036A0001B1DC016E0401145DD8A002D06E
:10086000010110D0036A14512C0FE96E000E032011
:10087000EA6EEFCF50F4010E01012A6F00017FDD17
:1008800003D0010100017EDD19D00101265310E0E3
:10089000036A040114512C0FE96E000E0320EA6E66
:1008A00012C4EFFF01012A6B000169DD03D00101D1
:1008B000000168DD03D0E4DD01D064DD33EF05F035
:1008C0000101279126BF2781269F27A111D02651FC
:1008D000080DF350296B286F040E2827000E2923DA
:1008E00028C1E9FF040E2925EA6E880EEF6E09D0B3
:1008F0002651080DF350296BE96E040E2925EA6E86
:10090000EF6A036A2651700F016E0F0E032201C0B9
:10091000E9FF03C0EAFFEF900001F3EF04F00101EB
:10092000279126BF2781269F27A111D02651080D88
:10093000F350296B286F040E2827000E292328C1A5
:10094000E9FF040E2925EA6E840EEF6E0AD02651C7
:10095000080DF350296BE96E040E2925EA6E840E0A
:10096000EF6E0001FBEF04F00101279126BF278104
:10097000269F27A111D02651080DF3502A6B296F0D
:10098000040E2927000E2A2329C1E9FF040E2A2577
:10099000EA6EEFCF28F10AD02651080DF3502A6BEA
:1009A000E96E040E2A25EA6EEFCF28F128AF02D0B7
:1009B00028B502D0000E01D0010E016E000107EF34
:1009C00005F014C430F144DC01522EE00401115151
:1009D000010A000105E0020A0BE0030A11E023D03E
:1009E00014C426F16DD701012A6B0001C8DC1CD0AC
:1009F00014C426F194D701012A6B0001C0DC14D085
:100A00000401506B516B14C426F10001ADD70152A3
:100A100004E0010E0401506F0001020E01012A6F73
:100A20000001ADDC01D0AEDC33EF05F00401115163
:100A30000001A8DC33EF05F0206A040110517F0BA0
:100A4000000A000107E0010A07E0030A07E0230AA1
:100A500007E008D083D607D0DFD605D0B2D703D0C1
:100A6000E5D701D08FDC7CEF06F001012651080D9F
:100A7000F3502C6BE96E040E2C25EA6EEFCF28F1B3
:100A80002751020806E128AD02D0276B02D0010EE3
:100A9000276F2751030813E1840E286F2651080D94
:100AA000F3502C6B2B6F040E2B27000E2C232BC125
:100AB000E9FF040E2C25EA6E840EEF6E07D0272D79
:100AC00003D0C80E286F02D0880E286FD890263524
:100AD000036A00017DEC00F00900F5CF03F001018D
:100AE000296F03C02AF12651080DF3502C6B2B6F90
:100AF000010E2B25016E000E2C21036E01C0E9FFB3
:100B0000040E0324EA6E29C1EFFF2AA101D0288137
:100B10002AA301D028832651080DF3502C6BE96ECF
:100B2000040E2C25EA6E28C1EFFF00011200036AB3
:100B300001012B51700FE96E0F0E0320EA6EEF5288
:100B400012E02B51080DF3502D6B2C6F040E2C2747
:100B5000000E2D232CC1E9FF040E2D25EA6EEFCFE8
:100B60002EF12EAF02D0000E01D0010E016E000159
:100B7000BDEF05F026C12BF1DAD70152D8B470D001
:100B800001012651080DF3502C6B2B6F040E2B27FF
:100B9000000E2C23010E2B25016E000E2C21036E5E
:100BA00001C0E9FF040E0324EA6E27C1EFFF2951BB
:100BB000020817E12651080DF3502C6B2B6F040E21
:100BC0002B27000E2C232BC1E9FF040E2C25EA6EE7
:100BD000EFCF2AF12AAD02D0296B02D0010E296F86
:100BE00013D02951040810E12651080DF3502C6B45
:100BF000E96E040E2C25EA6EEFCF2AF12AAD03D060
:100C0000010E296F01D0296B292D03D0480E2A6FC0
:100C100002D0080E2A6F2651080DF3502C6B2B6F53
:100C2000040E2B27000E2C232BC1E9FF040E2C25CC
:100C3000EA6E2AC1EFFF2651080DF3502C6B2B6F83
:100C4000040E2B27000E2C232BC1E9FF040E2C25AC
:100C5000EA6EEF508009EF6E010E016E04D00001C4
:100C6000000E016E0101000112000101265300E196
:100C70000001120027C16EFF0101275303E0040E9B
:100C8000256E02D0020E256E00014CEF06F0216A9F
:100C9000206A27C027F1EED75DEF06F00101265349
:100CA0000DE1202C05D00001D3EC01F006D00101AC
:100CB0002050020803E10001EAD7010100011200FF
:100CC00024300101246F243324331F0E24172452AF
:100CD0004EE1040100513C0B0101256F430E04015C
:100CE000001701012551340825E104010451800B4E
:100CF00001E0046B0001A0D66D98263C07D00101ED
:100D0000266B030E276F0001B0DE12D00101266BA7
:100D1000020E276F0001A9DE2650FE0809E001013E
:100D2000266B286B26C027F1040E296F000122DFF5
:100D30001CD001012551040819E1266B000195DF43
:100D40000101266B020E276F00018FDE2650FE0880
:100D50000CE0263C01D009D00101266B286B26C08F
:100D600027F1010E296F000105DF010122D0245077
:100D7000040812E12668266B000190DF263C01D0B2
:100D800009D00101266B286B26C027F1020E296FBE
:100D90000001F0DE0DD0010124B406D024C126F1FB
:100DA000000163DF05D0010124C126F1000176DFD7
:100DB000010100010FEF07F0A19A2552D8B439D0F4
:100DC0006852D8B436D068A403D069B4FFEF00F0FD
:100DD0006DB22FD068AA03D069BA1DEF01F068A2E6
:100DE00003D069B224EF01F068A003D069B09FEF8F
:100DF00001F068A803D069B8B7EF01F068AC03D080
:100E000069BCBCEF01F00101236B68A60AD069A69A
:100E100008D06CCF24F0000102EC00F051D703D0D1
:100E2000010106D0000101012351232B0308EDE24B
:100E300000013CEF00F06D656E75206163746976AA
:100E4000617465640A000C000C004D454E5520503D
:100E500052494E434950414C0000312D4C415641BE
:100E60005200322D434542415200332D41474954EF
:100E7000415200000C004D454E55204C4156415208
:100E80000000312D53656C656320506172616D65A2
:100E900074726F730000322D4C61766172000C0029
:100EA0004D454E552043454241520000312D4D2FB6
:100EB00063656261646F3A00322D542F636562612D
:100EC000646F3A00332D43656261723A00000C0092
:100ED0004D454E552041474954415200312D496EF0
:100EE00074656E73696461643A00322D542F6167D2
:100EF00069746163696F6E3A0000332D41676974EC
:100F0000617200000C004D454E552050524F475223
:100F1000414D41520000312D437265617200322D06
:100F20004564697461720000332D426F72726172A0
:100F300000000C00462F6C617661646F3A00542FFC
:100F4000656E6A75616775653A0043616E742F63FB
:100F500069636C6F733A00004C6176616E646F2E4A
:100F60002E2E0000542F4C617661646F3A000C0005
:100F7000312D4E6F6D6272652F50726F6772616DA9
:100F80006100322D466F726D61746F2F4C61766116
:100F9000646F0000332D566F6C756D656E2F44695C
:100FA0007370656E73617200342D5469656D702FB6
:100FB000456E6A75616775650000352D43616E7415
:100FC0002F4369636C6F7300362D5469706F2F4126
:100FD00073706972616369F36E3A0000736567004C
:100FE000322A3250EF0802E1302A326A30503C088F
:100FF00002E1312A306AFE0ED76E0C0ED66EF294E4
:101000003CEF00F0010EEA6E230EE96EEF500EE0A9
:10101000010E016E006A002EFED7012EFBD74A0E8C
:10102000006E002EFED700D0EF2EF2D71200819076
:101030008182818481868150EE0804E1310E0101B4
:10104000236F00018150DE0804E1340E0101236F9B
:1010500000018150BE0804E1370E0101236F000139
:1010600081507E0804E12A0E0101236F0001818076
:101070008192818481868150ED0804E1320E010164
:10108000236F00018150DD0804E1350E0101236F5B
:1010900000018150BD0804E1380E0101236F0001F9
:1010A00081507D0804E1300E0101236F0001818031
:1010B0008182819481868150EB0804E1330E010125
:1010C000236F00018150DB0804E1360E0101236F1C
:1010D00000018150BB0804E1390E0101236F0001BA
:1010E00081507B0804E1230E0101236F0001818000
:1010F0008182818481968150E70804E1410E0101DB
:10110000236F00018150D70804E1420E0101236FD3
:1011100000018150B70804E1430E0101236F000173
:101120008150770804E1440E0101236F000181968C
:10113000819481928190010123C101F0000112008C
:101140000F0E0101236F00015DDF81A806D081AA87
:1011500004D081AC02D081BE07D069DF01C02FF07E
:101160008196819481928190F2903CEF00F03C5501
:101170004D454C4953413E003C4D6963454C4953F4
:10118000413E00003C554D454C4953413E003C4DCD
:101190006963454C4953413E00003C554D454C491F
:1011A00053413E003C4D6963454C4953413E00006C
:1011B000256453656720000043415247414E444F28
:1011C0002053495354454D4100002E000C00424924
:1011D000454E56454E49444F2E2E2E004D572D322A
:1011E0003030310056657273696F6E2042657461EC
:1011F00000000C00080E016E00008B9C949C000007
:10120000010122378B9ED8B0948ED8A0949E948CE6
:1012100082ACFED7012E01D002D00001EDD7000034
:101220008B9C949C0000948E00000000948C82ACF7
:10123000FED7016A000082BE01808B9C949C8B9E2D
:10124000949E0001120001012051000A000103E0F8
:10125000010A27E04DD001011F39006EF00E001683
:1012600000501E10216F226F0001C4DF0000010139
:101270001F39006EF00E0016005004091E10216F79
:10128000226F0001B7DF00D001011F39006EF00EA0
:1012900000160050FB0B1E10216F226F0001AADF09
:1012A00027D001011F39006EF00E00160050010911
:1012B0001E10216F226F00019DDF000001011F3908
:1012C000006EF00E00160050010904091E10216F77
:1012D000226F00018FDF00D001011F39006EF00E78
:1012E0000016005001091E10216F226F000182DFDD
:1012F0001200948E0000948C00008B9E949E00003F
:101300008B9C949C1AC022F175DF01011C391E6F61
:101310000F0E1E171EC11FF11DC120F1000193DF2A
:1013200001011C510F0B1E6F1F6F1DC120F1000129
:101330008ADF949E0000948C82ACFED7000000D01F
:101340000000948E00001200010E01011C6F1D6B45
:101350000001CFDF196AF2BE198EF29E020E010162
:10136000236F00014FDE19BEF28E010E1D6E1200BA
:1013700007C11AF009C11BF008C11CF0F29CF29ED3
:10138000F2BEFDD7196AF2BE198EF29E320E01012D
:10139000236F000137DE19BEF28E948E0000948C0C
:1013A00000008B9E949E00008B9C949C1AC022F19E
:1013B00021DF01011F6B206B000145DF196AF2BEBE
:1013C000198EF29E0F0E0101236F00011BDE19BE64
:1013D000F28E010E01010A6F0A51030813E3030E96
:1013E0001F6F206B00012FDF196AF2BE198EF29E6B
:1013F000050E0101236F000105DE19BEF28E010109
:101400000A2BEAD7020E1F6F206B00011CDF196A3E
:10141000F2BE198EF29E050E0101236F0001F2DD6E
:1014200019BEF28E949E0000948C82ACFED7000010
:1014300000D00000948E000001010A6B0A510308DD
:1014400019E3036A0A51000163EC00F001010B6F1C
:101450001C6F1D6B00014DDF196AF2BE198EF29EE2
:10146000050E0101236F0001CDDD19BEF28E0101D1
:101470000A2BE4D7000168DFC00EF21293EF0CF0E4
:101480000101075303E0080E1E6E01D01E6A000121
:1014900098EF0CF0010116511B5C03E21BC017F121
:1014A00002D016C117F11751010A000107E0030A23
:1014B00008E0010A0AE0070A0CE00FD00101196BED
:1014C0000ED0400E0101196F0AD0140E0101196FE0
:1014D00006D0540E0101196F02D00101196B15518C
:1014E0001C5C03E21CC018F102D015C118F1010EFA
:1014F000185D19251A6F1A5180091B6F1C6F1D6B1F
:101500000001F7DE1200010114510C0A000105E090
:10151000060A05E0020A11E017D016DF1CD01D2ACA
:101520001D501B5C02E2010E1D6E010E0101156FC4
:101530001DC016F10001AEDF0ED0100E01011C6FB0
:101540001D6B0001D6DE07D014C11CF1010E010194
:101550001D6F0001CEDE12000900F5520CE0F6CF3F
:1015600010F1F7CF11F1F5CF14F1CDDF10C1F6FF77
:1015700011C1F7FFF1D712000E0E01010725E96E28
:10158000000E0821EA6EEF6A0C0E0725E96E000EC8
:101590000821EA6EEC6AED52EF6A110E0725E96E3A
:1015A000000E0821EA6EEF6A0F0E0725E96E000EA5
:1015B0000821EA6EEC6AED52EF6A07C1E9FF08C143
:1015C000EAFF0AC1ECFFED5209C1EFFF0001120072
:1015D0000E0E01010725E96E000E0821EA6EEF509C
:1015E0006308D8A02ED00E0E0725E96E000E082144
:1015F000EA6E036AEFCF02F0D8900236033602504B
:10160000020F016E000E032201500725E96E0851FA
:101610000320EA6E0AC1ECFFED5209C1EFFF0E0E86
:101620000725E96E000E0821EA6EEF2A0C0E092547
:10163000E96E000E0A21EA6E08C1ECFFED5207C107
:10164000EFFF00011200EF520FE0EACF13F1E9CFF4
:1016500012F1EFCF14F157DF13C1EAFF12C1E9FF16
:10166000E92AD8B4EA2AEFD71200460EF66E0E0E1B
:10167000F76E72DF030E0101156F010E166F000188
:1016800009DF01010BC1E9FF0CC1EAFFECCF11F149
:10169000ED52EFCF10F111C1EAFF10C1E9FF0001D7
:1016A000D2DF01010D6B0E0E0B25E96E000E0C2131
:1016B000EA6EEF500D5D32E2036A0DC102F0D89080
:1016C000023603360250020F016E000E0322015053
:1016D0000B25E96E0C510320EA6EECCF0FF1ED52B1
:1016E000EFCF0EF1020E0D25106F020E156F10C117
:1016F00016F10001CFDE01010EC1E9FF0FC1EAFFC3
:10170000ECCF11F1ED52EFCF10F111C1EAFF10C192
:10171000E9FF000198DF01010D2BC5D7000120EF83
:101720000CF0196AF2BE198EF29E81DC19BEF28E9F
:1017300001C00DF101010D53D8A402D00001F1D771
:101740000DC101F00001A6EF0BF0EBD701C02FF0A7
:101750002F50310A07E0030A1CE0010A31E0070AB2
:1017600046E05DD00E0E01010B25E96E000E0C2146
:10177000EA6EEF5000080CE2020E0B25E96E000E37
:101780000C21EA6EEFCF01F0EE52EDCF02F04CD01B
:101790004BD00E0E01010B25E96E000E0C21EA6EF6
:1017A000EF5001080CE2040E0B25E96E000E0C212F
:1017B000EA6EEFCF01F0EE52EDCF02F035D034D02B
:1017C0000E0E01010B25E96E000E0C21EA6EEF50A2
:1017D00002080CE2060E0B25E96E000E0C21EA6EE3
:1017E000EFCF01F0EE52EDCF02F01ED01DD00E0E65
:1017F00001010B25E96E000E0C21EA6EEF50030883
:101800000CE2080E0B25E96E000E0C21EA6EEFCFFC
:1018100001F0EE52EDCF02F007D006D00001010139
:101820000BC101F00CC102F0000125EF0CF008C162
:101830000AF107C109F10AC10CF109C10BF115D771
:101840000AC10CF109C10BF180D702C00AF101C035
:1018500009F1F1D775EF0DF0F86AD09E078E010EF1
:101860001D6E080E1E6E306A316A010E326E336EC6
:10187000346E356A366A376A386A396A756B746BE2
:10188000C150C00B0F09C16E070EB46E24D0010009
:101890001F0002002D00003A003A4D61696E204D94
:1018A000656E750057617368005368616B65005021
:1018B00072696D6500496E6E6572205761736800CC
:1018C00053656C65637420506172616D73005731AC
:1018D000005732000000000EF86E180EF76E8E0EE4
:1018E000F66E0900F550006E000A13E00900F5508D
:1018F000016EE8BE05D03F0BEA6E0900F5CFE9FFA7
:1019000001BC090001AC0900F5CFEEFF004EE9D79C
:10191000F9D7F86A4E0E0101076F140E086F040E16
:10192000096F000125D5010E0101076F0001A8D53F
:10193000F00E936E8196819481928190F19EF28651
:10194000C00EF212030E0101156F020E166F000198
:10195000A1DDB80EF66E110EF76EFEDD030E766F8A
:10196000765112080EE376C015F1030E0101166FD1
:10197000000190DDCA0EF66E110EF76EEDDD762BCE
:10198000EFD7CC0EF66E110EF76EE6DDCE0EF66ECC
:10199000110EF76EE1DD010E0101156F020E166FDB
:1019A000000178DDDC0EF66E110EF76ED5DD010E4E
:1019B0000101156F030E166F00016CDDE40EF66E6B
:1019C000110EF76EC9DDF20EF66E110EF76EC4DD64
:1019D0000101086B770E076F0A6B3A0E096F000161
:1019E000CBDD0101086B890E076F0A6B440E096F8E
:1019F0000001C2DD0101086B9B0E076F0A6B4F0EE1
:101A0000096F0001B9DD0101086BAD0E076F0A6BAC
:101A1000490E096F0001B0DD0101086BBF0E076FB1
:101A20000A6B550E096F0001A7DD0101086BD10E8D
:101A3000076F0A6B600E096F00019EDD0101086BE4
:101A4000E30E076F0A6B6E0E096F000195DD010151
:101A5000086BF50E076F0A6B710E096F00018CDDC4
:101A60000101086B770E076F0A6B890E096F000181
:101A7000AFDD0101086B770E076F0A6B9B0E096FD4
:101A80000001A6DD0101086B770E076F0A6BAD0E32
:101A9000096F00019DDD0101086B890E076F0A6B5C
:101AA000BF0E096F000194DD0101086B890E076FFD
:101AB0000A6BD10E096F00018BDD0101086BBF0EAF
:101AC000076F0A6BE30E096F000182DD0101086BED
:101AD000BF0E076F0A6BF50E096F000179DD01017A
:0C1AE000086B770E076F0001A2D6030010
:087FC80004030904080343004F
:107FD000430053001A0343004300530020004800AD
:107FE000490044002000440065006D006F0012034A
:107FF00031003200330034003500360037003800DD
:020000040030CA
:0E0000003FCC271E0087A1000FC00FE00F406D
:00000001FF
;PIC18F4550
;CRC=CBAE  CREATED="26-Oct-22 13:08"
